{
	"src/EduRewardToken.sol": {
		"EduRewardToken": {
			"abi": [
				{
					"inputs": [
						{
							"internalType": "address",
							"name": "admin",
							"type": "address"
						},
						{
							"internalType": "uint256",
							"name": "initialSupply",
							"type": "uint256"
						}
					],
					"stateMutability": "nonpayable",
					"type": "constructor"
				},
				{
					"inputs": [],
					"name": "AccessControlBadConfirmation",
					"type": "error"
				},
				{
					"inputs": [
						{
							"internalType": "address",
							"name": "account",
							"type": "address"
						},
						{
							"internalType": "bytes32",
							"name": "neededRole",
							"type": "bytes32"
						}
					],
					"name": "AccessControlUnauthorizedAccount",
					"type": "error"
				},
				{
					"inputs": [
						{
							"internalType": "address",
							"name": "spender",
							"type": "address"
						},
						{
							"internalType": "uint256",
							"name": "allowance",
							"type": "uint256"
						},
						{
							"internalType": "uint256",
							"name": "needed",
							"type": "uint256"
						}
					],
					"name": "ERC20InsufficientAllowance",
					"type": "error"
				},
				{
					"inputs": [
						{
							"internalType": "address",
							"name": "sender",
							"type": "address"
						},
						{
							"internalType": "uint256",
							"name": "balance",
							"type": "uint256"
						},
						{
							"internalType": "uint256",
							"name": "needed",
							"type": "uint256"
						}
					],
					"name": "ERC20InsufficientBalance",
					"type": "error"
				},
				{
					"inputs": [
						{
							"internalType": "address",
							"name": "approver",
							"type": "address"
						}
					],
					"name": "ERC20InvalidApprover",
					"type": "error"
				},
				{
					"inputs": [
						{
							"internalType": "address",
							"name": "receiver",
							"type": "address"
						}
					],
					"name": "ERC20InvalidReceiver",
					"type": "error"
				},
				{
					"inputs": [
						{
							"internalType": "address",
							"name": "sender",
							"type": "address"
						}
					],
					"name": "ERC20InvalidSender",
					"type": "error"
				},
				{
					"inputs": [
						{
							"internalType": "address",
							"name": "spender",
							"type": "address"
						}
					],
					"name": "ERC20InvalidSpender",
					"type": "error"
				},
				{
					"anonymous": false,
					"inputs": [
						{
							"indexed": true,
							"internalType": "address",
							"name": "owner",
							"type": "address"
						},
						{
							"indexed": true,
							"internalType": "address",
							"name": "spender",
							"type": "address"
						},
						{
							"indexed": false,
							"internalType": "uint256",
							"name": "value",
							"type": "uint256"
						}
					],
					"name": "Approval",
					"type": "event"
				},
				{
					"anonymous": false,
					"inputs": [
						{
							"indexed": true,
							"internalType": "bytes32",
							"name": "role",
							"type": "bytes32"
						},
						{
							"indexed": true,
							"internalType": "bytes32",
							"name": "previousAdminRole",
							"type": "bytes32"
						},
						{
							"indexed": true,
							"internalType": "bytes32",
							"name": "newAdminRole",
							"type": "bytes32"
						}
					],
					"name": "RoleAdminChanged",
					"type": "event"
				},
				{
					"anonymous": false,
					"inputs": [
						{
							"indexed": true,
							"internalType": "bytes32",
							"name": "role",
							"type": "bytes32"
						},
						{
							"indexed": true,
							"internalType": "address",
							"name": "account",
							"type": "address"
						},
						{
							"indexed": true,
							"internalType": "address",
							"name": "sender",
							"type": "address"
						}
					],
					"name": "RoleGranted",
					"type": "event"
				},
				{
					"anonymous": false,
					"inputs": [
						{
							"indexed": true,
							"internalType": "bytes32",
							"name": "role",
							"type": "bytes32"
						},
						{
							"indexed": true,
							"internalType": "address",
							"name": "account",
							"type": "address"
						},
						{
							"indexed": true,
							"internalType": "address",
							"name": "sender",
							"type": "address"
						}
					],
					"name": "RoleRevoked",
					"type": "event"
				},
				{
					"anonymous": false,
					"inputs": [
						{
							"indexed": true,
							"internalType": "address",
							"name": "from",
							"type": "address"
						},
						{
							"indexed": true,
							"internalType": "address",
							"name": "to",
							"type": "address"
						},
						{
							"indexed": false,
							"internalType": "uint256",
							"name": "value",
							"type": "uint256"
						}
					],
					"name": "Transfer",
					"type": "event"
				},
				{
					"inputs": [],
					"name": "DEFAULT_ADMIN_ROLE",
					"outputs": [
						{
							"internalType": "bytes32",
							"name": "",
							"type": "bytes32"
						}
					],
					"stateMutability": "view",
					"type": "function"
				},
				{
					"inputs": [],
					"name": "MINTER_ROLE",
					"outputs": [
						{
							"internalType": "bytes32",
							"name": "",
							"type": "bytes32"
						}
					],
					"stateMutability": "view",
					"type": "function"
				},
				{
					"inputs": [
						{
							"internalType": "address",
							"name": "owner",
							"type": "address"
						},
						{
							"internalType": "address",
							"name": "spender",
							"type": "address"
						}
					],
					"name": "allowance",
					"outputs": [
						{
							"internalType": "uint256",
							"name": "",
							"type": "uint256"
						}
					],
					"stateMutability": "view",
					"type": "function"
				},
				{
					"inputs": [
						{
							"internalType": "address",
							"name": "spender",
							"type": "address"
						},
						{
							"internalType": "uint256",
							"name": "value",
							"type": "uint256"
						}
					],
					"name": "approve",
					"outputs": [
						{
							"internalType": "bool",
							"name": "",
							"type": "bool"
						}
					],
					"stateMutability": "nonpayable",
					"type": "function"
				},
				{
					"inputs": [
						{
							"internalType": "address",
							"name": "account",
							"type": "address"
						}
					],
					"name": "balanceOf",
					"outputs": [
						{
							"internalType": "uint256",
							"name": "",
							"type": "uint256"
						}
					],
					"stateMutability": "view",
					"type": "function"
				},
				{
					"inputs": [
						{
							"internalType": "uint256",
							"name": "value",
							"type": "uint256"
						}
					],
					"name": "burn",
					"outputs": [],
					"stateMutability": "nonpayable",
					"type": "function"
				},
				{
					"inputs": [
						{
							"internalType": "address",
							"name": "account",
							"type": "address"
						},
						{
							"internalType": "uint256",
							"name": "value",
							"type": "uint256"
						}
					],
					"name": "burnFrom",
					"outputs": [],
					"stateMutability": "nonpayable",
					"type": "function"
				},
				{
					"inputs": [],
					"name": "decimals",
					"outputs": [
						{
							"internalType": "uint8",
							"name": "",
							"type": "uint8"
						}
					],
					"stateMutability": "view",
					"type": "function"
				},
				{
					"inputs": [
						{
							"internalType": "bytes32",
							"name": "role",
							"type": "bytes32"
						}
					],
					"name": "getRoleAdmin",
					"outputs": [
						{
							"internalType": "bytes32",
							"name": "",
							"type": "bytes32"
						}
					],
					"stateMutability": "view",
					"type": "function"
				},
				{
					"inputs": [
						{
							"internalType": "bytes32",
							"name": "role",
							"type": "bytes32"
						},
						{
							"internalType": "address",
							"name": "account",
							"type": "address"
						}
					],
					"name": "grantRole",
					"outputs": [],
					"stateMutability": "nonpayable",
					"type": "function"
				},
				{
					"inputs": [
						{
							"internalType": "bytes32",
							"name": "role",
							"type": "bytes32"
						},
						{
							"internalType": "address",
							"name": "account",
							"type": "address"
						}
					],
					"name": "hasRole",
					"outputs": [
						{
							"internalType": "bool",
							"name": "",
							"type": "bool"
						}
					],
					"stateMutability": "view",
					"type": "function"
				},
				{
					"inputs": [
						{
							"internalType": "address",
							"name": "to",
							"type": "address"
						},
						{
							"internalType": "uint256",
							"name": "amount",
							"type": "uint256"
						}
					],
					"name": "mint",
					"outputs": [],
					"stateMutability": "nonpayable",
					"type": "function"
				},
				{
					"inputs": [],
					"name": "name",
					"outputs": [
						{
							"internalType": "string",
							"name": "",
							"type": "string"
						}
					],
					"stateMutability": "view",
					"type": "function"
				},
				{
					"inputs": [
						{
							"internalType": "bytes32",
							"name": "role",
							"type": "bytes32"
						},
						{
							"internalType": "address",
							"name": "callerConfirmation",
							"type": "address"
						}
					],
					"name": "renounceRole",
					"outputs": [],
					"stateMutability": "nonpayable",
					"type": "function"
				},
				{
					"inputs": [
						{
							"internalType": "bytes32",
							"name": "role",
							"type": "bytes32"
						},
						{
							"internalType": "address",
							"name": "account",
							"type": "address"
						}
					],
					"name": "revokeRole",
					"outputs": [],
					"stateMutability": "nonpayable",
					"type": "function"
				},
				{
					"inputs": [
						{
							"internalType": "bytes4",
							"name": "interfaceId",
							"type": "bytes4"
						}
					],
					"name": "supportsInterface",
					"outputs": [
						{
							"internalType": "bool",
							"name": "",
							"type": "bool"
						}
					],
					"stateMutability": "view",
					"type": "function"
				},
				{
					"inputs": [],
					"name": "symbol",
					"outputs": [
						{
							"internalType": "string",
							"name": "",
							"type": "string"
						}
					],
					"stateMutability": "view",
					"type": "function"
				},
				{
					"inputs": [],
					"name": "totalSupply",
					"outputs": [
						{
							"internalType": "uint256",
							"name": "",
							"type": "uint256"
						}
					],
					"stateMutability": "view",
					"type": "function"
				},
				{
					"inputs": [
						{
							"internalType": "address",
							"name": "to",
							"type": "address"
						},
						{
							"internalType": "uint256",
							"name": "value",
							"type": "uint256"
						}
					],
					"name": "transfer",
					"outputs": [
						{
							"internalType": "bool",
							"name": "",
							"type": "bool"
						}
					],
					"stateMutability": "nonpayable",
					"type": "function"
				},
				{
					"inputs": [
						{
							"internalType": "address",
							"name": "from",
							"type": "address"
						},
						{
							"internalType": "address",
							"name": "to",
							"type": "address"
						},
						{
							"internalType": "uint256",
							"name": "value",
							"type": "uint256"
						}
					],
					"name": "transferFrom",
					"outputs": [
						{
							"internalType": "bool",
							"name": "",
							"type": "bool"
						}
					],
					"stateMutability": "nonpayable",
					"type": "function"
				}
			],
			"devdoc": {
				"errors": {
					"AccessControlBadConfirmation()": [
						{
							"details": "The caller of a function is not the expected one. NOTE: Don't confuse with {AccessControlUnauthorizedAccount}."
						}
					],
					"AccessControlUnauthorizedAccount(address,bytes32)": [
						{
							"details": "The `account` is missing a role."
						}
					],
					"ERC20InsufficientAllowance(address,uint256,uint256)": [
						{
							"details": "Indicates a failure with the `spender`’s `allowance`. Used in transfers.",
							"params": {
								"allowance": "Amount of tokens a `spender` is allowed to operate with.",
								"needed": "Minimum amount required to perform a transfer.",
								"spender": "Address that may be allowed to operate on tokens without being their owner."
							}
						}
					],
					"ERC20InsufficientBalance(address,uint256,uint256)": [
						{
							"details": "Indicates an error related to the current `balance` of a `sender`. Used in transfers.",
							"params": {
								"balance": "Current balance for the interacting account.",
								"needed": "Minimum amount required to perform a transfer.",
								"sender": "Address whose tokens are being transferred."
							}
						}
					],
					"ERC20InvalidApprover(address)": [
						{
							"details": "Indicates a failure with the `approver` of a token to be approved. Used in approvals.",
							"params": {
								"approver": "Address initiating an approval operation."
							}
						}
					],
					"ERC20InvalidReceiver(address)": [
						{
							"details": "Indicates a failure with the token `receiver`. Used in transfers.",
							"params": {
								"receiver": "Address to which tokens are being transferred."
							}
						}
					],
					"ERC20InvalidSender(address)": [
						{
							"details": "Indicates a failure with the token `sender`. Used in transfers.",
							"params": {
								"sender": "Address whose tokens are being transferred."
							}
						}
					],
					"ERC20InvalidSpender(address)": [
						{
							"details": "Indicates a failure with the `spender` to be approved. Used in approvals.",
							"params": {
								"spender": "Address that may be allowed to operate on tokens without being their owner."
							}
						}
					]
				},
				"events": {
					"Approval(address,address,uint256)": {
						"details": "Emitted when the allowance of a `spender` for an `owner` is set by a call to {approve}. `value` is the new allowance."
					},
					"RoleAdminChanged(bytes32,bytes32,bytes32)": {
						"details": "Emitted when `newAdminRole` is set as ``role``'s admin role, replacing `previousAdminRole` `DEFAULT_ADMIN_ROLE` is the starting admin for all roles, despite {RoleAdminChanged} not being emitted to signal this."
					},
					"RoleGranted(bytes32,address,address)": {
						"details": "Emitted when `account` is granted `role`. `sender` is the account that originated the contract call. This account bears the admin role (for the granted role). Expected in cases where the role was granted using the internal {AccessControl-_grantRole}."
					},
					"RoleRevoked(bytes32,address,address)": {
						"details": "Emitted when `account` is revoked `role`. `sender` is the account that originated the contract call:   - if using `revokeRole`, it is the admin role bearer   - if using `renounceRole`, it is the role bearer (i.e. `account`)"
					},
					"Transfer(address,address,uint256)": {
						"details": "Emitted when `value` tokens are moved from one account (`from`) to another (`to`). Note that `value` may be zero."
					}
				},
				"kind": "dev",
				"methods": {
					"allowance(address,address)": {
						"details": "Returns the remaining number of tokens that `spender` will be allowed to spend on behalf of `owner` through {transferFrom}. This is zero by default. This value changes when {approve} or {transferFrom} are called."
					},
					"approve(address,uint256)": {
						"details": "See {IERC20-approve}. NOTE: If `value` is the maximum `uint256`, the allowance is not updated on `transferFrom`. This is semantically equivalent to an infinite approval. Requirements: - `spender` cannot be the zero address."
					},
					"balanceOf(address)": {
						"details": "Returns the value of tokens owned by `account`."
					},
					"burn(uint256)": {
						"details": "Destroys a `value` amount of tokens from the caller. See {ERC20-_burn}."
					},
					"burnFrom(address,uint256)": {
						"details": "Destroys a `value` amount of tokens from `account`, deducting from the caller's allowance. See {ERC20-_burn} and {ERC20-allowance}. Requirements: - the caller must have allowance for ``accounts``'s tokens of at least `value`."
					},
					"constructor": {
						"params": {
							"admin": "The address that will receive DEFAULT_ADMIN_ROLE and MINTER_ROLE.",
							"initialSupply": "The amount of tokens to mint to the admin at deployment (18 decimals)."
						}
					},
					"decimals()": {
						"details": "Returns the number of decimals used to get its user representation. For example, if `decimals` equals `2`, a balance of `505` tokens should be displayed to a user as `5.05` (`505 / 10 ** 2`). Tokens usually opt for a value of 18, imitating the relationship between Ether and Wei. This is the default value returned by this function, unless it's overridden. NOTE: This information is only used for _display_ purposes: it in no way affects any of the arithmetic of the contract, including {IERC20-balanceOf} and {IERC20-transfer}."
					},
					"getRoleAdmin(bytes32)": {
						"details": "Returns the admin role that controls `role`. See {grantRole} and {revokeRole}. To change a role's admin, use {_setRoleAdmin}."
					},
					"grantRole(bytes32,address)": {
						"details": "Grants `role` to `account`. If `account` had not been already granted `role`, emits a {RoleGranted} event. Requirements: - the caller must have ``role``'s admin role. May emit a {RoleGranted} event."
					},
					"hasRole(bytes32,address)": {
						"details": "Returns `true` if `account` has been granted `role`."
					},
					"mint(address,uint256)": {
						"details": "Callable only by accounts with MINTER_ROLE.",
						"params": {
							"amount": "Token amount to mint (18 decimals).",
							"to": "Recipient address."
						}
					},
					"name()": {
						"details": "Returns the name of the token."
					},
					"renounceRole(bytes32,address)": {
						"details": "Revokes `role` from the calling account. Roles are often managed via {grantRole} and {revokeRole}: this function's purpose is to provide a mechanism for accounts to lose their privileges if they are compromised (such as when a trusted device is misplaced). If the calling account had been revoked `role`, emits a {RoleRevoked} event. Requirements: - the caller must be `callerConfirmation`. May emit a {RoleRevoked} event."
					},
					"revokeRole(bytes32,address)": {
						"details": "Revokes `role` from `account`. If `account` had been granted `role`, emits a {RoleRevoked} event. Requirements: - the caller must have ``role``'s admin role. May emit a {RoleRevoked} event."
					},
					"supportsInterface(bytes4)": {
						"details": "Returns true if this contract implements the interface defined by `interfaceId`. See the corresponding https://eips.ethereum.org/EIPS/eip-165#how-interfaces-are-identified[ERC section] to learn more about how these ids are created. This function call must use less than 30 000 gas."
					},
					"symbol()": {
						"details": "Returns the symbol of the token, usually a shorter version of the name."
					},
					"totalSupply()": {
						"details": "Returns the value of tokens in existence."
					},
					"transfer(address,uint256)": {
						"details": "See {IERC20-transfer}. Requirements: - `to` cannot be the zero address. - the caller must have a balance of at least `value`."
					},
					"transferFrom(address,address,uint256)": {
						"details": "See {IERC20-transferFrom}. Skips emitting an {Approval} event indicating an allowance update. This is not required by the ERC. See {xref-ERC20-_approve-address-address-uint256-bool-}[_approve]. NOTE: Does not update the allowance if the current allowance is the maximum `uint256`. Requirements: - `from` and `to` cannot be the zero address. - `from` must have a balance of at least `value`. - the caller must have allowance for ``from``'s tokens of at least `value`."
					}
				},
				"title": "EduRewardToken",
				"version": 1
			},
			"evm": {
				"assembly": "    /* \"src/EduRewardToken.sol\":535:1455  contract EduRewardToken is ERC20, ERC20Burnable, AccessControl {... */\n  mstore(0x40, 0x80)\n    /* \"src/EduRewardToken.sol\":874:1128  constructor(address admin, uint256 initialSupply) ERC20(\"EduReward\", \"RWD\") {... */\n  callvalue\n  dup1\n  iszero\n  tag_1\n  jumpi\n  revert(0x00, 0x00)\ntag_1:\n  pop\n  mload(0x40)\n  sub(codesize, bytecodeSize)\n  dup1\n  bytecodeSize\n  dup4\n  codecopy\n  dup2\n  dup2\n  add\n  0x40\n  mstore\n  dup2\n  add\n  swap1\n  tag_2\n  swap2\n  swap1\n  tag_3\n  jump\t// in\ntag_2:\n    /* \"dependencies/@openzeppelin-contracts-5.5.0/token/ERC20/ERC20.sol\":1582:1695  constructor(string memory name_, string memory symbol_) {... */\n  mload(0x40)\n  dup1\n  0x40\n  add\n  0x40\n  mstore\n  dup1\n  0x09\n  dup2\n  mstore\n  0x20\n  add\n  0x4564755265776172640000000000000000000000000000000000000000000000\n  dup2\n  mstore\n  pop\n  mload(0x40)\n  dup1\n  0x40\n  add\n  0x40\n  mstore\n  dup1\n  0x03\n  dup2\n  mstore\n  0x20\n  add\n  0x5257440000000000000000000000000000000000000000000000000000000000\n  dup2\n  mstore\n  pop\n    /* \"dependencies/@openzeppelin-contracts-5.5.0/token/ERC20/ERC20.sol\":1656:1661  name_ */\n  dup2\n    /* \"dependencies/@openzeppelin-contracts-5.5.0/token/ERC20/ERC20.sol\":1648:1653  _name */\n  0x03\n    /* \"dependencies/@openzeppelin-contracts-5.5.0/token/ERC20/ERC20.sol\":1648:1661  _name = name_ */\n  swap1\n  dup2\n  tag_7\n  swap2\n  swap1\n  tag_8\n  jump\t// in\ntag_7:\n  pop\n    /* \"dependencies/@openzeppelin-contracts-5.5.0/token/ERC20/ERC20.sol\":1681:1688  symbol_ */\n  dup1\n    /* \"dependencies/@openzeppelin-contracts-5.5.0/token/ERC20/ERC20.sol\":1671:1678  _symbol */\n  0x04\n    /* \"dependencies/@openzeppelin-contracts-5.5.0/token/ERC20/ERC20.sol\":1671:1688  _symbol = symbol_ */\n  swap1\n  dup2\n  tag_9\n  swap2\n  swap1\n  tag_8\n  jump\t// in\ntag_9:\n  pop\n    /* \"dependencies/@openzeppelin-contracts-5.5.0/token/ERC20/ERC20.sol\":1582:1695  constructor(string memory name_, string memory symbol_) {... */\n  pop\n  pop\n    /* \"src/EduRewardToken.sol\":960:997  _grantRole(DEFAULT_ADMIN_ROLE, admin) */\n  tag_11\n    /* \"dependencies/@openzeppelin-contracts-5.5.0/access/AccessControl.sol\":2241:2245  0x00 */\n  0x00\n    /* \"src/EduRewardToken.sol\":971:989  DEFAULT_ADMIN_ROLE */\n  0x00\n  shl\n    /* \"src/EduRewardToken.sol\":991:996  admin */\n  dup4\n    /* \"src/EduRewardToken.sol\":960:970  _grantRole */\n  shl(0x20, tag_12)\n    /* \"src/EduRewardToken.sol\":960:997  _grantRole(DEFAULT_ADMIN_ROLE, admin) */\n  0x20\n  shr\n  jump\t// in\ntag_11:\n  pop\n    /* \"src/EduRewardToken.sol\":1007:1037  _grantRole(MINTER_ROLE, admin) */\n  tag_13\n    /* \"src/EduRewardToken.sol\":642:666  keccak256(\"MINTER_ROLE\") */\n  0x9f2df0fed2c77648de5860a4cc508cd0818c85b8b8a1ab4ceeef8d981c8956a6\n    /* \"src/EduRewardToken.sol\":1031:1036  admin */\n  dup4\n    /* \"src/EduRewardToken.sol\":1007:1017  _grantRole */\n  shl(0x20, tag_12)\n    /* \"src/EduRewardToken.sol\":1007:1037  _grantRole(MINTER_ROLE, admin) */\n  0x20\n  shr\n  jump\t// in\ntag_13:\n  pop\n    /* \"src/EduRewardToken.sol\":1067:1068  0 */\n  0x00\n    /* \"src/EduRewardToken.sol\":1051:1064  initialSupply */\n  dup2\n    /* \"src/EduRewardToken.sol\":1051:1068  initialSupply > 0 */\n  gt\n    /* \"src/EduRewardToken.sol\":1047:1122  if (initialSupply > 0) {... */\n  iszero\n  tag_14\n  jumpi\n    /* \"src/EduRewardToken.sol\":1084:1111  _mint(admin, initialSupply) */\n  tag_15\n    /* \"src/EduRewardToken.sol\":1090:1095  admin */\n  dup3\n    /* \"src/EduRewardToken.sol\":1097:1110  initialSupply */\n  dup3\n    /* \"src/EduRewardToken.sol\":1084:1089  _mint */\n  shl(0x20, tag_16)\n    /* \"src/EduRewardToken.sol\":1084:1111  _mint(admin, initialSupply) */\n  0x20\n  shr\n  jump\t// in\ntag_15:\n    /* \"src/EduRewardToken.sol\":1047:1122  if (initialSupply > 0) {... */\ntag_14:\n    /* \"src/EduRewardToken.sol\":874:1128  constructor(address admin, uint256 initialSupply) ERC20(\"EduReward\", \"RWD\") {... */\n  pop\n  pop\n    /* \"src/EduRewardToken.sol\":535:1455  contract EduRewardToken is ERC20, ERC20Burnable, AccessControl {... */\n  jump(tag_17)\n    /* \"dependencies/@openzeppelin-contracts-5.5.0/access/AccessControl.sol\":6155:6471  function _grantRole(bytes32 role, address account) internal virtual returns (bool) {... */\ntag_12:\n    /* \"dependencies/@openzeppelin-contracts-5.5.0/access/AccessControl.sol\":6232:6236  bool */\n  0x00\n    /* \"dependencies/@openzeppelin-contracts-5.5.0/access/AccessControl.sol\":6253:6275  hasRole(role, account) */\n  tag_19\n    /* \"dependencies/@openzeppelin-contracts-5.5.0/access/AccessControl.sol\":6261:6265  role */\n  dup4\n    /* \"dependencies/@openzeppelin-contracts-5.5.0/access/AccessControl.sol\":6267:6274  account */\n  dup4\n    /* \"dependencies/@openzeppelin-contracts-5.5.0/access/AccessControl.sol\":6253:6260  hasRole */\n  shl(0x20, tag_20)\n    /* \"dependencies/@openzeppelin-contracts-5.5.0/access/AccessControl.sol\":6253:6275  hasRole(role, account) */\n  0x20\n  shr\n  jump\t// in\ntag_19:\n    /* \"dependencies/@openzeppelin-contracts-5.5.0/access/AccessControl.sol\":6248:6465  if (!hasRole(role, account)) {... */\n  tag_21\n  jumpi\n    /* \"dependencies/@openzeppelin-contracts-5.5.0/access/AccessControl.sol\":6323:6327  true */\n  0x01\n    /* \"dependencies/@openzeppelin-contracts-5.5.0/access/AccessControl.sol\":6291:6297  _roles */\n  0x05\n    /* \"dependencies/@openzeppelin-contracts-5.5.0/access/AccessControl.sol\":6291:6303  _roles[role] */\n  0x00\n    /* \"dependencies/@openzeppelin-contracts-5.5.0/access/AccessControl.sol\":6298:6302  role */\n  dup6\n    /* \"dependencies/@openzeppelin-contracts-5.5.0/access/AccessControl.sol\":6291:6303  _roles[role] */\n  dup2\n  mstore\n  0x20\n  add\n  swap1\n  dup2\n  mstore\n  0x20\n  add\n  0x00\n  keccak256\n    /* \"dependencies/@openzeppelin-contracts-5.5.0/access/AccessControl.sol\":6291:6311  _roles[role].hasRole */\n  0x00\n  add\n    /* \"dependencies/@openzeppelin-contracts-5.5.0/access/AccessControl.sol\":6291:6320  _roles[role].hasRole[account] */\n  0x00\n    /* \"dependencies/@openzeppelin-contracts-5.5.0/access/AccessControl.sol\":6312:6319  account */\n  dup5\n    /* \"dependencies/@openzeppelin-contracts-5.5.0/access/AccessControl.sol\":6291:6320  _roles[role].hasRole[account] */\n  0xffffffffffffffffffffffffffffffffffffffff\n  and\n  0xffffffffffffffffffffffffffffffffffffffff\n  and\n  dup2\n  mstore\n  0x20\n  add\n  swap1\n  dup2\n  mstore\n  0x20\n  add\n  0x00\n  keccak256\n  0x00\n    /* \"dependencies/@openzeppelin-contracts-5.5.0/access/AccessControl.sol\":6291:6327  _roles[role].hasRole[account] = true */\n  0x0100\n  exp\n  dup2\n  sload\n  dup2\n  0xff\n  mul\n  not\n  and\n  swap1\n  dup4\n  iszero\n  iszero\n  mul\n  or\n  swap1\n  sstore\n  pop\n    /* \"dependencies/@openzeppelin-contracts-5.5.0/access/AccessControl.sol\":6373:6385  _msgSender() */\n  tag_22\n    /* \"dependencies/@openzeppelin-contracts-5.5.0/access/AccessControl.sol\":6373:6383  _msgSender */\n  shl(0x20, tag_23)\n    /* \"dependencies/@openzeppelin-contracts-5.5.0/access/AccessControl.sol\":6373:6385  _msgSender() */\n  0x20\n  shr\n  jump\t// in\ntag_22:\n    /* \"dependencies/@openzeppelin-contracts-5.5.0/access/AccessControl.sol\":6346:6386  RoleGranted(role, account, _msgSender()) */\n  0xffffffffffffffffffffffffffffffffffffffff\n  and\n    /* \"dependencies/@openzeppelin-contracts-5.5.0/access/AccessControl.sol\":6364:6371  account */\n  dup3\n    /* \"dependencies/@openzeppelin-contracts-5.5.0/access/AccessControl.sol\":6346:6386  RoleGranted(role, account, _msgSender()) */\n  0xffffffffffffffffffffffffffffffffffffffff\n  and\n    /* \"dependencies/@openzeppelin-contracts-5.5.0/access/AccessControl.sol\":6358:6362  role */\n  dup5\n    /* \"dependencies/@openzeppelin-contracts-5.5.0/access/AccessControl.sol\":6346:6386  RoleGranted(role, account, _msgSender()) */\n  0x2f8788117e7eff1d82e926ec794901d17c78024a50270940304540a733656f0d\n  mload(0x40)\n  mload(0x40)\n  dup1\n  swap2\n  sub\n  swap1\n  log4\n    /* \"dependencies/@openzeppelin-contracts-5.5.0/access/AccessControl.sol\":6407:6411  true */\n  0x01\n    /* \"dependencies/@openzeppelin-contracts-5.5.0/access/AccessControl.sol\":6400:6411  return true */\n  swap1\n  pop\n  jump(tag_18)\n    /* \"dependencies/@openzeppelin-contracts-5.5.0/access/AccessControl.sol\":6248:6465  if (!hasRole(role, account)) {... */\ntag_21:\n    /* \"dependencies/@openzeppelin-contracts-5.5.0/access/AccessControl.sol\":6449:6454  false */\n  0x00\n    /* \"dependencies/@openzeppelin-contracts-5.5.0/access/AccessControl.sol\":6442:6454  return false */\n  swap1\n  pop\n    /* \"dependencies/@openzeppelin-contracts-5.5.0/access/AccessControl.sol\":6155:6471  function _grantRole(bytes32 role, address account) internal virtual returns (bool) {... */\ntag_18:\n  swap3\n  swap2\n  pop\n  pop\n  jump\t// out\n    /* \"dependencies/@openzeppelin-contracts-5.5.0/token/ERC20/ERC20.sol\":7362:7570  function _mint(address account, uint256 value) internal {... */\ntag_16:\n    /* \"dependencies/@openzeppelin-contracts-5.5.0/token/ERC20/ERC20.sol\":7451:7452  0 */\n  0x00\n    /* \"dependencies/@openzeppelin-contracts-5.5.0/token/ERC20/ERC20.sol\":7432:7453  account == address(0) */\n  0xffffffffffffffffffffffffffffffffffffffff\n  and\n    /* \"dependencies/@openzeppelin-contracts-5.5.0/token/ERC20/ERC20.sol\":7432:7439  account */\n  dup3\n    /* \"dependencies/@openzeppelin-contracts-5.5.0/token/ERC20/ERC20.sol\":7432:7453  account == address(0) */\n  0xffffffffffffffffffffffffffffffffffffffff\n  and\n  sub\n    /* \"dependencies/@openzeppelin-contracts-5.5.0/token/ERC20/ERC20.sol\":7428:7519  if (account == address(0)) {... */\n  tag_26\n  jumpi\n    /* \"dependencies/@openzeppelin-contracts-5.5.0/token/ERC20/ERC20.sol\":7505:7506  0 */\n  0x00\n    /* \"dependencies/@openzeppelin-contracts-5.5.0/token/ERC20/ERC20.sol\":7476:7508  ERC20InvalidReceiver(address(0)) */\n  mload(0x40)\n  0xec442f0500000000000000000000000000000000000000000000000000000000\n  dup2\n  mstore\n  0x04\n  add\n  tag_27\n  swap2\n  swap1\n  tag_28\n  jump\t// in\ntag_27:\n  mload(0x40)\n  dup1\n  swap2\n  sub\n  swap1\n  revert\n    /* \"dependencies/@openzeppelin-contracts-5.5.0/token/ERC20/ERC20.sol\":7428:7519  if (account == address(0)) {... */\ntag_26:\n    /* \"dependencies/@openzeppelin-contracts-5.5.0/token/ERC20/ERC20.sol\":7528:7563  _update(address(0), account, value) */\n  tag_29\n    /* \"dependencies/@openzeppelin-contracts-5.5.0/token/ERC20/ERC20.sol\":7544:7545  0 */\n  0x00\n    /* \"dependencies/@openzeppelin-contracts-5.5.0/token/ERC20/ERC20.sol\":7548:7555  account */\n  dup4\n    /* \"dependencies/@openzeppelin-contracts-5.5.0/token/ERC20/ERC20.sol\":7557:7562  value */\n  dup4\n    /* \"dependencies/@openzeppelin-contracts-5.5.0/token/ERC20/ERC20.sol\":7528:7535  _update */\n  shl(0x20, tag_30)\n    /* \"dependencies/@openzeppelin-contracts-5.5.0/token/ERC20/ERC20.sol\":7528:7563  _update(address(0), account, value) */\n  0x20\n  shr\n  jump\t// in\ntag_29:\n    /* \"dependencies/@openzeppelin-contracts-5.5.0/token/ERC20/ERC20.sol\":7362:7570  function _mint(address account, uint256 value) internal {... */\n  pop\n  pop\n  jump\t// out\n    /* \"dependencies/@openzeppelin-contracts-5.5.0/access/AccessControl.sol\":2830:2966  function hasRole(bytes32 role, address account) public view virtual returns (bool) {... */\ntag_20:\n    /* \"dependencies/@openzeppelin-contracts-5.5.0/access/AccessControl.sol\":2907:2911  bool */\n  0x00\n    /* \"dependencies/@openzeppelin-contracts-5.5.0/access/AccessControl.sol\":2930:2936  _roles */\n  0x05\n    /* \"dependencies/@openzeppelin-contracts-5.5.0/access/AccessControl.sol\":2930:2942  _roles[role] */\n  0x00\n    /* \"dependencies/@openzeppelin-contracts-5.5.0/access/AccessControl.sol\":2937:2941  role */\n  dup5\n    /* \"dependencies/@openzeppelin-contracts-5.5.0/access/AccessControl.sol\":2930:2942  _roles[role] */\n  dup2\n  mstore\n  0x20\n  add\n  swap1\n  dup2\n  mstore\n  0x20\n  add\n  0x00\n  keccak256\n    /* \"dependencies/@openzeppelin-contracts-5.5.0/access/AccessControl.sol\":2930:2950  _roles[role].hasRole */\n  0x00\n  add\n    /* \"dependencies/@openzeppelin-contracts-5.5.0/access/AccessControl.sol\":2930:2959  _roles[role].hasRole[account] */\n  0x00\n    /* \"dependencies/@openzeppelin-contracts-5.5.0/access/AccessControl.sol\":2951:2958  account */\n  dup4\n    /* \"dependencies/@openzeppelin-contracts-5.5.0/access/AccessControl.sol\":2930:2959  _roles[role].hasRole[account] */\n  0xffffffffffffffffffffffffffffffffffffffff\n  and\n  0xffffffffffffffffffffffffffffffffffffffff\n  and\n  dup2\n  mstore\n  0x20\n  add\n  swap1\n  dup2\n  mstore\n  0x20\n  add\n  0x00\n  keccak256\n  0x00\n  swap1\n  sload\n  swap1\n  0x0100\n  exp\n  swap1\n  div\n  0xff\n  and\n    /* \"dependencies/@openzeppelin-contracts-5.5.0/access/AccessControl.sol\":2923:2959  return _roles[role].hasRole[account] */\n  swap1\n  pop\n    /* \"dependencies/@openzeppelin-contracts-5.5.0/access/AccessControl.sol\":2830:2966  function hasRole(bytes32 role, address account) public view virtual returns (bool) {... */\n  swap3\n  swap2\n  pop\n  pop\n  jump\t// out\n    /* \"dependencies/@openzeppelin-contracts-5.5.0/utils/Context.sol\":656:752  function _msgSender() internal view virtual returns (address) {... */\ntag_23:\n    /* \"dependencies/@openzeppelin-contracts-5.5.0/utils/Context.sol\":709:716  address */\n  0x00\n    /* \"dependencies/@openzeppelin-contracts-5.5.0/utils/Context.sol\":735:745  msg.sender */\n  caller\n    /* \"dependencies/@openzeppelin-contracts-5.5.0/utils/Context.sol\":728:745  return msg.sender */\n  swap1\n  pop\n    /* \"dependencies/@openzeppelin-contracts-5.5.0/utils/Context.sol\":656:752  function _msgSender() internal view virtual returns (address) {... */\n  swap1\n  jump\t// out\n    /* \"dependencies/@openzeppelin-contracts-5.5.0/token/ERC20/ERC20.sol\":5912:7019  function _update(address from, address to, uint256 value) internal virtual {... */\ntag_30:\n    /* \"dependencies/@openzeppelin-contracts-5.5.0/token/ERC20/ERC20.sol\":6017:6018  0 */\n  0x00\n    /* \"dependencies/@openzeppelin-contracts-5.5.0/token/ERC20/ERC20.sol\":6001:6019  from == address(0) */\n  0xffffffffffffffffffffffffffffffffffffffff\n  and\n    /* \"dependencies/@openzeppelin-contracts-5.5.0/token/ERC20/ERC20.sol\":6001:6005  from */\n  dup4\n    /* \"dependencies/@openzeppelin-contracts-5.5.0/token/ERC20/ERC20.sol\":6001:6019  from == address(0) */\n  0xffffffffffffffffffffffffffffffffffffffff\n  and\n  sub\n    /* \"dependencies/@openzeppelin-contracts-5.5.0/token/ERC20/ERC20.sol\":5997:6537  if (from == address(0)) {... */\n  tag_34\n  jumpi\n    /* \"dependencies/@openzeppelin-contracts-5.5.0/token/ERC20/ERC20.sol\":6153:6158  value */\n  dup1\n    /* \"dependencies/@openzeppelin-contracts-5.5.0/token/ERC20/ERC20.sol\":6137:6149  _totalSupply */\n  0x02\n  0x00\n    /* \"dependencies/@openzeppelin-contracts-5.5.0/token/ERC20/ERC20.sol\":6137:6158  _totalSupply += value */\n  dup3\n  dup3\n  sload\n  tag_35\n  swap2\n  swap1\n  tag_36\n  jump\t// in\ntag_35:\n  swap3\n  pop\n  pop\n  dup2\n  swap1\n  sstore\n  pop\n    /* \"dependencies/@openzeppelin-contracts-5.5.0/token/ERC20/ERC20.sol\":5997:6537  if (from == address(0)) {... */\n  jump(tag_37)\ntag_34:\n    /* \"dependencies/@openzeppelin-contracts-5.5.0/token/ERC20/ERC20.sol\":6189:6208  uint256 fromBalance */\n  0x00\n    /* \"dependencies/@openzeppelin-contracts-5.5.0/token/ERC20/ERC20.sol\":6211:6220  _balances */\n  0x00\n    /* \"dependencies/@openzeppelin-contracts-5.5.0/token/ERC20/ERC20.sol\":6211:6226  _balances[from] */\n  0x00\n    /* \"dependencies/@openzeppelin-contracts-5.5.0/token/ERC20/ERC20.sol\":6221:6225  from */\n  dup6\n    /* \"dependencies/@openzeppelin-contracts-5.5.0/token/ERC20/ERC20.sol\":6211:6226  _balances[from] */\n  0xffffffffffffffffffffffffffffffffffffffff\n  and\n  0xffffffffffffffffffffffffffffffffffffffff\n  and\n  dup2\n  mstore\n  0x20\n  add\n  swap1\n  dup2\n  mstore\n  0x20\n  add\n  0x00\n  keccak256\n  sload\n    /* \"dependencies/@openzeppelin-contracts-5.5.0/token/ERC20/ERC20.sol\":6189:6226  uint256 fromBalance = _balances[from] */\n  swap1\n  pop\n    /* \"dependencies/@openzeppelin-contracts-5.5.0/token/ERC20/ERC20.sol\":6258:6263  value */\n  dup2\n    /* \"dependencies/@openzeppelin-contracts-5.5.0/token/ERC20/ERC20.sol\":6244:6255  fromBalance */\n  dup2\n    /* \"dependencies/@openzeppelin-contracts-5.5.0/token/ERC20/ERC20.sol\":6244:6263  fromBalance < value */\n  lt\n    /* \"dependencies/@openzeppelin-contracts-5.5.0/token/ERC20/ERC20.sol\":6240:6355  if (fromBalance < value) {... */\n  iszero\n  tag_38\n  jumpi\n    /* \"dependencies/@openzeppelin-contracts-5.5.0/token/ERC20/ERC20.sol\":6315:6319  from */\n  dup4\n    /* \"dependencies/@openzeppelin-contracts-5.5.0/token/ERC20/ERC20.sol\":6321:6332  fromBalance */\n  dup2\n    /* \"dependencies/@openzeppelin-contracts-5.5.0/token/ERC20/ERC20.sol\":6334:6339  value */\n  dup4\n    /* \"dependencies/@openzeppelin-contracts-5.5.0/token/ERC20/ERC20.sol\":6290:6340  ERC20InsufficientBalance(from, fromBalance, value) */\n  mload(0x40)\n  0xe450d38c00000000000000000000000000000000000000000000000000000000\n  dup2\n  mstore\n  0x04\n  add\n  tag_39\n  swap4\n  swap3\n  swap2\n  swap1\n  tag_40\n  jump\t// in\ntag_39:\n  mload(0x40)\n  dup1\n  swap2\n  sub\n  swap1\n  revert\n    /* \"dependencies/@openzeppelin-contracts-5.5.0/token/ERC20/ERC20.sol\":6240:6355  if (fromBalance < value) {... */\ntag_38:\n    /* \"dependencies/@openzeppelin-contracts-5.5.0/token/ERC20/ERC20.sol\":6507:6512  value */\n  dup2\n    /* \"dependencies/@openzeppelin-contracts-5.5.0/token/ERC20/ERC20.sol\":6493:6504  fromBalance */\n  dup2\n    /* \"dependencies/@openzeppelin-contracts-5.5.0/token/ERC20/ERC20.sol\":6493:6512  fromBalance - value */\n  sub\n    /* \"dependencies/@openzeppelin-contracts-5.5.0/token/ERC20/ERC20.sol\":6475:6484  _balances */\n  0x00\n    /* \"dependencies/@openzeppelin-contracts-5.5.0/token/ERC20/ERC20.sol\":6475:6490  _balances[from] */\n  0x00\n    /* \"dependencies/@openzeppelin-contracts-5.5.0/token/ERC20/ERC20.sol\":6485:6489  from */\n  dup7\n    /* \"dependencies/@openzeppelin-contracts-5.5.0/token/ERC20/ERC20.sol\":6475:6490  _balances[from] */\n  0xffffffffffffffffffffffffffffffffffffffff\n  and\n  0xffffffffffffffffffffffffffffffffffffffff\n  and\n  dup2\n  mstore\n  0x20\n  add\n  swap1\n  dup2\n  mstore\n  0x20\n  add\n  0x00\n  keccak256\n    /* \"dependencies/@openzeppelin-contracts-5.5.0/token/ERC20/ERC20.sol\":6475:6512  _balances[from] = fromBalance - value */\n  dup2\n  swap1\n  sstore\n  pop\n    /* \"dependencies/@openzeppelin-contracts-5.5.0/token/ERC20/ERC20.sol\":6175:6537  {... */\n  pop\n    /* \"dependencies/@openzeppelin-contracts-5.5.0/token/ERC20/ERC20.sol\":5997:6537  if (from == address(0)) {... */\ntag_37:\n    /* \"dependencies/@openzeppelin-contracts-5.5.0/token/ERC20/ERC20.sol\":6565:6566  0 */\n  0x00\n    /* \"dependencies/@openzeppelin-contracts-5.5.0/token/ERC20/ERC20.sol\":6551:6567  to == address(0) */\n  0xffffffffffffffffffffffffffffffffffffffff\n  and\n    /* \"dependencies/@openzeppelin-contracts-5.5.0/token/ERC20/ERC20.sol\":6551:6553  to */\n  dup3\n    /* \"dependencies/@openzeppelin-contracts-5.5.0/token/ERC20/ERC20.sol\":6551:6567  to == address(0) */\n  0xffffffffffffffffffffffffffffffffffffffff\n  and\n  sub\n    /* \"dependencies/@openzeppelin-contracts-5.5.0/token/ERC20/ERC20.sol\":6547:6972  if (to == address(0)) {... */\n  tag_41\n  jumpi\n    /* \"dependencies/@openzeppelin-contracts-5.5.0/token/ERC20/ERC20.sol\":6730:6735  value */\n  dup1\n    /* \"dependencies/@openzeppelin-contracts-5.5.0/token/ERC20/ERC20.sol\":6714:6726  _totalSupply */\n  0x02\n  0x00\n    /* \"dependencies/@openzeppelin-contracts-5.5.0/token/ERC20/ERC20.sol\":6714:6735  _totalSupply -= value */\n  dup3\n  dup3\n  sload\n  sub\n  swap3\n  pop\n  pop\n  dup2\n  swap1\n  sstore\n  pop\n    /* \"dependencies/@openzeppelin-contracts-5.5.0/token/ERC20/ERC20.sol\":6547:6972  if (to == address(0)) {... */\n  jump(tag_42)\ntag_41:\n    /* \"dependencies/@openzeppelin-contracts-5.5.0/token/ERC20/ERC20.sol\":6942:6947  value */\n  dup1\n    /* \"dependencies/@openzeppelin-contracts-5.5.0/token/ERC20/ERC20.sol\":6925:6934  _balances */\n  0x00\n    /* \"dependencies/@openzeppelin-contracts-5.5.0/token/ERC20/ERC20.sol\":6925:6938  _balances[to] */\n  0x00\n    /* \"dependencies/@openzeppelin-contracts-5.5.0/token/ERC20/ERC20.sol\":6935:6937  to */\n  dup5\n    /* \"dependencies/@openzeppelin-contracts-5.5.0/token/ERC20/ERC20.sol\":6925:6938  _balances[to] */\n  0xffffffffffffffffffffffffffffffffffffffff\n  and\n  0xffffffffffffffffffffffffffffffffffffffff\n  and\n  dup2\n  mstore\n  0x20\n  add\n  swap1\n  dup2\n  mstore\n  0x20\n  add\n  0x00\n  keccak256\n  0x00\n    /* \"dependencies/@openzeppelin-contracts-5.5.0/token/ERC20/ERC20.sol\":6925:6947  _balances[to] += value */\n  dup3\n  dup3\n  sload\n  add\n  swap3\n  pop\n  pop\n  dup2\n  swap1\n  sstore\n  pop\n    /* \"dependencies/@openzeppelin-contracts-5.5.0/token/ERC20/ERC20.sol\":6547:6972  if (to == address(0)) {... */\ntag_42:\n    /* \"dependencies/@openzeppelin-contracts-5.5.0/token/ERC20/ERC20.sol\":7002:7004  to */\n  dup2\n    /* \"dependencies/@openzeppelin-contracts-5.5.0/token/ERC20/ERC20.sol\":6987:7012  Transfer(from, to, value) */\n  0xffffffffffffffffffffffffffffffffffffffff\n  and\n    /* \"dependencies/@openzeppelin-contracts-5.5.0/token/ERC20/ERC20.sol\":6996:7000  from */\n  dup4\n    /* \"dependencies/@openzeppelin-contracts-5.5.0/token/ERC20/ERC20.sol\":6987:7012  Transfer(from, to, value) */\n  0xffffffffffffffffffffffffffffffffffffffff\n  and\n  0xddf252ad1be2c89b69c2b068fc378daa952ba7f163c4a11628f55a4df523b3ef\n    /* \"dependencies/@openzeppelin-contracts-5.5.0/token/ERC20/ERC20.sol\":7006:7011  value */\n  dup4\n    /* \"dependencies/@openzeppelin-contracts-5.5.0/token/ERC20/ERC20.sol\":6987:7012  Transfer(from, to, value) */\n  mload(0x40)\n  tag_43\n  swap2\n  swap1\n  tag_44\n  jump\t// in\ntag_43:\n  mload(0x40)\n  dup1\n  swap2\n  sub\n  swap1\n  log3\n    /* \"dependencies/@openzeppelin-contracts-5.5.0/token/ERC20/ERC20.sol\":5912:7019  function _update(address from, address to, uint256 value) internal virtual {... */\n  pop\n  pop\n  pop\n  jump\t// out\n    /* \"#utility.yul\":88:205   */\ntag_46:\n    /* \"#utility.yul\":197:198   */\n  0x00\n    /* \"#utility.yul\":194:195   */\n  0x00\n    /* \"#utility.yul\":187:199   */\n  revert\n    /* \"#utility.yul\":334:460   */\ntag_48:\n    /* \"#utility.yul\":371:378   */\n  0x00\n    /* \"#utility.yul\":411:453   */\n  0xffffffffffffffffffffffffffffffffffffffff\n    /* \"#utility.yul\":404:409   */\n  dup3\n    /* \"#utility.yul\":400:454   */\n  and\n    /* \"#utility.yul\":389:454   */\n  swap1\n  pop\n    /* \"#utility.yul\":334:460   */\n  swap2\n  swap1\n  pop\n  jump\t// out\n    /* \"#utility.yul\":466:562   */\ntag_49:\n    /* \"#utility.yul\":503:510   */\n  0x00\n    /* \"#utility.yul\":532:556   */\n  tag_83\n    /* \"#utility.yul\":550:555   */\n  dup3\n    /* \"#utility.yul\":532:556   */\n  tag_48\n  jump\t// in\ntag_83:\n    /* \"#utility.yul\":521:556   */\n  swap1\n  pop\n    /* \"#utility.yul\":466:562   */\n  swap2\n  swap1\n  pop\n  jump\t// out\n    /* \"#utility.yul\":568:690   */\ntag_50:\n    /* \"#utility.yul\":641:665   */\n  tag_85\n    /* \"#utility.yul\":659:664   */\n  dup2\n    /* \"#utility.yul\":641:665   */\n  tag_49\n  jump\t// in\ntag_85:\n    /* \"#utility.yul\":634:639   */\n  dup2\n    /* \"#utility.yul\":631:666   */\n  eq\n    /* \"#utility.yul\":621:684   */\n  tag_86\n  jumpi\n    /* \"#utility.yul\":680:681   */\n  0x00\n    /* \"#utility.yul\":677:678   */\n  0x00\n    /* \"#utility.yul\":670:682   */\n  revert\n    /* \"#utility.yul\":621:684   */\ntag_86:\n    /* \"#utility.yul\":568:690   */\n  pop\n  jump\t// out\n    /* \"#utility.yul\":696:839   */\ntag_51:\n    /* \"#utility.yul\":753:758   */\n  0x00\n    /* \"#utility.yul\":784:790   */\n  dup2\n    /* \"#utility.yul\":778:791   */\n  mload\n    /* \"#utility.yul\":769:791   */\n  swap1\n  pop\n    /* \"#utility.yul\":800:833   */\n  tag_88\n    /* \"#utility.yul\":827:832   */\n  dup2\n    /* \"#utility.yul\":800:833   */\n  tag_50\n  jump\t// in\ntag_88:\n    /* \"#utility.yul\":696:839   */\n  swap3\n  swap2\n  pop\n  pop\n  jump\t// out\n    /* \"#utility.yul\":845:922   */\ntag_52:\n    /* \"#utility.yul\":882:889   */\n  0x00\n    /* \"#utility.yul\":911:916   */\n  dup2\n    /* \"#utility.yul\":900:916   */\n  swap1\n  pop\n    /* \"#utility.yul\":845:922   */\n  swap2\n  swap1\n  pop\n  jump\t// out\n    /* \"#utility.yul\":928:1050   */\ntag_53:\n    /* \"#utility.yul\":1001:1025   */\n  tag_91\n    /* \"#utility.yul\":1019:1024   */\n  dup2\n    /* \"#utility.yul\":1001:1025   */\n  tag_52\n  jump\t// in\ntag_91:\n    /* \"#utility.yul\":994:999   */\n  dup2\n    /* \"#utility.yul\":991:1026   */\n  eq\n    /* \"#utility.yul\":981:1044   */\n  tag_92\n  jumpi\n    /* \"#utility.yul\":1040:1041   */\n  0x00\n    /* \"#utility.yul\":1037:1038   */\n  0x00\n    /* \"#utility.yul\":1030:1042   */\n  revert\n    /* \"#utility.yul\":981:1044   */\ntag_92:\n    /* \"#utility.yul\":928:1050   */\n  pop\n  jump\t// out\n    /* \"#utility.yul\":1056:1199   */\ntag_54:\n    /* \"#utility.yul\":1113:1118   */\n  0x00\n    /* \"#utility.yul\":1144:1150   */\n  dup2\n    /* \"#utility.yul\":1138:1151   */\n  mload\n    /* \"#utility.yul\":1129:1151   */\n  swap1\n  pop\n    /* \"#utility.yul\":1160:1193   */\n  tag_94\n    /* \"#utility.yul\":1187:1192   */\n  dup2\n    /* \"#utility.yul\":1160:1193   */\n  tag_53\n  jump\t// in\ntag_94:\n    /* \"#utility.yul\":1056:1199   */\n  swap3\n  swap2\n  pop\n  pop\n  jump\t// out\n    /* \"#utility.yul\":1205:1712   */\ntag_3:\n    /* \"#utility.yul\":1284:1290   */\n  0x00\n    /* \"#utility.yul\":1292:1298   */\n  0x00\n    /* \"#utility.yul\":1341:1343   */\n  0x40\n    /* \"#utility.yul\":1329:1338   */\n  dup4\n    /* \"#utility.yul\":1320:1327   */\n  dup6\n    /* \"#utility.yul\":1316:1339   */\n  sub\n    /* \"#utility.yul\":1312:1344   */\n  slt\n    /* \"#utility.yul\":1309:1428   */\n  iszero\n  tag_96\n  jumpi\n    /* \"#utility.yul\":1347:1426   */\n  tag_97\n  tag_46\n  jump\t// in\ntag_97:\n    /* \"#utility.yul\":1309:1428   */\ntag_96:\n    /* \"#utility.yul\":1467:1468   */\n  0x00\n    /* \"#utility.yul\":1492:1556   */\n  tag_98\n    /* \"#utility.yul\":1548:1555   */\n  dup6\n    /* \"#utility.yul\":1539:1545   */\n  dup3\n    /* \"#utility.yul\":1528:1537   */\n  dup7\n    /* \"#utility.yul\":1524:1546   */\n  add\n    /* \"#utility.yul\":1492:1556   */\n  tag_51\n  jump\t// in\ntag_98:\n    /* \"#utility.yul\":1482:1556   */\n  swap3\n  pop\n    /* \"#utility.yul\":1438:1566   */\n  pop\n    /* \"#utility.yul\":1605:1607   */\n  0x20\n    /* \"#utility.yul\":1631:1695   */\n  tag_99\n    /* \"#utility.yul\":1687:1694   */\n  dup6\n    /* \"#utility.yul\":1678:1684   */\n  dup3\n    /* \"#utility.yul\":1667:1676   */\n  dup7\n    /* \"#utility.yul\":1663:1685   */\n  add\n    /* \"#utility.yul\":1631:1695   */\n  tag_54\n  jump\t// in\ntag_99:\n    /* \"#utility.yul\":1621:1695   */\n  swap2\n  pop\n    /* \"#utility.yul\":1576:1705   */\n  pop\n    /* \"#utility.yul\":1205:1712   */\n  swap3\n  pop\n  swap3\n  swap1\n  pop\n  jump\t// out\n    /* \"#utility.yul\":1718:1817   */\ntag_55:\n    /* \"#utility.yul\":1770:1776   */\n  0x00\n    /* \"#utility.yul\":1804:1809   */\n  dup2\n    /* \"#utility.yul\":1798:1810   */\n  mload\n    /* \"#utility.yul\":1788:1810   */\n  swap1\n  pop\n    /* \"#utility.yul\":1718:1817   */\n  swap2\n  swap1\n  pop\n  jump\t// out\n    /* \"#utility.yul\":1823:2003   */\ntag_56:\n    /* \"#utility.yul\":1871:1948   */\n  0x4e487b7100000000000000000000000000000000000000000000000000000000\n    /* \"#utility.yul\":1868:1869   */\n  0x00\n    /* \"#utility.yul\":1861:1949   */\n  mstore\n    /* \"#utility.yul\":1968:1972   */\n  0x41\n    /* \"#utility.yul\":1965:1966   */\n  0x04\n    /* \"#utility.yul\":1958:1973   */\n  mstore\n    /* \"#utility.yul\":1992:1996   */\n  0x24\n    /* \"#utility.yul\":1989:1990   */\n  0x00\n    /* \"#utility.yul\":1982:1997   */\n  revert\n    /* \"#utility.yul\":2009:2189   */\ntag_57:\n    /* \"#utility.yul\":2057:2134   */\n  0x4e487b7100000000000000000000000000000000000000000000000000000000\n    /* \"#utility.yul\":2054:2055   */\n  0x00\n    /* \"#utility.yul\":2047:2135   */\n  mstore\n    /* \"#utility.yul\":2154:2158   */\n  0x22\n    /* \"#utility.yul\":2151:2152   */\n  0x04\n    /* \"#utility.yul\":2144:2159   */\n  mstore\n    /* \"#utility.yul\":2178:2182   */\n  0x24\n    /* \"#utility.yul\":2175:2176   */\n  0x00\n    /* \"#utility.yul\":2168:2183   */\n  revert\n    /* \"#utility.yul\":2195:2515   */\ntag_58:\n    /* \"#utility.yul\":2239:2245   */\n  0x00\n    /* \"#utility.yul\":2276:2277   */\n  0x02\n    /* \"#utility.yul\":2270:2274   */\n  dup3\n    /* \"#utility.yul\":2266:2278   */\n  div\n    /* \"#utility.yul\":2256:2278   */\n  swap1\n  pop\n    /* \"#utility.yul\":2323:2324   */\n  0x01\n    /* \"#utility.yul\":2317:2321   */\n  dup3\n    /* \"#utility.yul\":2313:2325   */\n  and\n    /* \"#utility.yul\":2344:2362   */\n  dup1\n    /* \"#utility.yul\":2334:2415   */\n  tag_104\n  jumpi\n    /* \"#utility.yul\":2400:2404   */\n  0x7f\n    /* \"#utility.yul\":2392:2398   */\n  dup3\n    /* \"#utility.yul\":2388:2405   */\n  and\n    /* \"#utility.yul\":2378:2405   */\n  swap2\n  pop\n    /* \"#utility.yul\":2334:2415   */\ntag_104:\n    /* \"#utility.yul\":2462:2464   */\n  0x20\n    /* \"#utility.yul\":2454:2460   */\n  dup3\n    /* \"#utility.yul\":2451:2465   */\n  lt\n    /* \"#utility.yul\":2431:2449   */\n  dup2\n    /* \"#utility.yul\":2428:2466   */\n  sub\n    /* \"#utility.yul\":2425:2509   */\n  tag_105\n  jumpi\n    /* \"#utility.yul\":2481:2499   */\n  tag_106\n  tag_57\n  jump\t// in\ntag_106:\n    /* \"#utility.yul\":2425:2509   */\ntag_105:\n    /* \"#utility.yul\":2246:2515   */\n  pop\n    /* \"#utility.yul\":2195:2515   */\n  swap2\n  swap1\n  pop\n  jump\t// out\n    /* \"#utility.yul\":2521:2662   */\ntag_59:\n    /* \"#utility.yul\":2570:2574   */\n  0x00\n    /* \"#utility.yul\":2593:2596   */\n  dup2\n    /* \"#utility.yul\":2585:2596   */\n  swap1\n  pop\n    /* \"#utility.yul\":2616:2619   */\n  dup2\n    /* \"#utility.yul\":2613:2614   */\n  0x00\n    /* \"#utility.yul\":2606:2620   */\n  mstore\n    /* \"#utility.yul\":2650:2654   */\n  0x20\n    /* \"#utility.yul\":2647:2648   */\n  0x00\n    /* \"#utility.yul\":2637:2655   */\n  keccak256\n    /* \"#utility.yul\":2629:2655   */\n  swap1\n  pop\n    /* \"#utility.yul\":2521:2662   */\n  swap2\n  swap1\n  pop\n  jump\t// out\n    /* \"#utility.yul\":2668:2761   */\ntag_60:\n    /* \"#utility.yul\":2705:2711   */\n  0x00\n    /* \"#utility.yul\":2752:2754   */\n  0x20\n    /* \"#utility.yul\":2747:2749   */\n  0x1f\n    /* \"#utility.yul\":2740:2745   */\n  dup4\n    /* \"#utility.yul\":2736:2750   */\n  add\n    /* \"#utility.yul\":2732:2755   */\n  div\n    /* \"#utility.yul\":2722:2755   */\n  swap1\n  pop\n    /* \"#utility.yul\":2668:2761   */\n  swap2\n  swap1\n  pop\n  jump\t// out\n    /* \"#utility.yul\":2767:2874   */\ntag_61:\n    /* \"#utility.yul\":2811:2819   */\n  0x00\n    /* \"#utility.yul\":2861:2866   */\n  dup3\n    /* \"#utility.yul\":2855:2859   */\n  dup3\n    /* \"#utility.yul\":2851:2867   */\n  shl\n    /* \"#utility.yul\":2830:2867   */\n  swap1\n  pop\n    /* \"#utility.yul\":2767:2874   */\n  swap3\n  swap2\n  pop\n  pop\n  jump\t// out\n    /* \"#utility.yul\":2880:3273   */\ntag_62:\n    /* \"#utility.yul\":2949:2955   */\n  0x00\n    /* \"#utility.yul\":2999:3000   */\n  0x08\n    /* \"#utility.yul\":2987:2997   */\n  dup4\n    /* \"#utility.yul\":2983:3001   */\n  mul\n    /* \"#utility.yul\":3022:3119   */\n  tag_111\n    /* \"#utility.yul\":3052:3118   */\n  0xffffffffffffffffffffffffffffffffffffffffffffffffffffffffffffffff\n    /* \"#utility.yul\":3041:3050   */\n  dup3\n    /* \"#utility.yul\":3022:3119   */\n  tag_61\n  jump\t// in\ntag_111:\n    /* \"#utility.yul\":3140:3179   */\n  tag_112\n    /* \"#utility.yul\":3170:3178   */\n  dup7\n    /* \"#utility.yul\":3159:3168   */\n  dup4\n    /* \"#utility.yul\":3140:3179   */\n  tag_61\n  jump\t// in\ntag_112:\n    /* \"#utility.yul\":3128:3179   */\n  swap6\n  pop\n    /* \"#utility.yul\":3212:3216   */\n  dup1\n    /* \"#utility.yul\":3208:3217   */\n  not\n    /* \"#utility.yul\":3201:3206   */\n  dup5\n    /* \"#utility.yul\":3197:3218   */\n  and\n    /* \"#utility.yul\":3188:3218   */\n  swap4\n  pop\n    /* \"#utility.yul\":3261:3265   */\n  dup1\n    /* \"#utility.yul\":3251:3259   */\n  dup7\n    /* \"#utility.yul\":3247:3266   */\n  and\n    /* \"#utility.yul\":3240:3245   */\n  dup5\n    /* \"#utility.yul\":3237:3267   */\n  or\n    /* \"#utility.yul\":3227:3267   */\n  swap3\n  pop\n    /* \"#utility.yul\":2956:3273   */\n  pop\n  pop\n    /* \"#utility.yul\":2880:3273   */\n  swap4\n  swap3\n  pop\n  pop\n  pop\n  jump\t// out\n    /* \"#utility.yul\":3279:3339   */\ntag_63:\n    /* \"#utility.yul\":3307:3310   */\n  0x00\n    /* \"#utility.yul\":3328:3333   */\n  dup2\n    /* \"#utility.yul\":3321:3333   */\n  swap1\n  pop\n    /* \"#utility.yul\":3279:3339   */\n  swap2\n  swap1\n  pop\n  jump\t// out\n    /* \"#utility.yul\":3345:3487   */\ntag_64:\n    /* \"#utility.yul\":3395:3404   */\n  0x00\n    /* \"#utility.yul\":3428:3481   */\n  tag_115\n    /* \"#utility.yul\":3446:3480   */\n  tag_116\n    /* \"#utility.yul\":3455:3479   */\n  tag_117\n    /* \"#utility.yul\":3473:3478   */\n  dup5\n    /* \"#utility.yul\":3455:3479   */\n  tag_52\n  jump\t// in\ntag_117:\n    /* \"#utility.yul\":3446:3480   */\n  tag_63\n  jump\t// in\ntag_116:\n    /* \"#utility.yul\":3428:3481   */\n  tag_52\n  jump\t// in\ntag_115:\n    /* \"#utility.yul\":3415:3481   */\n  swap1\n  pop\n    /* \"#utility.yul\":3345:3487   */\n  swap2\n  swap1\n  pop\n  jump\t// out\n    /* \"#utility.yul\":3493:3568   */\ntag_65:\n    /* \"#utility.yul\":3536:3539   */\n  0x00\n    /* \"#utility.yul\":3557:3562   */\n  dup2\n    /* \"#utility.yul\":3550:3562   */\n  swap1\n  pop\n    /* \"#utility.yul\":3493:3568   */\n  swap2\n  swap1\n  pop\n  jump\t// out\n    /* \"#utility.yul\":3574:3843   */\ntag_66:\n    /* \"#utility.yul\":3684:3723   */\n  tag_120\n    /* \"#utility.yul\":3715:3722   */\n  dup4\n    /* \"#utility.yul\":3684:3723   */\n  tag_64\n  jump\t// in\ntag_120:\n    /* \"#utility.yul\":3745:3836   */\n  tag_121\n    /* \"#utility.yul\":3794:3835   */\n  tag_122\n    /* \"#utility.yul\":3818:3834   */\n  dup3\n    /* \"#utility.yul\":3794:3835   */\n  tag_65\n  jump\t// in\ntag_122:\n    /* \"#utility.yul\":3786:3792   */\n  dup5\n    /* \"#utility.yul\":3779:3783   */\n  dup5\n    /* \"#utility.yul\":3773:3784   */\n  sload\n    /* \"#utility.yul\":3745:3836   */\n  tag_62\n  jump\t// in\ntag_121:\n    /* \"#utility.yul\":3739:3743   */\n  dup3\n    /* \"#utility.yul\":3732:3837   */\n  sstore\n    /* \"#utility.yul\":3650:3843   */\n  pop\n    /* \"#utility.yul\":3574:3843   */\n  pop\n  pop\n  pop\n  jump\t// out\n    /* \"#utility.yul\":3849:3922   */\ntag_67:\n    /* \"#utility.yul\":3894:3897   */\n  0x00\n    /* \"#utility.yul\":3915:3916   */\n  0x00\n    /* \"#utility.yul\":3908:3916   */\n  swap1\n  pop\n    /* \"#utility.yul\":3849:3922   */\n  swap1\n  jump\t// out\n    /* \"#utility.yul\":3928:4117   */\ntag_68:\n    /* \"#utility.yul\":4005:4037   */\n  tag_125\n  tag_67\n  jump\t// in\ntag_125:\n    /* \"#utility.yul\":4046:4111   */\n  tag_126\n    /* \"#utility.yul\":4104:4110   */\n  dup2\n    /* \"#utility.yul\":4096:4102   */\n  dup5\n    /* \"#utility.yul\":4090:4094   */\n  dup5\n    /* \"#utility.yul\":4046:4111   */\n  tag_66\n  jump\t// in\ntag_126:\n    /* \"#utility.yul\":3981:4117   */\n  pop\n    /* \"#utility.yul\":3928:4117   */\n  pop\n  pop\n  jump\t// out\n    /* \"#utility.yul\":4123:4309   */\ntag_69:\n    /* \"#utility.yul\":4183:4303   */\ntag_128:\n    /* \"#utility.yul\":4200:4203   */\n  dup2\n    /* \"#utility.yul\":4193:4198   */\n  dup2\n    /* \"#utility.yul\":4190:4204   */\n  lt\n    /* \"#utility.yul\":4183:4303   */\n  iszero\n  tag_130\n  jumpi\n    /* \"#utility.yul\":4254:4293   */\n  tag_131\n    /* \"#utility.yul\":4291:4292   */\n  0x00\n    /* \"#utility.yul\":4284:4289   */\n  dup3\n    /* \"#utility.yul\":4254:4293   */\n  tag_68\n  jump\t// in\ntag_131:\n    /* \"#utility.yul\":4227:4228   */\n  0x01\n    /* \"#utility.yul\":4220:4225   */\n  dup2\n    /* \"#utility.yul\":4216:4229   */\n  add\n    /* \"#utility.yul\":4207:4229   */\n  swap1\n  pop\n    /* \"#utility.yul\":4183:4303   */\n  jump(tag_128)\ntag_130:\n    /* \"#utility.yul\":4123:4309   */\n  pop\n  pop\n  jump\t// out\n    /* \"#utility.yul\":4315:4858   */\ntag_70:\n    /* \"#utility.yul\":4416:4418   */\n  0x1f\n    /* \"#utility.yul\":4411:4414   */\n  dup3\n    /* \"#utility.yul\":4408:4419   */\n  gt\n    /* \"#utility.yul\":4405:4851   */\n  iszero\n  tag_133\n  jumpi\n    /* \"#utility.yul\":4450:4488   */\n  tag_134\n    /* \"#utility.yul\":4482:4487   */\n  dup2\n    /* \"#utility.yul\":4450:4488   */\n  tag_59\n  jump\t// in\ntag_134:\n    /* \"#utility.yul\":4534:4563   */\n  tag_135\n    /* \"#utility.yul\":4552:4562   */\n  dup5\n    /* \"#utility.yul\":4534:4563   */\n  tag_60\n  jump\t// in\ntag_135:\n    /* \"#utility.yul\":4524:4532   */\n  dup2\n    /* \"#utility.yul\":4520:4564   */\n  add\n    /* \"#utility.yul\":4717:4719   */\n  0x20\n    /* \"#utility.yul\":4705:4715   */\n  dup6\n    /* \"#utility.yul\":4702:4720   */\n  lt\n    /* \"#utility.yul\":4699:4748   */\n  iszero\n  tag_136\n  jumpi\n    /* \"#utility.yul\":4738:4746   */\n  dup2\n    /* \"#utility.yul\":4723:4746   */\n  swap1\n  pop\n    /* \"#utility.yul\":4699:4748   */\ntag_136:\n    /* \"#utility.yul\":4761:4841   */\n  tag_137\n    /* \"#utility.yul\":4817:4839   */\n  tag_138\n    /* \"#utility.yul\":4835:4838   */\n  dup6\n    /* \"#utility.yul\":4817:4839   */\n  tag_60\n  jump\t// in\ntag_138:\n    /* \"#utility.yul\":4807:4815   */\n  dup4\n    /* \"#utility.yul\":4803:4840   */\n  add\n    /* \"#utility.yul\":4790:4801   */\n  dup3\n    /* \"#utility.yul\":4761:4841   */\n  tag_69\n  jump\t// in\ntag_137:\n    /* \"#utility.yul\":4420:4851   */\n  pop\n  pop\n    /* \"#utility.yul\":4405:4851   */\ntag_133:\n    /* \"#utility.yul\":4315:4858   */\n  pop\n  pop\n  pop\n  jump\t// out\n    /* \"#utility.yul\":4864:4981   */\ntag_71:\n    /* \"#utility.yul\":4918:4926   */\n  0x00\n    /* \"#utility.yul\":4968:4973   */\n  dup3\n    /* \"#utility.yul\":4962:4966   */\n  dup3\n    /* \"#utility.yul\":4958:4974   */\n  shr\n    /* \"#utility.yul\":4937:4974   */\n  swap1\n  pop\n    /* \"#utility.yul\":4864:4981   */\n  swap3\n  swap2\n  pop\n  pop\n  jump\t// out\n    /* \"#utility.yul\":4987:5156   */\ntag_72:\n    /* \"#utility.yul\":5031:5037   */\n  0x00\n    /* \"#utility.yul\":5064:5115   */\n  tag_141\n    /* \"#utility.yul\":5112:5113   */\n  0x00\n    /* \"#utility.yul\":5108:5114   */\n  not\n    /* \"#utility.yul\":5100:5105   */\n  dup5\n    /* \"#utility.yul\":5097:5098   */\n  0x08\n    /* \"#utility.yul\":5093:5106   */\n  mul\n    /* \"#utility.yul\":5064:5115   */\n  tag_71\n  jump\t// in\ntag_141:\n    /* \"#utility.yul\":5060:5116   */\n  not\n    /* \"#utility.yul\":5145:5149   */\n  dup1\n    /* \"#utility.yul\":5139:5143   */\n  dup4\n    /* \"#utility.yul\":5135:5150   */\n  and\n    /* \"#utility.yul\":5125:5150   */\n  swap2\n  pop\n    /* \"#utility.yul\":5038:5156   */\n  pop\n    /* \"#utility.yul\":4987:5156   */\n  swap3\n  swap2\n  pop\n  pop\n  jump\t// out\n    /* \"#utility.yul\":5161:5456   */\ntag_73:\n    /* \"#utility.yul\":5237:5241   */\n  0x00\n    /* \"#utility.yul\":5383:5412   */\n  tag_143\n    /* \"#utility.yul\":5408:5411   */\n  dup4\n    /* \"#utility.yul\":5402:5406   */\n  dup4\n    /* \"#utility.yul\":5383:5412   */\n  tag_72\n  jump\t// in\ntag_143:\n    /* \"#utility.yul\":5375:5412   */\n  swap2\n  pop\n    /* \"#utility.yul\":5445:5448   */\n  dup3\n    /* \"#utility.yul\":5442:5443   */\n  0x02\n    /* \"#utility.yul\":5438:5449   */\n  mul\n    /* \"#utility.yul\":5432:5436   */\n  dup3\n    /* \"#utility.yul\":5429:5450   */\n  or\n    /* \"#utility.yul\":5421:5450   */\n  swap1\n  pop\n    /* \"#utility.yul\":5161:5456   */\n  swap3\n  swap2\n  pop\n  pop\n  jump\t// out\n    /* \"#utility.yul\":5461:6856   */\ntag_8:\n    /* \"#utility.yul\":5578:5615   */\n  tag_145\n    /* \"#utility.yul\":5611:5614   */\n  dup3\n    /* \"#utility.yul\":5578:5615   */\n  tag_55\n  jump\t// in\ntag_145:\n    /* \"#utility.yul\":5680:5698   */\n  0xffffffffffffffff\n    /* \"#utility.yul\":5672:5678   */\n  dup2\n    /* \"#utility.yul\":5669:5699   */\n  gt\n    /* \"#utility.yul\":5666:5722   */\n  iszero\n  tag_146\n  jumpi\n    /* \"#utility.yul\":5702:5720   */\n  tag_147\n  tag_56\n  jump\t// in\ntag_147:\n    /* \"#utility.yul\":5666:5722   */\ntag_146:\n    /* \"#utility.yul\":5746:5784   */\n  tag_148\n    /* \"#utility.yul\":5778:5782   */\n  dup3\n    /* \"#utility.yul\":5772:5783   */\n  sload\n    /* \"#utility.yul\":5746:5784   */\n  tag_58\n  jump\t// in\ntag_148:\n    /* \"#utility.yul\":5831:5898   */\n  tag_149\n    /* \"#utility.yul\":5891:5897   */\n  dup3\n    /* \"#utility.yul\":5883:5889   */\n  dup3\n    /* \"#utility.yul\":5877:5881   */\n  dup6\n    /* \"#utility.yul\":5831:5898   */\n  tag_70\n  jump\t// in\ntag_149:\n    /* \"#utility.yul\":5925:5926   */\n  0x00\n    /* \"#utility.yul\":5949:5953   */\n  0x20\n    /* \"#utility.yul\":5936:5953   */\n  swap1\n  pop\n    /* \"#utility.yul\":5981:5983   */\n  0x1f\n    /* \"#utility.yul\":5973:5979   */\n  dup4\n    /* \"#utility.yul\":5970:5984   */\n  gt\n    /* \"#utility.yul\":5998:5999   */\n  0x01\n    /* \"#utility.yul\":5993:6611   */\n  dup2\n  eq\n  tag_151\n  jumpi\n    /* \"#utility.yul\":6655:6656   */\n  0x00\n    /* \"#utility.yul\":6672:6678   */\n  dup5\n    /* \"#utility.yul\":6669:6746   */\n  iszero\n  tag_152\n  jumpi\n    /* \"#utility.yul\":6721:6730   */\n  dup3\n    /* \"#utility.yul\":6716:6719   */\n  dup8\n    /* \"#utility.yul\":6712:6731   */\n  add\n    /* \"#utility.yul\":6706:6732   */\n  mload\n    /* \"#utility.yul\":6697:6732   */\n  swap1\n  pop\n    /* \"#utility.yul\":6669:6746   */\ntag_152:\n    /* \"#utility.yul\":6772:6839   */\n  tag_153\n    /* \"#utility.yul\":6832:6838   */\n  dup6\n    /* \"#utility.yul\":6825:6830   */\n  dup3\n    /* \"#utility.yul\":6772:6839   */\n  tag_73\n  jump\t// in\ntag_153:\n    /* \"#utility.yul\":6766:6770   */\n  dup7\n    /* \"#utility.yul\":6759:6840   */\n  sstore\n    /* \"#utility.yul\":6628:6850   */\n  pop\n    /* \"#utility.yul\":5963:6850   */\n  jump(tag_150)\n    /* \"#utility.yul\":5993:6611   */\ntag_151:\n    /* \"#utility.yul\":6045:6049   */\n  0x1f\n    /* \"#utility.yul\":6041:6050   */\n  not\n    /* \"#utility.yul\":6033:6039   */\n  dup5\n    /* \"#utility.yul\":6029:6051   */\n  and\n    /* \"#utility.yul\":6079:6116   */\n  tag_154\n    /* \"#utility.yul\":6111:6115   */\n  dup7\n    /* \"#utility.yul\":6079:6116   */\n  tag_59\n  jump\t// in\ntag_154:\n    /* \"#utility.yul\":6138:6139   */\n  0x00\n    /* \"#utility.yul\":6152:6360   */\ntag_155:\n    /* \"#utility.yul\":6166:6173   */\n  dup3\n    /* \"#utility.yul\":6163:6164   */\n  dup2\n    /* \"#utility.yul\":6160:6174   */\n  lt\n    /* \"#utility.yul\":6152:6360   */\n  iszero\n  tag_157\n  jumpi\n    /* \"#utility.yul\":6245:6254   */\n  dup5\n    /* \"#utility.yul\":6240:6243   */\n  dup10\n    /* \"#utility.yul\":6236:6255   */\n  add\n    /* \"#utility.yul\":6230:6256   */\n  mload\n    /* \"#utility.yul\":6222:6228   */\n  dup3\n    /* \"#utility.yul\":6215:6257   */\n  sstore\n    /* \"#utility.yul\":6296:6297   */\n  0x01\n    /* \"#utility.yul\":6288:6294   */\n  dup3\n    /* \"#utility.yul\":6284:6298   */\n  add\n    /* \"#utility.yul\":6274:6298   */\n  swap2\n  pop\n    /* \"#utility.yul\":6343:6345   */\n  0x20\n    /* \"#utility.yul\":6332:6341   */\n  dup6\n    /* \"#utility.yul\":6328:6346   */\n  add\n    /* \"#utility.yul\":6315:6346   */\n  swap5\n  pop\n    /* \"#utility.yul\":6189:6193   */\n  0x20\n    /* \"#utility.yul\":6186:6187   */\n  dup2\n    /* \"#utility.yul\":6182:6194   */\n  add\n    /* \"#utility.yul\":6177:6194   */\n  swap1\n  pop\n    /* \"#utility.yul\":6152:6360   */\n  jump(tag_155)\ntag_157:\n    /* \"#utility.yul\":6388:6394   */\n  dup7\n    /* \"#utility.yul\":6379:6386   */\n  dup4\n    /* \"#utility.yul\":6376:6395   */\n  lt\n    /* \"#utility.yul\":6373:6552   */\n  iszero\n  tag_158\n  jumpi\n    /* \"#utility.yul\":6446:6455   */\n  dup5\n    /* \"#utility.yul\":6441:6444   */\n  dup10\n    /* \"#utility.yul\":6437:6456   */\n  add\n    /* \"#utility.yul\":6431:6457   */\n  mload\n    /* \"#utility.yul\":6489:6537   */\n  tag_159\n    /* \"#utility.yul\":6531:6535   */\n  0x1f\n    /* \"#utility.yul\":6523:6529   */\n  dup10\n    /* \"#utility.yul\":6519:6536   */\n  and\n    /* \"#utility.yul\":6508:6517   */\n  dup3\n    /* \"#utility.yul\":6489:6537   */\n  tag_72\n  jump\t// in\ntag_159:\n    /* \"#utility.yul\":6481:6487   */\n  dup4\n    /* \"#utility.yul\":6474:6538   */\n  sstore\n    /* \"#utility.yul\":6396:6552   */\n  pop\n    /* \"#utility.yul\":6373:6552   */\ntag_158:\n    /* \"#utility.yul\":6598:6599   */\n  0x01\n    /* \"#utility.yul\":6594:6595   */\n  0x02\n    /* \"#utility.yul\":6586:6592   */\n  dup9\n    /* \"#utility.yul\":6582:6596   */\n  mul\n    /* \"#utility.yul\":6578:6600   */\n  add\n    /* \"#utility.yul\":6572:6576   */\n  dup9\n    /* \"#utility.yul\":6565:6601   */\n  sstore\n    /* \"#utility.yul\":6000:6611   */\n  pop\n  pop\n  pop\n    /* \"#utility.yul\":5963:6850   */\ntag_150:\n  pop\n    /* \"#utility.yul\":5553:6856   */\n  pop\n  pop\n  pop\n    /* \"#utility.yul\":5461:6856   */\n  pop\n  pop\n  jump\t// out\n    /* \"#utility.yul\":6862:6980   */\ntag_74:\n    /* \"#utility.yul\":6949:6973   */\n  tag_161\n    /* \"#utility.yul\":6967:6972   */\n  dup2\n    /* \"#utility.yul\":6949:6973   */\n  tag_49\n  jump\t// in\ntag_161:\n    /* \"#utility.yul\":6944:6947   */\n  dup3\n    /* \"#utility.yul\":6937:6974   */\n  mstore\n    /* \"#utility.yul\":6862:6980   */\n  pop\n  pop\n  jump\t// out\n    /* \"#utility.yul\":6986:7208   */\ntag_28:\n    /* \"#utility.yul\":7079:7083   */\n  0x00\n    /* \"#utility.yul\":7117:7119   */\n  0x20\n    /* \"#utility.yul\":7106:7115   */\n  dup3\n    /* \"#utility.yul\":7102:7120   */\n  add\n    /* \"#utility.yul\":7094:7120   */\n  swap1\n  pop\n    /* \"#utility.yul\":7130:7201   */\n  tag_163\n    /* \"#utility.yul\":7198:7199   */\n  0x00\n    /* \"#utility.yul\":7187:7196   */\n  dup4\n    /* \"#utility.yul\":7183:7200   */\n  add\n    /* \"#utility.yul\":7174:7180   */\n  dup5\n    /* \"#utility.yul\":7130:7201   */\n  tag_74\n  jump\t// in\ntag_163:\n    /* \"#utility.yul\":6986:7208   */\n  swap3\n  swap2\n  pop\n  pop\n  jump\t// out\n    /* \"#utility.yul\":7214:7394   */\ntag_75:\n    /* \"#utility.yul\":7262:7339   */\n  0x4e487b7100000000000000000000000000000000000000000000000000000000\n    /* \"#utility.yul\":7259:7260   */\n  0x00\n    /* \"#utility.yul\":7252:7340   */\n  mstore\n    /* \"#utility.yul\":7359:7363   */\n  0x11\n    /* \"#utility.yul\":7356:7357   */\n  0x04\n    /* \"#utility.yul\":7349:7364   */\n  mstore\n    /* \"#utility.yul\":7383:7387   */\n  0x24\n    /* \"#utility.yul\":7380:7381   */\n  0x00\n    /* \"#utility.yul\":7373:7388   */\n  revert\n    /* \"#utility.yul\":7400:7591   */\ntag_36:\n    /* \"#utility.yul\":7440:7443   */\n  0x00\n    /* \"#utility.yul\":7459:7479   */\n  tag_166\n    /* \"#utility.yul\":7477:7478   */\n  dup3\n    /* \"#utility.yul\":7459:7479   */\n  tag_52\n  jump\t// in\ntag_166:\n    /* \"#utility.yul\":7454:7479   */\n  swap2\n  pop\n    /* \"#utility.yul\":7493:7513   */\n  tag_167\n    /* \"#utility.yul\":7511:7512   */\n  dup4\n    /* \"#utility.yul\":7493:7513   */\n  tag_52\n  jump\t// in\ntag_167:\n    /* \"#utility.yul\":7488:7513   */\n  swap3\n  pop\n    /* \"#utility.yul\":7536:7537   */\n  dup3\n    /* \"#utility.yul\":7533:7534   */\n  dup3\n    /* \"#utility.yul\":7529:7538   */\n  add\n    /* \"#utility.yul\":7522:7538   */\n  swap1\n  pop\n    /* \"#utility.yul\":7557:7560   */\n  dup1\n    /* \"#utility.yul\":7554:7555   */\n  dup3\n    /* \"#utility.yul\":7551:7561   */\n  gt\n    /* \"#utility.yul\":7548:7584   */\n  iszero\n  tag_168\n  jumpi\n    /* \"#utility.yul\":7564:7582   */\n  tag_169\n  tag_75\n  jump\t// in\ntag_169:\n    /* \"#utility.yul\":7548:7584   */\ntag_168:\n    /* \"#utility.yul\":7400:7591   */\n  swap3\n  swap2\n  pop\n  pop\n  jump\t// out\n    /* \"#utility.yul\":7597:7715   */\ntag_76:\n    /* \"#utility.yul\":7684:7708   */\n  tag_171\n    /* \"#utility.yul\":7702:7707   */\n  dup2\n    /* \"#utility.yul\":7684:7708   */\n  tag_52\n  jump\t// in\ntag_171:\n    /* \"#utility.yul\":7679:7682   */\n  dup3\n    /* \"#utility.yul\":7672:7709   */\n  mstore\n    /* \"#utility.yul\":7597:7715   */\n  pop\n  pop\n  jump\t// out\n    /* \"#utility.yul\":7721:8163   */\ntag_40:\n    /* \"#utility.yul\":7870:7874   */\n  0x00\n    /* \"#utility.yul\":7908:7910   */\n  0x60\n    /* \"#utility.yul\":7897:7906   */\n  dup3\n    /* \"#utility.yul\":7893:7911   */\n  add\n    /* \"#utility.yul\":7885:7911   */\n  swap1\n  pop\n    /* \"#utility.yul\":7921:7992   */\n  tag_173\n    /* \"#utility.yul\":7989:7990   */\n  0x00\n    /* \"#utility.yul\":7978:7987   */\n  dup4\n    /* \"#utility.yul\":7974:7991   */\n  add\n    /* \"#utility.yul\":7965:7971   */\n  dup7\n    /* \"#utility.yul\":7921:7992   */\n  tag_74\n  jump\t// in\ntag_173:\n    /* \"#utility.yul\":8002:8074   */\n  tag_174\n    /* \"#utility.yul\":8070:8072   */\n  0x20\n    /* \"#utility.yul\":8059:8068   */\n  dup4\n    /* \"#utility.yul\":8055:8073   */\n  add\n    /* \"#utility.yul\":8046:8052   */\n  dup6\n    /* \"#utility.yul\":8002:8074   */\n  tag_76\n  jump\t// in\ntag_174:\n    /* \"#utility.yul\":8084:8156   */\n  tag_175\n    /* \"#utility.yul\":8152:8154   */\n  0x40\n    /* \"#utility.yul\":8141:8150   */\n  dup4\n    /* \"#utility.yul\":8137:8155   */\n  add\n    /* \"#utility.yul\":8128:8134   */\n  dup5\n    /* \"#utility.yul\":8084:8156   */\n  tag_76\n  jump\t// in\ntag_175:\n    /* \"#utility.yul\":7721:8163   */\n  swap5\n  swap4\n  pop\n  pop\n  pop\n  pop\n  jump\t// out\n    /* \"#utility.yul\":8169:8391   */\ntag_44:\n    /* \"#utility.yul\":8262:8266   */\n  0x00\n    /* \"#utility.yul\":8300:8302   */\n  0x20\n    /* \"#utility.yul\":8289:8298   */\n  dup3\n    /* \"#utility.yul\":8285:8303   */\n  add\n    /* \"#utility.yul\":8277:8303   */\n  swap1\n  pop\n    /* \"#utility.yul\":8313:8384   */\n  tag_177\n    /* \"#utility.yul\":8381:8382   */\n  0x00\n    /* \"#utility.yul\":8370:8379   */\n  dup4\n    /* \"#utility.yul\":8366:8383   */\n  add\n    /* \"#utility.yul\":8357:8363   */\n  dup5\n    /* \"#utility.yul\":8313:8384   */\n  tag_76\n  jump\t// in\ntag_177:\n    /* \"#utility.yul\":8169:8391   */\n  swap3\n  swap2\n  pop\n  pop\n  jump\t// out\n    /* \"src/EduRewardToken.sol\":535:1455  contract EduRewardToken is ERC20, ERC20Burnable, AccessControl {... */\ntag_17:\n  dataSize(sub_0)\n  dup1\n  dataOffset(sub_0)\n  0x00\n  codecopy\n  0x00\n  return\nstop\n\nsub_0: assembly {\n        /* \"src/EduRewardToken.sol\":535:1455  contract EduRewardToken is ERC20, ERC20Burnable, AccessControl {... */\n      mstore(0x40, 0x80)\n      callvalue\n      dup1\n      iszero\n      tag_1\n      jumpi\n      revert(0x00, 0x00)\n    tag_1:\n      pop\n      jumpi(tag_2, lt(calldatasize, 0x04))\n      shr(0xe0, calldataload(0x00))\n      dup1\n      0x42966c68\n      gt\n      tag_23\n      jumpi\n      dup1\n      0xa217fddf\n      gt\n      tag_24\n      jumpi\n      dup1\n      0xa217fddf\n      eq\n      tag_18\n      jumpi\n      dup1\n      0xa9059cbb\n      eq\n      tag_19\n      jumpi\n      dup1\n      0xd5391393\n      eq\n      tag_20\n      jumpi\n      dup1\n      0xd547741f\n      eq\n      tag_21\n      jumpi\n      dup1\n      0xdd62ed3e\n      eq\n      tag_22\n      jumpi\n      jump(tag_2)\n    tag_24:\n      dup1\n      0x42966c68\n      eq\n      tag_13\n      jumpi\n      dup1\n      0x70a08231\n      eq\n      tag_14\n      jumpi\n      dup1\n      0x79cc6790\n      eq\n      tag_15\n      jumpi\n      dup1\n      0x91d14854\n      eq\n      tag_16\n      jumpi\n      dup1\n      0x95d89b41\n      eq\n      tag_17\n      jumpi\n      jump(tag_2)\n    tag_23:\n      dup1\n      0x248a9ca3\n      gt\n      tag_25\n      jumpi\n      dup1\n      0x248a9ca3\n      eq\n      tag_8\n      jumpi\n      dup1\n      0x2f2ff15d\n      eq\n      tag_9\n      jumpi\n      dup1\n      0x313ce567\n      eq\n      tag_10\n      jumpi\n      dup1\n      0x36568abe\n      eq\n      tag_11\n      jumpi\n      dup1\n      0x40c10f19\n      eq\n      tag_12\n      jumpi\n      jump(tag_2)\n    tag_25:\n      dup1\n      0x01ffc9a7\n      eq\n      tag_3\n      jumpi\n      dup1\n      0x06fdde03\n      eq\n      tag_4\n      jumpi\n      dup1\n      0x095ea7b3\n      eq\n      tag_5\n      jumpi\n      dup1\n      0x18160ddd\n      eq\n      tag_6\n      jumpi\n      dup1\n      0x23b872dd\n      eq\n      tag_7\n      jumpi\n    tag_2:\n      revert(0x00, 0x00)\n        /* \"dependencies/@openzeppelin-contracts-5.5.0/access/AccessControl.sol\":2541:2743  function supportsInterface(bytes4 interfaceId) public view virtual override returns (bool) {... */\n    tag_3:\n      tag_26\n      0x04\n      dup1\n      calldatasize\n      sub\n      dup2\n      add\n      swap1\n      tag_27\n      swap2\n      swap1\n      tag_28\n      jump\t// in\n    tag_27:\n      tag_29\n      jump\t// in\n    tag_26:\n      mload(0x40)\n      tag_30\n      swap2\n      swap1\n      tag_31\n      jump\t// in\n    tag_30:\n      mload(0x40)\n      dup1\n      swap2\n      sub\n      swap1\n      return\n        /* \"dependencies/@openzeppelin-contracts-5.5.0/token/ERC20/ERC20.sol\":1760:1849  function name() public view virtual returns (string memory) {... */\n    tag_4:\n      tag_32\n      tag_33\n      jump\t// in\n    tag_32:\n      mload(0x40)\n      tag_34\n      swap2\n      swap1\n      tag_35\n      jump\t// in\n    tag_34:\n      mload(0x40)\n      dup1\n      swap2\n      sub\n      swap1\n      return\n        /* \"dependencies/@openzeppelin-contracts-5.5.0/token/ERC20/ERC20.sol\":3902:4088  function approve(address spender, uint256 value) public virtual returns (bool) {... */\n    tag_5:\n      tag_36\n      0x04\n      dup1\n      calldatasize\n      sub\n      dup2\n      add\n      swap1\n      tag_37\n      swap2\n      swap1\n      tag_38\n      jump\t// in\n    tag_37:\n      tag_39\n      jump\t// in\n    tag_36:\n      mload(0x40)\n      tag_40\n      swap2\n      swap1\n      tag_31\n      jump\t// in\n    tag_40:\n      mload(0x40)\n      dup1\n      swap2\n      sub\n      swap1\n      return\n        /* \"dependencies/@openzeppelin-contracts-5.5.0/token/ERC20/ERC20.sol\":2803:2900  function totalSupply() public view virtual returns (uint256) {... */\n    tag_6:\n      tag_41\n      tag_42\n      jump\t// in\n    tag_41:\n      mload(0x40)\n      tag_43\n      swap2\n      swap1\n      tag_44\n      jump\t// in\n    tag_43:\n      mload(0x40)\n      dup1\n      swap2\n      sub\n      swap1\n      return\n        /* \"dependencies/@openzeppelin-contracts-5.5.0/token/ERC20/ERC20.sol\":4680:4924  function transferFrom(address from, address to, uint256 value) public virtual returns (bool) {... */\n    tag_7:\n      tag_45\n      0x04\n      dup1\n      calldatasize\n      sub\n      dup2\n      add\n      swap1\n      tag_46\n      swap2\n      swap1\n      tag_47\n      jump\t// in\n    tag_46:\n      tag_48\n      jump\t// in\n    tag_45:\n      mload(0x40)\n      tag_49\n      swap2\n      swap1\n      tag_31\n      jump\t// in\n    tag_49:\n      mload(0x40)\n      dup1\n      swap2\n      sub\n      swap1\n      return\n        /* \"dependencies/@openzeppelin-contracts-5.5.0/access/AccessControl.sol\":3786:3906  function getRoleAdmin(bytes32 role) public view virtual returns (bytes32) {... */\n    tag_8:\n      tag_50\n      0x04\n      dup1\n      calldatasize\n      sub\n      dup2\n      add\n      swap1\n      tag_51\n      swap2\n      swap1\n      tag_52\n      jump\t// in\n    tag_51:\n      tag_53\n      jump\t// in\n    tag_50:\n      mload(0x40)\n      tag_54\n      swap2\n      swap1\n      tag_55\n      jump\t// in\n    tag_54:\n      mload(0x40)\n      dup1\n      swap2\n      sub\n      swap1\n      return\n        /* \"dependencies/@openzeppelin-contracts-5.5.0/access/AccessControl.sol\":4202:4338  function grantRole(bytes32 role, address account) public virtual onlyRole(getRoleAdmin(role)) {... */\n    tag_9:\n      tag_56\n      0x04\n      dup1\n      calldatasize\n      sub\n      dup2\n      add\n      swap1\n      tag_57\n      swap2\n      swap1\n      tag_58\n      jump\t// in\n    tag_57:\n      tag_59\n      jump\t// in\n    tag_56:\n      stop\n        /* \"dependencies/@openzeppelin-contracts-5.5.0/token/ERC20/ERC20.sol\":2688:2770  function decimals() public view virtual returns (uint8) {... */\n    tag_10:\n      tag_60\n      tag_61\n      jump\t// in\n    tag_60:\n      mload(0x40)\n      tag_62\n      swap2\n      swap1\n      tag_63\n      jump\t// in\n    tag_62:\n      mload(0x40)\n      dup1\n      swap2\n      sub\n      swap1\n      return\n        /* \"dependencies/@openzeppelin-contracts-5.5.0/access/AccessControl.sol\":5304:5549  function renounceRole(bytes32 role, address callerConfirmation) public virtual {... */\n    tag_11:\n      tag_64\n      0x04\n      dup1\n      calldatasize\n      sub\n      dup2\n      add\n      swap1\n      tag_65\n      swap2\n      swap1\n      tag_58\n      jump\t// in\n    tag_65:\n      tag_66\n      jump\t// in\n    tag_64:\n      stop\n        /* \"src/EduRewardToken.sol\":1346:1453  function mint(address to, uint256 amount) external onlyRole(MINTER_ROLE) {... */\n    tag_12:\n      tag_67\n      0x04\n      dup1\n      calldatasize\n      sub\n      dup2\n      add\n      swap1\n      tag_68\n      swap2\n      swap1\n      tag_38\n      jump\t// in\n    tag_68:\n      tag_69\n      jump\t// in\n    tag_67:\n      stop\n        /* \"dependencies/@openzeppelin-contracts-5.5.0/token/ERC20/extensions/ERC20Burnable.sol\":618:705  function burn(uint256 value) public virtual {... */\n    tag_13:\n      tag_70\n      0x04\n      dup1\n      calldatasize\n      sub\n      dup2\n      add\n      swap1\n      tag_71\n      swap2\n      swap1\n      tag_72\n      jump\t// in\n    tag_71:\n      tag_73\n      jump\t// in\n    tag_70:\n      stop\n        /* \"dependencies/@openzeppelin-contracts-5.5.0/token/ERC20/ERC20.sol\":2933:3049  function balanceOf(address account) public view virtual returns (uint256) {... */\n    tag_14:\n      tag_74\n      0x04\n      dup1\n      calldatasize\n      sub\n      dup2\n      add\n      swap1\n      tag_75\n      swap2\n      swap1\n      tag_76\n      jump\t// in\n    tag_75:\n      tag_77\n      jump\t// in\n    tag_74:\n      mload(0x40)\n      tag_78\n      swap2\n      swap1\n      tag_44\n      jump\t// in\n    tag_78:\n      mload(0x40)\n      dup1\n      swap2\n      sub\n      swap1\n      return\n        /* \"dependencies/@openzeppelin-contracts-5.5.0/token/ERC20/extensions/ERC20Burnable.sol\":1021:1179  function burnFrom(address account, uint256 value) public virtual {... */\n    tag_15:\n      tag_79\n      0x04\n      dup1\n      calldatasize\n      sub\n      dup2\n      add\n      swap1\n      tag_80\n      swap2\n      swap1\n      tag_38\n      jump\t// in\n    tag_80:\n      tag_81\n      jump\t// in\n    tag_79:\n      stop\n        /* \"dependencies/@openzeppelin-contracts-5.5.0/access/AccessControl.sol\":2830:2966  function hasRole(bytes32 role, address account) public view virtual returns (bool) {... */\n    tag_16:\n      tag_82\n      0x04\n      dup1\n      calldatasize\n      sub\n      dup2\n      add\n      swap1\n      tag_83\n      swap2\n      swap1\n      tag_58\n      jump\t// in\n    tag_83:\n      tag_84\n      jump\t// in\n    tag_82:\n      mload(0x40)\n      tag_85\n      swap2\n      swap1\n      tag_31\n      jump\t// in\n    tag_85:\n      mload(0x40)\n      dup1\n      swap2\n      sub\n      swap1\n      return\n        /* \"dependencies/@openzeppelin-contracts-5.5.0/token/ERC20/ERC20.sol\":1962:2055  function symbol() public view virtual returns (string memory) {... */\n    tag_17:\n      tag_86\n      tag_87\n      jump\t// in\n    tag_86:\n      mload(0x40)\n      tag_88\n      swap2\n      swap1\n      tag_35\n      jump\t// in\n    tag_88:\n      mload(0x40)\n      dup1\n      swap2\n      sub\n      swap1\n      return\n        /* \"dependencies/@openzeppelin-contracts-5.5.0/access/AccessControl.sol\":2196:2245  bytes32 public constant DEFAULT_ADMIN_ROLE = 0x00 */\n    tag_18:\n      tag_89\n      tag_90\n      jump\t// in\n    tag_89:\n      mload(0x40)\n      tag_91\n      swap2\n      swap1\n      tag_55\n      jump\t// in\n    tag_91:\n      mload(0x40)\n      dup1\n      swap2\n      sub\n      swap1\n      return\n        /* \"dependencies/@openzeppelin-contracts-5.5.0/token/ERC20/ERC20.sol\":3244:3422  function transfer(address to, uint256 value) public virtual returns (bool) {... */\n    tag_19:\n      tag_92\n      0x04\n      dup1\n      calldatasize\n      sub\n      dup2\n      add\n      swap1\n      tag_93\n      swap2\n      swap1\n      tag_38\n      jump\t// in\n    tag_93:\n      tag_94\n      jump\t// in\n    tag_92:\n      mload(0x40)\n      tag_95\n      swap2\n      swap1\n      tag_31\n      jump\t// in\n    tag_95:\n      mload(0x40)\n      dup1\n      swap2\n      sub\n      swap1\n      return\n        /* \"src/EduRewardToken.sol\":604:666  bytes32 public constant MINTER_ROLE = keccak256(\"MINTER_ROLE\") */\n    tag_20:\n      tag_96\n      tag_97\n      jump\t// in\n    tag_96:\n      mload(0x40)\n      tag_98\n      swap2\n      swap1\n      tag_55\n      jump\t// in\n    tag_98:\n      mload(0x40)\n      dup1\n      swap2\n      sub\n      swap1\n      return\n        /* \"dependencies/@openzeppelin-contracts-5.5.0/access/AccessControl.sol\":4618:4756  function revokeRole(bytes32 role, address account) public virtual onlyRole(getRoleAdmin(role)) {... */\n    tag_21:\n      tag_99\n      0x04\n      dup1\n      calldatasize\n      sub\n      dup2\n      add\n      swap1\n      tag_100\n      swap2\n      swap1\n      tag_58\n      jump\t// in\n    tag_100:\n      tag_101\n      jump\t// in\n    tag_99:\n      stop\n        /* \"dependencies/@openzeppelin-contracts-5.5.0/token/ERC20/ERC20.sol\":3455:3595  function allowance(address owner, address spender) public view virtual returns (uint256) {... */\n    tag_22:\n      tag_102\n      0x04\n      dup1\n      calldatasize\n      sub\n      dup2\n      add\n      swap1\n      tag_103\n      swap2\n      swap1\n      tag_104\n      jump\t// in\n    tag_103:\n      tag_105\n      jump\t// in\n    tag_102:\n      mload(0x40)\n      tag_106\n      swap2\n      swap1\n      tag_44\n      jump\t// in\n    tag_106:\n      mload(0x40)\n      dup1\n      swap2\n      sub\n      swap1\n      return\n        /* \"dependencies/@openzeppelin-contracts-5.5.0/access/AccessControl.sol\":2541:2743  function supportsInterface(bytes4 interfaceId) public view virtual override returns (bool) {... */\n    tag_29:\n        /* \"dependencies/@openzeppelin-contracts-5.5.0/access/AccessControl.sol\":2626:2630  bool */\n      0x00\n        /* \"dependencies/@openzeppelin-contracts-5.5.0/access/AccessControl.sol\":2664:2696  type(IAccessControl).interfaceId */\n      0x7965db0b00000000000000000000000000000000000000000000000000000000\n        /* \"dependencies/@openzeppelin-contracts-5.5.0/access/AccessControl.sol\":2649:2696  interfaceId == type(IAccessControl).interfaceId */\n      not(0xffffffffffffffffffffffffffffffffffffffffffffffffffffffff)\n      and\n        /* \"dependencies/@openzeppelin-contracts-5.5.0/access/AccessControl.sol\":2649:2660  interfaceId */\n      dup3\n        /* \"dependencies/@openzeppelin-contracts-5.5.0/access/AccessControl.sol\":2649:2696  interfaceId == type(IAccessControl).interfaceId */\n      not(0xffffffffffffffffffffffffffffffffffffffffffffffffffffffff)\n      and\n      eq\n        /* \"dependencies/@openzeppelin-contracts-5.5.0/access/AccessControl.sol\":2649:2736  interfaceId == type(IAccessControl).interfaceId || super.supportsInterface(interfaceId) */\n      dup1\n      tag_108\n      jumpi\n      pop\n        /* \"dependencies/@openzeppelin-contracts-5.5.0/access/AccessControl.sol\":2700:2736  super.supportsInterface(interfaceId) */\n      tag_109\n        /* \"dependencies/@openzeppelin-contracts-5.5.0/access/AccessControl.sol\":2724:2735  interfaceId */\n      dup3\n        /* \"dependencies/@openzeppelin-contracts-5.5.0/access/AccessControl.sol\":2700:2723  super.supportsInterface */\n      tag_110\n        /* \"dependencies/@openzeppelin-contracts-5.5.0/access/AccessControl.sol\":2700:2736  super.supportsInterface(interfaceId) */\n      jump\t// in\n    tag_109:\n        /* \"dependencies/@openzeppelin-contracts-5.5.0/access/AccessControl.sol\":2649:2736  interfaceId == type(IAccessControl).interfaceId || super.supportsInterface(interfaceId) */\n    tag_108:\n        /* \"dependencies/@openzeppelin-contracts-5.5.0/access/AccessControl.sol\":2642:2736  return interfaceId == type(IAccessControl).interfaceId || super.supportsInterface(interfaceId) */\n      swap1\n      pop\n        /* \"dependencies/@openzeppelin-contracts-5.5.0/access/AccessControl.sol\":2541:2743  function supportsInterface(bytes4 interfaceId) public view virtual override returns (bool) {... */\n      swap2\n      swap1\n      pop\n      jump\t// out\n        /* \"dependencies/@openzeppelin-contracts-5.5.0/token/ERC20/ERC20.sol\":1760:1849  function name() public view virtual returns (string memory) {... */\n    tag_33:\n        /* \"dependencies/@openzeppelin-contracts-5.5.0/token/ERC20/ERC20.sol\":1805:1818  string memory */\n      0x60\n        /* \"dependencies/@openzeppelin-contracts-5.5.0/token/ERC20/ERC20.sol\":1837:1842  _name */\n      0x03\n        /* \"dependencies/@openzeppelin-contracts-5.5.0/token/ERC20/ERC20.sol\":1830:1842  return _name */\n      dup1\n      sload\n      tag_112\n      swap1\n      tag_113\n      jump\t// in\n    tag_112:\n      dup1\n      0x1f\n      add\n      0x20\n      dup1\n      swap2\n      div\n      mul\n      0x20\n      add\n      mload(0x40)\n      swap1\n      dup2\n      add\n      0x40\n      mstore\n      dup1\n      swap3\n      swap2\n      swap1\n      dup2\n      dup2\n      mstore\n      0x20\n      add\n      dup3\n      dup1\n      sload\n      tag_114\n      swap1\n      tag_113\n      jump\t// in\n    tag_114:\n      dup1\n      iszero\n      tag_115\n      jumpi\n      dup1\n      0x1f\n      lt\n      tag_116\n      jumpi\n      0x0100\n      dup1\n      dup4\n      sload\n      div\n      mul\n      dup4\n      mstore\n      swap2\n      0x20\n      add\n      swap2\n      jump(tag_115)\n    tag_116:\n      dup3\n      add\n      swap2\n      swap1\n      0x00\n      mstore\n      keccak256(0x00, 0x20)\n      swap1\n    tag_117:\n      dup2\n      sload\n      dup2\n      mstore\n      swap1\n      0x01\n      add\n      swap1\n      0x20\n      add\n      dup1\n      dup4\n      gt\n      tag_117\n      jumpi\n      dup3\n      swap1\n      sub\n      0x1f\n      and\n      dup3\n      add\n      swap2\n    tag_115:\n      pop\n      pop\n      pop\n      pop\n      pop\n      swap1\n      pop\n        /* \"dependencies/@openzeppelin-contracts-5.5.0/token/ERC20/ERC20.sol\":1760:1849  function name() public view virtual returns (string memory) {... */\n      swap1\n      jump\t// out\n        /* \"dependencies/@openzeppelin-contracts-5.5.0/token/ERC20/ERC20.sol\":3902:4088  function approve(address spender, uint256 value) public virtual returns (bool) {... */\n    tag_39:\n        /* \"dependencies/@openzeppelin-contracts-5.5.0/token/ERC20/ERC20.sol\":3975:3979  bool */\n      0x00\n        /* \"dependencies/@openzeppelin-contracts-5.5.0/token/ERC20/ERC20.sol\":3991:4004  address owner */\n      0x00\n        /* \"dependencies/@openzeppelin-contracts-5.5.0/token/ERC20/ERC20.sol\":4007:4019  _msgSender() */\n      tag_119\n        /* \"dependencies/@openzeppelin-contracts-5.5.0/token/ERC20/ERC20.sol\":4007:4017  _msgSender */\n      tag_120\n        /* \"dependencies/@openzeppelin-contracts-5.5.0/token/ERC20/ERC20.sol\":4007:4019  _msgSender() */\n      jump\t// in\n    tag_119:\n        /* \"dependencies/@openzeppelin-contracts-5.5.0/token/ERC20/ERC20.sol\":3991:4019  address owner = _msgSender() */\n      swap1\n      pop\n        /* \"dependencies/@openzeppelin-contracts-5.5.0/token/ERC20/ERC20.sol\":4029:4060  _approve(owner, spender, value) */\n      tag_121\n        /* \"dependencies/@openzeppelin-contracts-5.5.0/token/ERC20/ERC20.sol\":4038:4043  owner */\n      dup2\n        /* \"dependencies/@openzeppelin-contracts-5.5.0/token/ERC20/ERC20.sol\":4045:4052  spender */\n      dup6\n        /* \"dependencies/@openzeppelin-contracts-5.5.0/token/ERC20/ERC20.sol\":4054:4059  value */\n      dup6\n        /* \"dependencies/@openzeppelin-contracts-5.5.0/token/ERC20/ERC20.sol\":4029:4037  _approve */\n      tag_122\n        /* \"dependencies/@openzeppelin-contracts-5.5.0/token/ERC20/ERC20.sol\":4029:4060  _approve(owner, spender, value) */\n      jump\t// in\n    tag_121:\n        /* \"dependencies/@openzeppelin-contracts-5.5.0/token/ERC20/ERC20.sol\":4077:4081  true */\n      0x01\n        /* \"dependencies/@openzeppelin-contracts-5.5.0/token/ERC20/ERC20.sol\":4070:4081  return true */\n      swap2\n      pop\n      pop\n        /* \"dependencies/@openzeppelin-contracts-5.5.0/token/ERC20/ERC20.sol\":3902:4088  function approve(address spender, uint256 value) public virtual returns (bool) {... */\n      swap3\n      swap2\n      pop\n      pop\n      jump\t// out\n        /* \"dependencies/@openzeppelin-contracts-5.5.0/token/ERC20/ERC20.sol\":2803:2900  function totalSupply() public view virtual returns (uint256) {... */\n    tag_42:\n        /* \"dependencies/@openzeppelin-contracts-5.5.0/token/ERC20/ERC20.sol\":2855:2862  uint256 */\n      0x00\n        /* \"dependencies/@openzeppelin-contracts-5.5.0/token/ERC20/ERC20.sol\":2881:2893  _totalSupply */\n      sload(0x02)\n        /* \"dependencies/@openzeppelin-contracts-5.5.0/token/ERC20/ERC20.sol\":2874:2893  return _totalSupply */\n      swap1\n      pop\n        /* \"dependencies/@openzeppelin-contracts-5.5.0/token/ERC20/ERC20.sol\":2803:2900  function totalSupply() public view virtual returns (uint256) {... */\n      swap1\n      jump\t// out\n        /* \"dependencies/@openzeppelin-contracts-5.5.0/token/ERC20/ERC20.sol\":4680:4924  function transferFrom(address from, address to, uint256 value) public virtual returns (bool) {... */\n    tag_48:\n        /* \"dependencies/@openzeppelin-contracts-5.5.0/token/ERC20/ERC20.sol\":4767:4771  bool */\n      0x00\n        /* \"dependencies/@openzeppelin-contracts-5.5.0/token/ERC20/ERC20.sol\":4783:4798  address spender */\n      0x00\n        /* \"dependencies/@openzeppelin-contracts-5.5.0/token/ERC20/ERC20.sol\":4801:4813  _msgSender() */\n      tag_125\n        /* \"dependencies/@openzeppelin-contracts-5.5.0/token/ERC20/ERC20.sol\":4801:4811  _msgSender */\n      tag_120\n        /* \"dependencies/@openzeppelin-contracts-5.5.0/token/ERC20/ERC20.sol\":4801:4813  _msgSender() */\n      jump\t// in\n    tag_125:\n        /* \"dependencies/@openzeppelin-contracts-5.5.0/token/ERC20/ERC20.sol\":4783:4813  address spender = _msgSender() */\n      swap1\n      pop\n        /* \"dependencies/@openzeppelin-contracts-5.5.0/token/ERC20/ERC20.sol\":4823:4860  _spendAllowance(from, spender, value) */\n      tag_126\n        /* \"dependencies/@openzeppelin-contracts-5.5.0/token/ERC20/ERC20.sol\":4839:4843  from */\n      dup6\n        /* \"dependencies/@openzeppelin-contracts-5.5.0/token/ERC20/ERC20.sol\":4845:4852  spender */\n      dup3\n        /* \"dependencies/@openzeppelin-contracts-5.5.0/token/ERC20/ERC20.sol\":4854:4859  value */\n      dup6\n        /* \"dependencies/@openzeppelin-contracts-5.5.0/token/ERC20/ERC20.sol\":4823:4838  _spendAllowance */\n      tag_127\n        /* \"dependencies/@openzeppelin-contracts-5.5.0/token/ERC20/ERC20.sol\":4823:4860  _spendAllowance(from, spender, value) */\n      jump\t// in\n    tag_126:\n        /* \"dependencies/@openzeppelin-contracts-5.5.0/token/ERC20/ERC20.sol\":4870:4896  _transfer(from, to, value) */\n      tag_128\n        /* \"dependencies/@openzeppelin-contracts-5.5.0/token/ERC20/ERC20.sol\":4880:4884  from */\n      dup6\n        /* \"dependencies/@openzeppelin-contracts-5.5.0/token/ERC20/ERC20.sol\":4886:4888  to */\n      dup6\n        /* \"dependencies/@openzeppelin-contracts-5.5.0/token/ERC20/ERC20.sol\":4890:4895  value */\n      dup6\n        /* \"dependencies/@openzeppelin-contracts-5.5.0/token/ERC20/ERC20.sol\":4870:4879  _transfer */\n      tag_129\n        /* \"dependencies/@openzeppelin-contracts-5.5.0/token/ERC20/ERC20.sol\":4870:4896  _transfer(from, to, value) */\n      jump\t// in\n    tag_128:\n        /* \"dependencies/@openzeppelin-contracts-5.5.0/token/ERC20/ERC20.sol\":4913:4917  true */\n      0x01\n        /* \"dependencies/@openzeppelin-contracts-5.5.0/token/ERC20/ERC20.sol\":4906:4917  return true */\n      swap2\n      pop\n      pop\n        /* \"dependencies/@openzeppelin-contracts-5.5.0/token/ERC20/ERC20.sol\":4680:4924  function transferFrom(address from, address to, uint256 value) public virtual returns (bool) {... */\n      swap4\n      swap3\n      pop\n      pop\n      pop\n      jump\t// out\n        /* \"dependencies/@openzeppelin-contracts-5.5.0/access/AccessControl.sol\":3786:3906  function getRoleAdmin(bytes32 role) public view virtual returns (bytes32) {... */\n    tag_53:\n        /* \"dependencies/@openzeppelin-contracts-5.5.0/access/AccessControl.sol\":3851:3858  bytes32 */\n      0x00\n        /* \"dependencies/@openzeppelin-contracts-5.5.0/access/AccessControl.sol\":3877:3883  _roles */\n      0x05\n        /* \"dependencies/@openzeppelin-contracts-5.5.0/access/AccessControl.sol\":3877:3889  _roles[role] */\n      0x00\n        /* \"dependencies/@openzeppelin-contracts-5.5.0/access/AccessControl.sol\":3884:3888  role */\n      dup4\n        /* \"dependencies/@openzeppelin-contracts-5.5.0/access/AccessControl.sol\":3877:3889  _roles[role] */\n      dup2\n      mstore\n      0x20\n      add\n      swap1\n      dup2\n      mstore\n      0x20\n      add\n      0x00\n      keccak256\n        /* \"dependencies/@openzeppelin-contracts-5.5.0/access/AccessControl.sol\":3877:3899  _roles[role].adminRole */\n      0x01\n      add\n      sload\n        /* \"dependencies/@openzeppelin-contracts-5.5.0/access/AccessControl.sol\":3870:3899  return _roles[role].adminRole */\n      swap1\n      pop\n        /* \"dependencies/@openzeppelin-contracts-5.5.0/access/AccessControl.sol\":3786:3906  function getRoleAdmin(bytes32 role) public view virtual returns (bytes32) {... */\n      swap2\n      swap1\n      pop\n      jump\t// out\n        /* \"dependencies/@openzeppelin-contracts-5.5.0/access/AccessControl.sol\":4202:4338  function grantRole(bytes32 role, address account) public virtual onlyRole(getRoleAdmin(role)) {... */\n    tag_59:\n        /* \"dependencies/@openzeppelin-contracts-5.5.0/access/AccessControl.sol\":4276:4294  getRoleAdmin(role) */\n      tag_131\n        /* \"dependencies/@openzeppelin-contracts-5.5.0/access/AccessControl.sol\":4289:4293  role */\n      dup3\n        /* \"dependencies/@openzeppelin-contracts-5.5.0/access/AccessControl.sol\":4276:4288  getRoleAdmin */\n      tag_53\n        /* \"dependencies/@openzeppelin-contracts-5.5.0/access/AccessControl.sol\":4276:4294  getRoleAdmin(role) */\n      jump\t// in\n    tag_131:\n        /* \"dependencies/@openzeppelin-contracts-5.5.0/access/AccessControl.sol\":2473:2489  _checkRole(role) */\n      tag_133\n        /* \"dependencies/@openzeppelin-contracts-5.5.0/access/AccessControl.sol\":2484:2488  role */\n      dup2\n        /* \"dependencies/@openzeppelin-contracts-5.5.0/access/AccessControl.sol\":2473:2483  _checkRole */\n      tag_134\n        /* \"dependencies/@openzeppelin-contracts-5.5.0/access/AccessControl.sol\":2473:2489  _checkRole(role) */\n      jump\t// in\n    tag_133:\n        /* \"dependencies/@openzeppelin-contracts-5.5.0/access/AccessControl.sol\":4306:4331  _grantRole(role, account) */\n      tag_136\n        /* \"dependencies/@openzeppelin-contracts-5.5.0/access/AccessControl.sol\":4317:4321  role */\n      dup4\n        /* \"dependencies/@openzeppelin-contracts-5.5.0/access/AccessControl.sol\":4323:4330  account */\n      dup4\n        /* \"dependencies/@openzeppelin-contracts-5.5.0/access/AccessControl.sol\":4306:4316  _grantRole */\n      tag_137\n        /* \"dependencies/@openzeppelin-contracts-5.5.0/access/AccessControl.sol\":4306:4331  _grantRole(role, account) */\n      jump\t// in\n    tag_136:\n      pop\n        /* \"dependencies/@openzeppelin-contracts-5.5.0/access/AccessControl.sol\":4202:4338  function grantRole(bytes32 role, address account) public virtual onlyRole(getRoleAdmin(role)) {... */\n      pop\n      pop\n      pop\n      jump\t// out\n        /* \"dependencies/@openzeppelin-contracts-5.5.0/token/ERC20/ERC20.sol\":2688:2770  function decimals() public view virtual returns (uint8) {... */\n    tag_61:\n        /* \"dependencies/@openzeppelin-contracts-5.5.0/token/ERC20/ERC20.sol\":2737:2742  uint8 */\n      0x00\n        /* \"dependencies/@openzeppelin-contracts-5.5.0/token/ERC20/ERC20.sol\":2761:2763  18 */\n      0x12\n        /* \"dependencies/@openzeppelin-contracts-5.5.0/token/ERC20/ERC20.sol\":2754:2763  return 18 */\n      swap1\n      pop\n        /* \"dependencies/@openzeppelin-contracts-5.5.0/token/ERC20/ERC20.sol\":2688:2770  function decimals() public view virtual returns (uint8) {... */\n      swap1\n      jump\t// out\n        /* \"dependencies/@openzeppelin-contracts-5.5.0/access/AccessControl.sol\":5304:5549  function renounceRole(bytes32 role, address callerConfirmation) public virtual {... */\n    tag_66:\n        /* \"dependencies/@openzeppelin-contracts-5.5.0/access/AccessControl.sol\":5419:5431  _msgSender() */\n      tag_140\n        /* \"dependencies/@openzeppelin-contracts-5.5.0/access/AccessControl.sol\":5419:5429  _msgSender */\n      tag_120\n        /* \"dependencies/@openzeppelin-contracts-5.5.0/access/AccessControl.sol\":5419:5431  _msgSender() */\n      jump\t// in\n    tag_140:\n        /* \"dependencies/@openzeppelin-contracts-5.5.0/access/AccessControl.sol\":5397:5431  callerConfirmation != _msgSender() */\n      0xffffffffffffffffffffffffffffffffffffffff\n      and\n        /* \"dependencies/@openzeppelin-contracts-5.5.0/access/AccessControl.sol\":5397:5415  callerConfirmation */\n      dup2\n        /* \"dependencies/@openzeppelin-contracts-5.5.0/access/AccessControl.sol\":5397:5431  callerConfirmation != _msgSender() */\n      0xffffffffffffffffffffffffffffffffffffffff\n      and\n      eq\n        /* \"dependencies/@openzeppelin-contracts-5.5.0/access/AccessControl.sol\":5393:5495  if (callerConfirmation != _msgSender()) {... */\n      tag_141\n      jumpi\n        /* \"dependencies/@openzeppelin-contracts-5.5.0/access/AccessControl.sol\":5454:5484  AccessControlBadConfirmation() */\n      mload(0x40)\n      0x6697b23200000000000000000000000000000000000000000000000000000000\n      dup2\n      mstore\n      0x04\n      add\n      mload(0x40)\n      dup1\n      swap2\n      sub\n      swap1\n      revert\n        /* \"dependencies/@openzeppelin-contracts-5.5.0/access/AccessControl.sol\":5393:5495  if (callerConfirmation != _msgSender()) {... */\n    tag_141:\n        /* \"dependencies/@openzeppelin-contracts-5.5.0/access/AccessControl.sol\":5505:5542  _revokeRole(role, callerConfirmation) */\n      tag_142\n        /* \"dependencies/@openzeppelin-contracts-5.5.0/access/AccessControl.sol\":5517:5521  role */\n      dup3\n        /* \"dependencies/@openzeppelin-contracts-5.5.0/access/AccessControl.sol\":5523:5541  callerConfirmation */\n      dup3\n        /* \"dependencies/@openzeppelin-contracts-5.5.0/access/AccessControl.sol\":5505:5516  _revokeRole */\n      tag_143\n        /* \"dependencies/@openzeppelin-contracts-5.5.0/access/AccessControl.sol\":5505:5542  _revokeRole(role, callerConfirmation) */\n      jump\t// in\n    tag_142:\n      pop\n        /* \"dependencies/@openzeppelin-contracts-5.5.0/access/AccessControl.sol\":5304:5549  function renounceRole(bytes32 role, address callerConfirmation) public virtual {... */\n      pop\n      pop\n      jump\t// out\n        /* \"src/EduRewardToken.sol\":1346:1453  function mint(address to, uint256 amount) external onlyRole(MINTER_ROLE) {... */\n    tag_69:\n        /* \"src/EduRewardToken.sol\":642:666  keccak256(\"MINTER_ROLE\") */\n      0x9f2df0fed2c77648de5860a4cc508cd0818c85b8b8a1ab4ceeef8d981c8956a6\n        /* \"dependencies/@openzeppelin-contracts-5.5.0/access/AccessControl.sol\":2473:2489  _checkRole(role) */\n      tag_145\n        /* \"dependencies/@openzeppelin-contracts-5.5.0/access/AccessControl.sol\":2484:2488  role */\n      dup2\n        /* \"dependencies/@openzeppelin-contracts-5.5.0/access/AccessControl.sol\":2473:2483  _checkRole */\n      tag_134\n        /* \"dependencies/@openzeppelin-contracts-5.5.0/access/AccessControl.sol\":2473:2489  _checkRole(role) */\n      jump\t// in\n    tag_145:\n        /* \"src/EduRewardToken.sol\":1429:1446  _mint(to, amount) */\n      tag_147\n        /* \"src/EduRewardToken.sol\":1435:1437  to */\n      dup4\n        /* \"src/EduRewardToken.sol\":1439:1445  amount */\n      dup4\n        /* \"src/EduRewardToken.sol\":1429:1434  _mint */\n      tag_148\n        /* \"src/EduRewardToken.sol\":1429:1446  _mint(to, amount) */\n      jump\t// in\n    tag_147:\n        /* \"src/EduRewardToken.sol\":1346:1453  function mint(address to, uint256 amount) external onlyRole(MINTER_ROLE) {... */\n      pop\n      pop\n      pop\n      jump\t// out\n        /* \"dependencies/@openzeppelin-contracts-5.5.0/token/ERC20/extensions/ERC20Burnable.sol\":618:705  function burn(uint256 value) public virtual {... */\n    tag_73:\n        /* \"dependencies/@openzeppelin-contracts-5.5.0/token/ERC20/extensions/ERC20Burnable.sol\":672:698  _burn(_msgSender(), value) */\n      tag_150\n        /* \"dependencies/@openzeppelin-contracts-5.5.0/token/ERC20/extensions/ERC20Burnable.sol\":678:690  _msgSender() */\n      tag_151\n        /* \"dependencies/@openzeppelin-contracts-5.5.0/token/ERC20/extensions/ERC20Burnable.sol\":678:688  _msgSender */\n      tag_120\n        /* \"dependencies/@openzeppelin-contracts-5.5.0/token/ERC20/extensions/ERC20Burnable.sol\":678:690  _msgSender() */\n      jump\t// in\n    tag_151:\n        /* \"dependencies/@openzeppelin-contracts-5.5.0/token/ERC20/extensions/ERC20Burnable.sol\":692:697  value */\n      dup3\n        /* \"dependencies/@openzeppelin-contracts-5.5.0/token/ERC20/extensions/ERC20Burnable.sol\":672:677  _burn */\n      tag_152\n        /* \"dependencies/@openzeppelin-contracts-5.5.0/token/ERC20/extensions/ERC20Burnable.sol\":672:698  _burn(_msgSender(), value) */\n      jump\t// in\n    tag_150:\n        /* \"dependencies/@openzeppelin-contracts-5.5.0/token/ERC20/extensions/ERC20Burnable.sol\":618:705  function burn(uint256 value) public virtual {... */\n      pop\n      jump\t// out\n        /* \"dependencies/@openzeppelin-contracts-5.5.0/token/ERC20/ERC20.sol\":2933:3049  function balanceOf(address account) public view virtual returns (uint256) {... */\n    tag_77:\n        /* \"dependencies/@openzeppelin-contracts-5.5.0/token/ERC20/ERC20.sol\":2998:3005  uint256 */\n      0x00\n        /* \"dependencies/@openzeppelin-contracts-5.5.0/token/ERC20/ERC20.sol\":3024:3033  _balances */\n      0x00\n        /* \"dependencies/@openzeppelin-contracts-5.5.0/token/ERC20/ERC20.sol\":3024:3042  _balances[account] */\n      0x00\n        /* \"dependencies/@openzeppelin-contracts-5.5.0/token/ERC20/ERC20.sol\":3034:3041  account */\n      dup4\n        /* \"dependencies/@openzeppelin-contracts-5.5.0/token/ERC20/ERC20.sol\":3024:3042  _balances[account] */\n      0xffffffffffffffffffffffffffffffffffffffff\n      and\n      0xffffffffffffffffffffffffffffffffffffffff\n      and\n      dup2\n      mstore\n      0x20\n      add\n      swap1\n      dup2\n      mstore\n      0x20\n      add\n      0x00\n      keccak256\n      sload\n        /* \"dependencies/@openzeppelin-contracts-5.5.0/token/ERC20/ERC20.sol\":3017:3042  return _balances[account] */\n      swap1\n      pop\n        /* \"dependencies/@openzeppelin-contracts-5.5.0/token/ERC20/ERC20.sol\":2933:3049  function balanceOf(address account) public view virtual returns (uint256) {... */\n      swap2\n      swap1\n      pop\n      jump\t// out\n        /* \"dependencies/@openzeppelin-contracts-5.5.0/token/ERC20/extensions/ERC20Burnable.sol\":1021:1179  function burnFrom(address account, uint256 value) public virtual {... */\n    tag_81:\n        /* \"dependencies/@openzeppelin-contracts-5.5.0/token/ERC20/extensions/ERC20Burnable.sol\":1096:1141  _spendAllowance(account, _msgSender(), value) */\n      tag_155\n        /* \"dependencies/@openzeppelin-contracts-5.5.0/token/ERC20/extensions/ERC20Burnable.sol\":1112:1119  account */\n      dup3\n        /* \"dependencies/@openzeppelin-contracts-5.5.0/token/ERC20/extensions/ERC20Burnable.sol\":1121:1133  _msgSender() */\n      tag_156\n        /* \"dependencies/@openzeppelin-contracts-5.5.0/token/ERC20/extensions/ERC20Burnable.sol\":1121:1131  _msgSender */\n      tag_120\n        /* \"dependencies/@openzeppelin-contracts-5.5.0/token/ERC20/extensions/ERC20Burnable.sol\":1121:1133  _msgSender() */\n      jump\t// in\n    tag_156:\n        /* \"dependencies/@openzeppelin-contracts-5.5.0/token/ERC20/extensions/ERC20Burnable.sol\":1135:1140  value */\n      dup4\n        /* \"dependencies/@openzeppelin-contracts-5.5.0/token/ERC20/extensions/ERC20Burnable.sol\":1096:1111  _spendAllowance */\n      tag_127\n        /* \"dependencies/@openzeppelin-contracts-5.5.0/token/ERC20/extensions/ERC20Burnable.sol\":1096:1141  _spendAllowance(account, _msgSender(), value) */\n      jump\t// in\n    tag_155:\n        /* \"dependencies/@openzeppelin-contracts-5.5.0/token/ERC20/extensions/ERC20Burnable.sol\":1151:1172  _burn(account, value) */\n      tag_157\n        /* \"dependencies/@openzeppelin-contracts-5.5.0/token/ERC20/extensions/ERC20Burnable.sol\":1157:1164  account */\n      dup3\n        /* \"dependencies/@openzeppelin-contracts-5.5.0/token/ERC20/extensions/ERC20Burnable.sol\":1166:1171  value */\n      dup3\n        /* \"dependencies/@openzeppelin-contracts-5.5.0/token/ERC20/extensions/ERC20Burnable.sol\":1151:1156  _burn */\n      tag_152\n        /* \"dependencies/@openzeppelin-contracts-5.5.0/token/ERC20/extensions/ERC20Burnable.sol\":1151:1172  _burn(account, value) */\n      jump\t// in\n    tag_157:\n        /* \"dependencies/@openzeppelin-contracts-5.5.0/token/ERC20/extensions/ERC20Burnable.sol\":1021:1179  function burnFrom(address account, uint256 value) public virtual {... */\n      pop\n      pop\n      jump\t// out\n        /* \"dependencies/@openzeppelin-contracts-5.5.0/access/AccessControl.sol\":2830:2966  function hasRole(bytes32 role, address account) public view virtual returns (bool) {... */\n    tag_84:\n        /* \"dependencies/@openzeppelin-contracts-5.5.0/access/AccessControl.sol\":2907:2911  bool */\n      0x00\n        /* \"dependencies/@openzeppelin-contracts-5.5.0/access/AccessControl.sol\":2930:2936  _roles */\n      0x05\n        /* \"dependencies/@openzeppelin-contracts-5.5.0/access/AccessControl.sol\":2930:2942  _roles[role] */\n      0x00\n        /* \"dependencies/@openzeppelin-contracts-5.5.0/access/AccessControl.sol\":2937:2941  role */\n      dup5\n        /* \"dependencies/@openzeppelin-contracts-5.5.0/access/AccessControl.sol\":2930:2942  _roles[role] */\n      dup2\n      mstore\n      0x20\n      add\n      swap1\n      dup2\n      mstore\n      0x20\n      add\n      0x00\n      keccak256\n        /* \"dependencies/@openzeppelin-contracts-5.5.0/access/AccessControl.sol\":2930:2950  _roles[role].hasRole */\n      0x00\n      add\n        /* \"dependencies/@openzeppelin-contracts-5.5.0/access/AccessControl.sol\":2930:2959  _roles[role].hasRole[account] */\n      0x00\n        /* \"dependencies/@openzeppelin-contracts-5.5.0/access/AccessControl.sol\":2951:2958  account */\n      dup4\n        /* \"dependencies/@openzeppelin-contracts-5.5.0/access/AccessControl.sol\":2930:2959  _roles[role].hasRole[account] */\n      0xffffffffffffffffffffffffffffffffffffffff\n      and\n      0xffffffffffffffffffffffffffffffffffffffff\n      and\n      dup2\n      mstore\n      0x20\n      add\n      swap1\n      dup2\n      mstore\n      0x20\n      add\n      0x00\n      keccak256\n      0x00\n      swap1\n      sload\n      swap1\n      0x0100\n      exp\n      swap1\n      div\n      0xff\n      and\n        /* \"dependencies/@openzeppelin-contracts-5.5.0/access/AccessControl.sol\":2923:2959  return _roles[role].hasRole[account] */\n      swap1\n      pop\n        /* \"dependencies/@openzeppelin-contracts-5.5.0/access/AccessControl.sol\":2830:2966  function hasRole(bytes32 role, address account) public view virtual returns (bool) {... */\n      swap3\n      swap2\n      pop\n      pop\n      jump\t// out\n        /* \"dependencies/@openzeppelin-contracts-5.5.0/token/ERC20/ERC20.sol\":1962:2055  function symbol() public view virtual returns (string memory) {... */\n    tag_87:\n        /* \"dependencies/@openzeppelin-contracts-5.5.0/token/ERC20/ERC20.sol\":2009:2022  string memory */\n      0x60\n        /* \"dependencies/@openzeppelin-contracts-5.5.0/token/ERC20/ERC20.sol\":2041:2048  _symbol */\n      0x04\n        /* \"dependencies/@openzeppelin-contracts-5.5.0/token/ERC20/ERC20.sol\":2034:2048  return _symbol */\n      dup1\n      sload\n      tag_160\n      swap1\n      tag_113\n      jump\t// in\n    tag_160:\n      dup1\n      0x1f\n      add\n      0x20\n      dup1\n      swap2\n      div\n      mul\n      0x20\n      add\n      mload(0x40)\n      swap1\n      dup2\n      add\n      0x40\n      mstore\n      dup1\n      swap3\n      swap2\n      swap1\n      dup2\n      dup2\n      mstore\n      0x20\n      add\n      dup3\n      dup1\n      sload\n      tag_161\n      swap1\n      tag_113\n      jump\t// in\n    tag_161:\n      dup1\n      iszero\n      tag_162\n      jumpi\n      dup1\n      0x1f\n      lt\n      tag_163\n      jumpi\n      0x0100\n      dup1\n      dup4\n      sload\n      div\n      mul\n      dup4\n      mstore\n      swap2\n      0x20\n      add\n      swap2\n      jump(tag_162)\n    tag_163:\n      dup3\n      add\n      swap2\n      swap1\n      0x00\n      mstore\n      keccak256(0x00, 0x20)\n      swap1\n    tag_164:\n      dup2\n      sload\n      dup2\n      mstore\n      swap1\n      0x01\n      add\n      swap1\n      0x20\n      add\n      dup1\n      dup4\n      gt\n      tag_164\n      jumpi\n      dup3\n      swap1\n      sub\n      0x1f\n      and\n      dup3\n      add\n      swap2\n    tag_162:\n      pop\n      pop\n      pop\n      pop\n      pop\n      swap1\n      pop\n        /* \"dependencies/@openzeppelin-contracts-5.5.0/token/ERC20/ERC20.sol\":1962:2055  function symbol() public view virtual returns (string memory) {... */\n      swap1\n      jump\t// out\n        /* \"dependencies/@openzeppelin-contracts-5.5.0/access/AccessControl.sol\":2196:2245  bytes32 public constant DEFAULT_ADMIN_ROLE = 0x00 */\n    tag_90:\n        /* \"dependencies/@openzeppelin-contracts-5.5.0/access/AccessControl.sol\":2241:2245  0x00 */\n      0x00\n        /* \"dependencies/@openzeppelin-contracts-5.5.0/access/AccessControl.sol\":2196:2245  bytes32 public constant DEFAULT_ADMIN_ROLE = 0x00 */\n      0x00\n      shl\n      dup2\n      jump\t// out\n        /* \"dependencies/@openzeppelin-contracts-5.5.0/token/ERC20/ERC20.sol\":3244:3422  function transfer(address to, uint256 value) public virtual returns (bool) {... */\n    tag_94:\n        /* \"dependencies/@openzeppelin-contracts-5.5.0/token/ERC20/ERC20.sol\":3313:3317  bool */\n      0x00\n        /* \"dependencies/@openzeppelin-contracts-5.5.0/token/ERC20/ERC20.sol\":3329:3342  address owner */\n      0x00\n        /* \"dependencies/@openzeppelin-contracts-5.5.0/token/ERC20/ERC20.sol\":3345:3357  _msgSender() */\n      tag_166\n        /* \"dependencies/@openzeppelin-contracts-5.5.0/token/ERC20/ERC20.sol\":3345:3355  _msgSender */\n      tag_120\n        /* \"dependencies/@openzeppelin-contracts-5.5.0/token/ERC20/ERC20.sol\":3345:3357  _msgSender() */\n      jump\t// in\n    tag_166:\n        /* \"dependencies/@openzeppelin-contracts-5.5.0/token/ERC20/ERC20.sol\":3329:3357  address owner = _msgSender() */\n      swap1\n      pop\n        /* \"dependencies/@openzeppelin-contracts-5.5.0/token/ERC20/ERC20.sol\":3367:3394  _transfer(owner, to, value) */\n      tag_167\n        /* \"dependencies/@openzeppelin-contracts-5.5.0/token/ERC20/ERC20.sol\":3377:3382  owner */\n      dup2\n        /* \"dependencies/@openzeppelin-contracts-5.5.0/token/ERC20/ERC20.sol\":3384:3386  to */\n      dup6\n        /* \"dependencies/@openzeppelin-contracts-5.5.0/token/ERC20/ERC20.sol\":3388:3393  value */\n      dup6\n        /* \"dependencies/@openzeppelin-contracts-5.5.0/token/ERC20/ERC20.sol\":3367:3376  _transfer */\n      tag_129\n        /* \"dependencies/@openzeppelin-contracts-5.5.0/token/ERC20/ERC20.sol\":3367:3394  _transfer(owner, to, value) */\n      jump\t// in\n    tag_167:\n        /* \"dependencies/@openzeppelin-contracts-5.5.0/token/ERC20/ERC20.sol\":3411:3415  true */\n      0x01\n        /* \"dependencies/@openzeppelin-contracts-5.5.0/token/ERC20/ERC20.sol\":3404:3415  return true */\n      swap2\n      pop\n      pop\n        /* \"dependencies/@openzeppelin-contracts-5.5.0/token/ERC20/ERC20.sol\":3244:3422  function transfer(address to, uint256 value) public virtual returns (bool) {... */\n      swap3\n      swap2\n      pop\n      pop\n      jump\t// out\n        /* \"src/EduRewardToken.sol\":604:666  bytes32 public constant MINTER_ROLE = keccak256(\"MINTER_ROLE\") */\n    tag_97:\n        /* \"src/EduRewardToken.sol\":642:666  keccak256(\"MINTER_ROLE\") */\n      0x9f2df0fed2c77648de5860a4cc508cd0818c85b8b8a1ab4ceeef8d981c8956a6\n        /* \"src/EduRewardToken.sol\":604:666  bytes32 public constant MINTER_ROLE = keccak256(\"MINTER_ROLE\") */\n      dup2\n      jump\t// out\n        /* \"dependencies/@openzeppelin-contracts-5.5.0/access/AccessControl.sol\":4618:4756  function revokeRole(bytes32 role, address account) public virtual onlyRole(getRoleAdmin(role)) {... */\n    tag_101:\n        /* \"dependencies/@openzeppelin-contracts-5.5.0/access/AccessControl.sol\":4693:4711  getRoleAdmin(role) */\n      tag_168\n        /* \"dependencies/@openzeppelin-contracts-5.5.0/access/AccessControl.sol\":4706:4710  role */\n      dup3\n        /* \"dependencies/@openzeppelin-contracts-5.5.0/access/AccessControl.sol\":4693:4705  getRoleAdmin */\n      tag_53\n        /* \"dependencies/@openzeppelin-contracts-5.5.0/access/AccessControl.sol\":4693:4711  getRoleAdmin(role) */\n      jump\t// in\n    tag_168:\n        /* \"dependencies/@openzeppelin-contracts-5.5.0/access/AccessControl.sol\":2473:2489  _checkRole(role) */\n      tag_170\n        /* \"dependencies/@openzeppelin-contracts-5.5.0/access/AccessControl.sol\":2484:2488  role */\n      dup2\n        /* \"dependencies/@openzeppelin-contracts-5.5.0/access/AccessControl.sol\":2473:2483  _checkRole */\n      tag_134\n        /* \"dependencies/@openzeppelin-contracts-5.5.0/access/AccessControl.sol\":2473:2489  _checkRole(role) */\n      jump\t// in\n    tag_170:\n        /* \"dependencies/@openzeppelin-contracts-5.5.0/access/AccessControl.sol\":4723:4749  _revokeRole(role, account) */\n      tag_172\n        /* \"dependencies/@openzeppelin-contracts-5.5.0/access/AccessControl.sol\":4735:4739  role */\n      dup4\n        /* \"dependencies/@openzeppelin-contracts-5.5.0/access/AccessControl.sol\":4741:4748  account */\n      dup4\n        /* \"dependencies/@openzeppelin-contracts-5.5.0/access/AccessControl.sol\":4723:4734  _revokeRole */\n      tag_143\n        /* \"dependencies/@openzeppelin-contracts-5.5.0/access/AccessControl.sol\":4723:4749  _revokeRole(role, account) */\n      jump\t// in\n    tag_172:\n      pop\n        /* \"dependencies/@openzeppelin-contracts-5.5.0/access/AccessControl.sol\":4618:4756  function revokeRole(bytes32 role, address account) public virtual onlyRole(getRoleAdmin(role)) {... */\n      pop\n      pop\n      pop\n      jump\t// out\n        /* \"dependencies/@openzeppelin-contracts-5.5.0/token/ERC20/ERC20.sol\":3455:3595  function allowance(address owner, address spender) public view virtual returns (uint256) {... */\n    tag_105:\n        /* \"dependencies/@openzeppelin-contracts-5.5.0/token/ERC20/ERC20.sol\":3535:3542  uint256 */\n      0x00\n        /* \"dependencies/@openzeppelin-contracts-5.5.0/token/ERC20/ERC20.sol\":3561:3572  _allowances */\n      0x01\n        /* \"dependencies/@openzeppelin-contracts-5.5.0/token/ERC20/ERC20.sol\":3561:3579  _allowances[owner] */\n      0x00\n        /* \"dependencies/@openzeppelin-contracts-5.5.0/token/ERC20/ERC20.sol\":3573:3578  owner */\n      dup5\n        /* \"dependencies/@openzeppelin-contracts-5.5.0/token/ERC20/ERC20.sol\":3561:3579  _allowances[owner] */\n      0xffffffffffffffffffffffffffffffffffffffff\n      and\n      0xffffffffffffffffffffffffffffffffffffffff\n      and\n      dup2\n      mstore\n      0x20\n      add\n      swap1\n      dup2\n      mstore\n      0x20\n      add\n      0x00\n      keccak256\n        /* \"dependencies/@openzeppelin-contracts-5.5.0/token/ERC20/ERC20.sol\":3561:3588  _allowances[owner][spender] */\n      0x00\n        /* \"dependencies/@openzeppelin-contracts-5.5.0/token/ERC20/ERC20.sol\":3580:3587  spender */\n      dup4\n        /* \"dependencies/@openzeppelin-contracts-5.5.0/token/ERC20/ERC20.sol\":3561:3588  _allowances[owner][spender] */\n      0xffffffffffffffffffffffffffffffffffffffff\n      and\n      0xffffffffffffffffffffffffffffffffffffffff\n      and\n      dup2\n      mstore\n      0x20\n      add\n      swap1\n      dup2\n      mstore\n      0x20\n      add\n      0x00\n      keccak256\n      sload\n        /* \"dependencies/@openzeppelin-contracts-5.5.0/token/ERC20/ERC20.sol\":3554:3588  return _allowances[owner][spender] */\n      swap1\n      pop\n        /* \"dependencies/@openzeppelin-contracts-5.5.0/token/ERC20/ERC20.sol\":3455:3595  function allowance(address owner, address spender) public view virtual returns (uint256) {... */\n      swap3\n      swap2\n      pop\n      pop\n      jump\t// out\n        /* \"dependencies/@openzeppelin-contracts-5.5.0/utils/introspection/ERC165.sol\":730:876  function supportsInterface(bytes4 interfaceId) public view virtual returns (bool) {... */\n    tag_110:\n        /* \"dependencies/@openzeppelin-contracts-5.5.0/utils/introspection/ERC165.sol\":806:810  bool */\n      0x00\n        /* \"dependencies/@openzeppelin-contracts-5.5.0/utils/introspection/ERC165.sol\":844:869  type(IERC165).interfaceId */\n      0x01ffc9a700000000000000000000000000000000000000000000000000000000\n        /* \"dependencies/@openzeppelin-contracts-5.5.0/utils/introspection/ERC165.sol\":829:869  interfaceId == type(IERC165).interfaceId */\n      not(0xffffffffffffffffffffffffffffffffffffffffffffffffffffffff)\n      and\n        /* \"dependencies/@openzeppelin-contracts-5.5.0/utils/introspection/ERC165.sol\":829:840  interfaceId */\n      dup3\n        /* \"dependencies/@openzeppelin-contracts-5.5.0/utils/introspection/ERC165.sol\":829:869  interfaceId == type(IERC165).interfaceId */\n      not(0xffffffffffffffffffffffffffffffffffffffffffffffffffffffff)\n      and\n      eq\n        /* \"dependencies/@openzeppelin-contracts-5.5.0/utils/introspection/ERC165.sol\":822:869  return interfaceId == type(IERC165).interfaceId */\n      swap1\n      pop\n        /* \"dependencies/@openzeppelin-contracts-5.5.0/utils/introspection/ERC165.sol\":730:876  function supportsInterface(bytes4 interfaceId) public view virtual returns (bool) {... */\n      swap2\n      swap1\n      pop\n      jump\t// out\n        /* \"dependencies/@openzeppelin-contracts-5.5.0/utils/Context.sol\":656:752  function _msgSender() internal view virtual returns (address) {... */\n    tag_120:\n        /* \"dependencies/@openzeppelin-contracts-5.5.0/utils/Context.sol\":709:716  address */\n      0x00\n        /* \"dependencies/@openzeppelin-contracts-5.5.0/utils/Context.sol\":735:745  msg.sender */\n      caller\n        /* \"dependencies/@openzeppelin-contracts-5.5.0/utils/Context.sol\":728:745  return msg.sender */\n      swap1\n      pop\n        /* \"dependencies/@openzeppelin-contracts-5.5.0/utils/Context.sol\":656:752  function _msgSender() internal view virtual returns (address) {... */\n      swap1\n      jump\t// out\n        /* \"dependencies/@openzeppelin-contracts-5.5.0/token/ERC20/ERC20.sol\":8630:8758  function _approve(address owner, address spender, uint256 value) internal {... */\n    tag_122:\n        /* \"dependencies/@openzeppelin-contracts-5.5.0/token/ERC20/ERC20.sol\":8714:8751  _approve(owner, spender, value, true) */\n      tag_177\n        /* \"dependencies/@openzeppelin-contracts-5.5.0/token/ERC20/ERC20.sol\":8723:8728  owner */\n      dup4\n        /* \"dependencies/@openzeppelin-contracts-5.5.0/token/ERC20/ERC20.sol\":8730:8737  spender */\n      dup4\n        /* \"dependencies/@openzeppelin-contracts-5.5.0/token/ERC20/ERC20.sol\":8739:8744  value */\n      dup4\n        /* \"dependencies/@openzeppelin-contracts-5.5.0/token/ERC20/ERC20.sol\":8746:8750  true */\n      0x01\n        /* \"dependencies/@openzeppelin-contracts-5.5.0/token/ERC20/ERC20.sol\":8714:8722  _approve */\n      tag_178\n        /* \"dependencies/@openzeppelin-contracts-5.5.0/token/ERC20/ERC20.sol\":8714:8751  _approve(owner, spender, value, true) */\n      jump\t// in\n    tag_177:\n        /* \"dependencies/@openzeppelin-contracts-5.5.0/token/ERC20/ERC20.sol\":8630:8758  function _approve(address owner, address spender, uint256 value) internal {... */\n      pop\n      pop\n      pop\n      jump\t// out\n        /* \"dependencies/@openzeppelin-contracts-5.5.0/token/ERC20/ERC20.sol\":10321:10797  function _spendAllowance(address owner, address spender, uint256 value) internal virtual {... */\n    tag_127:\n        /* \"dependencies/@openzeppelin-contracts-5.5.0/token/ERC20/ERC20.sol\":10420:10444  uint256 currentAllowance */\n      0x00\n        /* \"dependencies/@openzeppelin-contracts-5.5.0/token/ERC20/ERC20.sol\":10447:10472  allowance(owner, spender) */\n      tag_180\n        /* \"dependencies/@openzeppelin-contracts-5.5.0/token/ERC20/ERC20.sol\":10457:10462  owner */\n      dup5\n        /* \"dependencies/@openzeppelin-contracts-5.5.0/token/ERC20/ERC20.sol\":10464:10471  spender */\n      dup5\n        /* \"dependencies/@openzeppelin-contracts-5.5.0/token/ERC20/ERC20.sol\":10447:10456  allowance */\n      tag_105\n        /* \"dependencies/@openzeppelin-contracts-5.5.0/token/ERC20/ERC20.sol\":10447:10472  allowance(owner, spender) */\n      jump\t// in\n    tag_180:\n        /* \"dependencies/@openzeppelin-contracts-5.5.0/token/ERC20/ERC20.sol\":10420:10472  uint256 currentAllowance = allowance(owner, spender) */\n      swap1\n      pop\n        /* \"dependencies/@openzeppelin-contracts-5.5.0/token/ERC20/ERC20.sol\":10505:10522  type(uint256).max */\n      0xffffffffffffffffffffffffffffffffffffffffffffffffffffffffffffffff\n        /* \"dependencies/@openzeppelin-contracts-5.5.0/token/ERC20/ERC20.sol\":10486:10502  currentAllowance */\n      dup2\n        /* \"dependencies/@openzeppelin-contracts-5.5.0/token/ERC20/ERC20.sol\":10486:10522  currentAllowance < type(uint256).max */\n      lt\n        /* \"dependencies/@openzeppelin-contracts-5.5.0/token/ERC20/ERC20.sol\":10482:10791  if (currentAllowance < type(uint256).max) {... */\n      iszero\n      tag_181\n      jumpi\n        /* \"dependencies/@openzeppelin-contracts-5.5.0/token/ERC20/ERC20.sol\":10561:10566  value */\n      dup2\n        /* \"dependencies/@openzeppelin-contracts-5.5.0/token/ERC20/ERC20.sol\":10542:10558  currentAllowance */\n      dup2\n        /* \"dependencies/@openzeppelin-contracts-5.5.0/token/ERC20/ERC20.sol\":10542:10566  currentAllowance < value */\n      lt\n        /* \"dependencies/@openzeppelin-contracts-5.5.0/token/ERC20/ERC20.sol\":10538:10668  if (currentAllowance < value) {... */\n      iszero\n      tag_182\n      jumpi\n        /* \"dependencies/@openzeppelin-contracts-5.5.0/token/ERC20/ERC20.sol\":10620:10627  spender */\n      dup3\n        /* \"dependencies/@openzeppelin-contracts-5.5.0/token/ERC20/ERC20.sol\":10629:10645  currentAllowance */\n      dup2\n        /* \"dependencies/@openzeppelin-contracts-5.5.0/token/ERC20/ERC20.sol\":10647:10652  value */\n      dup4\n        /* \"dependencies/@openzeppelin-contracts-5.5.0/token/ERC20/ERC20.sol\":10593:10653  ERC20InsufficientAllowance(spender, currentAllowance, value) */\n      mload(0x40)\n      0xfb8f41b200000000000000000000000000000000000000000000000000000000\n      dup2\n      mstore\n      0x04\n      add\n      tag_183\n      swap4\n      swap3\n      swap2\n      swap1\n      tag_184\n      jump\t// in\n    tag_183:\n      mload(0x40)\n      dup1\n      swap2\n      sub\n      swap1\n      revert\n        /* \"dependencies/@openzeppelin-contracts-5.5.0/token/ERC20/ERC20.sol\":10538:10668  if (currentAllowance < value) {... */\n    tag_182:\n        /* \"dependencies/@openzeppelin-contracts-5.5.0/token/ERC20/ERC20.sol\":10709:10766  _approve(owner, spender, currentAllowance - value, false) */\n      tag_185\n        /* \"dependencies/@openzeppelin-contracts-5.5.0/token/ERC20/ERC20.sol\":10718:10723  owner */\n      dup5\n        /* \"dependencies/@openzeppelin-contracts-5.5.0/token/ERC20/ERC20.sol\":10725:10732  spender */\n      dup5\n        /* \"dependencies/@openzeppelin-contracts-5.5.0/token/ERC20/ERC20.sol\":10753:10758  value */\n      dup5\n        /* \"dependencies/@openzeppelin-contracts-5.5.0/token/ERC20/ERC20.sol\":10734:10750  currentAllowance */\n      dup5\n        /* \"dependencies/@openzeppelin-contracts-5.5.0/token/ERC20/ERC20.sol\":10734:10758  currentAllowance - value */\n      sub\n        /* \"dependencies/@openzeppelin-contracts-5.5.0/token/ERC20/ERC20.sol\":10760:10765  false */\n      0x00\n        /* \"dependencies/@openzeppelin-contracts-5.5.0/token/ERC20/ERC20.sol\":10709:10717  _approve */\n      tag_178\n        /* \"dependencies/@openzeppelin-contracts-5.5.0/token/ERC20/ERC20.sol\":10709:10766  _approve(owner, spender, currentAllowance - value, false) */\n      jump\t// in\n    tag_185:\n        /* \"dependencies/@openzeppelin-contracts-5.5.0/token/ERC20/ERC20.sol\":10482:10791  if (currentAllowance < type(uint256).max) {... */\n    tag_181:\n        /* \"dependencies/@openzeppelin-contracts-5.5.0/token/ERC20/ERC20.sol\":10410:10797  {... */\n      pop\n        /* \"dependencies/@openzeppelin-contracts-5.5.0/token/ERC20/ERC20.sol\":10321:10797  function _spendAllowance(address owner, address spender, uint256 value) internal virtual {... */\n      pop\n      pop\n      pop\n      jump\t// out\n        /* \"dependencies/@openzeppelin-contracts-5.5.0/token/ERC20/ERC20.sol\":5297:5597  function _transfer(address from, address to, uint256 value) internal {... */\n    tag_129:\n        /* \"dependencies/@openzeppelin-contracts-5.5.0/token/ERC20/ERC20.sol\":5396:5397  0 */\n      0x00\n        /* \"dependencies/@openzeppelin-contracts-5.5.0/token/ERC20/ERC20.sol\":5380:5398  from == address(0) */\n      0xffffffffffffffffffffffffffffffffffffffff\n      and\n        /* \"dependencies/@openzeppelin-contracts-5.5.0/token/ERC20/ERC20.sol\":5380:5384  from */\n      dup4\n        /* \"dependencies/@openzeppelin-contracts-5.5.0/token/ERC20/ERC20.sol\":5380:5398  from == address(0) */\n      0xffffffffffffffffffffffffffffffffffffffff\n      and\n      sub\n        /* \"dependencies/@openzeppelin-contracts-5.5.0/token/ERC20/ERC20.sol\":5376:5462  if (from == address(0)) {... */\n      tag_187\n      jumpi\n        /* \"dependencies/@openzeppelin-contracts-5.5.0/token/ERC20/ERC20.sol\":5448:5449  0 */\n      0x00\n        /* \"dependencies/@openzeppelin-contracts-5.5.0/token/ERC20/ERC20.sol\":5421:5451  ERC20InvalidSender(address(0)) */\n      mload(0x40)\n      0x96c6fd1e00000000000000000000000000000000000000000000000000000000\n      dup2\n      mstore\n      0x04\n      add\n      tag_188\n      swap2\n      swap1\n      tag_189\n      jump\t// in\n    tag_188:\n      mload(0x40)\n      dup1\n      swap2\n      sub\n      swap1\n      revert\n        /* \"dependencies/@openzeppelin-contracts-5.5.0/token/ERC20/ERC20.sol\":5376:5462  if (from == address(0)) {... */\n    tag_187:\n        /* \"dependencies/@openzeppelin-contracts-5.5.0/token/ERC20/ERC20.sol\":5489:5490  0 */\n      0x00\n        /* \"dependencies/@openzeppelin-contracts-5.5.0/token/ERC20/ERC20.sol\":5475:5491  to == address(0) */\n      0xffffffffffffffffffffffffffffffffffffffff\n      and\n        /* \"dependencies/@openzeppelin-contracts-5.5.0/token/ERC20/ERC20.sol\":5475:5477  to */\n      dup3\n        /* \"dependencies/@openzeppelin-contracts-5.5.0/token/ERC20/ERC20.sol\":5475:5491  to == address(0) */\n      0xffffffffffffffffffffffffffffffffffffffff\n      and\n      sub\n        /* \"dependencies/@openzeppelin-contracts-5.5.0/token/ERC20/ERC20.sol\":5471:5557  if (to == address(0)) {... */\n      tag_190\n      jumpi\n        /* \"dependencies/@openzeppelin-contracts-5.5.0/token/ERC20/ERC20.sol\":5543:5544  0 */\n      0x00\n        /* \"dependencies/@openzeppelin-contracts-5.5.0/token/ERC20/ERC20.sol\":5514:5546  ERC20InvalidReceiver(address(0)) */\n      mload(0x40)\n      0xec442f0500000000000000000000000000000000000000000000000000000000\n      dup2\n      mstore\n      0x04\n      add\n      tag_191\n      swap2\n      swap1\n      tag_189\n      jump\t// in\n    tag_191:\n      mload(0x40)\n      dup1\n      swap2\n      sub\n      swap1\n      revert\n        /* \"dependencies/@openzeppelin-contracts-5.5.0/token/ERC20/ERC20.sol\":5471:5557  if (to == address(0)) {... */\n    tag_190:\n        /* \"dependencies/@openzeppelin-contracts-5.5.0/token/ERC20/ERC20.sol\":5566:5590  _update(from, to, value) */\n      tag_192\n        /* \"dependencies/@openzeppelin-contracts-5.5.0/token/ERC20/ERC20.sol\":5574:5578  from */\n      dup4\n        /* \"dependencies/@openzeppelin-contracts-5.5.0/token/ERC20/ERC20.sol\":5580:5582  to */\n      dup4\n        /* \"dependencies/@openzeppelin-contracts-5.5.0/token/ERC20/ERC20.sol\":5584:5589  value */\n      dup4\n        /* \"dependencies/@openzeppelin-contracts-5.5.0/token/ERC20/ERC20.sol\":5566:5573  _update */\n      tag_193\n        /* \"dependencies/@openzeppelin-contracts-5.5.0/token/ERC20/ERC20.sol\":5566:5590  _update(from, to, value) */\n      jump\t// in\n    tag_192:\n        /* \"dependencies/@openzeppelin-contracts-5.5.0/token/ERC20/ERC20.sol\":5297:5597  function _transfer(address from, address to, uint256 value) internal {... */\n      pop\n      pop\n      pop\n      jump\t// out\n        /* \"dependencies/@openzeppelin-contracts-5.5.0/access/AccessControl.sol\":3175:3278  function _checkRole(bytes32 role) internal view virtual {... */\n    tag_134:\n        /* \"dependencies/@openzeppelin-contracts-5.5.0/access/AccessControl.sol\":3241:3271  _checkRole(role, _msgSender()) */\n      tag_195\n        /* \"dependencies/@openzeppelin-contracts-5.5.0/access/AccessControl.sol\":3252:3256  role */\n      dup2\n        /* \"dependencies/@openzeppelin-contracts-5.5.0/access/AccessControl.sol\":3258:3270  _msgSender() */\n      tag_196\n        /* \"dependencies/@openzeppelin-contracts-5.5.0/access/AccessControl.sol\":3258:3268  _msgSender */\n      tag_120\n        /* \"dependencies/@openzeppelin-contracts-5.5.0/access/AccessControl.sol\":3258:3270  _msgSender() */\n      jump\t// in\n    tag_196:\n        /* \"dependencies/@openzeppelin-contracts-5.5.0/access/AccessControl.sol\":3241:3251  _checkRole */\n      tag_197\n        /* \"dependencies/@openzeppelin-contracts-5.5.0/access/AccessControl.sol\":3241:3271  _checkRole(role, _msgSender()) */\n      jump\t// in\n    tag_195:\n        /* \"dependencies/@openzeppelin-contracts-5.5.0/access/AccessControl.sol\":3175:3278  function _checkRole(bytes32 role) internal view virtual {... */\n      pop\n      jump\t// out\n        /* \"dependencies/@openzeppelin-contracts-5.5.0/access/AccessControl.sol\":6155:6471  function _grantRole(bytes32 role, address account) internal virtual returns (bool) {... */\n    tag_137:\n        /* \"dependencies/@openzeppelin-contracts-5.5.0/access/AccessControl.sol\":6232:6236  bool */\n      0x00\n        /* \"dependencies/@openzeppelin-contracts-5.5.0/access/AccessControl.sol\":6253:6275  hasRole(role, account) */\n      tag_199\n        /* \"dependencies/@openzeppelin-contracts-5.5.0/access/AccessControl.sol\":6261:6265  role */\n      dup4\n        /* \"dependencies/@openzeppelin-contracts-5.5.0/access/AccessControl.sol\":6267:6274  account */\n      dup4\n        /* \"dependencies/@openzeppelin-contracts-5.5.0/access/AccessControl.sol\":6253:6260  hasRole */\n      tag_84\n        /* \"dependencies/@openzeppelin-contracts-5.5.0/access/AccessControl.sol\":6253:6275  hasRole(role, account) */\n      jump\t// in\n    tag_199:\n        /* \"dependencies/@openzeppelin-contracts-5.5.0/access/AccessControl.sol\":6248:6465  if (!hasRole(role, account)) {... */\n      tag_200\n      jumpi\n        /* \"dependencies/@openzeppelin-contracts-5.5.0/access/AccessControl.sol\":6323:6327  true */\n      0x01\n        /* \"dependencies/@openzeppelin-contracts-5.5.0/access/AccessControl.sol\":6291:6297  _roles */\n      0x05\n        /* \"dependencies/@openzeppelin-contracts-5.5.0/access/AccessControl.sol\":6291:6303  _roles[role] */\n      0x00\n        /* \"dependencies/@openzeppelin-contracts-5.5.0/access/AccessControl.sol\":6298:6302  role */\n      dup6\n        /* \"dependencies/@openzeppelin-contracts-5.5.0/access/AccessControl.sol\":6291:6303  _roles[role] */\n      dup2\n      mstore\n      0x20\n      add\n      swap1\n      dup2\n      mstore\n      0x20\n      add\n      0x00\n      keccak256\n        /* \"dependencies/@openzeppelin-contracts-5.5.0/access/AccessControl.sol\":6291:6311  _roles[role].hasRole */\n      0x00\n      add\n        /* \"dependencies/@openzeppelin-contracts-5.5.0/access/AccessControl.sol\":6291:6320  _roles[role].hasRole[account] */\n      0x00\n        /* \"dependencies/@openzeppelin-contracts-5.5.0/access/AccessControl.sol\":6312:6319  account */\n      dup5\n        /* \"dependencies/@openzeppelin-contracts-5.5.0/access/AccessControl.sol\":6291:6320  _roles[role].hasRole[account] */\n      0xffffffffffffffffffffffffffffffffffffffff\n      and\n      0xffffffffffffffffffffffffffffffffffffffff\n      and\n      dup2\n      mstore\n      0x20\n      add\n      swap1\n      dup2\n      mstore\n      0x20\n      add\n      0x00\n      keccak256\n      0x00\n        /* \"dependencies/@openzeppelin-contracts-5.5.0/access/AccessControl.sol\":6291:6327  _roles[role].hasRole[account] = true */\n      0x0100\n      exp\n      dup2\n      sload\n      dup2\n      0xff\n      mul\n      not\n      and\n      swap1\n      dup4\n      iszero\n      iszero\n      mul\n      or\n      swap1\n      sstore\n      pop\n        /* \"dependencies/@openzeppelin-contracts-5.5.0/access/AccessControl.sol\":6373:6385  _msgSender() */\n      tag_201\n        /* \"dependencies/@openzeppelin-contracts-5.5.0/access/AccessControl.sol\":6373:6383  _msgSender */\n      tag_120\n        /* \"dependencies/@openzeppelin-contracts-5.5.0/access/AccessControl.sol\":6373:6385  _msgSender() */\n      jump\t// in\n    tag_201:\n        /* \"dependencies/@openzeppelin-contracts-5.5.0/access/AccessControl.sol\":6346:6386  RoleGranted(role, account, _msgSender()) */\n      0xffffffffffffffffffffffffffffffffffffffff\n      and\n        /* \"dependencies/@openzeppelin-contracts-5.5.0/access/AccessControl.sol\":6364:6371  account */\n      dup3\n        /* \"dependencies/@openzeppelin-contracts-5.5.0/access/AccessControl.sol\":6346:6386  RoleGranted(role, account, _msgSender()) */\n      0xffffffffffffffffffffffffffffffffffffffff\n      and\n        /* \"dependencies/@openzeppelin-contracts-5.5.0/access/AccessControl.sol\":6358:6362  role */\n      dup5\n        /* \"dependencies/@openzeppelin-contracts-5.5.0/access/AccessControl.sol\":6346:6386  RoleGranted(role, account, _msgSender()) */\n      0x2f8788117e7eff1d82e926ec794901d17c78024a50270940304540a733656f0d\n      mload(0x40)\n      mload(0x40)\n      dup1\n      swap2\n      sub\n      swap1\n      log4\n        /* \"dependencies/@openzeppelin-contracts-5.5.0/access/AccessControl.sol\":6407:6411  true */\n      0x01\n        /* \"dependencies/@openzeppelin-contracts-5.5.0/access/AccessControl.sol\":6400:6411  return true */\n      swap1\n      pop\n      jump(tag_198)\n        /* \"dependencies/@openzeppelin-contracts-5.5.0/access/AccessControl.sol\":6248:6465  if (!hasRole(role, account)) {... */\n    tag_200:\n        /* \"dependencies/@openzeppelin-contracts-5.5.0/access/AccessControl.sol\":6449:6454  false */\n      0x00\n        /* \"dependencies/@openzeppelin-contracts-5.5.0/access/AccessControl.sol\":6442:6454  return false */\n      swap1\n      pop\n        /* \"dependencies/@openzeppelin-contracts-5.5.0/access/AccessControl.sol\":6155:6471  function _grantRole(bytes32 role, address account) internal virtual returns (bool) {... */\n    tag_198:\n      swap3\n      swap2\n      pop\n      pop\n      jump\t// out\n        /* \"dependencies/@openzeppelin-contracts-5.5.0/access/AccessControl.sol\":6708:7025  function _revokeRole(bytes32 role, address account) internal virtual returns (bool) {... */\n    tag_143:\n        /* \"dependencies/@openzeppelin-contracts-5.5.0/access/AccessControl.sol\":6786:6790  bool */\n      0x00\n        /* \"dependencies/@openzeppelin-contracts-5.5.0/access/AccessControl.sol\":6806:6828  hasRole(role, account) */\n      tag_204\n        /* \"dependencies/@openzeppelin-contracts-5.5.0/access/AccessControl.sol\":6814:6818  role */\n      dup4\n        /* \"dependencies/@openzeppelin-contracts-5.5.0/access/AccessControl.sol\":6820:6827  account */\n      dup4\n        /* \"dependencies/@openzeppelin-contracts-5.5.0/access/AccessControl.sol\":6806:6813  hasRole */\n      tag_84\n        /* \"dependencies/@openzeppelin-contracts-5.5.0/access/AccessControl.sol\":6806:6828  hasRole(role, account) */\n      jump\t// in\n    tag_204:\n        /* \"dependencies/@openzeppelin-contracts-5.5.0/access/AccessControl.sol\":6802:7019  if (hasRole(role, account)) {... */\n      iszero\n      tag_205\n      jumpi\n        /* \"dependencies/@openzeppelin-contracts-5.5.0/access/AccessControl.sol\":6876:6881  false */\n      0x00\n        /* \"dependencies/@openzeppelin-contracts-5.5.0/access/AccessControl.sol\":6844:6850  _roles */\n      0x05\n        /* \"dependencies/@openzeppelin-contracts-5.5.0/access/AccessControl.sol\":6844:6856  _roles[role] */\n      0x00\n        /* \"dependencies/@openzeppelin-contracts-5.5.0/access/AccessControl.sol\":6851:6855  role */\n      dup6\n        /* \"dependencies/@openzeppelin-contracts-5.5.0/access/AccessControl.sol\":6844:6856  _roles[role] */\n      dup2\n      mstore\n      0x20\n      add\n      swap1\n      dup2\n      mstore\n      0x20\n      add\n      0x00\n      keccak256\n        /* \"dependencies/@openzeppelin-contracts-5.5.0/access/AccessControl.sol\":6844:6864  _roles[role].hasRole */\n      0x00\n      add\n        /* \"dependencies/@openzeppelin-contracts-5.5.0/access/AccessControl.sol\":6844:6873  _roles[role].hasRole[account] */\n      0x00\n        /* \"dependencies/@openzeppelin-contracts-5.5.0/access/AccessControl.sol\":6865:6872  account */\n      dup5\n        /* \"dependencies/@openzeppelin-contracts-5.5.0/access/AccessControl.sol\":6844:6873  _roles[role].hasRole[account] */\n      0xffffffffffffffffffffffffffffffffffffffff\n      and\n      0xffffffffffffffffffffffffffffffffffffffff\n      and\n      dup2\n      mstore\n      0x20\n      add\n      swap1\n      dup2\n      mstore\n      0x20\n      add\n      0x00\n      keccak256\n      0x00\n        /* \"dependencies/@openzeppelin-contracts-5.5.0/access/AccessControl.sol\":6844:6881  _roles[role].hasRole[account] = false */\n      0x0100\n      exp\n      dup2\n      sload\n      dup2\n      0xff\n      mul\n      not\n      and\n      swap1\n      dup4\n      iszero\n      iszero\n      mul\n      or\n      swap1\n      sstore\n      pop\n        /* \"dependencies/@openzeppelin-contracts-5.5.0/access/AccessControl.sol\":6927:6939  _msgSender() */\n      tag_206\n        /* \"dependencies/@openzeppelin-contracts-5.5.0/access/AccessControl.sol\":6927:6937  _msgSender */\n      tag_120\n        /* \"dependencies/@openzeppelin-contracts-5.5.0/access/AccessControl.sol\":6927:6939  _msgSender() */\n      jump\t// in\n    tag_206:\n        /* \"dependencies/@openzeppelin-contracts-5.5.0/access/AccessControl.sol\":6900:6940  RoleRevoked(role, account, _msgSender()) */\n      0xffffffffffffffffffffffffffffffffffffffff\n      and\n        /* \"dependencies/@openzeppelin-contracts-5.5.0/access/AccessControl.sol\":6918:6925  account */\n      dup3\n        /* \"dependencies/@openzeppelin-contracts-5.5.0/access/AccessControl.sol\":6900:6940  RoleRevoked(role, account, _msgSender()) */\n      0xffffffffffffffffffffffffffffffffffffffff\n      and\n        /* \"dependencies/@openzeppelin-contracts-5.5.0/access/AccessControl.sol\":6912:6916  role */\n      dup5\n        /* \"dependencies/@openzeppelin-contracts-5.5.0/access/AccessControl.sol\":6900:6940  RoleRevoked(role, account, _msgSender()) */\n      0xf6391f5c32d9c69d2a47ea670b442974b53935d1edc7fd64eb21e047a839171b\n      mload(0x40)\n      mload(0x40)\n      dup1\n      swap2\n      sub\n      swap1\n      log4\n        /* \"dependencies/@openzeppelin-contracts-5.5.0/access/AccessControl.sol\":6961:6965  true */\n      0x01\n        /* \"dependencies/@openzeppelin-contracts-5.5.0/access/AccessControl.sol\":6954:6965  return true */\n      swap1\n      pop\n      jump(tag_203)\n        /* \"dependencies/@openzeppelin-contracts-5.5.0/access/AccessControl.sol\":6802:7019  if (hasRole(role, account)) {... */\n    tag_205:\n        /* \"dependencies/@openzeppelin-contracts-5.5.0/access/AccessControl.sol\":7003:7008  false */\n      0x00\n        /* \"dependencies/@openzeppelin-contracts-5.5.0/access/AccessControl.sol\":6996:7008  return false */\n      swap1\n      pop\n        /* \"dependencies/@openzeppelin-contracts-5.5.0/access/AccessControl.sol\":6708:7025  function _revokeRole(bytes32 role, address account) internal virtual returns (bool) {... */\n    tag_203:\n      swap3\n      swap2\n      pop\n      pop\n      jump\t// out\n        /* \"dependencies/@openzeppelin-contracts-5.5.0/token/ERC20/ERC20.sol\":7362:7570  function _mint(address account, uint256 value) internal {... */\n    tag_148:\n        /* \"dependencies/@openzeppelin-contracts-5.5.0/token/ERC20/ERC20.sol\":7451:7452  0 */\n      0x00\n        /* \"dependencies/@openzeppelin-contracts-5.5.0/token/ERC20/ERC20.sol\":7432:7453  account == address(0) */\n      0xffffffffffffffffffffffffffffffffffffffff\n      and\n        /* \"dependencies/@openzeppelin-contracts-5.5.0/token/ERC20/ERC20.sol\":7432:7439  account */\n      dup3\n        /* \"dependencies/@openzeppelin-contracts-5.5.0/token/ERC20/ERC20.sol\":7432:7453  account == address(0) */\n      0xffffffffffffffffffffffffffffffffffffffff\n      and\n      sub\n        /* \"dependencies/@openzeppelin-contracts-5.5.0/token/ERC20/ERC20.sol\":7428:7519  if (account == address(0)) {... */\n      tag_209\n      jumpi\n        /* \"dependencies/@openzeppelin-contracts-5.5.0/token/ERC20/ERC20.sol\":7505:7506  0 */\n      0x00\n        /* \"dependencies/@openzeppelin-contracts-5.5.0/token/ERC20/ERC20.sol\":7476:7508  ERC20InvalidReceiver(address(0)) */\n      mload(0x40)\n      0xec442f0500000000000000000000000000000000000000000000000000000000\n      dup2\n      mstore\n      0x04\n      add\n      tag_210\n      swap2\n      swap1\n      tag_189\n      jump\t// in\n    tag_210:\n      mload(0x40)\n      dup1\n      swap2\n      sub\n      swap1\n      revert\n        /* \"dependencies/@openzeppelin-contracts-5.5.0/token/ERC20/ERC20.sol\":7428:7519  if (account == address(0)) {... */\n    tag_209:\n        /* \"dependencies/@openzeppelin-contracts-5.5.0/token/ERC20/ERC20.sol\":7528:7563  _update(address(0), account, value) */\n      tag_211\n        /* \"dependencies/@openzeppelin-contracts-5.5.0/token/ERC20/ERC20.sol\":7544:7545  0 */\n      0x00\n        /* \"dependencies/@openzeppelin-contracts-5.5.0/token/ERC20/ERC20.sol\":7548:7555  account */\n      dup4\n        /* \"dependencies/@openzeppelin-contracts-5.5.0/token/ERC20/ERC20.sol\":7557:7562  value */\n      dup4\n        /* \"dependencies/@openzeppelin-contracts-5.5.0/token/ERC20/ERC20.sol\":7528:7535  _update */\n      tag_193\n        /* \"dependencies/@openzeppelin-contracts-5.5.0/token/ERC20/ERC20.sol\":7528:7563  _update(address(0), account, value) */\n      jump\t// in\n    tag_211:\n        /* \"dependencies/@openzeppelin-contracts-5.5.0/token/ERC20/ERC20.sol\":7362:7570  function _mint(address account, uint256 value) internal {... */\n      pop\n      pop\n      jump\t// out\n        /* \"dependencies/@openzeppelin-contracts-5.5.0/token/ERC20/ERC20.sol\":7888:8094  function _burn(address account, uint256 value) internal {... */\n    tag_152:\n        /* \"dependencies/@openzeppelin-contracts-5.5.0/token/ERC20/ERC20.sol\":7977:7978  0 */\n      0x00\n        /* \"dependencies/@openzeppelin-contracts-5.5.0/token/ERC20/ERC20.sol\":7958:7979  account == address(0) */\n      0xffffffffffffffffffffffffffffffffffffffff\n      and\n        /* \"dependencies/@openzeppelin-contracts-5.5.0/token/ERC20/ERC20.sol\":7958:7965  account */\n      dup3\n        /* \"dependencies/@openzeppelin-contracts-5.5.0/token/ERC20/ERC20.sol\":7958:7979  account == address(0) */\n      0xffffffffffffffffffffffffffffffffffffffff\n      and\n      sub\n        /* \"dependencies/@openzeppelin-contracts-5.5.0/token/ERC20/ERC20.sol\":7954:8043  if (account == address(0)) {... */\n      tag_213\n      jumpi\n        /* \"dependencies/@openzeppelin-contracts-5.5.0/token/ERC20/ERC20.sol\":8029:8030  0 */\n      0x00\n        /* \"dependencies/@openzeppelin-contracts-5.5.0/token/ERC20/ERC20.sol\":8002:8032  ERC20InvalidSender(address(0)) */\n      mload(0x40)\n      0x96c6fd1e00000000000000000000000000000000000000000000000000000000\n      dup2\n      mstore\n      0x04\n      add\n      tag_214\n      swap2\n      swap1\n      tag_189\n      jump\t// in\n    tag_214:\n      mload(0x40)\n      dup1\n      swap2\n      sub\n      swap1\n      revert\n        /* \"dependencies/@openzeppelin-contracts-5.5.0/token/ERC20/ERC20.sol\":7954:8043  if (account == address(0)) {... */\n    tag_213:\n        /* \"dependencies/@openzeppelin-contracts-5.5.0/token/ERC20/ERC20.sol\":8052:8087  _update(account, address(0), value) */\n      tag_215\n        /* \"dependencies/@openzeppelin-contracts-5.5.0/token/ERC20/ERC20.sol\":8060:8067  account */\n      dup3\n        /* \"dependencies/@openzeppelin-contracts-5.5.0/token/ERC20/ERC20.sol\":8077:8078  0 */\n      0x00\n        /* \"dependencies/@openzeppelin-contracts-5.5.0/token/ERC20/ERC20.sol\":8081:8086  value */\n      dup4\n        /* \"dependencies/@openzeppelin-contracts-5.5.0/token/ERC20/ERC20.sol\":8052:8059  _update */\n      tag_193\n        /* \"dependencies/@openzeppelin-contracts-5.5.0/token/ERC20/ERC20.sol\":8052:8087  _update(account, address(0), value) */\n      jump\t// in\n    tag_215:\n        /* \"dependencies/@openzeppelin-contracts-5.5.0/token/ERC20/ERC20.sol\":7888:8094  function _burn(address account, uint256 value) internal {... */\n      pop\n      pop\n      jump\t// out\n        /* \"dependencies/@openzeppelin-contracts-5.5.0/token/ERC20/ERC20.sol\":9607:10039  function _approve(address owner, address spender, uint256 value, bool emitEvent) internal virtual {... */\n    tag_178:\n        /* \"dependencies/@openzeppelin-contracts-5.5.0/token/ERC20/ERC20.sol\":9736:9737  0 */\n      0x00\n        /* \"dependencies/@openzeppelin-contracts-5.5.0/token/ERC20/ERC20.sol\":9719:9738  owner == address(0) */\n      0xffffffffffffffffffffffffffffffffffffffff\n      and\n        /* \"dependencies/@openzeppelin-contracts-5.5.0/token/ERC20/ERC20.sol\":9719:9724  owner */\n      dup5\n        /* \"dependencies/@openzeppelin-contracts-5.5.0/token/ERC20/ERC20.sol\":9719:9738  owner == address(0) */\n      0xffffffffffffffffffffffffffffffffffffffff\n      and\n      sub\n        /* \"dependencies/@openzeppelin-contracts-5.5.0/token/ERC20/ERC20.sol\":9715:9804  if (owner == address(0)) {... */\n      tag_217\n      jumpi\n        /* \"dependencies/@openzeppelin-contracts-5.5.0/token/ERC20/ERC20.sol\":9790:9791  0 */\n      0x00\n        /* \"dependencies/@openzeppelin-contracts-5.5.0/token/ERC20/ERC20.sol\":9761:9793  ERC20InvalidApprover(address(0)) */\n      mload(0x40)\n      0xe602df0500000000000000000000000000000000000000000000000000000000\n      dup2\n      mstore\n      0x04\n      add\n      tag_218\n      swap2\n      swap1\n      tag_189\n      jump\t// in\n    tag_218:\n      mload(0x40)\n      dup1\n      swap2\n      sub\n      swap1\n      revert\n        /* \"dependencies/@openzeppelin-contracts-5.5.0/token/ERC20/ERC20.sol\":9715:9804  if (owner == address(0)) {... */\n    tag_217:\n        /* \"dependencies/@openzeppelin-contracts-5.5.0/token/ERC20/ERC20.sol\":9836:9837  0 */\n      0x00\n        /* \"dependencies/@openzeppelin-contracts-5.5.0/token/ERC20/ERC20.sol\":9817:9838  spender == address(0) */\n      0xffffffffffffffffffffffffffffffffffffffff\n      and\n        /* \"dependencies/@openzeppelin-contracts-5.5.0/token/ERC20/ERC20.sol\":9817:9824  spender */\n      dup4\n        /* \"dependencies/@openzeppelin-contracts-5.5.0/token/ERC20/ERC20.sol\":9817:9838  spender == address(0) */\n      0xffffffffffffffffffffffffffffffffffffffff\n      and\n      sub\n        /* \"dependencies/@openzeppelin-contracts-5.5.0/token/ERC20/ERC20.sol\":9813:9903  if (spender == address(0)) {... */\n      tag_219\n      jumpi\n        /* \"dependencies/@openzeppelin-contracts-5.5.0/token/ERC20/ERC20.sol\":9889:9890  0 */\n      0x00\n        /* \"dependencies/@openzeppelin-contracts-5.5.0/token/ERC20/ERC20.sol\":9861:9892  ERC20InvalidSpender(address(0)) */\n      mload(0x40)\n      0x94280d6200000000000000000000000000000000000000000000000000000000\n      dup2\n      mstore\n      0x04\n      add\n      tag_220\n      swap2\n      swap1\n      tag_189\n      jump\t// in\n    tag_220:\n      mload(0x40)\n      dup1\n      swap2\n      sub\n      swap1\n      revert\n        /* \"dependencies/@openzeppelin-contracts-5.5.0/token/ERC20/ERC20.sol\":9813:9903  if (spender == address(0)) {... */\n    tag_219:\n        /* \"dependencies/@openzeppelin-contracts-5.5.0/token/ERC20/ERC20.sol\":9942:9947  value */\n      dup2\n        /* \"dependencies/@openzeppelin-contracts-5.5.0/token/ERC20/ERC20.sol\":9912:9923  _allowances */\n      0x01\n        /* \"dependencies/@openzeppelin-contracts-5.5.0/token/ERC20/ERC20.sol\":9912:9930  _allowances[owner] */\n      0x00\n        /* \"dependencies/@openzeppelin-contracts-5.5.0/token/ERC20/ERC20.sol\":9924:9929  owner */\n      dup7\n        /* \"dependencies/@openzeppelin-contracts-5.5.0/token/ERC20/ERC20.sol\":9912:9930  _allowances[owner] */\n      0xffffffffffffffffffffffffffffffffffffffff\n      and\n      0xffffffffffffffffffffffffffffffffffffffff\n      and\n      dup2\n      mstore\n      0x20\n      add\n      swap1\n      dup2\n      mstore\n      0x20\n      add\n      0x00\n      keccak256\n        /* \"dependencies/@openzeppelin-contracts-5.5.0/token/ERC20/ERC20.sol\":9912:9939  _allowances[owner][spender] */\n      0x00\n        /* \"dependencies/@openzeppelin-contracts-5.5.0/token/ERC20/ERC20.sol\":9931:9938  spender */\n      dup6\n        /* \"dependencies/@openzeppelin-contracts-5.5.0/token/ERC20/ERC20.sol\":9912:9939  _allowances[owner][spender] */\n      0xffffffffffffffffffffffffffffffffffffffff\n      and\n      0xffffffffffffffffffffffffffffffffffffffff\n      and\n      dup2\n      mstore\n      0x20\n      add\n      swap1\n      dup2\n      mstore\n      0x20\n      add\n      0x00\n      keccak256\n        /* \"dependencies/@openzeppelin-contracts-5.5.0/token/ERC20/ERC20.sol\":9912:9947  _allowances[owner][spender] = value */\n      dup2\n      swap1\n      sstore\n      pop\n        /* \"dependencies/@openzeppelin-contracts-5.5.0/token/ERC20/ERC20.sol\":9961:9970  emitEvent */\n      dup1\n        /* \"dependencies/@openzeppelin-contracts-5.5.0/token/ERC20/ERC20.sol\":9957:10033  if (emitEvent) {... */\n      iszero\n      tag_221\n      jumpi\n        /* \"dependencies/@openzeppelin-contracts-5.5.0/token/ERC20/ERC20.sol\":10007:10014  spender */\n      dup3\n        /* \"dependencies/@openzeppelin-contracts-5.5.0/token/ERC20/ERC20.sol\":9991:10022  Approval(owner, spender, value) */\n      0xffffffffffffffffffffffffffffffffffffffff\n      and\n        /* \"dependencies/@openzeppelin-contracts-5.5.0/token/ERC20/ERC20.sol\":10000:10005  owner */\n      dup5\n        /* \"dependencies/@openzeppelin-contracts-5.5.0/token/ERC20/ERC20.sol\":9991:10022  Approval(owner, spender, value) */\n      0xffffffffffffffffffffffffffffffffffffffff\n      and\n      0x8c5be1e5ebec7d5bd14f71427d1e84f3dd0314c0f7b2291e5b200ac8c7c3b925\n        /* \"dependencies/@openzeppelin-contracts-5.5.0/token/ERC20/ERC20.sol\":10016:10021  value */\n      dup5\n        /* \"dependencies/@openzeppelin-contracts-5.5.0/token/ERC20/ERC20.sol\":9991:10022  Approval(owner, spender, value) */\n      mload(0x40)\n      tag_222\n      swap2\n      swap1\n      tag_44\n      jump\t// in\n    tag_222:\n      mload(0x40)\n      dup1\n      swap2\n      sub\n      swap1\n      log3\n        /* \"dependencies/@openzeppelin-contracts-5.5.0/token/ERC20/ERC20.sol\":9957:10033  if (emitEvent) {... */\n    tag_221:\n        /* \"dependencies/@openzeppelin-contracts-5.5.0/token/ERC20/ERC20.sol\":9607:10039  function _approve(address owner, address spender, uint256 value, bool emitEvent) internal virtual {... */\n      pop\n      pop\n      pop\n      pop\n      jump\t// out\n        /* \"dependencies/@openzeppelin-contracts-5.5.0/token/ERC20/ERC20.sol\":5912:7019  function _update(address from, address to, uint256 value) internal virtual {... */\n    tag_193:\n        /* \"dependencies/@openzeppelin-contracts-5.5.0/token/ERC20/ERC20.sol\":6017:6018  0 */\n      0x00\n        /* \"dependencies/@openzeppelin-contracts-5.5.0/token/ERC20/ERC20.sol\":6001:6019  from == address(0) */\n      0xffffffffffffffffffffffffffffffffffffffff\n      and\n        /* \"dependencies/@openzeppelin-contracts-5.5.0/token/ERC20/ERC20.sol\":6001:6005  from */\n      dup4\n        /* \"dependencies/@openzeppelin-contracts-5.5.0/token/ERC20/ERC20.sol\":6001:6019  from == address(0) */\n      0xffffffffffffffffffffffffffffffffffffffff\n      and\n      sub\n        /* \"dependencies/@openzeppelin-contracts-5.5.0/token/ERC20/ERC20.sol\":5997:6537  if (from == address(0)) {... */\n      tag_224\n      jumpi\n        /* \"dependencies/@openzeppelin-contracts-5.5.0/token/ERC20/ERC20.sol\":6153:6158  value */\n      dup1\n        /* \"dependencies/@openzeppelin-contracts-5.5.0/token/ERC20/ERC20.sol\":6137:6149  _totalSupply */\n      0x02\n      0x00\n        /* \"dependencies/@openzeppelin-contracts-5.5.0/token/ERC20/ERC20.sol\":6137:6158  _totalSupply += value */\n      dup3\n      dup3\n      sload\n      tag_225\n      swap2\n      swap1\n      tag_226\n      jump\t// in\n    tag_225:\n      swap3\n      pop\n      pop\n      dup2\n      swap1\n      sstore\n      pop\n        /* \"dependencies/@openzeppelin-contracts-5.5.0/token/ERC20/ERC20.sol\":5997:6537  if (from == address(0)) {... */\n      jump(tag_227)\n    tag_224:\n        /* \"dependencies/@openzeppelin-contracts-5.5.0/token/ERC20/ERC20.sol\":6189:6208  uint256 fromBalance */\n      0x00\n        /* \"dependencies/@openzeppelin-contracts-5.5.0/token/ERC20/ERC20.sol\":6211:6220  _balances */\n      0x00\n        /* \"dependencies/@openzeppelin-contracts-5.5.0/token/ERC20/ERC20.sol\":6211:6226  _balances[from] */\n      0x00\n        /* \"dependencies/@openzeppelin-contracts-5.5.0/token/ERC20/ERC20.sol\":6221:6225  from */\n      dup6\n        /* \"dependencies/@openzeppelin-contracts-5.5.0/token/ERC20/ERC20.sol\":6211:6226  _balances[from] */\n      0xffffffffffffffffffffffffffffffffffffffff\n      and\n      0xffffffffffffffffffffffffffffffffffffffff\n      and\n      dup2\n      mstore\n      0x20\n      add\n      swap1\n      dup2\n      mstore\n      0x20\n      add\n      0x00\n      keccak256\n      sload\n        /* \"dependencies/@openzeppelin-contracts-5.5.0/token/ERC20/ERC20.sol\":6189:6226  uint256 fromBalance = _balances[from] */\n      swap1\n      pop\n        /* \"dependencies/@openzeppelin-contracts-5.5.0/token/ERC20/ERC20.sol\":6258:6263  value */\n      dup2\n        /* \"dependencies/@openzeppelin-contracts-5.5.0/token/ERC20/ERC20.sol\":6244:6255  fromBalance */\n      dup2\n        /* \"dependencies/@openzeppelin-contracts-5.5.0/token/ERC20/ERC20.sol\":6244:6263  fromBalance < value */\n      lt\n        /* \"dependencies/@openzeppelin-contracts-5.5.0/token/ERC20/ERC20.sol\":6240:6355  if (fromBalance < value) {... */\n      iszero\n      tag_228\n      jumpi\n        /* \"dependencies/@openzeppelin-contracts-5.5.0/token/ERC20/ERC20.sol\":6315:6319  from */\n      dup4\n        /* \"dependencies/@openzeppelin-contracts-5.5.0/token/ERC20/ERC20.sol\":6321:6332  fromBalance */\n      dup2\n        /* \"dependencies/@openzeppelin-contracts-5.5.0/token/ERC20/ERC20.sol\":6334:6339  value */\n      dup4\n        /* \"dependencies/@openzeppelin-contracts-5.5.0/token/ERC20/ERC20.sol\":6290:6340  ERC20InsufficientBalance(from, fromBalance, value) */\n      mload(0x40)\n      0xe450d38c00000000000000000000000000000000000000000000000000000000\n      dup2\n      mstore\n      0x04\n      add\n      tag_229\n      swap4\n      swap3\n      swap2\n      swap1\n      tag_184\n      jump\t// in\n    tag_229:\n      mload(0x40)\n      dup1\n      swap2\n      sub\n      swap1\n      revert\n        /* \"dependencies/@openzeppelin-contracts-5.5.0/token/ERC20/ERC20.sol\":6240:6355  if (fromBalance < value) {... */\n    tag_228:\n        /* \"dependencies/@openzeppelin-contracts-5.5.0/token/ERC20/ERC20.sol\":6507:6512  value */\n      dup2\n        /* \"dependencies/@openzeppelin-contracts-5.5.0/token/ERC20/ERC20.sol\":6493:6504  fromBalance */\n      dup2\n        /* \"dependencies/@openzeppelin-contracts-5.5.0/token/ERC20/ERC20.sol\":6493:6512  fromBalance - value */\n      sub\n        /* \"dependencies/@openzeppelin-contracts-5.5.0/token/ERC20/ERC20.sol\":6475:6484  _balances */\n      0x00\n        /* \"dependencies/@openzeppelin-contracts-5.5.0/token/ERC20/ERC20.sol\":6475:6490  _balances[from] */\n      0x00\n        /* \"dependencies/@openzeppelin-contracts-5.5.0/token/ERC20/ERC20.sol\":6485:6489  from */\n      dup7\n        /* \"dependencies/@openzeppelin-contracts-5.5.0/token/ERC20/ERC20.sol\":6475:6490  _balances[from] */\n      0xffffffffffffffffffffffffffffffffffffffff\n      and\n      0xffffffffffffffffffffffffffffffffffffffff\n      and\n      dup2\n      mstore\n      0x20\n      add\n      swap1\n      dup2\n      mstore\n      0x20\n      add\n      0x00\n      keccak256\n        /* \"dependencies/@openzeppelin-contracts-5.5.0/token/ERC20/ERC20.sol\":6475:6512  _balances[from] = fromBalance - value */\n      dup2\n      swap1\n      sstore\n      pop\n        /* \"dependencies/@openzeppelin-contracts-5.5.0/token/ERC20/ERC20.sol\":6175:6537  {... */\n      pop\n        /* \"dependencies/@openzeppelin-contracts-5.5.0/token/ERC20/ERC20.sol\":5997:6537  if (from == address(0)) {... */\n    tag_227:\n        /* \"dependencies/@openzeppelin-contracts-5.5.0/token/ERC20/ERC20.sol\":6565:6566  0 */\n      0x00\n        /* \"dependencies/@openzeppelin-contracts-5.5.0/token/ERC20/ERC20.sol\":6551:6567  to == address(0) */\n      0xffffffffffffffffffffffffffffffffffffffff\n      and\n        /* \"dependencies/@openzeppelin-contracts-5.5.0/token/ERC20/ERC20.sol\":6551:6553  to */\n      dup3\n        /* \"dependencies/@openzeppelin-contracts-5.5.0/token/ERC20/ERC20.sol\":6551:6567  to == address(0) */\n      0xffffffffffffffffffffffffffffffffffffffff\n      and\n      sub\n        /* \"dependencies/@openzeppelin-contracts-5.5.0/token/ERC20/ERC20.sol\":6547:6972  if (to == address(0)) {... */\n      tag_230\n      jumpi\n        /* \"dependencies/@openzeppelin-contracts-5.5.0/token/ERC20/ERC20.sol\":6730:6735  value */\n      dup1\n        /* \"dependencies/@openzeppelin-contracts-5.5.0/token/ERC20/ERC20.sol\":6714:6726  _totalSupply */\n      0x02\n      0x00\n        /* \"dependencies/@openzeppelin-contracts-5.5.0/token/ERC20/ERC20.sol\":6714:6735  _totalSupply -= value */\n      dup3\n      dup3\n      sload\n      sub\n      swap3\n      pop\n      pop\n      dup2\n      swap1\n      sstore\n      pop\n        /* \"dependencies/@openzeppelin-contracts-5.5.0/token/ERC20/ERC20.sol\":6547:6972  if (to == address(0)) {... */\n      jump(tag_231)\n    tag_230:\n        /* \"dependencies/@openzeppelin-contracts-5.5.0/token/ERC20/ERC20.sol\":6942:6947  value */\n      dup1\n        /* \"dependencies/@openzeppelin-contracts-5.5.0/token/ERC20/ERC20.sol\":6925:6934  _balances */\n      0x00\n        /* \"dependencies/@openzeppelin-contracts-5.5.0/token/ERC20/ERC20.sol\":6925:6938  _balances[to] */\n      0x00\n        /* \"dependencies/@openzeppelin-contracts-5.5.0/token/ERC20/ERC20.sol\":6935:6937  to */\n      dup5\n        /* \"dependencies/@openzeppelin-contracts-5.5.0/token/ERC20/ERC20.sol\":6925:6938  _balances[to] */\n      0xffffffffffffffffffffffffffffffffffffffff\n      and\n      0xffffffffffffffffffffffffffffffffffffffff\n      and\n      dup2\n      mstore\n      0x20\n      add\n      swap1\n      dup2\n      mstore\n      0x20\n      add\n      0x00\n      keccak256\n      0x00\n        /* \"dependencies/@openzeppelin-contracts-5.5.0/token/ERC20/ERC20.sol\":6925:6947  _balances[to] += value */\n      dup3\n      dup3\n      sload\n      add\n      swap3\n      pop\n      pop\n      dup2\n      swap1\n      sstore\n      pop\n        /* \"dependencies/@openzeppelin-contracts-5.5.0/token/ERC20/ERC20.sol\":6547:6972  if (to == address(0)) {... */\n    tag_231:\n        /* \"dependencies/@openzeppelin-contracts-5.5.0/token/ERC20/ERC20.sol\":7002:7004  to */\n      dup2\n        /* \"dependencies/@openzeppelin-contracts-5.5.0/token/ERC20/ERC20.sol\":6987:7012  Transfer(from, to, value) */\n      0xffffffffffffffffffffffffffffffffffffffff\n      and\n        /* \"dependencies/@openzeppelin-contracts-5.5.0/token/ERC20/ERC20.sol\":6996:7000  from */\n      dup4\n        /* \"dependencies/@openzeppelin-contracts-5.5.0/token/ERC20/ERC20.sol\":6987:7012  Transfer(from, to, value) */\n      0xffffffffffffffffffffffffffffffffffffffff\n      and\n      0xddf252ad1be2c89b69c2b068fc378daa952ba7f163c4a11628f55a4df523b3ef\n        /* \"dependencies/@openzeppelin-contracts-5.5.0/token/ERC20/ERC20.sol\":7006:7011  value */\n      dup4\n        /* \"dependencies/@openzeppelin-contracts-5.5.0/token/ERC20/ERC20.sol\":6987:7012  Transfer(from, to, value) */\n      mload(0x40)\n      tag_232\n      swap2\n      swap1\n      tag_44\n      jump\t// in\n    tag_232:\n      mload(0x40)\n      dup1\n      swap2\n      sub\n      swap1\n      log3\n        /* \"dependencies/@openzeppelin-contracts-5.5.0/token/ERC20/ERC20.sol\":5912:7019  function _update(address from, address to, uint256 value) internal virtual {... */\n      pop\n      pop\n      pop\n      jump\t// out\n        /* \"dependencies/@openzeppelin-contracts-5.5.0/access/AccessControl.sol\":3408:3605  function _checkRole(bytes32 role, address account) internal view virtual {... */\n    tag_197:\n        /* \"dependencies/@openzeppelin-contracts-5.5.0/access/AccessControl.sol\":3496:3518  hasRole(role, account) */\n      tag_234\n        /* \"dependencies/@openzeppelin-contracts-5.5.0/access/AccessControl.sol\":3504:3508  role */\n      dup3\n        /* \"dependencies/@openzeppelin-contracts-5.5.0/access/AccessControl.sol\":3510:3517  account */\n      dup3\n        /* \"dependencies/@openzeppelin-contracts-5.5.0/access/AccessControl.sol\":3496:3503  hasRole */\n      tag_84\n        /* \"dependencies/@openzeppelin-contracts-5.5.0/access/AccessControl.sol\":3496:3518  hasRole(role, account) */\n      jump\t// in\n    tag_234:\n        /* \"dependencies/@openzeppelin-contracts-5.5.0/access/AccessControl.sol\":3491:3599  if (!hasRole(role, account)) {... */\n      tag_235\n      jumpi\n        /* \"dependencies/@openzeppelin-contracts-5.5.0/access/AccessControl.sol\":3574:3581  account */\n      dup1\n        /* \"dependencies/@openzeppelin-contracts-5.5.0/access/AccessControl.sol\":3583:3587  role */\n      dup3\n        /* \"dependencies/@openzeppelin-contracts-5.5.0/access/AccessControl.sol\":3541:3588  AccessControlUnauthorizedAccount(account, role) */\n      mload(0x40)\n      0xe2517d3f00000000000000000000000000000000000000000000000000000000\n      dup2\n      mstore\n      0x04\n      add\n      tag_236\n      swap3\n      swap2\n      swap1\n      tag_237\n      jump\t// in\n    tag_236:\n      mload(0x40)\n      dup1\n      swap2\n      sub\n      swap1\n      revert\n        /* \"dependencies/@openzeppelin-contracts-5.5.0/access/AccessControl.sol\":3491:3599  if (!hasRole(role, account)) {... */\n    tag_235:\n        /* \"dependencies/@openzeppelin-contracts-5.5.0/access/AccessControl.sol\":3408:3605  function _checkRole(bytes32 role, address account) internal view virtual {... */\n      pop\n      pop\n      jump\t// out\n        /* \"#utility.yul\":88:205   */\n    tag_239:\n        /* \"#utility.yul\":197:198   */\n      0x00\n        /* \"#utility.yul\":194:195   */\n      0x00\n        /* \"#utility.yul\":187:199   */\n      revert\n        /* \"#utility.yul\":334:483   */\n    tag_241:\n        /* \"#utility.yul\":370:377   */\n      0x00\n        /* \"#utility.yul\":410:476   */\n      0xffffffff00000000000000000000000000000000000000000000000000000000\n        /* \"#utility.yul\":403:408   */\n      dup3\n        /* \"#utility.yul\":399:477   */\n      and\n        /* \"#utility.yul\":388:477   */\n      swap1\n      pop\n        /* \"#utility.yul\":334:483   */\n      swap2\n      swap1\n      pop\n      jump\t// out\n        /* \"#utility.yul\":489:609   */\n    tag_242:\n        /* \"#utility.yul\":561:584   */\n      tag_274\n        /* \"#utility.yul\":578:583   */\n      dup2\n        /* \"#utility.yul\":561:584   */\n      tag_241\n      jump\t// in\n    tag_274:\n        /* \"#utility.yul\":554:559   */\n      dup2\n        /* \"#utility.yul\":551:585   */\n      eq\n        /* \"#utility.yul\":541:603   */\n      tag_275\n      jumpi\n        /* \"#utility.yul\":599:600   */\n      0x00\n        /* \"#utility.yul\":596:597   */\n      0x00\n        /* \"#utility.yul\":589:601   */\n      revert\n        /* \"#utility.yul\":541:603   */\n    tag_275:\n        /* \"#utility.yul\":489:609   */\n      pop\n      jump\t// out\n        /* \"#utility.yul\":615:752   */\n    tag_243:\n        /* \"#utility.yul\":660:665   */\n      0x00\n        /* \"#utility.yul\":698:704   */\n      dup2\n        /* \"#utility.yul\":685:705   */\n      calldataload\n        /* \"#utility.yul\":676:705   */\n      swap1\n      pop\n        /* \"#utility.yul\":714:746   */\n      tag_277\n        /* \"#utility.yul\":740:745   */\n      dup2\n        /* \"#utility.yul\":714:746   */\n      tag_242\n      jump\t// in\n    tag_277:\n        /* \"#utility.yul\":615:752   */\n      swap3\n      swap2\n      pop\n      pop\n      jump\t// out\n        /* \"#utility.yul\":758:1085   */\n    tag_28:\n        /* \"#utility.yul\":816:822   */\n      0x00\n        /* \"#utility.yul\":865:867   */\n      0x20\n        /* \"#utility.yul\":853:862   */\n      dup3\n        /* \"#utility.yul\":844:851   */\n      dup5\n        /* \"#utility.yul\":840:863   */\n      sub\n        /* \"#utility.yul\":836:868   */\n      slt\n        /* \"#utility.yul\":833:952   */\n      iszero\n      tag_279\n      jumpi\n        /* \"#utility.yul\":871:950   */\n      tag_280\n      tag_239\n      jump\t// in\n    tag_280:\n        /* \"#utility.yul\":833:952   */\n    tag_279:\n        /* \"#utility.yul\":991:992   */\n      0x00\n        /* \"#utility.yul\":1016:1068   */\n      tag_281\n        /* \"#utility.yul\":1060:1067   */\n      dup5\n        /* \"#utility.yul\":1051:1057   */\n      dup3\n        /* \"#utility.yul\":1040:1049   */\n      dup6\n        /* \"#utility.yul\":1036:1058   */\n      add\n        /* \"#utility.yul\":1016:1068   */\n      tag_243\n      jump\t// in\n    tag_281:\n        /* \"#utility.yul\":1006:1068   */\n      swap2\n      pop\n        /* \"#utility.yul\":962:1078   */\n      pop\n        /* \"#utility.yul\":758:1085   */\n      swap3\n      swap2\n      pop\n      pop\n      jump\t// out\n        /* \"#utility.yul\":1091:1181   */\n    tag_244:\n        /* \"#utility.yul\":1125:1132   */\n      0x00\n        /* \"#utility.yul\":1168:1173   */\n      dup2\n        /* \"#utility.yul\":1161:1174   */\n      iszero\n        /* \"#utility.yul\":1154:1175   */\n      iszero\n        /* \"#utility.yul\":1143:1175   */\n      swap1\n      pop\n        /* \"#utility.yul\":1091:1181   */\n      swap2\n      swap1\n      pop\n      jump\t// out\n        /* \"#utility.yul\":1187:1296   */\n    tag_245:\n        /* \"#utility.yul\":1268:1289   */\n      tag_284\n        /* \"#utility.yul\":1283:1288   */\n      dup2\n        /* \"#utility.yul\":1268:1289   */\n      tag_244\n      jump\t// in\n    tag_284:\n        /* \"#utility.yul\":1263:1266   */\n      dup3\n        /* \"#utility.yul\":1256:1290   */\n      mstore\n        /* \"#utility.yul\":1187:1296   */\n      pop\n      pop\n      jump\t// out\n        /* \"#utility.yul\":1302:1512   */\n    tag_31:\n        /* \"#utility.yul\":1389:1393   */\n      0x00\n        /* \"#utility.yul\":1427:1429   */\n      0x20\n        /* \"#utility.yul\":1416:1425   */\n      dup3\n        /* \"#utility.yul\":1412:1430   */\n      add\n        /* \"#utility.yul\":1404:1430   */\n      swap1\n      pop\n        /* \"#utility.yul\":1440:1505   */\n      tag_286\n        /* \"#utility.yul\":1502:1503   */\n      0x00\n        /* \"#utility.yul\":1491:1500   */\n      dup4\n        /* \"#utility.yul\":1487:1504   */\n      add\n        /* \"#utility.yul\":1478:1484   */\n      dup5\n        /* \"#utility.yul\":1440:1505   */\n      tag_245\n      jump\t// in\n    tag_286:\n        /* \"#utility.yul\":1302:1512   */\n      swap3\n      swap2\n      pop\n      pop\n      jump\t// out\n        /* \"#utility.yul\":1518:1617   */\n    tag_246:\n        /* \"#utility.yul\":1570:1576   */\n      0x00\n        /* \"#utility.yul\":1604:1609   */\n      dup2\n        /* \"#utility.yul\":1598:1610   */\n      mload\n        /* \"#utility.yul\":1588:1610   */\n      swap1\n      pop\n        /* \"#utility.yul\":1518:1617   */\n      swap2\n      swap1\n      pop\n      jump\t// out\n        /* \"#utility.yul\":1623:1792   */\n    tag_247:\n        /* \"#utility.yul\":1707:1718   */\n      0x00\n        /* \"#utility.yul\":1741:1747   */\n      dup3\n        /* \"#utility.yul\":1736:1739   */\n      dup3\n        /* \"#utility.yul\":1729:1748   */\n      mstore\n        /* \"#utility.yul\":1781:1785   */\n      0x20\n        /* \"#utility.yul\":1776:1779   */\n      dup3\n        /* \"#utility.yul\":1772:1786   */\n      add\n        /* \"#utility.yul\":1757:1786   */\n      swap1\n      pop\n        /* \"#utility.yul\":1623:1792   */\n      swap3\n      swap2\n      pop\n      pop\n      jump\t// out\n        /* \"#utility.yul\":1798:1937   */\n    tag_248:\n        /* \"#utility.yul\":1887:1893   */\n      dup3\n        /* \"#utility.yul\":1882:1885   */\n      dup2\n        /* \"#utility.yul\":1877:1880   */\n      dup4\n        /* \"#utility.yul\":1871:1894   */\n      mcopy\n        /* \"#utility.yul\":1928:1929   */\n      0x00\n        /* \"#utility.yul\":1919:1925   */\n      dup4\n        /* \"#utility.yul\":1914:1917   */\n      dup4\n        /* \"#utility.yul\":1910:1926   */\n      add\n        /* \"#utility.yul\":1903:1930   */\n      mstore\n        /* \"#utility.yul\":1798:1937   */\n      pop\n      pop\n      pop\n      jump\t// out\n        /* \"#utility.yul\":1943:2045   */\n    tag_249:\n        /* \"#utility.yul\":1984:1990   */\n      0x00\n        /* \"#utility.yul\":2035:2037   */\n      0x1f\n        /* \"#utility.yul\":2031:2038   */\n      not\n        /* \"#utility.yul\":2026:2028   */\n      0x1f\n        /* \"#utility.yul\":2019:2024   */\n      dup4\n        /* \"#utility.yul\":2015:2029   */\n      add\n        /* \"#utility.yul\":2011:2039   */\n      and\n        /* \"#utility.yul\":2001:2039   */\n      swap1\n      pop\n        /* \"#utility.yul\":1943:2045   */\n      swap2\n      swap1\n      pop\n      jump\t// out\n        /* \"#utility.yul\":2051:2428   */\n    tag_250:\n        /* \"#utility.yul\":2139:2142   */\n      0x00\n        /* \"#utility.yul\":2167:2206   */\n      tag_292\n        /* \"#utility.yul\":2200:2205   */\n      dup3\n        /* \"#utility.yul\":2167:2206   */\n      tag_246\n      jump\t// in\n    tag_292:\n        /* \"#utility.yul\":2222:2293   */\n      tag_293\n        /* \"#utility.yul\":2286:2292   */\n      dup2\n        /* \"#utility.yul\":2281:2284   */\n      dup6\n        /* \"#utility.yul\":2222:2293   */\n      tag_247\n      jump\t// in\n    tag_293:\n        /* \"#utility.yul\":2215:2293   */\n      swap4\n      pop\n        /* \"#utility.yul\":2302:2367   */\n      tag_294\n        /* \"#utility.yul\":2360:2366   */\n      dup2\n        /* \"#utility.yul\":2355:2358   */\n      dup6\n        /* \"#utility.yul\":2348:2352   */\n      0x20\n        /* \"#utility.yul\":2341:2346   */\n      dup7\n        /* \"#utility.yul\":2337:2353   */\n      add\n        /* \"#utility.yul\":2302:2367   */\n      tag_248\n      jump\t// in\n    tag_294:\n        /* \"#utility.yul\":2392:2421   */\n      tag_295\n        /* \"#utility.yul\":2414:2420   */\n      dup2\n        /* \"#utility.yul\":2392:2421   */\n      tag_249\n      jump\t// in\n    tag_295:\n        /* \"#utility.yul\":2387:2390   */\n      dup5\n        /* \"#utility.yul\":2383:2422   */\n      add\n        /* \"#utility.yul\":2376:2422   */\n      swap2\n      pop\n        /* \"#utility.yul\":2143:2428   */\n      pop\n        /* \"#utility.yul\":2051:2428   */\n      swap3\n      swap2\n      pop\n      pop\n      jump\t// out\n        /* \"#utility.yul\":2434:2747   */\n    tag_35:\n        /* \"#utility.yul\":2547:2551   */\n      0x00\n        /* \"#utility.yul\":2585:2587   */\n      0x20\n        /* \"#utility.yul\":2574:2583   */\n      dup3\n        /* \"#utility.yul\":2570:2588   */\n      add\n        /* \"#utility.yul\":2562:2588   */\n      swap1\n      pop\n        /* \"#utility.yul\":2634:2643   */\n      dup2\n        /* \"#utility.yul\":2628:2632   */\n      dup2\n        /* \"#utility.yul\":2624:2644   */\n      sub\n        /* \"#utility.yul\":2620:2621   */\n      0x00\n        /* \"#utility.yul\":2609:2618   */\n      dup4\n        /* \"#utility.yul\":2605:2622   */\n      add\n        /* \"#utility.yul\":2598:2645   */\n      mstore\n        /* \"#utility.yul\":2662:2740   */\n      tag_297\n        /* \"#utility.yul\":2735:2739   */\n      dup2\n        /* \"#utility.yul\":2726:2732   */\n      dup5\n        /* \"#utility.yul\":2662:2740   */\n      tag_250\n      jump\t// in\n    tag_297:\n        /* \"#utility.yul\":2654:2740   */\n      swap1\n      pop\n        /* \"#utility.yul\":2434:2747   */\n      swap3\n      swap2\n      pop\n      pop\n      jump\t// out\n        /* \"#utility.yul\":2753:2879   */\n    tag_251:\n        /* \"#utility.yul\":2790:2797   */\n      0x00\n        /* \"#utility.yul\":2830:2872   */\n      0xffffffffffffffffffffffffffffffffffffffff\n        /* \"#utility.yul\":2823:2828   */\n      dup3\n        /* \"#utility.yul\":2819:2873   */\n      and\n        /* \"#utility.yul\":2808:2873   */\n      swap1\n      pop\n        /* \"#utility.yul\":2753:2879   */\n      swap2\n      swap1\n      pop\n      jump\t// out\n        /* \"#utility.yul\":2885:2981   */\n    tag_252:\n        /* \"#utility.yul\":2922:2929   */\n      0x00\n        /* \"#utility.yul\":2951:2975   */\n      tag_300\n        /* \"#utility.yul\":2969:2974   */\n      dup3\n        /* \"#utility.yul\":2951:2975   */\n      tag_251\n      jump\t// in\n    tag_300:\n        /* \"#utility.yul\":2940:2975   */\n      swap1\n      pop\n        /* \"#utility.yul\":2885:2981   */\n      swap2\n      swap1\n      pop\n      jump\t// out\n        /* \"#utility.yul\":2987:3109   */\n    tag_253:\n        /* \"#utility.yul\":3060:3084   */\n      tag_302\n        /* \"#utility.yul\":3078:3083   */\n      dup2\n        /* \"#utility.yul\":3060:3084   */\n      tag_252\n      jump\t// in\n    tag_302:\n        /* \"#utility.yul\":3053:3058   */\n      dup2\n        /* \"#utility.yul\":3050:3085   */\n      eq\n        /* \"#utility.yul\":3040:3103   */\n      tag_303\n      jumpi\n        /* \"#utility.yul\":3099:3100   */\n      0x00\n        /* \"#utility.yul\":3096:3097   */\n      0x00\n        /* \"#utility.yul\":3089:3101   */\n      revert\n        /* \"#utility.yul\":3040:3103   */\n    tag_303:\n        /* \"#utility.yul\":2987:3109   */\n      pop\n      jump\t// out\n        /* \"#utility.yul\":3115:3254   */\n    tag_254:\n        /* \"#utility.yul\":3161:3166   */\n      0x00\n        /* \"#utility.yul\":3199:3205   */\n      dup2\n        /* \"#utility.yul\":3186:3206   */\n      calldataload\n        /* \"#utility.yul\":3177:3206   */\n      swap1\n      pop\n        /* \"#utility.yul\":3215:3248   */\n      tag_305\n        /* \"#utility.yul\":3242:3247   */\n      dup2\n        /* \"#utility.yul\":3215:3248   */\n      tag_253\n      jump\t// in\n    tag_305:\n        /* \"#utility.yul\":3115:3254   */\n      swap3\n      swap2\n      pop\n      pop\n      jump\t// out\n        /* \"#utility.yul\":3260:3337   */\n    tag_255:\n        /* \"#utility.yul\":3297:3304   */\n      0x00\n        /* \"#utility.yul\":3326:3331   */\n      dup2\n        /* \"#utility.yul\":3315:3331   */\n      swap1\n      pop\n        /* \"#utility.yul\":3260:3337   */\n      swap2\n      swap1\n      pop\n      jump\t// out\n        /* \"#utility.yul\":3343:3465   */\n    tag_256:\n        /* \"#utility.yul\":3416:3440   */\n      tag_308\n        /* \"#utility.yul\":3434:3439   */\n      dup2\n        /* \"#utility.yul\":3416:3440   */\n      tag_255\n      jump\t// in\n    tag_308:\n        /* \"#utility.yul\":3409:3414   */\n      dup2\n        /* \"#utility.yul\":3406:3441   */\n      eq\n        /* \"#utility.yul\":3396:3459   */\n      tag_309\n      jumpi\n        /* \"#utility.yul\":3455:3456   */\n      0x00\n        /* \"#utility.yul\":3452:3453   */\n      0x00\n        /* \"#utility.yul\":3445:3457   */\n      revert\n        /* \"#utility.yul\":3396:3459   */\n    tag_309:\n        /* \"#utility.yul\":3343:3465   */\n      pop\n      jump\t// out\n        /* \"#utility.yul\":3471:3610   */\n    tag_257:\n        /* \"#utility.yul\":3517:3522   */\n      0x00\n        /* \"#utility.yul\":3555:3561   */\n      dup2\n        /* \"#utility.yul\":3542:3562   */\n      calldataload\n        /* \"#utility.yul\":3533:3562   */\n      swap1\n      pop\n        /* \"#utility.yul\":3571:3604   */\n      tag_311\n        /* \"#utility.yul\":3598:3603   */\n      dup2\n        /* \"#utility.yul\":3571:3604   */\n      tag_256\n      jump\t// in\n    tag_311:\n        /* \"#utility.yul\":3471:3610   */\n      swap3\n      swap2\n      pop\n      pop\n      jump\t// out\n        /* \"#utility.yul\":3616:4090   */\n    tag_38:\n        /* \"#utility.yul\":3684:3690   */\n      0x00\n        /* \"#utility.yul\":3692:3698   */\n      0x00\n        /* \"#utility.yul\":3741:3743   */\n      0x40\n        /* \"#utility.yul\":3729:3738   */\n      dup4\n        /* \"#utility.yul\":3720:3727   */\n      dup6\n        /* \"#utility.yul\":3716:3739   */\n      sub\n        /* \"#utility.yul\":3712:3744   */\n      slt\n        /* \"#utility.yul\":3709:3828   */\n      iszero\n      tag_313\n      jumpi\n        /* \"#utility.yul\":3747:3826   */\n      tag_314\n      tag_239\n      jump\t// in\n    tag_314:\n        /* \"#utility.yul\":3709:3828   */\n    tag_313:\n        /* \"#utility.yul\":3867:3868   */\n      0x00\n        /* \"#utility.yul\":3892:3945   */\n      tag_315\n        /* \"#utility.yul\":3937:3944   */\n      dup6\n        /* \"#utility.yul\":3928:3934   */\n      dup3\n        /* \"#utility.yul\":3917:3926   */\n      dup7\n        /* \"#utility.yul\":3913:3935   */\n      add\n        /* \"#utility.yul\":3892:3945   */\n      tag_254\n      jump\t// in\n    tag_315:\n        /* \"#utility.yul\":3882:3945   */\n      swap3\n      pop\n        /* \"#utility.yul\":3838:3955   */\n      pop\n        /* \"#utility.yul\":3994:3996   */\n      0x20\n        /* \"#utility.yul\":4020:4073   */\n      tag_316\n        /* \"#utility.yul\":4065:4072   */\n      dup6\n        /* \"#utility.yul\":4056:4062   */\n      dup3\n        /* \"#utility.yul\":4045:4054   */\n      dup7\n        /* \"#utility.yul\":4041:4063   */\n      add\n        /* \"#utility.yul\":4020:4073   */\n      tag_257\n      jump\t// in\n    tag_316:\n        /* \"#utility.yul\":4010:4073   */\n      swap2\n      pop\n        /* \"#utility.yul\":3965:4083   */\n      pop\n        /* \"#utility.yul\":3616:4090   */\n      swap3\n      pop\n      swap3\n      swap1\n      pop\n      jump\t// out\n        /* \"#utility.yul\":4096:4214   */\n    tag_258:\n        /* \"#utility.yul\":4183:4207   */\n      tag_318\n        /* \"#utility.yul\":4201:4206   */\n      dup2\n        /* \"#utility.yul\":4183:4207   */\n      tag_255\n      jump\t// in\n    tag_318:\n        /* \"#utility.yul\":4178:4181   */\n      dup3\n        /* \"#utility.yul\":4171:4208   */\n      mstore\n        /* \"#utility.yul\":4096:4214   */\n      pop\n      pop\n      jump\t// out\n        /* \"#utility.yul\":4220:4442   */\n    tag_44:\n        /* \"#utility.yul\":4313:4317   */\n      0x00\n        /* \"#utility.yul\":4351:4353   */\n      0x20\n        /* \"#utility.yul\":4340:4349   */\n      dup3\n        /* \"#utility.yul\":4336:4354   */\n      add\n        /* \"#utility.yul\":4328:4354   */\n      swap1\n      pop\n        /* \"#utility.yul\":4364:4435   */\n      tag_320\n        /* \"#utility.yul\":4432:4433   */\n      0x00\n        /* \"#utility.yul\":4421:4430   */\n      dup4\n        /* \"#utility.yul\":4417:4434   */\n      add\n        /* \"#utility.yul\":4408:4414   */\n      dup5\n        /* \"#utility.yul\":4364:4435   */\n      tag_258\n      jump\t// in\n    tag_320:\n        /* \"#utility.yul\":4220:4442   */\n      swap3\n      swap2\n      pop\n      pop\n      jump\t// out\n        /* \"#utility.yul\":4448:5067   */\n    tag_47:\n        /* \"#utility.yul\":4525:4531   */\n      0x00\n        /* \"#utility.yul\":4533:4539   */\n      0x00\n        /* \"#utility.yul\":4541:4547   */\n      0x00\n        /* \"#utility.yul\":4590:4592   */\n      0x60\n        /* \"#utility.yul\":4578:4587   */\n      dup5\n        /* \"#utility.yul\":4569:4576   */\n      dup7\n        /* \"#utility.yul\":4565:4588   */\n      sub\n        /* \"#utility.yul\":4561:4593   */\n      slt\n        /* \"#utility.yul\":4558:4677   */\n      iszero\n      tag_322\n      jumpi\n        /* \"#utility.yul\":4596:4675   */\n      tag_323\n      tag_239\n      jump\t// in\n    tag_323:\n        /* \"#utility.yul\":4558:4677   */\n    tag_322:\n        /* \"#utility.yul\":4716:4717   */\n      0x00\n        /* \"#utility.yul\":4741:4794   */\n      tag_324\n        /* \"#utility.yul\":4786:4793   */\n      dup7\n        /* \"#utility.yul\":4777:4783   */\n      dup3\n        /* \"#utility.yul\":4766:4775   */\n      dup8\n        /* \"#utility.yul\":4762:4784   */\n      add\n        /* \"#utility.yul\":4741:4794   */\n      tag_254\n      jump\t// in\n    tag_324:\n        /* \"#utility.yul\":4731:4794   */\n      swap4\n      pop\n        /* \"#utility.yul\":4687:4804   */\n      pop\n        /* \"#utility.yul\":4843:4845   */\n      0x20\n        /* \"#utility.yul\":4869:4922   */\n      tag_325\n        /* \"#utility.yul\":4914:4921   */\n      dup7\n        /* \"#utility.yul\":4905:4911   */\n      dup3\n        /* \"#utility.yul\":4894:4903   */\n      dup8\n        /* \"#utility.yul\":4890:4912   */\n      add\n        /* \"#utility.yul\":4869:4922   */\n      tag_254\n      jump\t// in\n    tag_325:\n        /* \"#utility.yul\":4859:4922   */\n      swap3\n      pop\n        /* \"#utility.yul\":4814:4932   */\n      pop\n        /* \"#utility.yul\":4971:4973   */\n      0x40\n        /* \"#utility.yul\":4997:5050   */\n      tag_326\n        /* \"#utility.yul\":5042:5049   */\n      dup7\n        /* \"#utility.yul\":5033:5039   */\n      dup3\n        /* \"#utility.yul\":5022:5031   */\n      dup8\n        /* \"#utility.yul\":5018:5040   */\n      add\n        /* \"#utility.yul\":4997:5050   */\n      tag_257\n      jump\t// in\n    tag_326:\n        /* \"#utility.yul\":4987:5050   */\n      swap2\n      pop\n        /* \"#utility.yul\":4942:5060   */\n      pop\n        /* \"#utility.yul\":4448:5067   */\n      swap3\n      pop\n      swap3\n      pop\n      swap3\n      jump\t// out\n        /* \"#utility.yul\":5073:5150   */\n    tag_259:\n        /* \"#utility.yul\":5110:5117   */\n      0x00\n        /* \"#utility.yul\":5139:5144   */\n      dup2\n        /* \"#utility.yul\":5128:5144   */\n      swap1\n      pop\n        /* \"#utility.yul\":5073:5150   */\n      swap2\n      swap1\n      pop\n      jump\t// out\n        /* \"#utility.yul\":5156:5278   */\n    tag_260:\n        /* \"#utility.yul\":5229:5253   */\n      tag_329\n        /* \"#utility.yul\":5247:5252   */\n      dup2\n        /* \"#utility.yul\":5229:5253   */\n      tag_259\n      jump\t// in\n    tag_329:\n        /* \"#utility.yul\":5222:5227   */\n      dup2\n        /* \"#utility.yul\":5219:5254   */\n      eq\n        /* \"#utility.yul\":5209:5272   */\n      tag_330\n      jumpi\n        /* \"#utility.yul\":5268:5269   */\n      0x00\n        /* \"#utility.yul\":5265:5266   */\n      0x00\n        /* \"#utility.yul\":5258:5270   */\n      revert\n        /* \"#utility.yul\":5209:5272   */\n    tag_330:\n        /* \"#utility.yul\":5156:5278   */\n      pop\n      jump\t// out\n        /* \"#utility.yul\":5284:5423   */\n    tag_261:\n        /* \"#utility.yul\":5330:5335   */\n      0x00\n        /* \"#utility.yul\":5368:5374   */\n      dup2\n        /* \"#utility.yul\":5355:5375   */\n      calldataload\n        /* \"#utility.yul\":5346:5375   */\n      swap1\n      pop\n        /* \"#utility.yul\":5384:5417   */\n      tag_332\n        /* \"#utility.yul\":5411:5416   */\n      dup2\n        /* \"#utility.yul\":5384:5417   */\n      tag_260\n      jump\t// in\n    tag_332:\n        /* \"#utility.yul\":5284:5423   */\n      swap3\n      swap2\n      pop\n      pop\n      jump\t// out\n        /* \"#utility.yul\":5429:5758   */\n    tag_52:\n        /* \"#utility.yul\":5488:5494   */\n      0x00\n        /* \"#utility.yul\":5537:5539   */\n      0x20\n        /* \"#utility.yul\":5525:5534   */\n      dup3\n        /* \"#utility.yul\":5516:5523   */\n      dup5\n        /* \"#utility.yul\":5512:5535   */\n      sub\n        /* \"#utility.yul\":5508:5540   */\n      slt\n        /* \"#utility.yul\":5505:5624   */\n      iszero\n      tag_334\n      jumpi\n        /* \"#utility.yul\":5543:5622   */\n      tag_335\n      tag_239\n      jump\t// in\n    tag_335:\n        /* \"#utility.yul\":5505:5624   */\n    tag_334:\n        /* \"#utility.yul\":5663:5664   */\n      0x00\n        /* \"#utility.yul\":5688:5741   */\n      tag_336\n        /* \"#utility.yul\":5733:5740   */\n      dup5\n        /* \"#utility.yul\":5724:5730   */\n      dup3\n        /* \"#utility.yul\":5713:5722   */\n      dup6\n        /* \"#utility.yul\":5709:5731   */\n      add\n        /* \"#utility.yul\":5688:5741   */\n      tag_261\n      jump\t// in\n    tag_336:\n        /* \"#utility.yul\":5678:5741   */\n      swap2\n      pop\n        /* \"#utility.yul\":5634:5751   */\n      pop\n        /* \"#utility.yul\":5429:5758   */\n      swap3\n      swap2\n      pop\n      pop\n      jump\t// out\n        /* \"#utility.yul\":5764:5882   */\n    tag_262:\n        /* \"#utility.yul\":5851:5875   */\n      tag_338\n        /* \"#utility.yul\":5869:5874   */\n      dup2\n        /* \"#utility.yul\":5851:5875   */\n      tag_259\n      jump\t// in\n    tag_338:\n        /* \"#utility.yul\":5846:5849   */\n      dup3\n        /* \"#utility.yul\":5839:5876   */\n      mstore\n        /* \"#utility.yul\":5764:5882   */\n      pop\n      pop\n      jump\t// out\n        /* \"#utility.yul\":5888:6110   */\n    tag_55:\n        /* \"#utility.yul\":5981:5985   */\n      0x00\n        /* \"#utility.yul\":6019:6021   */\n      0x20\n        /* \"#utility.yul\":6008:6017   */\n      dup3\n        /* \"#utility.yul\":6004:6022   */\n      add\n        /* \"#utility.yul\":5996:6022   */\n      swap1\n      pop\n        /* \"#utility.yul\":6032:6103   */\n      tag_340\n        /* \"#utility.yul\":6100:6101   */\n      0x00\n        /* \"#utility.yul\":6089:6098   */\n      dup4\n        /* \"#utility.yul\":6085:6102   */\n      add\n        /* \"#utility.yul\":6076:6082   */\n      dup5\n        /* \"#utility.yul\":6032:6103   */\n      tag_262\n      jump\t// in\n    tag_340:\n        /* \"#utility.yul\":5888:6110   */\n      swap3\n      swap2\n      pop\n      pop\n      jump\t// out\n        /* \"#utility.yul\":6116:6590   */\n    tag_58:\n        /* \"#utility.yul\":6184:6190   */\n      0x00\n        /* \"#utility.yul\":6192:6198   */\n      0x00\n        /* \"#utility.yul\":6241:6243   */\n      0x40\n        /* \"#utility.yul\":6229:6238   */\n      dup4\n        /* \"#utility.yul\":6220:6227   */\n      dup6\n        /* \"#utility.yul\":6216:6239   */\n      sub\n        /* \"#utility.yul\":6212:6244   */\n      slt\n        /* \"#utility.yul\":6209:6328   */\n      iszero\n      tag_342\n      jumpi\n        /* \"#utility.yul\":6247:6326   */\n      tag_343\n      tag_239\n      jump\t// in\n    tag_343:\n        /* \"#utility.yul\":6209:6328   */\n    tag_342:\n        /* \"#utility.yul\":6367:6368   */\n      0x00\n        /* \"#utility.yul\":6392:6445   */\n      tag_344\n        /* \"#utility.yul\":6437:6444   */\n      dup6\n        /* \"#utility.yul\":6428:6434   */\n      dup3\n        /* \"#utility.yul\":6417:6426   */\n      dup7\n        /* \"#utility.yul\":6413:6435   */\n      add\n        /* \"#utility.yul\":6392:6445   */\n      tag_261\n      jump\t// in\n    tag_344:\n        /* \"#utility.yul\":6382:6445   */\n      swap3\n      pop\n        /* \"#utility.yul\":6338:6455   */\n      pop\n        /* \"#utility.yul\":6494:6496   */\n      0x20\n        /* \"#utility.yul\":6520:6573   */\n      tag_345\n        /* \"#utility.yul\":6565:6572   */\n      dup6\n        /* \"#utility.yul\":6556:6562   */\n      dup3\n        /* \"#utility.yul\":6545:6554   */\n      dup7\n        /* \"#utility.yul\":6541:6563   */\n      add\n        /* \"#utility.yul\":6520:6573   */\n      tag_254\n      jump\t// in\n    tag_345:\n        /* \"#utility.yul\":6510:6573   */\n      swap2\n      pop\n        /* \"#utility.yul\":6465:6583   */\n      pop\n        /* \"#utility.yul\":6116:6590   */\n      swap3\n      pop\n      swap3\n      swap1\n      pop\n      jump\t// out\n        /* \"#utility.yul\":6596:6682   */\n    tag_263:\n        /* \"#utility.yul\":6631:6638   */\n      0x00\n        /* \"#utility.yul\":6671:6675   */\n      0xff\n        /* \"#utility.yul\":6664:6669   */\n      dup3\n        /* \"#utility.yul\":6660:6676   */\n      and\n        /* \"#utility.yul\":6649:6676   */\n      swap1\n      pop\n        /* \"#utility.yul\":6596:6682   */\n      swap2\n      swap1\n      pop\n      jump\t// out\n        /* \"#utility.yul\":6688:6800   */\n    tag_264:\n        /* \"#utility.yul\":6771:6793   */\n      tag_348\n        /* \"#utility.yul\":6787:6792   */\n      dup2\n        /* \"#utility.yul\":6771:6793   */\n      tag_263\n      jump\t// in\n    tag_348:\n        /* \"#utility.yul\":6766:6769   */\n      dup3\n        /* \"#utility.yul\":6759:6794   */\n      mstore\n        /* \"#utility.yul\":6688:6800   */\n      pop\n      pop\n      jump\t// out\n        /* \"#utility.yul\":6806:7020   */\n    tag_63:\n        /* \"#utility.yul\":6895:6899   */\n      0x00\n        /* \"#utility.yul\":6933:6935   */\n      0x20\n        /* \"#utility.yul\":6922:6931   */\n      dup3\n        /* \"#utility.yul\":6918:6936   */\n      add\n        /* \"#utility.yul\":6910:6936   */\n      swap1\n      pop\n        /* \"#utility.yul\":6946:7013   */\n      tag_350\n        /* \"#utility.yul\":7010:7011   */\n      0x00\n        /* \"#utility.yul\":6999:7008   */\n      dup4\n        /* \"#utility.yul\":6995:7012   */\n      add\n        /* \"#utility.yul\":6986:6992   */\n      dup5\n        /* \"#utility.yul\":6946:7013   */\n      tag_264\n      jump\t// in\n    tag_350:\n        /* \"#utility.yul\":6806:7020   */\n      swap3\n      swap2\n      pop\n      pop\n      jump\t// out\n        /* \"#utility.yul\":7026:7355   */\n    tag_72:\n        /* \"#utility.yul\":7085:7091   */\n      0x00\n        /* \"#utility.yul\":7134:7136   */\n      0x20\n        /* \"#utility.yul\":7122:7131   */\n      dup3\n        /* \"#utility.yul\":7113:7120   */\n      dup5\n        /* \"#utility.yul\":7109:7132   */\n      sub\n        /* \"#utility.yul\":7105:7137   */\n      slt\n        /* \"#utility.yul\":7102:7221   */\n      iszero\n      tag_352\n      jumpi\n        /* \"#utility.yul\":7140:7219   */\n      tag_353\n      tag_239\n      jump\t// in\n    tag_353:\n        /* \"#utility.yul\":7102:7221   */\n    tag_352:\n        /* \"#utility.yul\":7260:7261   */\n      0x00\n        /* \"#utility.yul\":7285:7338   */\n      tag_354\n        /* \"#utility.yul\":7330:7337   */\n      dup5\n        /* \"#utility.yul\":7321:7327   */\n      dup3\n        /* \"#utility.yul\":7310:7319   */\n      dup6\n        /* \"#utility.yul\":7306:7328   */\n      add\n        /* \"#utility.yul\":7285:7338   */\n      tag_257\n      jump\t// in\n    tag_354:\n        /* \"#utility.yul\":7275:7338   */\n      swap2\n      pop\n        /* \"#utility.yul\":7231:7348   */\n      pop\n        /* \"#utility.yul\":7026:7355   */\n      swap3\n      swap2\n      pop\n      pop\n      jump\t// out\n        /* \"#utility.yul\":7361:7690   */\n    tag_76:\n        /* \"#utility.yul\":7420:7426   */\n      0x00\n        /* \"#utility.yul\":7469:7471   */\n      0x20\n        /* \"#utility.yul\":7457:7466   */\n      dup3\n        /* \"#utility.yul\":7448:7455   */\n      dup5\n        /* \"#utility.yul\":7444:7467   */\n      sub\n        /* \"#utility.yul\":7440:7472   */\n      slt\n        /* \"#utility.yul\":7437:7556   */\n      iszero\n      tag_356\n      jumpi\n        /* \"#utility.yul\":7475:7554   */\n      tag_357\n      tag_239\n      jump\t// in\n    tag_357:\n        /* \"#utility.yul\":7437:7556   */\n    tag_356:\n        /* \"#utility.yul\":7595:7596   */\n      0x00\n        /* \"#utility.yul\":7620:7673   */\n      tag_358\n        /* \"#utility.yul\":7665:7672   */\n      dup5\n        /* \"#utility.yul\":7656:7662   */\n      dup3\n        /* \"#utility.yul\":7645:7654   */\n      dup6\n        /* \"#utility.yul\":7641:7663   */\n      add\n        /* \"#utility.yul\":7620:7673   */\n      tag_254\n      jump\t// in\n    tag_358:\n        /* \"#utility.yul\":7610:7673   */\n      swap2\n      pop\n        /* \"#utility.yul\":7566:7683   */\n      pop\n        /* \"#utility.yul\":7361:7690   */\n      swap3\n      swap2\n      pop\n      pop\n      jump\t// out\n        /* \"#utility.yul\":7696:8170   */\n    tag_104:\n        /* \"#utility.yul\":7764:7770   */\n      0x00\n        /* \"#utility.yul\":7772:7778   */\n      0x00\n        /* \"#utility.yul\":7821:7823   */\n      0x40\n        /* \"#utility.yul\":7809:7818   */\n      dup4\n        /* \"#utility.yul\":7800:7807   */\n      dup6\n        /* \"#utility.yul\":7796:7819   */\n      sub\n        /* \"#utility.yul\":7792:7824   */\n      slt\n        /* \"#utility.yul\":7789:7908   */\n      iszero\n      tag_360\n      jumpi\n        /* \"#utility.yul\":7827:7906   */\n      tag_361\n      tag_239\n      jump\t// in\n    tag_361:\n        /* \"#utility.yul\":7789:7908   */\n    tag_360:\n        /* \"#utility.yul\":7947:7948   */\n      0x00\n        /* \"#utility.yul\":7972:8025   */\n      tag_362\n        /* \"#utility.yul\":8017:8024   */\n      dup6\n        /* \"#utility.yul\":8008:8014   */\n      dup3\n        /* \"#utility.yul\":7997:8006   */\n      dup7\n        /* \"#utility.yul\":7993:8015   */\n      add\n        /* \"#utility.yul\":7972:8025   */\n      tag_254\n      jump\t// in\n    tag_362:\n        /* \"#utility.yul\":7962:8025   */\n      swap3\n      pop\n        /* \"#utility.yul\":7918:8035   */\n      pop\n        /* \"#utility.yul\":8074:8076   */\n      0x20\n        /* \"#utility.yul\":8100:8153   */\n      tag_363\n        /* \"#utility.yul\":8145:8152   */\n      dup6\n        /* \"#utility.yul\":8136:8142   */\n      dup3\n        /* \"#utility.yul\":8125:8134   */\n      dup7\n        /* \"#utility.yul\":8121:8143   */\n      add\n        /* \"#utility.yul\":8100:8153   */\n      tag_254\n      jump\t// in\n    tag_363:\n        /* \"#utility.yul\":8090:8153   */\n      swap2\n      pop\n        /* \"#utility.yul\":8045:8163   */\n      pop\n        /* \"#utility.yul\":7696:8170   */\n      swap3\n      pop\n      swap3\n      swap1\n      pop\n      jump\t// out\n        /* \"#utility.yul\":8176:8356   */\n    tag_265:\n        /* \"#utility.yul\":8224:8301   */\n      0x4e487b7100000000000000000000000000000000000000000000000000000000\n        /* \"#utility.yul\":8221:8222   */\n      0x00\n        /* \"#utility.yul\":8214:8302   */\n      mstore\n        /* \"#utility.yul\":8321:8325   */\n      0x22\n        /* \"#utility.yul\":8318:8319   */\n      0x04\n        /* \"#utility.yul\":8311:8326   */\n      mstore\n        /* \"#utility.yul\":8345:8349   */\n      0x24\n        /* \"#utility.yul\":8342:8343   */\n      0x00\n        /* \"#utility.yul\":8335:8350   */\n      revert\n        /* \"#utility.yul\":8362:8682   */\n    tag_113:\n        /* \"#utility.yul\":8406:8412   */\n      0x00\n        /* \"#utility.yul\":8443:8444   */\n      0x02\n        /* \"#utility.yul\":8437:8441   */\n      dup3\n        /* \"#utility.yul\":8433:8445   */\n      div\n        /* \"#utility.yul\":8423:8445   */\n      swap1\n      pop\n        /* \"#utility.yul\":8490:8491   */\n      0x01\n        /* \"#utility.yul\":8484:8488   */\n      dup3\n        /* \"#utility.yul\":8480:8492   */\n      and\n        /* \"#utility.yul\":8511:8529   */\n      dup1\n        /* \"#utility.yul\":8501:8582   */\n      tag_366\n      jumpi\n        /* \"#utility.yul\":8567:8571   */\n      0x7f\n        /* \"#utility.yul\":8559:8565   */\n      dup3\n        /* \"#utility.yul\":8555:8572   */\n      and\n        /* \"#utility.yul\":8545:8572   */\n      swap2\n      pop\n        /* \"#utility.yul\":8501:8582   */\n    tag_366:\n        /* \"#utility.yul\":8629:8631   */\n      0x20\n        /* \"#utility.yul\":8621:8627   */\n      dup3\n        /* \"#utility.yul\":8618:8632   */\n      lt\n        /* \"#utility.yul\":8598:8616   */\n      dup2\n        /* \"#utility.yul\":8595:8633   */\n      sub\n        /* \"#utility.yul\":8592:8676   */\n      tag_367\n      jumpi\n        /* \"#utility.yul\":8648:8666   */\n      tag_368\n      tag_265\n      jump\t// in\n    tag_368:\n        /* \"#utility.yul\":8592:8676   */\n    tag_367:\n        /* \"#utility.yul\":8413:8682   */\n      pop\n        /* \"#utility.yul\":8362:8682   */\n      swap2\n      swap1\n      pop\n      jump\t// out\n        /* \"#utility.yul\":8688:8806   */\n    tag_266:\n        /* \"#utility.yul\":8775:8799   */\n      tag_370\n        /* \"#utility.yul\":8793:8798   */\n      dup2\n        /* \"#utility.yul\":8775:8799   */\n      tag_252\n      jump\t// in\n    tag_370:\n        /* \"#utility.yul\":8770:8773   */\n      dup3\n        /* \"#utility.yul\":8763:8800   */\n      mstore\n        /* \"#utility.yul\":8688:8806   */\n      pop\n      pop\n      jump\t// out\n        /* \"#utility.yul\":8812:9254   */\n    tag_184:\n        /* \"#utility.yul\":8961:8965   */\n      0x00\n        /* \"#utility.yul\":8999:9001   */\n      0x60\n        /* \"#utility.yul\":8988:8997   */\n      dup3\n        /* \"#utility.yul\":8984:9002   */\n      add\n        /* \"#utility.yul\":8976:9002   */\n      swap1\n      pop\n        /* \"#utility.yul\":9012:9083   */\n      tag_372\n        /* \"#utility.yul\":9080:9081   */\n      0x00\n        /* \"#utility.yul\":9069:9078   */\n      dup4\n        /* \"#utility.yul\":9065:9082   */\n      add\n        /* \"#utility.yul\":9056:9062   */\n      dup7\n        /* \"#utility.yul\":9012:9083   */\n      tag_266\n      jump\t// in\n    tag_372:\n        /* \"#utility.yul\":9093:9165   */\n      tag_373\n        /* \"#utility.yul\":9161:9163   */\n      0x20\n        /* \"#utility.yul\":9150:9159   */\n      dup4\n        /* \"#utility.yul\":9146:9164   */\n      add\n        /* \"#utility.yul\":9137:9143   */\n      dup6\n        /* \"#utility.yul\":9093:9165   */\n      tag_258\n      jump\t// in\n    tag_373:\n        /* \"#utility.yul\":9175:9247   */\n      tag_374\n        /* \"#utility.yul\":9243:9245   */\n      0x40\n        /* \"#utility.yul\":9232:9241   */\n      dup4\n        /* \"#utility.yul\":9228:9246   */\n      add\n        /* \"#utility.yul\":9219:9225   */\n      dup5\n        /* \"#utility.yul\":9175:9247   */\n      tag_258\n      jump\t// in\n    tag_374:\n        /* \"#utility.yul\":8812:9254   */\n      swap5\n      swap4\n      pop\n      pop\n      pop\n      pop\n      jump\t// out\n        /* \"#utility.yul\":9260:9482   */\n    tag_189:\n        /* \"#utility.yul\":9353:9357   */\n      0x00\n        /* \"#utility.yul\":9391:9393   */\n      0x20\n        /* \"#utility.yul\":9380:9389   */\n      dup3\n        /* \"#utility.yul\":9376:9394   */\n      add\n        /* \"#utility.yul\":9368:9394   */\n      swap1\n      pop\n        /* \"#utility.yul\":9404:9475   */\n      tag_376\n        /* \"#utility.yul\":9472:9473   */\n      0x00\n        /* \"#utility.yul\":9461:9470   */\n      dup4\n        /* \"#utility.yul\":9457:9474   */\n      add\n        /* \"#utility.yul\":9448:9454   */\n      dup5\n        /* \"#utility.yul\":9404:9475   */\n      tag_266\n      jump\t// in\n    tag_376:\n        /* \"#utility.yul\":9260:9482   */\n      swap3\n      swap2\n      pop\n      pop\n      jump\t// out\n        /* \"#utility.yul\":9488:9668   */\n    tag_267:\n        /* \"#utility.yul\":9536:9613   */\n      0x4e487b7100000000000000000000000000000000000000000000000000000000\n        /* \"#utility.yul\":9533:9534   */\n      0x00\n        /* \"#utility.yul\":9526:9614   */\n      mstore\n        /* \"#utility.yul\":9633:9637   */\n      0x11\n        /* \"#utility.yul\":9630:9631   */\n      0x04\n        /* \"#utility.yul\":9623:9638   */\n      mstore\n        /* \"#utility.yul\":9657:9661   */\n      0x24\n        /* \"#utility.yul\":9654:9655   */\n      0x00\n        /* \"#utility.yul\":9647:9662   */\n      revert\n        /* \"#utility.yul\":9674:9865   */\n    tag_226:\n        /* \"#utility.yul\":9714:9717   */\n      0x00\n        /* \"#utility.yul\":9733:9753   */\n      tag_379\n        /* \"#utility.yul\":9751:9752   */\n      dup3\n        /* \"#utility.yul\":9733:9753   */\n      tag_255\n      jump\t// in\n    tag_379:\n        /* \"#utility.yul\":9728:9753   */\n      swap2\n      pop\n        /* \"#utility.yul\":9767:9787   */\n      tag_380\n        /* \"#utility.yul\":9785:9786   */\n      dup4\n        /* \"#utility.yul\":9767:9787   */\n      tag_255\n      jump\t// in\n    tag_380:\n        /* \"#utility.yul\":9762:9787   */\n      swap3\n      pop\n        /* \"#utility.yul\":9810:9811   */\n      dup3\n        /* \"#utility.yul\":9807:9808   */\n      dup3\n        /* \"#utility.yul\":9803:9812   */\n      add\n        /* \"#utility.yul\":9796:9812   */\n      swap1\n      pop\n        /* \"#utility.yul\":9831:9834   */\n      dup1\n        /* \"#utility.yul\":9828:9829   */\n      dup3\n        /* \"#utility.yul\":9825:9835   */\n      gt\n        /* \"#utility.yul\":9822:9858   */\n      iszero\n      tag_381\n      jumpi\n        /* \"#utility.yul\":9838:9856   */\n      tag_382\n      tag_267\n      jump\t// in\n    tag_382:\n        /* \"#utility.yul\":9822:9858   */\n    tag_381:\n        /* \"#utility.yul\":9674:9865   */\n      swap3\n      swap2\n      pop\n      pop\n      jump\t// out\n        /* \"#utility.yul\":9871:10203   */\n    tag_237:\n        /* \"#utility.yul\":9992:9996   */\n      0x00\n        /* \"#utility.yul\":10030:10032   */\n      0x40\n        /* \"#utility.yul\":10019:10028   */\n      dup3\n        /* \"#utility.yul\":10015:10033   */\n      add\n        /* \"#utility.yul\":10007:10033   */\n      swap1\n      pop\n        /* \"#utility.yul\":10043:10114   */\n      tag_384\n        /* \"#utility.yul\":10111:10112   */\n      0x00\n        /* \"#utility.yul\":10100:10109   */\n      dup4\n        /* \"#utility.yul\":10096:10113   */\n      add\n        /* \"#utility.yul\":10087:10093   */\n      dup6\n        /* \"#utility.yul\":10043:10114   */\n      tag_266\n      jump\t// in\n    tag_384:\n        /* \"#utility.yul\":10124:10196   */\n      tag_385\n        /* \"#utility.yul\":10192:10194   */\n      0x20\n        /* \"#utility.yul\":10181:10190   */\n      dup4\n        /* \"#utility.yul\":10177:10195   */\n      add\n        /* \"#utility.yul\":10168:10174   */\n      dup5\n        /* \"#utility.yul\":10124:10196   */\n      tag_262\n      jump\t// in\n    tag_385:\n        /* \"#utility.yul\":9871:10203   */\n      swap4\n      swap3\n      pop\n      pop\n      pop\n      jump\t// out\n\n    auxdata: 0xa2646970667358221220b4b9bfa5deea39b3bfcf5b363d1287cd11f0a5fbfc94fa1b05b0548ed69283a964736f6c634300081e0033\n}\n",
				"bytecode": {
					"linkReferences": {},
					"object": "608060405234801561000f575f5ffd5b5060405161215b38038061215b833981810160405281019061003191906105b3565b6040518060400160405280600981526020017f45647552657761726400000000000000000000000000000000000000000000008152506040518060400160405280600381526020017f525744000000000000000000000000000000000000000000000000000000000081525081600390816100ac9190610825565b5080600490816100bc9190610825565b5050506100d15f5f1b8361012360201b60201c565b506101027f9f2df0fed2c77648de5860a4cc508cd0818c85b8b8a1ab4ceeef8d981c8956a68361012360201b60201c565b505f81111561011c5761011b828261021960201b60201c565b5b50506109d9565b5f610134838361029e60201b60201c565b61020f57600160055f8581526020019081526020015f205f015f8473ffffffffffffffffffffffffffffffffffffffff1673ffffffffffffffffffffffffffffffffffffffff1681526020019081526020015f205f6101000a81548160ff0219169083151502179055506101ac61030260201b60201c565b73ffffffffffffffffffffffffffffffffffffffff168273ffffffffffffffffffffffffffffffffffffffff16847f2f8788117e7eff1d82e926ec794901d17c78024a50270940304540a733656f0d60405160405180910390a460019050610213565b5f90505b92915050565b5f73ffffffffffffffffffffffffffffffffffffffff168273ffffffffffffffffffffffffffffffffffffffff1603610289575f6040517fec442f050000000000000000000000000000000000000000000000000000000081526004016102809190610903565b60405180910390fd5b61029a5f838361030960201b60201c565b5050565b5f60055f8481526020019081526020015f205f015f8373ffffffffffffffffffffffffffffffffffffffff1673ffffffffffffffffffffffffffffffffffffffff1681526020019081526020015f205f9054906101000a900460ff16905092915050565b5f33905090565b5f73ffffffffffffffffffffffffffffffffffffffff168373ffffffffffffffffffffffffffffffffffffffff1603610359578060025f82825461034d9190610949565b92505081905550610427565b5f5f5f8573ffffffffffffffffffffffffffffffffffffffff1673ffffffffffffffffffffffffffffffffffffffff1681526020019081526020015f20549050818110156103e2578381836040517fe450d38c0000000000000000000000000000000000000000000000000000000081526004016103d99392919061098b565b60405180910390fd5b8181035f5f8673ffffffffffffffffffffffffffffffffffffffff1673ffffffffffffffffffffffffffffffffffffffff1681526020019081526020015f2081905550505b5f73ffffffffffffffffffffffffffffffffffffffff168273ffffffffffffffffffffffffffffffffffffffff160361046e578060025f82825403925050819055506104b8565b805f5f8473ffffffffffffffffffffffffffffffffffffffff1673ffffffffffffffffffffffffffffffffffffffff1681526020019081526020015f205f82825401925050819055505b8173ffffffffffffffffffffffffffffffffffffffff168373ffffffffffffffffffffffffffffffffffffffff167fddf252ad1be2c89b69c2b068fc378daa952ba7f163c4a11628f55a4df523b3ef8360405161051591906109c0565b60405180910390a3505050565b5f5ffd5b5f73ffffffffffffffffffffffffffffffffffffffff82169050919050565b5f61054f82610526565b9050919050565b61055f81610545565b8114610569575f5ffd5b50565b5f8151905061057a81610556565b92915050565b5f819050919050565b61059281610580565b811461059c575f5ffd5b50565b5f815190506105ad81610589565b92915050565b5f5f604083850312156105c9576105c8610522565b5b5f6105d68582860161056c565b92505060206105e78582860161059f565b9150509250929050565b5f81519050919050565b7f4e487b71000000000000000000000000000000000000000000000000000000005f52604160045260245ffd5b7f4e487b71000000000000000000000000000000000000000000000000000000005f52602260045260245ffd5b5f600282049050600182168061066c57607f821691505b60208210810361067f5761067e610628565b5b50919050565b5f819050815f5260205f209050919050565b5f6020601f8301049050919050565b5f82821b905092915050565b5f600883026106e17fffffffffffffffffffffffffffffffffffffffffffffffffffffffffffffffff826106a6565b6106eb86836106a6565b95508019841693508086168417925050509392505050565b5f819050919050565b5f61072661072161071c84610580565b610703565b610580565b9050919050565b5f819050919050565b61073f8361070c565b61075361074b8261072d565b8484546106b2565b825550505050565b5f5f905090565b61076a61075b565b610775818484610736565b505050565b5b818110156107985761078d5f82610762565b60018101905061077b565b5050565b601f8211156107dd576107ae81610685565b6107b784610697565b810160208510156107c6578190505b6107da6107d285610697565b83018261077a565b50505b505050565b5f82821c905092915050565b5f6107fd5f19846008026107e2565b1980831691505092915050565b5f61081583836107ee565b9150826002028217905092915050565b61082e826105f1565b67ffffffffffffffff811115610847576108466105fb565b5b6108518254610655565b61085c82828561079c565b5f60209050601f83116001811461088d575f841561087b578287015190505b610885858261080a565b8655506108ec565b601f19841661089b86610685565b5f5b828110156108c25784890151825560018201915060208501945060208101905061089d565b868310156108df57848901516108db601f8916826107ee565b8355505b6001600288020188555050505b505050505050565b6108fd81610545565b82525050565b5f6020820190506109165f8301846108f4565b92915050565b7f4e487b71000000000000000000000000000000000000000000000000000000005f52601160045260245ffd5b5f61095382610580565b915061095e83610580565b92508282019050808211156109765761097561091c565b5b92915050565b61098581610580565b82525050565b5f60608201905061099e5f8301866108f4565b6109ab602083018561097c565b6109b8604083018461097c565b949350505050565b5f6020820190506109d35f83018461097c565b92915050565b611775806109e65f395ff3fe608060405234801561000f575f5ffd5b506004361061012a575f3560e01c806342966c68116100ab578063a217fddf1161006f578063a217fddf14610352578063a9059cbb14610370578063d5391393146103a0578063d547741f146103be578063dd62ed3e146103da5761012a565b806342966c681461029c57806370a08231146102b857806379cc6790146102e857806391d148541461030457806395d89b41146103345761012a565b8063248a9ca3116100f2578063248a9ca3146101fa5780632f2ff15d1461022a578063313ce5671461024657806336568abe1461026457806340c10f19146102805761012a565b806301ffc9a71461012e57806306fdde031461015e578063095ea7b31461017c57806318160ddd146101ac57806323b872dd146101ca575b5f5ffd5b61014860048036038101906101439190611241565b61040a565b6040516101559190611286565b60405180910390f35b610166610483565b604051610173919061130f565b60405180910390f35b610196600480360381019061019191906113bc565b610513565b6040516101a39190611286565b60405180910390f35b6101b4610535565b6040516101c19190611409565b60405180910390f35b6101e460048036038101906101df9190611422565b61053e565b6040516101f19190611286565b60405180910390f35b610214600480360381019061020f91906114a5565b61056c565b60405161022191906114df565b60405180910390f35b610244600480360381019061023f91906114f8565b610589565b005b61024e6105ab565b60405161025b9190611551565b60405180910390f35b61027e600480360381019061027991906114f8565b6105b3565b005b61029a600480360381019061029591906113bc565b61062e565b005b6102b660048036038101906102b1919061156a565b610667565b005b6102d260048036038101906102cd9190611595565b61067b565b6040516102df9190611409565b60405180910390f35b61030260048036038101906102fd91906113bc565b6106c0565b005b61031e600480360381019061031991906114f8565b6106e0565b60405161032b9190611286565b60405180910390f35b61033c610744565b604051610349919061130f565b60405180910390f35b61035a6107d4565b60405161036791906114df565b60405180910390f35b61038a600480360381019061038591906113bc565b6107da565b6040516103979190611286565b60405180910390f35b6103a86107fc565b6040516103b591906114df565b60405180910390f35b6103d860048036038101906103d391906114f8565b610820565b005b6103f460048036038101906103ef91906115c0565b610842565b6040516104019190611409565b60405180910390f35b5f7f7965db0b000000000000000000000000000000000000000000000000000000007bffffffffffffffffffffffffffffffffffffffffffffffffffffffff1916827bffffffffffffffffffffffffffffffffffffffffffffffffffffffff1916148061047c575061047b826108c4565b5b9050919050565b6060600380546104929061162b565b80601f01602080910402602001604051908101604052809291908181526020018280546104be9061162b565b80156105095780601f106104e057610100808354040283529160200191610509565b820191905f5260205f20905b8154815290600101906020018083116104ec57829003601f168201915b5050505050905090565b5f5f61051d61092d565b905061052a818585610934565b600191505092915050565b5f600254905090565b5f5f61054861092d565b9050610555858285610946565b6105608585856109d9565b60019150509392505050565b5f60055f8381526020019081526020015f20600101549050919050565b6105928261056c565b61059b81610ac9565b6105a58383610add565b50505050565b5f6012905090565b6105bb61092d565b73ffffffffffffffffffffffffffffffffffffffff168173ffffffffffffffffffffffffffffffffffffffff161461061f576040517f6697b23200000000000000000000000000000000000000000000000000000000815260040160405180910390fd5b6106298282610bc7565b505050565b7f9f2df0fed2c77648de5860a4cc508cd0818c85b8b8a1ab4ceeef8d981c8956a661065881610ac9565b6106628383610cb1565b505050565b61067861067261092d565b82610d30565b50565b5f5f5f8373ffffffffffffffffffffffffffffffffffffffff1673ffffffffffffffffffffffffffffffffffffffff1681526020019081526020015f20549050919050565b6106d2826106cc61092d565b83610946565b6106dc8282610d30565b5050565b5f60055f8481526020019081526020015f205f015f8373ffffffffffffffffffffffffffffffffffffffff1673ffffffffffffffffffffffffffffffffffffffff1681526020019081526020015f205f9054906101000a900460ff16905092915050565b6060600480546107539061162b565b80601f016020809104026020016040519081016040528092919081815260200182805461077f9061162b565b80156107ca5780601f106107a1576101008083540402835291602001916107ca565b820191905f5260205f20905b8154815290600101906020018083116107ad57829003601f168201915b5050505050905090565b5f5f1b81565b5f5f6107e461092d565b90506107f18185856109d9565b600191505092915050565b7f9f2df0fed2c77648de5860a4cc508cd0818c85b8b8a1ab4ceeef8d981c8956a681565b6108298261056c565b61083281610ac9565b61083c8383610bc7565b50505050565b5f60015f8473ffffffffffffffffffffffffffffffffffffffff1673ffffffffffffffffffffffffffffffffffffffff1681526020019081526020015f205f8373ffffffffffffffffffffffffffffffffffffffff1673ffffffffffffffffffffffffffffffffffffffff1681526020019081526020015f2054905092915050565b5f7f01ffc9a7000000000000000000000000000000000000000000000000000000007bffffffffffffffffffffffffffffffffffffffffffffffffffffffff1916827bffffffffffffffffffffffffffffffffffffffffffffffffffffffff1916149050919050565b5f33905090565b6109418383836001610daf565b505050565b5f6109518484610842565b90507fffffffffffffffffffffffffffffffffffffffffffffffffffffffffffffffff8110156109d357818110156109c4578281836040517ffb8f41b20000000000000000000000000000000000000000000000000000000081526004016109bb9392919061166a565b60405180910390fd5b6109d284848484035f610daf565b5b50505050565b5f73ffffffffffffffffffffffffffffffffffffffff168373ffffffffffffffffffffffffffffffffffffffff1603610a49575f6040517f96c6fd1e000000000000000000000000000000000000000000000000000000008152600401610a40919061169f565b60405180910390fd5b5f73ffffffffffffffffffffffffffffffffffffffff168273ffffffffffffffffffffffffffffffffffffffff1603610ab9575f6040517fec442f05000000000000000000000000000000000000000000000000000000008152600401610ab0919061169f565b60405180910390fd5b610ac4838383610f7e565b505050565b610ada81610ad561092d565b611197565b50565b5f610ae883836106e0565b610bbd57600160055f8581526020019081526020015f205f015f8473ffffffffffffffffffffffffffffffffffffffff1673ffffffffffffffffffffffffffffffffffffffff1681526020019081526020015f205f6101000a81548160ff021916908315150217905550610b5a61092d565b73ffffffffffffffffffffffffffffffffffffffff168273ffffffffffffffffffffffffffffffffffffffff16847f2f8788117e7eff1d82e926ec794901d17c78024a50270940304540a733656f0d60405160405180910390a460019050610bc1565b5f90505b92915050565b5f610bd283836106e0565b15610ca7575f60055f8581526020019081526020015f205f015f8473ffffffffffffffffffffffffffffffffffffffff1673ffffffffffffffffffffffffffffffffffffffff1681526020019081526020015f205f6101000a81548160ff021916908315150217905550610c4461092d565b73ffffffffffffffffffffffffffffffffffffffff168273ffffffffffffffffffffffffffffffffffffffff16847ff6391f5c32d9c69d2a47ea670b442974b53935d1edc7fd64eb21e047a839171b60405160405180910390a460019050610cab565b5f90505b92915050565b5f73ffffffffffffffffffffffffffffffffffffffff168273ffffffffffffffffffffffffffffffffffffffff1603610d21575f6040517fec442f05000000000000000000000000000000000000000000000000000000008152600401610d18919061169f565b60405180910390fd5b610d2c5f8383610f7e565b5050565b5f73ffffffffffffffffffffffffffffffffffffffff168273ffffffffffffffffffffffffffffffffffffffff1603610da0575f6040517f96c6fd1e000000000000000000000000000000000000000000000000000000008152600401610d97919061169f565b60405180910390fd5b610dab825f83610f7e565b5050565b5f73ffffffffffffffffffffffffffffffffffffffff168473ffffffffffffffffffffffffffffffffffffffff1603610e1f575f6040517fe602df05000000000000000000000000000000000000000000000000000000008152600401610e16919061169f565b60405180910390fd5b5f73ffffffffffffffffffffffffffffffffffffffff168373ffffffffffffffffffffffffffffffffffffffff1603610e8f575f6040517f94280d62000000000000000000000000000000000000000000000000000000008152600401610e86919061169f565b60405180910390fd5b8160015f8673ffffffffffffffffffffffffffffffffffffffff1673ffffffffffffffffffffffffffffffffffffffff1681526020019081526020015f205f8573ffffffffffffffffffffffffffffffffffffffff1673ffffffffffffffffffffffffffffffffffffffff1681526020019081526020015f20819055508015610f78578273ffffffffffffffffffffffffffffffffffffffff168473ffffffffffffffffffffffffffffffffffffffff167f8c5be1e5ebec7d5bd14f71427d1e84f3dd0314c0f7b2291e5b200ac8c7c3b92584604051610f6f9190611409565b60405180910390a35b50505050565b5f73ffffffffffffffffffffffffffffffffffffffff168373ffffffffffffffffffffffffffffffffffffffff1603610fce578060025f828254610fc291906116e5565b9250508190555061109c565b5f5f5f8573ffffffffffffffffffffffffffffffffffffffff1673ffffffffffffffffffffffffffffffffffffffff1681526020019081526020015f2054905081811015611057578381836040517fe450d38c00000000000000000000000000000000000000000000000000000000815260040161104e9392919061166a565b60405180910390fd5b8181035f5f8673ffffffffffffffffffffffffffffffffffffffff1673ffffffffffffffffffffffffffffffffffffffff1681526020019081526020015f2081905550505b5f73ffffffffffffffffffffffffffffffffffffffff168273ffffffffffffffffffffffffffffffffffffffff16036110e3578060025f828254039250508190555061112d565b805f5f8473ffffffffffffffffffffffffffffffffffffffff1673ffffffffffffffffffffffffffffffffffffffff1681526020019081526020015f205f82825401925050819055505b8173ffffffffffffffffffffffffffffffffffffffff168373ffffffffffffffffffffffffffffffffffffffff167fddf252ad1be2c89b69c2b068fc378daa952ba7f163c4a11628f55a4df523b3ef8360405161118a9190611409565b60405180910390a3505050565b6111a182826106e0565b6111e45780826040517fe2517d3f0000000000000000000000000000000000000000000000000000000081526004016111db929190611718565b60405180910390fd5b5050565b5f5ffd5b5f7fffffffff0000000000000000000000000000000000000000000000000000000082169050919050565b611220816111ec565b811461122a575f5ffd5b50565b5f8135905061123b81611217565b92915050565b5f60208284031215611256576112556111e8565b5b5f6112638482850161122d565b91505092915050565b5f8115159050919050565b6112808161126c565b82525050565b5f6020820190506112995f830184611277565b92915050565b5f81519050919050565b5f82825260208201905092915050565b8281835e5f83830152505050565b5f601f19601f8301169050919050565b5f6112e18261129f565b6112eb81856112a9565b93506112fb8185602086016112b9565b611304816112c7565b840191505092915050565b5f6020820190508181035f83015261132781846112d7565b905092915050565b5f73ffffffffffffffffffffffffffffffffffffffff82169050919050565b5f6113588261132f565b9050919050565b6113688161134e565b8114611372575f5ffd5b50565b5f813590506113838161135f565b92915050565b5f819050919050565b61139b81611389565b81146113a5575f5ffd5b50565b5f813590506113b681611392565b92915050565b5f5f604083850312156113d2576113d16111e8565b5b5f6113df85828601611375565b92505060206113f0858286016113a8565b9150509250929050565b61140381611389565b82525050565b5f60208201905061141c5f8301846113fa565b92915050565b5f5f5f60608486031215611439576114386111e8565b5b5f61144686828701611375565b935050602061145786828701611375565b9250506040611468868287016113a8565b9150509250925092565b5f819050919050565b61148481611472565b811461148e575f5ffd5b50565b5f8135905061149f8161147b565b92915050565b5f602082840312156114ba576114b96111e8565b5b5f6114c784828501611491565b91505092915050565b6114d981611472565b82525050565b5f6020820190506114f25f8301846114d0565b92915050565b5f5f6040838503121561150e5761150d6111e8565b5b5f61151b85828601611491565b925050602061152c85828601611375565b9150509250929050565b5f60ff82169050919050565b61154b81611536565b82525050565b5f6020820190506115645f830184611542565b92915050565b5f6020828403121561157f5761157e6111e8565b5b5f61158c848285016113a8565b91505092915050565b5f602082840312156115aa576115a96111e8565b5b5f6115b784828501611375565b91505092915050565b5f5f604083850312156115d6576115d56111e8565b5b5f6115e385828601611375565b92505060206115f485828601611375565b9150509250929050565b7f4e487b71000000000000000000000000000000000000000000000000000000005f52602260045260245ffd5b5f600282049050600182168061164257607f821691505b602082108103611655576116546115fe565b5b50919050565b6116648161134e565b82525050565b5f60608201905061167d5f83018661165b565b61168a60208301856113fa565b61169760408301846113fa565b949350505050565b5f6020820190506116b25f83018461165b565b92915050565b7f4e487b71000000000000000000000000000000000000000000000000000000005f52601160045260245ffd5b5f6116ef82611389565b91506116fa83611389565b9250828201905080821115611712576117116116b8565b5b92915050565b5f60408201905061172b5f83018561165b565b61173860208301846114d0565b939250505056fea2646970667358221220b4b9bfa5deea39b3bfcf5b363d1287cd11f0a5fbfc94fa1b05b0548ed69283a964736f6c634300081e0033",
					"opcodes": "PUSH1 0x80 PUSH1 0x40 MSTORE CALLVALUE DUP1 ISZERO PUSH2 0xF JUMPI PUSH0 PUSH0 REVERT JUMPDEST POP PUSH1 0x40 MLOAD PUSH2 0x215B CODESIZE SUB DUP1 PUSH2 0x215B DUP4 CODECOPY DUP2 DUP2 ADD PUSH1 0x40 MSTORE DUP2 ADD SWAP1 PUSH2 0x31 SWAP2 SWAP1 PUSH2 0x5B3 JUMP JUMPDEST PUSH1 0x40 MLOAD DUP1 PUSH1 0x40 ADD PUSH1 0x40 MSTORE DUP1 PUSH1 0x9 DUP2 MSTORE PUSH1 0x20 ADD PUSH32 0x4564755265776172640000000000000000000000000000000000000000000000 DUP2 MSTORE POP PUSH1 0x40 MLOAD DUP1 PUSH1 0x40 ADD PUSH1 0x40 MSTORE DUP1 PUSH1 0x3 DUP2 MSTORE PUSH1 0x20 ADD PUSH32 0x5257440000000000000000000000000000000000000000000000000000000000 DUP2 MSTORE POP DUP2 PUSH1 0x3 SWAP1 DUP2 PUSH2 0xAC SWAP2 SWAP1 PUSH2 0x825 JUMP JUMPDEST POP DUP1 PUSH1 0x4 SWAP1 DUP2 PUSH2 0xBC SWAP2 SWAP1 PUSH2 0x825 JUMP JUMPDEST POP POP POP PUSH2 0xD1 PUSH0 PUSH0 SHL DUP4 PUSH2 0x123 PUSH1 0x20 SHL PUSH1 0x20 SHR JUMP JUMPDEST POP PUSH2 0x102 PUSH32 0x9F2DF0FED2C77648DE5860A4CC508CD0818C85B8B8A1AB4CEEEF8D981C8956A6 DUP4 PUSH2 0x123 PUSH1 0x20 SHL PUSH1 0x20 SHR JUMP JUMPDEST POP PUSH0 DUP2 GT ISZERO PUSH2 0x11C JUMPI PUSH2 0x11B DUP3 DUP3 PUSH2 0x219 PUSH1 0x20 SHL PUSH1 0x20 SHR JUMP JUMPDEST JUMPDEST POP POP PUSH2 0x9D9 JUMP JUMPDEST PUSH0 PUSH2 0x134 DUP4 DUP4 PUSH2 0x29E PUSH1 0x20 SHL PUSH1 0x20 SHR JUMP JUMPDEST PUSH2 0x20F JUMPI PUSH1 0x1 PUSH1 0x5 PUSH0 DUP6 DUP2 MSTORE PUSH1 0x20 ADD SWAP1 DUP2 MSTORE PUSH1 0x20 ADD PUSH0 KECCAK256 PUSH0 ADD PUSH0 DUP5 PUSH20 0xFFFFFFFFFFFFFFFFFFFFFFFFFFFFFFFFFFFFFFFF AND PUSH20 0xFFFFFFFFFFFFFFFFFFFFFFFFFFFFFFFFFFFFFFFF AND DUP2 MSTORE PUSH1 0x20 ADD SWAP1 DUP2 MSTORE PUSH1 0x20 ADD PUSH0 KECCAK256 PUSH0 PUSH2 0x100 EXP DUP2 SLOAD DUP2 PUSH1 0xFF MUL NOT AND SWAP1 DUP4 ISZERO ISZERO MUL OR SWAP1 SSTORE POP PUSH2 0x1AC PUSH2 0x302 PUSH1 0x20 SHL PUSH1 0x20 SHR JUMP JUMPDEST PUSH20 0xFFFFFFFFFFFFFFFFFFFFFFFFFFFFFFFFFFFFFFFF AND DUP3 PUSH20 0xFFFFFFFFFFFFFFFFFFFFFFFFFFFFFFFFFFFFFFFF AND DUP5 PUSH32 0x2F8788117E7EFF1D82E926EC794901D17C78024A50270940304540A733656F0D PUSH1 0x40 MLOAD PUSH1 0x40 MLOAD DUP1 SWAP2 SUB SWAP1 LOG4 PUSH1 0x1 SWAP1 POP PUSH2 0x213 JUMP JUMPDEST PUSH0 SWAP1 POP JUMPDEST SWAP3 SWAP2 POP POP JUMP JUMPDEST PUSH0 PUSH20 0xFFFFFFFFFFFFFFFFFFFFFFFFFFFFFFFFFFFFFFFF AND DUP3 PUSH20 0xFFFFFFFFFFFFFFFFFFFFFFFFFFFFFFFFFFFFFFFF AND SUB PUSH2 0x289 JUMPI PUSH0 PUSH1 0x40 MLOAD PUSH32 0xEC442F0500000000000000000000000000000000000000000000000000000000 DUP2 MSTORE PUSH1 0x4 ADD PUSH2 0x280 SWAP2 SWAP1 PUSH2 0x903 JUMP JUMPDEST PUSH1 0x40 MLOAD DUP1 SWAP2 SUB SWAP1 REVERT JUMPDEST PUSH2 0x29A PUSH0 DUP4 DUP4 PUSH2 0x309 PUSH1 0x20 SHL PUSH1 0x20 SHR JUMP JUMPDEST POP POP JUMP JUMPDEST PUSH0 PUSH1 0x5 PUSH0 DUP5 DUP2 MSTORE PUSH1 0x20 ADD SWAP1 DUP2 MSTORE PUSH1 0x20 ADD PUSH0 KECCAK256 PUSH0 ADD PUSH0 DUP4 PUSH20 0xFFFFFFFFFFFFFFFFFFFFFFFFFFFFFFFFFFFFFFFF AND PUSH20 0xFFFFFFFFFFFFFFFFFFFFFFFFFFFFFFFFFFFFFFFF AND DUP2 MSTORE PUSH1 0x20 ADD SWAP1 DUP2 MSTORE PUSH1 0x20 ADD PUSH0 KECCAK256 PUSH0 SWAP1 SLOAD SWAP1 PUSH2 0x100 EXP SWAP1 DIV PUSH1 0xFF AND SWAP1 POP SWAP3 SWAP2 POP POP JUMP JUMPDEST PUSH0 CALLER SWAP1 POP SWAP1 JUMP JUMPDEST PUSH0 PUSH20 0xFFFFFFFFFFFFFFFFFFFFFFFFFFFFFFFFFFFFFFFF AND DUP4 PUSH20 0xFFFFFFFFFFFFFFFFFFFFFFFFFFFFFFFFFFFFFFFF AND SUB PUSH2 0x359 JUMPI DUP1 PUSH1 0x2 PUSH0 DUP3 DUP3 SLOAD PUSH2 0x34D SWAP2 SWAP1 PUSH2 0x949 JUMP JUMPDEST SWAP3 POP POP DUP2 SWAP1 SSTORE POP PUSH2 0x427 JUMP JUMPDEST PUSH0 PUSH0 PUSH0 DUP6 PUSH20 0xFFFFFFFFFFFFFFFFFFFFFFFFFFFFFFFFFFFFFFFF AND PUSH20 0xFFFFFFFFFFFFFFFFFFFFFFFFFFFFFFFFFFFFFFFF AND DUP2 MSTORE PUSH1 0x20 ADD SWAP1 DUP2 MSTORE PUSH1 0x20 ADD PUSH0 KECCAK256 SLOAD SWAP1 POP DUP2 DUP2 LT ISZERO PUSH2 0x3E2 JUMPI DUP4 DUP2 DUP4 PUSH1 0x40 MLOAD PUSH32 0xE450D38C00000000000000000000000000000000000000000000000000000000 DUP2 MSTORE PUSH1 0x4 ADD PUSH2 0x3D9 SWAP4 SWAP3 SWAP2 SWAP1 PUSH2 0x98B JUMP JUMPDEST PUSH1 0x40 MLOAD DUP1 SWAP2 SUB SWAP1 REVERT JUMPDEST DUP2 DUP2 SUB PUSH0 PUSH0 DUP7 PUSH20 0xFFFFFFFFFFFFFFFFFFFFFFFFFFFFFFFFFFFFFFFF AND PUSH20 0xFFFFFFFFFFFFFFFFFFFFFFFFFFFFFFFFFFFFFFFF AND DUP2 MSTORE PUSH1 0x20 ADD SWAP1 DUP2 MSTORE PUSH1 0x20 ADD PUSH0 KECCAK256 DUP2 SWAP1 SSTORE POP POP JUMPDEST PUSH0 PUSH20 0xFFFFFFFFFFFFFFFFFFFFFFFFFFFFFFFFFFFFFFFF AND DUP3 PUSH20 0xFFFFFFFFFFFFFFFFFFFFFFFFFFFFFFFFFFFFFFFF AND SUB PUSH2 0x46E JUMPI DUP1 PUSH1 0x2 PUSH0 DUP3 DUP3 SLOAD SUB SWAP3 POP POP DUP2 SWAP1 SSTORE POP PUSH2 0x4B8 JUMP JUMPDEST DUP1 PUSH0 PUSH0 DUP5 PUSH20 0xFFFFFFFFFFFFFFFFFFFFFFFFFFFFFFFFFFFFFFFF AND PUSH20 0xFFFFFFFFFFFFFFFFFFFFFFFFFFFFFFFFFFFFFFFF AND DUP2 MSTORE PUSH1 0x20 ADD SWAP1 DUP2 MSTORE PUSH1 0x20 ADD PUSH0 KECCAK256 PUSH0 DUP3 DUP3 SLOAD ADD SWAP3 POP POP DUP2 SWAP1 SSTORE POP JUMPDEST DUP2 PUSH20 0xFFFFFFFFFFFFFFFFFFFFFFFFFFFFFFFFFFFFFFFF AND DUP4 PUSH20 0xFFFFFFFFFFFFFFFFFFFFFFFFFFFFFFFFFFFFFFFF AND PUSH32 0xDDF252AD1BE2C89B69C2B068FC378DAA952BA7F163C4A11628F55A4DF523B3EF DUP4 PUSH1 0x40 MLOAD PUSH2 0x515 SWAP2 SWAP1 PUSH2 0x9C0 JUMP JUMPDEST PUSH1 0x40 MLOAD DUP1 SWAP2 SUB SWAP1 LOG3 POP POP POP JUMP JUMPDEST PUSH0 PUSH0 REVERT JUMPDEST PUSH0 PUSH20 0xFFFFFFFFFFFFFFFFFFFFFFFFFFFFFFFFFFFFFFFF DUP3 AND SWAP1 POP SWAP2 SWAP1 POP JUMP JUMPDEST PUSH0 PUSH2 0x54F DUP3 PUSH2 0x526 JUMP JUMPDEST SWAP1 POP SWAP2 SWAP1 POP JUMP JUMPDEST PUSH2 0x55F DUP2 PUSH2 0x545 JUMP JUMPDEST DUP2 EQ PUSH2 0x569 JUMPI PUSH0 PUSH0 REVERT JUMPDEST POP JUMP JUMPDEST PUSH0 DUP2 MLOAD SWAP1 POP PUSH2 0x57A DUP2 PUSH2 0x556 JUMP JUMPDEST SWAP3 SWAP2 POP POP JUMP JUMPDEST PUSH0 DUP2 SWAP1 POP SWAP2 SWAP1 POP JUMP JUMPDEST PUSH2 0x592 DUP2 PUSH2 0x580 JUMP JUMPDEST DUP2 EQ PUSH2 0x59C JUMPI PUSH0 PUSH0 REVERT JUMPDEST POP JUMP JUMPDEST PUSH0 DUP2 MLOAD SWAP1 POP PUSH2 0x5AD DUP2 PUSH2 0x589 JUMP JUMPDEST SWAP3 SWAP2 POP POP JUMP JUMPDEST PUSH0 PUSH0 PUSH1 0x40 DUP4 DUP6 SUB SLT ISZERO PUSH2 0x5C9 JUMPI PUSH2 0x5C8 PUSH2 0x522 JUMP JUMPDEST JUMPDEST PUSH0 PUSH2 0x5D6 DUP6 DUP3 DUP7 ADD PUSH2 0x56C JUMP JUMPDEST SWAP3 POP POP PUSH1 0x20 PUSH2 0x5E7 DUP6 DUP3 DUP7 ADD PUSH2 0x59F JUMP JUMPDEST SWAP2 POP POP SWAP3 POP SWAP3 SWAP1 POP JUMP JUMPDEST PUSH0 DUP2 MLOAD SWAP1 POP SWAP2 SWAP1 POP JUMP JUMPDEST PUSH32 0x4E487B7100000000000000000000000000000000000000000000000000000000 PUSH0 MSTORE PUSH1 0x41 PUSH1 0x4 MSTORE PUSH1 0x24 PUSH0 REVERT JUMPDEST PUSH32 0x4E487B7100000000000000000000000000000000000000000000000000000000 PUSH0 MSTORE PUSH1 0x22 PUSH1 0x4 MSTORE PUSH1 0x24 PUSH0 REVERT JUMPDEST PUSH0 PUSH1 0x2 DUP3 DIV SWAP1 POP PUSH1 0x1 DUP3 AND DUP1 PUSH2 0x66C JUMPI PUSH1 0x7F DUP3 AND SWAP2 POP JUMPDEST PUSH1 0x20 DUP3 LT DUP2 SUB PUSH2 0x67F JUMPI PUSH2 0x67E PUSH2 0x628 JUMP JUMPDEST JUMPDEST POP SWAP2 SWAP1 POP JUMP JUMPDEST PUSH0 DUP2 SWAP1 POP DUP2 PUSH0 MSTORE PUSH1 0x20 PUSH0 KECCAK256 SWAP1 POP SWAP2 SWAP1 POP JUMP JUMPDEST PUSH0 PUSH1 0x20 PUSH1 0x1F DUP4 ADD DIV SWAP1 POP SWAP2 SWAP1 POP JUMP JUMPDEST PUSH0 DUP3 DUP3 SHL SWAP1 POP SWAP3 SWAP2 POP POP JUMP JUMPDEST PUSH0 PUSH1 0x8 DUP4 MUL PUSH2 0x6E1 PUSH32 0xFFFFFFFFFFFFFFFFFFFFFFFFFFFFFFFFFFFFFFFFFFFFFFFFFFFFFFFFFFFFFFFF DUP3 PUSH2 0x6A6 JUMP JUMPDEST PUSH2 0x6EB DUP7 DUP4 PUSH2 0x6A6 JUMP JUMPDEST SWAP6 POP DUP1 NOT DUP5 AND SWAP4 POP DUP1 DUP7 AND DUP5 OR SWAP3 POP POP POP SWAP4 SWAP3 POP POP POP JUMP JUMPDEST PUSH0 DUP2 SWAP1 POP SWAP2 SWAP1 POP JUMP JUMPDEST PUSH0 PUSH2 0x726 PUSH2 0x721 PUSH2 0x71C DUP5 PUSH2 0x580 JUMP JUMPDEST PUSH2 0x703 JUMP JUMPDEST PUSH2 0x580 JUMP JUMPDEST SWAP1 POP SWAP2 SWAP1 POP JUMP JUMPDEST PUSH0 DUP2 SWAP1 POP SWAP2 SWAP1 POP JUMP JUMPDEST PUSH2 0x73F DUP4 PUSH2 0x70C JUMP JUMPDEST PUSH2 0x753 PUSH2 0x74B DUP3 PUSH2 0x72D JUMP JUMPDEST DUP5 DUP5 SLOAD PUSH2 0x6B2 JUMP JUMPDEST DUP3 SSTORE POP POP POP POP JUMP JUMPDEST PUSH0 PUSH0 SWAP1 POP SWAP1 JUMP JUMPDEST PUSH2 0x76A PUSH2 0x75B JUMP JUMPDEST PUSH2 0x775 DUP2 DUP5 DUP5 PUSH2 0x736 JUMP JUMPDEST POP POP POP JUMP JUMPDEST JUMPDEST DUP2 DUP2 LT ISZERO PUSH2 0x798 JUMPI PUSH2 0x78D PUSH0 DUP3 PUSH2 0x762 JUMP JUMPDEST PUSH1 0x1 DUP2 ADD SWAP1 POP PUSH2 0x77B JUMP JUMPDEST POP POP JUMP JUMPDEST PUSH1 0x1F DUP3 GT ISZERO PUSH2 0x7DD JUMPI PUSH2 0x7AE DUP2 PUSH2 0x685 JUMP JUMPDEST PUSH2 0x7B7 DUP5 PUSH2 0x697 JUMP JUMPDEST DUP2 ADD PUSH1 0x20 DUP6 LT ISZERO PUSH2 0x7C6 JUMPI DUP2 SWAP1 POP JUMPDEST PUSH2 0x7DA PUSH2 0x7D2 DUP6 PUSH2 0x697 JUMP JUMPDEST DUP4 ADD DUP3 PUSH2 0x77A JUMP JUMPDEST POP POP JUMPDEST POP POP POP JUMP JUMPDEST PUSH0 DUP3 DUP3 SHR SWAP1 POP SWAP3 SWAP2 POP POP JUMP JUMPDEST PUSH0 PUSH2 0x7FD PUSH0 NOT DUP5 PUSH1 0x8 MUL PUSH2 0x7E2 JUMP JUMPDEST NOT DUP1 DUP4 AND SWAP2 POP POP SWAP3 SWAP2 POP POP JUMP JUMPDEST PUSH0 PUSH2 0x815 DUP4 DUP4 PUSH2 0x7EE JUMP JUMPDEST SWAP2 POP DUP3 PUSH1 0x2 MUL DUP3 OR SWAP1 POP SWAP3 SWAP2 POP POP JUMP JUMPDEST PUSH2 0x82E DUP3 PUSH2 0x5F1 JUMP JUMPDEST PUSH8 0xFFFFFFFFFFFFFFFF DUP2 GT ISZERO PUSH2 0x847 JUMPI PUSH2 0x846 PUSH2 0x5FB JUMP JUMPDEST JUMPDEST PUSH2 0x851 DUP3 SLOAD PUSH2 0x655 JUMP JUMPDEST PUSH2 0x85C DUP3 DUP3 DUP6 PUSH2 0x79C JUMP JUMPDEST PUSH0 PUSH1 0x20 SWAP1 POP PUSH1 0x1F DUP4 GT PUSH1 0x1 DUP2 EQ PUSH2 0x88D JUMPI PUSH0 DUP5 ISZERO PUSH2 0x87B JUMPI DUP3 DUP8 ADD MLOAD SWAP1 POP JUMPDEST PUSH2 0x885 DUP6 DUP3 PUSH2 0x80A JUMP JUMPDEST DUP7 SSTORE POP PUSH2 0x8EC JUMP JUMPDEST PUSH1 0x1F NOT DUP5 AND PUSH2 0x89B DUP7 PUSH2 0x685 JUMP JUMPDEST PUSH0 JUMPDEST DUP3 DUP2 LT ISZERO PUSH2 0x8C2 JUMPI DUP5 DUP10 ADD MLOAD DUP3 SSTORE PUSH1 0x1 DUP3 ADD SWAP2 POP PUSH1 0x20 DUP6 ADD SWAP5 POP PUSH1 0x20 DUP2 ADD SWAP1 POP PUSH2 0x89D JUMP JUMPDEST DUP7 DUP4 LT ISZERO PUSH2 0x8DF JUMPI DUP5 DUP10 ADD MLOAD PUSH2 0x8DB PUSH1 0x1F DUP10 AND DUP3 PUSH2 0x7EE JUMP JUMPDEST DUP4 SSTORE POP JUMPDEST PUSH1 0x1 PUSH1 0x2 DUP9 MUL ADD DUP9 SSTORE POP POP POP JUMPDEST POP POP POP POP POP POP JUMP JUMPDEST PUSH2 0x8FD DUP2 PUSH2 0x545 JUMP JUMPDEST DUP3 MSTORE POP POP JUMP JUMPDEST PUSH0 PUSH1 0x20 DUP3 ADD SWAP1 POP PUSH2 0x916 PUSH0 DUP4 ADD DUP5 PUSH2 0x8F4 JUMP JUMPDEST SWAP3 SWAP2 POP POP JUMP JUMPDEST PUSH32 0x4E487B7100000000000000000000000000000000000000000000000000000000 PUSH0 MSTORE PUSH1 0x11 PUSH1 0x4 MSTORE PUSH1 0x24 PUSH0 REVERT JUMPDEST PUSH0 PUSH2 0x953 DUP3 PUSH2 0x580 JUMP JUMPDEST SWAP2 POP PUSH2 0x95E DUP4 PUSH2 0x580 JUMP JUMPDEST SWAP3 POP DUP3 DUP3 ADD SWAP1 POP DUP1 DUP3 GT ISZERO PUSH2 0x976 JUMPI PUSH2 0x975 PUSH2 0x91C JUMP JUMPDEST JUMPDEST SWAP3 SWAP2 POP POP JUMP JUMPDEST PUSH2 0x985 DUP2 PUSH2 0x580 JUMP JUMPDEST DUP3 MSTORE POP POP JUMP JUMPDEST PUSH0 PUSH1 0x60 DUP3 ADD SWAP1 POP PUSH2 0x99E PUSH0 DUP4 ADD DUP7 PUSH2 0x8F4 JUMP JUMPDEST PUSH2 0x9AB PUSH1 0x20 DUP4 ADD DUP6 PUSH2 0x97C JUMP JUMPDEST PUSH2 0x9B8 PUSH1 0x40 DUP4 ADD DUP5 PUSH2 0x97C JUMP JUMPDEST SWAP5 SWAP4 POP POP POP POP JUMP JUMPDEST PUSH0 PUSH1 0x20 DUP3 ADD SWAP1 POP PUSH2 0x9D3 PUSH0 DUP4 ADD DUP5 PUSH2 0x97C JUMP JUMPDEST SWAP3 SWAP2 POP POP JUMP JUMPDEST PUSH2 0x1775 DUP1 PUSH2 0x9E6 PUSH0 CODECOPY PUSH0 RETURN INVALID PUSH1 0x80 PUSH1 0x40 MSTORE CALLVALUE DUP1 ISZERO PUSH2 0xF JUMPI PUSH0 PUSH0 REVERT JUMPDEST POP PUSH1 0x4 CALLDATASIZE LT PUSH2 0x12A JUMPI PUSH0 CALLDATALOAD PUSH1 0xE0 SHR DUP1 PUSH4 0x42966C68 GT PUSH2 0xAB JUMPI DUP1 PUSH4 0xA217FDDF GT PUSH2 0x6F JUMPI DUP1 PUSH4 0xA217FDDF EQ PUSH2 0x352 JUMPI DUP1 PUSH4 0xA9059CBB EQ PUSH2 0x370 JUMPI DUP1 PUSH4 0xD5391393 EQ PUSH2 0x3A0 JUMPI DUP1 PUSH4 0xD547741F EQ PUSH2 0x3BE JUMPI DUP1 PUSH4 0xDD62ED3E EQ PUSH2 0x3DA JUMPI PUSH2 0x12A JUMP JUMPDEST DUP1 PUSH4 0x42966C68 EQ PUSH2 0x29C JUMPI DUP1 PUSH4 0x70A08231 EQ PUSH2 0x2B8 JUMPI DUP1 PUSH4 0x79CC6790 EQ PUSH2 0x2E8 JUMPI DUP1 PUSH4 0x91D14854 EQ PUSH2 0x304 JUMPI DUP1 PUSH4 0x95D89B41 EQ PUSH2 0x334 JUMPI PUSH2 0x12A JUMP JUMPDEST DUP1 PUSH4 0x248A9CA3 GT PUSH2 0xF2 JUMPI DUP1 PUSH4 0x248A9CA3 EQ PUSH2 0x1FA JUMPI DUP1 PUSH4 0x2F2FF15D EQ PUSH2 0x22A JUMPI DUP1 PUSH4 0x313CE567 EQ PUSH2 0x246 JUMPI DUP1 PUSH4 0x36568ABE EQ PUSH2 0x264 JUMPI DUP1 PUSH4 0x40C10F19 EQ PUSH2 0x280 JUMPI PUSH2 0x12A JUMP JUMPDEST DUP1 PUSH4 0x1FFC9A7 EQ PUSH2 0x12E JUMPI DUP1 PUSH4 0x6FDDE03 EQ PUSH2 0x15E JUMPI DUP1 PUSH4 0x95EA7B3 EQ PUSH2 0x17C JUMPI DUP1 PUSH4 0x18160DDD EQ PUSH2 0x1AC JUMPI DUP1 PUSH4 0x23B872DD EQ PUSH2 0x1CA JUMPI JUMPDEST PUSH0 PUSH0 REVERT JUMPDEST PUSH2 0x148 PUSH1 0x4 DUP1 CALLDATASIZE SUB DUP2 ADD SWAP1 PUSH2 0x143 SWAP2 SWAP1 PUSH2 0x1241 JUMP JUMPDEST PUSH2 0x40A JUMP JUMPDEST PUSH1 0x40 MLOAD PUSH2 0x155 SWAP2 SWAP1 PUSH2 0x1286 JUMP JUMPDEST PUSH1 0x40 MLOAD DUP1 SWAP2 SUB SWAP1 RETURN JUMPDEST PUSH2 0x166 PUSH2 0x483 JUMP JUMPDEST PUSH1 0x40 MLOAD PUSH2 0x173 SWAP2 SWAP1 PUSH2 0x130F JUMP JUMPDEST PUSH1 0x40 MLOAD DUP1 SWAP2 SUB SWAP1 RETURN JUMPDEST PUSH2 0x196 PUSH1 0x4 DUP1 CALLDATASIZE SUB DUP2 ADD SWAP1 PUSH2 0x191 SWAP2 SWAP1 PUSH2 0x13BC JUMP JUMPDEST PUSH2 0x513 JUMP JUMPDEST PUSH1 0x40 MLOAD PUSH2 0x1A3 SWAP2 SWAP1 PUSH2 0x1286 JUMP JUMPDEST PUSH1 0x40 MLOAD DUP1 SWAP2 SUB SWAP1 RETURN JUMPDEST PUSH2 0x1B4 PUSH2 0x535 JUMP JUMPDEST PUSH1 0x40 MLOAD PUSH2 0x1C1 SWAP2 SWAP1 PUSH2 0x1409 JUMP JUMPDEST PUSH1 0x40 MLOAD DUP1 SWAP2 SUB SWAP1 RETURN JUMPDEST PUSH2 0x1E4 PUSH1 0x4 DUP1 CALLDATASIZE SUB DUP2 ADD SWAP1 PUSH2 0x1DF SWAP2 SWAP1 PUSH2 0x1422 JUMP JUMPDEST PUSH2 0x53E JUMP JUMPDEST PUSH1 0x40 MLOAD PUSH2 0x1F1 SWAP2 SWAP1 PUSH2 0x1286 JUMP JUMPDEST PUSH1 0x40 MLOAD DUP1 SWAP2 SUB SWAP1 RETURN JUMPDEST PUSH2 0x214 PUSH1 0x4 DUP1 CALLDATASIZE SUB DUP2 ADD SWAP1 PUSH2 0x20F SWAP2 SWAP1 PUSH2 0x14A5 JUMP JUMPDEST PUSH2 0x56C JUMP JUMPDEST PUSH1 0x40 MLOAD PUSH2 0x221 SWAP2 SWAP1 PUSH2 0x14DF JUMP JUMPDEST PUSH1 0x40 MLOAD DUP1 SWAP2 SUB SWAP1 RETURN JUMPDEST PUSH2 0x244 PUSH1 0x4 DUP1 CALLDATASIZE SUB DUP2 ADD SWAP1 PUSH2 0x23F SWAP2 SWAP1 PUSH2 0x14F8 JUMP JUMPDEST PUSH2 0x589 JUMP JUMPDEST STOP JUMPDEST PUSH2 0x24E PUSH2 0x5AB JUMP JUMPDEST PUSH1 0x40 MLOAD PUSH2 0x25B SWAP2 SWAP1 PUSH2 0x1551 JUMP JUMPDEST PUSH1 0x40 MLOAD DUP1 SWAP2 SUB SWAP1 RETURN JUMPDEST PUSH2 0x27E PUSH1 0x4 DUP1 CALLDATASIZE SUB DUP2 ADD SWAP1 PUSH2 0x279 SWAP2 SWAP1 PUSH2 0x14F8 JUMP JUMPDEST PUSH2 0x5B3 JUMP JUMPDEST STOP JUMPDEST PUSH2 0x29A PUSH1 0x4 DUP1 CALLDATASIZE SUB DUP2 ADD SWAP1 PUSH2 0x295 SWAP2 SWAP1 PUSH2 0x13BC JUMP JUMPDEST PUSH2 0x62E JUMP JUMPDEST STOP JUMPDEST PUSH2 0x2B6 PUSH1 0x4 DUP1 CALLDATASIZE SUB DUP2 ADD SWAP1 PUSH2 0x2B1 SWAP2 SWAP1 PUSH2 0x156A JUMP JUMPDEST PUSH2 0x667 JUMP JUMPDEST STOP JUMPDEST PUSH2 0x2D2 PUSH1 0x4 DUP1 CALLDATASIZE SUB DUP2 ADD SWAP1 PUSH2 0x2CD SWAP2 SWAP1 PUSH2 0x1595 JUMP JUMPDEST PUSH2 0x67B JUMP JUMPDEST PUSH1 0x40 MLOAD PUSH2 0x2DF SWAP2 SWAP1 PUSH2 0x1409 JUMP JUMPDEST PUSH1 0x40 MLOAD DUP1 SWAP2 SUB SWAP1 RETURN JUMPDEST PUSH2 0x302 PUSH1 0x4 DUP1 CALLDATASIZE SUB DUP2 ADD SWAP1 PUSH2 0x2FD SWAP2 SWAP1 PUSH2 0x13BC JUMP JUMPDEST PUSH2 0x6C0 JUMP JUMPDEST STOP JUMPDEST PUSH2 0x31E PUSH1 0x4 DUP1 CALLDATASIZE SUB DUP2 ADD SWAP1 PUSH2 0x319 SWAP2 SWAP1 PUSH2 0x14F8 JUMP JUMPDEST PUSH2 0x6E0 JUMP JUMPDEST PUSH1 0x40 MLOAD PUSH2 0x32B SWAP2 SWAP1 PUSH2 0x1286 JUMP JUMPDEST PUSH1 0x40 MLOAD DUP1 SWAP2 SUB SWAP1 RETURN JUMPDEST PUSH2 0x33C PUSH2 0x744 JUMP JUMPDEST PUSH1 0x40 MLOAD PUSH2 0x349 SWAP2 SWAP1 PUSH2 0x130F JUMP JUMPDEST PUSH1 0x40 MLOAD DUP1 SWAP2 SUB SWAP1 RETURN JUMPDEST PUSH2 0x35A PUSH2 0x7D4 JUMP JUMPDEST PUSH1 0x40 MLOAD PUSH2 0x367 SWAP2 SWAP1 PUSH2 0x14DF JUMP JUMPDEST PUSH1 0x40 MLOAD DUP1 SWAP2 SUB SWAP1 RETURN JUMPDEST PUSH2 0x38A PUSH1 0x4 DUP1 CALLDATASIZE SUB DUP2 ADD SWAP1 PUSH2 0x385 SWAP2 SWAP1 PUSH2 0x13BC JUMP JUMPDEST PUSH2 0x7DA JUMP JUMPDEST PUSH1 0x40 MLOAD PUSH2 0x397 SWAP2 SWAP1 PUSH2 0x1286 JUMP JUMPDEST PUSH1 0x40 MLOAD DUP1 SWAP2 SUB SWAP1 RETURN JUMPDEST PUSH2 0x3A8 PUSH2 0x7FC JUMP JUMPDEST PUSH1 0x40 MLOAD PUSH2 0x3B5 SWAP2 SWAP1 PUSH2 0x14DF JUMP JUMPDEST PUSH1 0x40 MLOAD DUP1 SWAP2 SUB SWAP1 RETURN JUMPDEST PUSH2 0x3D8 PUSH1 0x4 DUP1 CALLDATASIZE SUB DUP2 ADD SWAP1 PUSH2 0x3D3 SWAP2 SWAP1 PUSH2 0x14F8 JUMP JUMPDEST PUSH2 0x820 JUMP JUMPDEST STOP JUMPDEST PUSH2 0x3F4 PUSH1 0x4 DUP1 CALLDATASIZE SUB DUP2 ADD SWAP1 PUSH2 0x3EF SWAP2 SWAP1 PUSH2 0x15C0 JUMP JUMPDEST PUSH2 0x842 JUMP JUMPDEST PUSH1 0x40 MLOAD PUSH2 0x401 SWAP2 SWAP1 PUSH2 0x1409 JUMP JUMPDEST PUSH1 0x40 MLOAD DUP1 SWAP2 SUB SWAP1 RETURN JUMPDEST PUSH0 PUSH32 0x7965DB0B00000000000000000000000000000000000000000000000000000000 PUSH28 0xFFFFFFFFFFFFFFFFFFFFFFFFFFFFFFFFFFFFFFFFFFFFFFFFFFFFFFFF NOT AND DUP3 PUSH28 0xFFFFFFFFFFFFFFFFFFFFFFFFFFFFFFFFFFFFFFFFFFFFFFFFFFFFFFFF NOT AND EQ DUP1 PUSH2 0x47C JUMPI POP PUSH2 0x47B DUP3 PUSH2 0x8C4 JUMP JUMPDEST JUMPDEST SWAP1 POP SWAP2 SWAP1 POP JUMP JUMPDEST PUSH1 0x60 PUSH1 0x3 DUP1 SLOAD PUSH2 0x492 SWAP1 PUSH2 0x162B JUMP JUMPDEST DUP1 PUSH1 0x1F ADD PUSH1 0x20 DUP1 SWAP2 DIV MUL PUSH1 0x20 ADD PUSH1 0x40 MLOAD SWAP1 DUP2 ADD PUSH1 0x40 MSTORE DUP1 SWAP3 SWAP2 SWAP1 DUP2 DUP2 MSTORE PUSH1 0x20 ADD DUP3 DUP1 SLOAD PUSH2 0x4BE SWAP1 PUSH2 0x162B JUMP JUMPDEST DUP1 ISZERO PUSH2 0x509 JUMPI DUP1 PUSH1 0x1F LT PUSH2 0x4E0 JUMPI PUSH2 0x100 DUP1 DUP4 SLOAD DIV MUL DUP4 MSTORE SWAP2 PUSH1 0x20 ADD SWAP2 PUSH2 0x509 JUMP JUMPDEST DUP3 ADD SWAP2 SWAP1 PUSH0 MSTORE PUSH1 0x20 PUSH0 KECCAK256 SWAP1 JUMPDEST DUP2 SLOAD DUP2 MSTORE SWAP1 PUSH1 0x1 ADD SWAP1 PUSH1 0x20 ADD DUP1 DUP4 GT PUSH2 0x4EC JUMPI DUP3 SWAP1 SUB PUSH1 0x1F AND DUP3 ADD SWAP2 JUMPDEST POP POP POP POP POP SWAP1 POP SWAP1 JUMP JUMPDEST PUSH0 PUSH0 PUSH2 0x51D PUSH2 0x92D JUMP JUMPDEST SWAP1 POP PUSH2 0x52A DUP2 DUP6 DUP6 PUSH2 0x934 JUMP JUMPDEST PUSH1 0x1 SWAP2 POP POP SWAP3 SWAP2 POP POP JUMP JUMPDEST PUSH0 PUSH1 0x2 SLOAD SWAP1 POP SWAP1 JUMP JUMPDEST PUSH0 PUSH0 PUSH2 0x548 PUSH2 0x92D JUMP JUMPDEST SWAP1 POP PUSH2 0x555 DUP6 DUP3 DUP6 PUSH2 0x946 JUMP JUMPDEST PUSH2 0x560 DUP6 DUP6 DUP6 PUSH2 0x9D9 JUMP JUMPDEST PUSH1 0x1 SWAP2 POP POP SWAP4 SWAP3 POP POP POP JUMP JUMPDEST PUSH0 PUSH1 0x5 PUSH0 DUP4 DUP2 MSTORE PUSH1 0x20 ADD SWAP1 DUP2 MSTORE PUSH1 0x20 ADD PUSH0 KECCAK256 PUSH1 0x1 ADD SLOAD SWAP1 POP SWAP2 SWAP1 POP JUMP JUMPDEST PUSH2 0x592 DUP3 PUSH2 0x56C JUMP JUMPDEST PUSH2 0x59B DUP2 PUSH2 0xAC9 JUMP JUMPDEST PUSH2 0x5A5 DUP4 DUP4 PUSH2 0xADD JUMP JUMPDEST POP POP POP POP JUMP JUMPDEST PUSH0 PUSH1 0x12 SWAP1 POP SWAP1 JUMP JUMPDEST PUSH2 0x5BB PUSH2 0x92D JUMP JUMPDEST PUSH20 0xFFFFFFFFFFFFFFFFFFFFFFFFFFFFFFFFFFFFFFFF AND DUP2 PUSH20 0xFFFFFFFFFFFFFFFFFFFFFFFFFFFFFFFFFFFFFFFF AND EQ PUSH2 0x61F JUMPI PUSH1 0x40 MLOAD PUSH32 0x6697B23200000000000000000000000000000000000000000000000000000000 DUP2 MSTORE PUSH1 0x4 ADD PUSH1 0x40 MLOAD DUP1 SWAP2 SUB SWAP1 REVERT JUMPDEST PUSH2 0x629 DUP3 DUP3 PUSH2 0xBC7 JUMP JUMPDEST POP POP POP JUMP JUMPDEST PUSH32 0x9F2DF0FED2C77648DE5860A4CC508CD0818C85B8B8A1AB4CEEEF8D981C8956A6 PUSH2 0x658 DUP2 PUSH2 0xAC9 JUMP JUMPDEST PUSH2 0x662 DUP4 DUP4 PUSH2 0xCB1 JUMP JUMPDEST POP POP POP JUMP JUMPDEST PUSH2 0x678 PUSH2 0x672 PUSH2 0x92D JUMP JUMPDEST DUP3 PUSH2 0xD30 JUMP JUMPDEST POP JUMP JUMPDEST PUSH0 PUSH0 PUSH0 DUP4 PUSH20 0xFFFFFFFFFFFFFFFFFFFFFFFFFFFFFFFFFFFFFFFF AND PUSH20 0xFFFFFFFFFFFFFFFFFFFFFFFFFFFFFFFFFFFFFFFF AND DUP2 MSTORE PUSH1 0x20 ADD SWAP1 DUP2 MSTORE PUSH1 0x20 ADD PUSH0 KECCAK256 SLOAD SWAP1 POP SWAP2 SWAP1 POP JUMP JUMPDEST PUSH2 0x6D2 DUP3 PUSH2 0x6CC PUSH2 0x92D JUMP JUMPDEST DUP4 PUSH2 0x946 JUMP JUMPDEST PUSH2 0x6DC DUP3 DUP3 PUSH2 0xD30 JUMP JUMPDEST POP POP JUMP JUMPDEST PUSH0 PUSH1 0x5 PUSH0 DUP5 DUP2 MSTORE PUSH1 0x20 ADD SWAP1 DUP2 MSTORE PUSH1 0x20 ADD PUSH0 KECCAK256 PUSH0 ADD PUSH0 DUP4 PUSH20 0xFFFFFFFFFFFFFFFFFFFFFFFFFFFFFFFFFFFFFFFF AND PUSH20 0xFFFFFFFFFFFFFFFFFFFFFFFFFFFFFFFFFFFFFFFF AND DUP2 MSTORE PUSH1 0x20 ADD SWAP1 DUP2 MSTORE PUSH1 0x20 ADD PUSH0 KECCAK256 PUSH0 SWAP1 SLOAD SWAP1 PUSH2 0x100 EXP SWAP1 DIV PUSH1 0xFF AND SWAP1 POP SWAP3 SWAP2 POP POP JUMP JUMPDEST PUSH1 0x60 PUSH1 0x4 DUP1 SLOAD PUSH2 0x753 SWAP1 PUSH2 0x162B JUMP JUMPDEST DUP1 PUSH1 0x1F ADD PUSH1 0x20 DUP1 SWAP2 DIV MUL PUSH1 0x20 ADD PUSH1 0x40 MLOAD SWAP1 DUP2 ADD PUSH1 0x40 MSTORE DUP1 SWAP3 SWAP2 SWAP1 DUP2 DUP2 MSTORE PUSH1 0x20 ADD DUP3 DUP1 SLOAD PUSH2 0x77F SWAP1 PUSH2 0x162B JUMP JUMPDEST DUP1 ISZERO PUSH2 0x7CA JUMPI DUP1 PUSH1 0x1F LT PUSH2 0x7A1 JUMPI PUSH2 0x100 DUP1 DUP4 SLOAD DIV MUL DUP4 MSTORE SWAP2 PUSH1 0x20 ADD SWAP2 PUSH2 0x7CA JUMP JUMPDEST DUP3 ADD SWAP2 SWAP1 PUSH0 MSTORE PUSH1 0x20 PUSH0 KECCAK256 SWAP1 JUMPDEST DUP2 SLOAD DUP2 MSTORE SWAP1 PUSH1 0x1 ADD SWAP1 PUSH1 0x20 ADD DUP1 DUP4 GT PUSH2 0x7AD JUMPI DUP3 SWAP1 SUB PUSH1 0x1F AND DUP3 ADD SWAP2 JUMPDEST POP POP POP POP POP SWAP1 POP SWAP1 JUMP JUMPDEST PUSH0 PUSH0 SHL DUP2 JUMP JUMPDEST PUSH0 PUSH0 PUSH2 0x7E4 PUSH2 0x92D JUMP JUMPDEST SWAP1 POP PUSH2 0x7F1 DUP2 DUP6 DUP6 PUSH2 0x9D9 JUMP JUMPDEST PUSH1 0x1 SWAP2 POP POP SWAP3 SWAP2 POP POP JUMP JUMPDEST PUSH32 0x9F2DF0FED2C77648DE5860A4CC508CD0818C85B8B8A1AB4CEEEF8D981C8956A6 DUP2 JUMP JUMPDEST PUSH2 0x829 DUP3 PUSH2 0x56C JUMP JUMPDEST PUSH2 0x832 DUP2 PUSH2 0xAC9 JUMP JUMPDEST PUSH2 0x83C DUP4 DUP4 PUSH2 0xBC7 JUMP JUMPDEST POP POP POP POP JUMP JUMPDEST PUSH0 PUSH1 0x1 PUSH0 DUP5 PUSH20 0xFFFFFFFFFFFFFFFFFFFFFFFFFFFFFFFFFFFFFFFF AND PUSH20 0xFFFFFFFFFFFFFFFFFFFFFFFFFFFFFFFFFFFFFFFF AND DUP2 MSTORE PUSH1 0x20 ADD SWAP1 DUP2 MSTORE PUSH1 0x20 ADD PUSH0 KECCAK256 PUSH0 DUP4 PUSH20 0xFFFFFFFFFFFFFFFFFFFFFFFFFFFFFFFFFFFFFFFF AND PUSH20 0xFFFFFFFFFFFFFFFFFFFFFFFFFFFFFFFFFFFFFFFF AND DUP2 MSTORE PUSH1 0x20 ADD SWAP1 DUP2 MSTORE PUSH1 0x20 ADD PUSH0 KECCAK256 SLOAD SWAP1 POP SWAP3 SWAP2 POP POP JUMP JUMPDEST PUSH0 PUSH32 0x1FFC9A700000000000000000000000000000000000000000000000000000000 PUSH28 0xFFFFFFFFFFFFFFFFFFFFFFFFFFFFFFFFFFFFFFFFFFFFFFFFFFFFFFFF NOT AND DUP3 PUSH28 0xFFFFFFFFFFFFFFFFFFFFFFFFFFFFFFFFFFFFFFFFFFFFFFFFFFFFFFFF NOT AND EQ SWAP1 POP SWAP2 SWAP1 POP JUMP JUMPDEST PUSH0 CALLER SWAP1 POP SWAP1 JUMP JUMPDEST PUSH2 0x941 DUP4 DUP4 DUP4 PUSH1 0x1 PUSH2 0xDAF JUMP JUMPDEST POP POP POP JUMP JUMPDEST PUSH0 PUSH2 0x951 DUP5 DUP5 PUSH2 0x842 JUMP JUMPDEST SWAP1 POP PUSH32 0xFFFFFFFFFFFFFFFFFFFFFFFFFFFFFFFFFFFFFFFFFFFFFFFFFFFFFFFFFFFFFFFF DUP2 LT ISZERO PUSH2 0x9D3 JUMPI DUP2 DUP2 LT ISZERO PUSH2 0x9C4 JUMPI DUP3 DUP2 DUP4 PUSH1 0x40 MLOAD PUSH32 0xFB8F41B200000000000000000000000000000000000000000000000000000000 DUP2 MSTORE PUSH1 0x4 ADD PUSH2 0x9BB SWAP4 SWAP3 SWAP2 SWAP1 PUSH2 0x166A JUMP JUMPDEST PUSH1 0x40 MLOAD DUP1 SWAP2 SUB SWAP1 REVERT JUMPDEST PUSH2 0x9D2 DUP5 DUP5 DUP5 DUP5 SUB PUSH0 PUSH2 0xDAF JUMP JUMPDEST JUMPDEST POP POP POP POP JUMP JUMPDEST PUSH0 PUSH20 0xFFFFFFFFFFFFFFFFFFFFFFFFFFFFFFFFFFFFFFFF AND DUP4 PUSH20 0xFFFFFFFFFFFFFFFFFFFFFFFFFFFFFFFFFFFFFFFF AND SUB PUSH2 0xA49 JUMPI PUSH0 PUSH1 0x40 MLOAD PUSH32 0x96C6FD1E00000000000000000000000000000000000000000000000000000000 DUP2 MSTORE PUSH1 0x4 ADD PUSH2 0xA40 SWAP2 SWAP1 PUSH2 0x169F JUMP JUMPDEST PUSH1 0x40 MLOAD DUP1 SWAP2 SUB SWAP1 REVERT JUMPDEST PUSH0 PUSH20 0xFFFFFFFFFFFFFFFFFFFFFFFFFFFFFFFFFFFFFFFF AND DUP3 PUSH20 0xFFFFFFFFFFFFFFFFFFFFFFFFFFFFFFFFFFFFFFFF AND SUB PUSH2 0xAB9 JUMPI PUSH0 PUSH1 0x40 MLOAD PUSH32 0xEC442F0500000000000000000000000000000000000000000000000000000000 DUP2 MSTORE PUSH1 0x4 ADD PUSH2 0xAB0 SWAP2 SWAP1 PUSH2 0x169F JUMP JUMPDEST PUSH1 0x40 MLOAD DUP1 SWAP2 SUB SWAP1 REVERT JUMPDEST PUSH2 0xAC4 DUP4 DUP4 DUP4 PUSH2 0xF7E JUMP JUMPDEST POP POP POP JUMP JUMPDEST PUSH2 0xADA DUP2 PUSH2 0xAD5 PUSH2 0x92D JUMP JUMPDEST PUSH2 0x1197 JUMP JUMPDEST POP JUMP JUMPDEST PUSH0 PUSH2 0xAE8 DUP4 DUP4 PUSH2 0x6E0 JUMP JUMPDEST PUSH2 0xBBD JUMPI PUSH1 0x1 PUSH1 0x5 PUSH0 DUP6 DUP2 MSTORE PUSH1 0x20 ADD SWAP1 DUP2 MSTORE PUSH1 0x20 ADD PUSH0 KECCAK256 PUSH0 ADD PUSH0 DUP5 PUSH20 0xFFFFFFFFFFFFFFFFFFFFFFFFFFFFFFFFFFFFFFFF AND PUSH20 0xFFFFFFFFFFFFFFFFFFFFFFFFFFFFFFFFFFFFFFFF AND DUP2 MSTORE PUSH1 0x20 ADD SWAP1 DUP2 MSTORE PUSH1 0x20 ADD PUSH0 KECCAK256 PUSH0 PUSH2 0x100 EXP DUP2 SLOAD DUP2 PUSH1 0xFF MUL NOT AND SWAP1 DUP4 ISZERO ISZERO MUL OR SWAP1 SSTORE POP PUSH2 0xB5A PUSH2 0x92D JUMP JUMPDEST PUSH20 0xFFFFFFFFFFFFFFFFFFFFFFFFFFFFFFFFFFFFFFFF AND DUP3 PUSH20 0xFFFFFFFFFFFFFFFFFFFFFFFFFFFFFFFFFFFFFFFF AND DUP5 PUSH32 0x2F8788117E7EFF1D82E926EC794901D17C78024A50270940304540A733656F0D PUSH1 0x40 MLOAD PUSH1 0x40 MLOAD DUP1 SWAP2 SUB SWAP1 LOG4 PUSH1 0x1 SWAP1 POP PUSH2 0xBC1 JUMP JUMPDEST PUSH0 SWAP1 POP JUMPDEST SWAP3 SWAP2 POP POP JUMP JUMPDEST PUSH0 PUSH2 0xBD2 DUP4 DUP4 PUSH2 0x6E0 JUMP JUMPDEST ISZERO PUSH2 0xCA7 JUMPI PUSH0 PUSH1 0x5 PUSH0 DUP6 DUP2 MSTORE PUSH1 0x20 ADD SWAP1 DUP2 MSTORE PUSH1 0x20 ADD PUSH0 KECCAK256 PUSH0 ADD PUSH0 DUP5 PUSH20 0xFFFFFFFFFFFFFFFFFFFFFFFFFFFFFFFFFFFFFFFF AND PUSH20 0xFFFFFFFFFFFFFFFFFFFFFFFFFFFFFFFFFFFFFFFF AND DUP2 MSTORE PUSH1 0x20 ADD SWAP1 DUP2 MSTORE PUSH1 0x20 ADD PUSH0 KECCAK256 PUSH0 PUSH2 0x100 EXP DUP2 SLOAD DUP2 PUSH1 0xFF MUL NOT AND SWAP1 DUP4 ISZERO ISZERO MUL OR SWAP1 SSTORE POP PUSH2 0xC44 PUSH2 0x92D JUMP JUMPDEST PUSH20 0xFFFFFFFFFFFFFFFFFFFFFFFFFFFFFFFFFFFFFFFF AND DUP3 PUSH20 0xFFFFFFFFFFFFFFFFFFFFFFFFFFFFFFFFFFFFFFFF AND DUP5 PUSH32 0xF6391F5C32D9C69D2A47EA670B442974B53935D1EDC7FD64EB21E047A839171B PUSH1 0x40 MLOAD PUSH1 0x40 MLOAD DUP1 SWAP2 SUB SWAP1 LOG4 PUSH1 0x1 SWAP1 POP PUSH2 0xCAB JUMP JUMPDEST PUSH0 SWAP1 POP JUMPDEST SWAP3 SWAP2 POP POP JUMP JUMPDEST PUSH0 PUSH20 0xFFFFFFFFFFFFFFFFFFFFFFFFFFFFFFFFFFFFFFFF AND DUP3 PUSH20 0xFFFFFFFFFFFFFFFFFFFFFFFFFFFFFFFFFFFFFFFF AND SUB PUSH2 0xD21 JUMPI PUSH0 PUSH1 0x40 MLOAD PUSH32 0xEC442F0500000000000000000000000000000000000000000000000000000000 DUP2 MSTORE PUSH1 0x4 ADD PUSH2 0xD18 SWAP2 SWAP1 PUSH2 0x169F JUMP JUMPDEST PUSH1 0x40 MLOAD DUP1 SWAP2 SUB SWAP1 REVERT JUMPDEST PUSH2 0xD2C PUSH0 DUP4 DUP4 PUSH2 0xF7E JUMP JUMPDEST POP POP JUMP JUMPDEST PUSH0 PUSH20 0xFFFFFFFFFFFFFFFFFFFFFFFFFFFFFFFFFFFFFFFF AND DUP3 PUSH20 0xFFFFFFFFFFFFFFFFFFFFFFFFFFFFFFFFFFFFFFFF AND SUB PUSH2 0xDA0 JUMPI PUSH0 PUSH1 0x40 MLOAD PUSH32 0x96C6FD1E00000000000000000000000000000000000000000000000000000000 DUP2 MSTORE PUSH1 0x4 ADD PUSH2 0xD97 SWAP2 SWAP1 PUSH2 0x169F JUMP JUMPDEST PUSH1 0x40 MLOAD DUP1 SWAP2 SUB SWAP1 REVERT JUMPDEST PUSH2 0xDAB DUP3 PUSH0 DUP4 PUSH2 0xF7E JUMP JUMPDEST POP POP JUMP JUMPDEST PUSH0 PUSH20 0xFFFFFFFFFFFFFFFFFFFFFFFFFFFFFFFFFFFFFFFF AND DUP5 PUSH20 0xFFFFFFFFFFFFFFFFFFFFFFFFFFFFFFFFFFFFFFFF AND SUB PUSH2 0xE1F JUMPI PUSH0 PUSH1 0x40 MLOAD PUSH32 0xE602DF0500000000000000000000000000000000000000000000000000000000 DUP2 MSTORE PUSH1 0x4 ADD PUSH2 0xE16 SWAP2 SWAP1 PUSH2 0x169F JUMP JUMPDEST PUSH1 0x40 MLOAD DUP1 SWAP2 SUB SWAP1 REVERT JUMPDEST PUSH0 PUSH20 0xFFFFFFFFFFFFFFFFFFFFFFFFFFFFFFFFFFFFFFFF AND DUP4 PUSH20 0xFFFFFFFFFFFFFFFFFFFFFFFFFFFFFFFFFFFFFFFF AND SUB PUSH2 0xE8F JUMPI PUSH0 PUSH1 0x40 MLOAD PUSH32 0x94280D6200000000000000000000000000000000000000000000000000000000 DUP2 MSTORE PUSH1 0x4 ADD PUSH2 0xE86 SWAP2 SWAP1 PUSH2 0x169F JUMP JUMPDEST PUSH1 0x40 MLOAD DUP1 SWAP2 SUB SWAP1 REVERT JUMPDEST DUP2 PUSH1 0x1 PUSH0 DUP7 PUSH20 0xFFFFFFFFFFFFFFFFFFFFFFFFFFFFFFFFFFFFFFFF AND PUSH20 0xFFFFFFFFFFFFFFFFFFFFFFFFFFFFFFFFFFFFFFFF AND DUP2 MSTORE PUSH1 0x20 ADD SWAP1 DUP2 MSTORE PUSH1 0x20 ADD PUSH0 KECCAK256 PUSH0 DUP6 PUSH20 0xFFFFFFFFFFFFFFFFFFFFFFFFFFFFFFFFFFFFFFFF AND PUSH20 0xFFFFFFFFFFFFFFFFFFFFFFFFFFFFFFFFFFFFFFFF AND DUP2 MSTORE PUSH1 0x20 ADD SWAP1 DUP2 MSTORE PUSH1 0x20 ADD PUSH0 KECCAK256 DUP2 SWAP1 SSTORE POP DUP1 ISZERO PUSH2 0xF78 JUMPI DUP3 PUSH20 0xFFFFFFFFFFFFFFFFFFFFFFFFFFFFFFFFFFFFFFFF AND DUP5 PUSH20 0xFFFFFFFFFFFFFFFFFFFFFFFFFFFFFFFFFFFFFFFF AND PUSH32 0x8C5BE1E5EBEC7D5BD14F71427D1E84F3DD0314C0F7B2291E5B200AC8C7C3B925 DUP5 PUSH1 0x40 MLOAD PUSH2 0xF6F SWAP2 SWAP1 PUSH2 0x1409 JUMP JUMPDEST PUSH1 0x40 MLOAD DUP1 SWAP2 SUB SWAP1 LOG3 JUMPDEST POP POP POP POP JUMP JUMPDEST PUSH0 PUSH20 0xFFFFFFFFFFFFFFFFFFFFFFFFFFFFFFFFFFFFFFFF AND DUP4 PUSH20 0xFFFFFFFFFFFFFFFFFFFFFFFFFFFFFFFFFFFFFFFF AND SUB PUSH2 0xFCE JUMPI DUP1 PUSH1 0x2 PUSH0 DUP3 DUP3 SLOAD PUSH2 0xFC2 SWAP2 SWAP1 PUSH2 0x16E5 JUMP JUMPDEST SWAP3 POP POP DUP2 SWAP1 SSTORE POP PUSH2 0x109C JUMP JUMPDEST PUSH0 PUSH0 PUSH0 DUP6 PUSH20 0xFFFFFFFFFFFFFFFFFFFFFFFFFFFFFFFFFFFFFFFF AND PUSH20 0xFFFFFFFFFFFFFFFFFFFFFFFFFFFFFFFFFFFFFFFF AND DUP2 MSTORE PUSH1 0x20 ADD SWAP1 DUP2 MSTORE PUSH1 0x20 ADD PUSH0 KECCAK256 SLOAD SWAP1 POP DUP2 DUP2 LT ISZERO PUSH2 0x1057 JUMPI DUP4 DUP2 DUP4 PUSH1 0x40 MLOAD PUSH32 0xE450D38C00000000000000000000000000000000000000000000000000000000 DUP2 MSTORE PUSH1 0x4 ADD PUSH2 0x104E SWAP4 SWAP3 SWAP2 SWAP1 PUSH2 0x166A JUMP JUMPDEST PUSH1 0x40 MLOAD DUP1 SWAP2 SUB SWAP1 REVERT JUMPDEST DUP2 DUP2 SUB PUSH0 PUSH0 DUP7 PUSH20 0xFFFFFFFFFFFFFFFFFFFFFFFFFFFFFFFFFFFFFFFF AND PUSH20 0xFFFFFFFFFFFFFFFFFFFFFFFFFFFFFFFFFFFFFFFF AND DUP2 MSTORE PUSH1 0x20 ADD SWAP1 DUP2 MSTORE PUSH1 0x20 ADD PUSH0 KECCAK256 DUP2 SWAP1 SSTORE POP POP JUMPDEST PUSH0 PUSH20 0xFFFFFFFFFFFFFFFFFFFFFFFFFFFFFFFFFFFFFFFF AND DUP3 PUSH20 0xFFFFFFFFFFFFFFFFFFFFFFFFFFFFFFFFFFFFFFFF AND SUB PUSH2 0x10E3 JUMPI DUP1 PUSH1 0x2 PUSH0 DUP3 DUP3 SLOAD SUB SWAP3 POP POP DUP2 SWAP1 SSTORE POP PUSH2 0x112D JUMP JUMPDEST DUP1 PUSH0 PUSH0 DUP5 PUSH20 0xFFFFFFFFFFFFFFFFFFFFFFFFFFFFFFFFFFFFFFFF AND PUSH20 0xFFFFFFFFFFFFFFFFFFFFFFFFFFFFFFFFFFFFFFFF AND DUP2 MSTORE PUSH1 0x20 ADD SWAP1 DUP2 MSTORE PUSH1 0x20 ADD PUSH0 KECCAK256 PUSH0 DUP3 DUP3 SLOAD ADD SWAP3 POP POP DUP2 SWAP1 SSTORE POP JUMPDEST DUP2 PUSH20 0xFFFFFFFFFFFFFFFFFFFFFFFFFFFFFFFFFFFFFFFF AND DUP4 PUSH20 0xFFFFFFFFFFFFFFFFFFFFFFFFFFFFFFFFFFFFFFFF AND PUSH32 0xDDF252AD1BE2C89B69C2B068FC378DAA952BA7F163C4A11628F55A4DF523B3EF DUP4 PUSH1 0x40 MLOAD PUSH2 0x118A SWAP2 SWAP1 PUSH2 0x1409 JUMP JUMPDEST PUSH1 0x40 MLOAD DUP1 SWAP2 SUB SWAP1 LOG3 POP POP POP JUMP JUMPDEST PUSH2 0x11A1 DUP3 DUP3 PUSH2 0x6E0 JUMP JUMPDEST PUSH2 0x11E4 JUMPI DUP1 DUP3 PUSH1 0x40 MLOAD PUSH32 0xE2517D3F00000000000000000000000000000000000000000000000000000000 DUP2 MSTORE PUSH1 0x4 ADD PUSH2 0x11DB SWAP3 SWAP2 SWAP1 PUSH2 0x1718 JUMP JUMPDEST PUSH1 0x40 MLOAD DUP1 SWAP2 SUB SWAP1 REVERT JUMPDEST POP POP JUMP JUMPDEST PUSH0 PUSH0 REVERT JUMPDEST PUSH0 PUSH32 0xFFFFFFFF00000000000000000000000000000000000000000000000000000000 DUP3 AND SWAP1 POP SWAP2 SWAP1 POP JUMP JUMPDEST PUSH2 0x1220 DUP2 PUSH2 0x11EC JUMP JUMPDEST DUP2 EQ PUSH2 0x122A JUMPI PUSH0 PUSH0 REVERT JUMPDEST POP JUMP JUMPDEST PUSH0 DUP2 CALLDATALOAD SWAP1 POP PUSH2 0x123B DUP2 PUSH2 0x1217 JUMP JUMPDEST SWAP3 SWAP2 POP POP JUMP JUMPDEST PUSH0 PUSH1 0x20 DUP3 DUP5 SUB SLT ISZERO PUSH2 0x1256 JUMPI PUSH2 0x1255 PUSH2 0x11E8 JUMP JUMPDEST JUMPDEST PUSH0 PUSH2 0x1263 DUP5 DUP3 DUP6 ADD PUSH2 0x122D JUMP JUMPDEST SWAP2 POP POP SWAP3 SWAP2 POP POP JUMP JUMPDEST PUSH0 DUP2 ISZERO ISZERO SWAP1 POP SWAP2 SWAP1 POP JUMP JUMPDEST PUSH2 0x1280 DUP2 PUSH2 0x126C JUMP JUMPDEST DUP3 MSTORE POP POP JUMP JUMPDEST PUSH0 PUSH1 0x20 DUP3 ADD SWAP1 POP PUSH2 0x1299 PUSH0 DUP4 ADD DUP5 PUSH2 0x1277 JUMP JUMPDEST SWAP3 SWAP2 POP POP JUMP JUMPDEST PUSH0 DUP2 MLOAD SWAP1 POP SWAP2 SWAP1 POP JUMP JUMPDEST PUSH0 DUP3 DUP3 MSTORE PUSH1 0x20 DUP3 ADD SWAP1 POP SWAP3 SWAP2 POP POP JUMP JUMPDEST DUP3 DUP2 DUP4 MCOPY PUSH0 DUP4 DUP4 ADD MSTORE POP POP POP JUMP JUMPDEST PUSH0 PUSH1 0x1F NOT PUSH1 0x1F DUP4 ADD AND SWAP1 POP SWAP2 SWAP1 POP JUMP JUMPDEST PUSH0 PUSH2 0x12E1 DUP3 PUSH2 0x129F JUMP JUMPDEST PUSH2 0x12EB DUP2 DUP6 PUSH2 0x12A9 JUMP JUMPDEST SWAP4 POP PUSH2 0x12FB DUP2 DUP6 PUSH1 0x20 DUP7 ADD PUSH2 0x12B9 JUMP JUMPDEST PUSH2 0x1304 DUP2 PUSH2 0x12C7 JUMP JUMPDEST DUP5 ADD SWAP2 POP POP SWAP3 SWAP2 POP POP JUMP JUMPDEST PUSH0 PUSH1 0x20 DUP3 ADD SWAP1 POP DUP2 DUP2 SUB PUSH0 DUP4 ADD MSTORE PUSH2 0x1327 DUP2 DUP5 PUSH2 0x12D7 JUMP JUMPDEST SWAP1 POP SWAP3 SWAP2 POP POP JUMP JUMPDEST PUSH0 PUSH20 0xFFFFFFFFFFFFFFFFFFFFFFFFFFFFFFFFFFFFFFFF DUP3 AND SWAP1 POP SWAP2 SWAP1 POP JUMP JUMPDEST PUSH0 PUSH2 0x1358 DUP3 PUSH2 0x132F JUMP JUMPDEST SWAP1 POP SWAP2 SWAP1 POP JUMP JUMPDEST PUSH2 0x1368 DUP2 PUSH2 0x134E JUMP JUMPDEST DUP2 EQ PUSH2 0x1372 JUMPI PUSH0 PUSH0 REVERT JUMPDEST POP JUMP JUMPDEST PUSH0 DUP2 CALLDATALOAD SWAP1 POP PUSH2 0x1383 DUP2 PUSH2 0x135F JUMP JUMPDEST SWAP3 SWAP2 POP POP JUMP JUMPDEST PUSH0 DUP2 SWAP1 POP SWAP2 SWAP1 POP JUMP JUMPDEST PUSH2 0x139B DUP2 PUSH2 0x1389 JUMP JUMPDEST DUP2 EQ PUSH2 0x13A5 JUMPI PUSH0 PUSH0 REVERT JUMPDEST POP JUMP JUMPDEST PUSH0 DUP2 CALLDATALOAD SWAP1 POP PUSH2 0x13B6 DUP2 PUSH2 0x1392 JUMP JUMPDEST SWAP3 SWAP2 POP POP JUMP JUMPDEST PUSH0 PUSH0 PUSH1 0x40 DUP4 DUP6 SUB SLT ISZERO PUSH2 0x13D2 JUMPI PUSH2 0x13D1 PUSH2 0x11E8 JUMP JUMPDEST JUMPDEST PUSH0 PUSH2 0x13DF DUP6 DUP3 DUP7 ADD PUSH2 0x1375 JUMP JUMPDEST SWAP3 POP POP PUSH1 0x20 PUSH2 0x13F0 DUP6 DUP3 DUP7 ADD PUSH2 0x13A8 JUMP JUMPDEST SWAP2 POP POP SWAP3 POP SWAP3 SWAP1 POP JUMP JUMPDEST PUSH2 0x1403 DUP2 PUSH2 0x1389 JUMP JUMPDEST DUP3 MSTORE POP POP JUMP JUMPDEST PUSH0 PUSH1 0x20 DUP3 ADD SWAP1 POP PUSH2 0x141C PUSH0 DUP4 ADD DUP5 PUSH2 0x13FA JUMP JUMPDEST SWAP3 SWAP2 POP POP JUMP JUMPDEST PUSH0 PUSH0 PUSH0 PUSH1 0x60 DUP5 DUP7 SUB SLT ISZERO PUSH2 0x1439 JUMPI PUSH2 0x1438 PUSH2 0x11E8 JUMP JUMPDEST JUMPDEST PUSH0 PUSH2 0x1446 DUP7 DUP3 DUP8 ADD PUSH2 0x1375 JUMP JUMPDEST SWAP4 POP POP PUSH1 0x20 PUSH2 0x1457 DUP7 DUP3 DUP8 ADD PUSH2 0x1375 JUMP JUMPDEST SWAP3 POP POP PUSH1 0x40 PUSH2 0x1468 DUP7 DUP3 DUP8 ADD PUSH2 0x13A8 JUMP JUMPDEST SWAP2 POP POP SWAP3 POP SWAP3 POP SWAP3 JUMP JUMPDEST PUSH0 DUP2 SWAP1 POP SWAP2 SWAP1 POP JUMP JUMPDEST PUSH2 0x1484 DUP2 PUSH2 0x1472 JUMP JUMPDEST DUP2 EQ PUSH2 0x148E JUMPI PUSH0 PUSH0 REVERT JUMPDEST POP JUMP JUMPDEST PUSH0 DUP2 CALLDATALOAD SWAP1 POP PUSH2 0x149F DUP2 PUSH2 0x147B JUMP JUMPDEST SWAP3 SWAP2 POP POP JUMP JUMPDEST PUSH0 PUSH1 0x20 DUP3 DUP5 SUB SLT ISZERO PUSH2 0x14BA JUMPI PUSH2 0x14B9 PUSH2 0x11E8 JUMP JUMPDEST JUMPDEST PUSH0 PUSH2 0x14C7 DUP5 DUP3 DUP6 ADD PUSH2 0x1491 JUMP JUMPDEST SWAP2 POP POP SWAP3 SWAP2 POP POP JUMP JUMPDEST PUSH2 0x14D9 DUP2 PUSH2 0x1472 JUMP JUMPDEST DUP3 MSTORE POP POP JUMP JUMPDEST PUSH0 PUSH1 0x20 DUP3 ADD SWAP1 POP PUSH2 0x14F2 PUSH0 DUP4 ADD DUP5 PUSH2 0x14D0 JUMP JUMPDEST SWAP3 SWAP2 POP POP JUMP JUMPDEST PUSH0 PUSH0 PUSH1 0x40 DUP4 DUP6 SUB SLT ISZERO PUSH2 0x150E JUMPI PUSH2 0x150D PUSH2 0x11E8 JUMP JUMPDEST JUMPDEST PUSH0 PUSH2 0x151B DUP6 DUP3 DUP7 ADD PUSH2 0x1491 JUMP JUMPDEST SWAP3 POP POP PUSH1 0x20 PUSH2 0x152C DUP6 DUP3 DUP7 ADD PUSH2 0x1375 JUMP JUMPDEST SWAP2 POP POP SWAP3 POP SWAP3 SWAP1 POP JUMP JUMPDEST PUSH0 PUSH1 0xFF DUP3 AND SWAP1 POP SWAP2 SWAP1 POP JUMP JUMPDEST PUSH2 0x154B DUP2 PUSH2 0x1536 JUMP JUMPDEST DUP3 MSTORE POP POP JUMP JUMPDEST PUSH0 PUSH1 0x20 DUP3 ADD SWAP1 POP PUSH2 0x1564 PUSH0 DUP4 ADD DUP5 PUSH2 0x1542 JUMP JUMPDEST SWAP3 SWAP2 POP POP JUMP JUMPDEST PUSH0 PUSH1 0x20 DUP3 DUP5 SUB SLT ISZERO PUSH2 0x157F JUMPI PUSH2 0x157E PUSH2 0x11E8 JUMP JUMPDEST JUMPDEST PUSH0 PUSH2 0x158C DUP5 DUP3 DUP6 ADD PUSH2 0x13A8 JUMP JUMPDEST SWAP2 POP POP SWAP3 SWAP2 POP POP JUMP JUMPDEST PUSH0 PUSH1 0x20 DUP3 DUP5 SUB SLT ISZERO PUSH2 0x15AA JUMPI PUSH2 0x15A9 PUSH2 0x11E8 JUMP JUMPDEST JUMPDEST PUSH0 PUSH2 0x15B7 DUP5 DUP3 DUP6 ADD PUSH2 0x1375 JUMP JUMPDEST SWAP2 POP POP SWAP3 SWAP2 POP POP JUMP JUMPDEST PUSH0 PUSH0 PUSH1 0x40 DUP4 DUP6 SUB SLT ISZERO PUSH2 0x15D6 JUMPI PUSH2 0x15D5 PUSH2 0x11E8 JUMP JUMPDEST JUMPDEST PUSH0 PUSH2 0x15E3 DUP6 DUP3 DUP7 ADD PUSH2 0x1375 JUMP JUMPDEST SWAP3 POP POP PUSH1 0x20 PUSH2 0x15F4 DUP6 DUP3 DUP7 ADD PUSH2 0x1375 JUMP JUMPDEST SWAP2 POP POP SWAP3 POP SWAP3 SWAP1 POP JUMP JUMPDEST PUSH32 0x4E487B7100000000000000000000000000000000000000000000000000000000 PUSH0 MSTORE PUSH1 0x22 PUSH1 0x4 MSTORE PUSH1 0x24 PUSH0 REVERT JUMPDEST PUSH0 PUSH1 0x2 DUP3 DIV SWAP1 POP PUSH1 0x1 DUP3 AND DUP1 PUSH2 0x1642 JUMPI PUSH1 0x7F DUP3 AND SWAP2 POP JUMPDEST PUSH1 0x20 DUP3 LT DUP2 SUB PUSH2 0x1655 JUMPI PUSH2 0x1654 PUSH2 0x15FE JUMP JUMPDEST JUMPDEST POP SWAP2 SWAP1 POP JUMP JUMPDEST PUSH2 0x1664 DUP2 PUSH2 0x134E JUMP JUMPDEST DUP3 MSTORE POP POP JUMP JUMPDEST PUSH0 PUSH1 0x60 DUP3 ADD SWAP1 POP PUSH2 0x167D PUSH0 DUP4 ADD DUP7 PUSH2 0x165B JUMP JUMPDEST PUSH2 0x168A PUSH1 0x20 DUP4 ADD DUP6 PUSH2 0x13FA JUMP JUMPDEST PUSH2 0x1697 PUSH1 0x40 DUP4 ADD DUP5 PUSH2 0x13FA JUMP JUMPDEST SWAP5 SWAP4 POP POP POP POP JUMP JUMPDEST PUSH0 PUSH1 0x20 DUP3 ADD SWAP1 POP PUSH2 0x16B2 PUSH0 DUP4 ADD DUP5 PUSH2 0x165B JUMP JUMPDEST SWAP3 SWAP2 POP POP JUMP JUMPDEST PUSH32 0x4E487B7100000000000000000000000000000000000000000000000000000000 PUSH0 MSTORE PUSH1 0x11 PUSH1 0x4 MSTORE PUSH1 0x24 PUSH0 REVERT JUMPDEST PUSH0 PUSH2 0x16EF DUP3 PUSH2 0x1389 JUMP JUMPDEST SWAP2 POP PUSH2 0x16FA DUP4 PUSH2 0x1389 JUMP JUMPDEST SWAP3 POP DUP3 DUP3 ADD SWAP1 POP DUP1 DUP3 GT ISZERO PUSH2 0x1712 JUMPI PUSH2 0x1711 PUSH2 0x16B8 JUMP JUMPDEST JUMPDEST SWAP3 SWAP2 POP POP JUMP JUMPDEST PUSH0 PUSH1 0x40 DUP3 ADD SWAP1 POP PUSH2 0x172B PUSH0 DUP4 ADD DUP6 PUSH2 0x165B JUMP JUMPDEST PUSH2 0x1738 PUSH1 0x20 DUP4 ADD DUP5 PUSH2 0x14D0 JUMP JUMPDEST SWAP4 SWAP3 POP POP POP JUMP INVALID LOG2 PUSH5 0x6970667358 0x22 SLT KECCAK256 0xB4 0xB9 0xBF 0xA5 0xDE 0xEA CODECOPY 0xB3 0xBF 0xCF JUMPDEST CALLDATASIZE RETURNDATASIZE SLT DUP8 0xCD GT CREATE 0xA5 EXTSTATICCALL 0xFC SWAP5 STATICCALL SHL SDIV 0xB0 SLOAD DUP15 0xD6 SWAP3 DUP4 0xA9 PUSH5 0x736F6C6343 STOP ADDMOD 0x1E STOP CALLER "
				},
				"gasEstimates": {
					"creation": {
						"codeDepositCost": "1201000",
						"executionCost": "infinite",
						"totalCost": "infinite"
					},
					"external": {
						"DEFAULT_ADMIN_ROLE()": "351",
						"MINTER_ROLE()": "391",
						"allowance(address,address)": "infinite",
						"approve(address,uint256)": "infinite",
						"balanceOf(address)": "2873",
						"burn(uint256)": "infinite",
						"burnFrom(address,uint256)": "infinite",
						"decimals()": "405",
						"getRoleAdmin(bytes32)": "infinite",
						"grantRole(bytes32,address)": "infinite",
						"hasRole(bytes32,address)": "3210",
						"mint(address,uint256)": "infinite",
						"name()": "infinite",
						"renounceRole(bytes32,address)": "infinite",
						"revokeRole(bytes32,address)": "infinite",
						"supportsInterface(bytes4)": "741",
						"symbol()": "infinite",
						"totalSupply()": "2522",
						"transfer(address,uint256)": "infinite",
						"transferFrom(address,address,uint256)": "infinite"
					}
				},
				"methodIdentifiers": {
					"DEFAULT_ADMIN_ROLE()": "a217fddf",
					"MINTER_ROLE()": "d5391393",
					"allowance(address,address)": "dd62ed3e",
					"approve(address,uint256)": "095ea7b3",
					"balanceOf(address)": "70a08231",
					"burn(uint256)": "42966c68",
					"burnFrom(address,uint256)": "79cc6790",
					"decimals()": "313ce567",
					"getRoleAdmin(bytes32)": "248a9ca3",
					"grantRole(bytes32,address)": "2f2ff15d",
					"hasRole(bytes32,address)": "91d14854",
					"mint(address,uint256)": "40c10f19",
					"name()": "06fdde03",
					"renounceRole(bytes32,address)": "36568abe",
					"revokeRole(bytes32,address)": "d547741f",
					"supportsInterface(bytes4)": "01ffc9a7",
					"symbol()": "95d89b41",
					"totalSupply()": "18160ddd",
					"transfer(address,uint256)": "a9059cbb",
					"transferFrom(address,address,uint256)": "23b872dd"
				}
			},
			"storageLayout": {
				"storage": [
					{
						"astId": 539,
						"contract": "src/EduRewardToken.sol:EduRewardToken",
						"label": "_balances",
						"offset": 0,
						"slot": "0",
						"type": "t_mapping(t_address,t_uint256)"
					},
					{
						"astId": 545,
						"contract": "src/EduRewardToken.sol:EduRewardToken",
						"label": "_allowances",
						"offset": 0,
						"slot": "1",
						"type": "t_mapping(t_address,t_mapping(t_address,t_uint256))"
					},
					{
						"astId": 547,
						"contract": "src/EduRewardToken.sol:EduRewardToken",
						"label": "_totalSupply",
						"offset": 0,
						"slot": "2",
						"type": "t_uint256"
					},
					{
						"astId": 549,
						"contract": "src/EduRewardToken.sol:EduRewardToken",
						"label": "_name",
						"offset": 0,
						"slot": "3",
						"type": "t_string_storage"
					},
					{
						"astId": 551,
						"contract": "src/EduRewardToken.sol:EduRewardToken",
						"label": "_symbol",
						"offset": 0,
						"slot": "4",
						"type": "t_string_storage"
					},
					{
						"astId": 27,
						"contract": "src/EduRewardToken.sol:EduRewardToken",
						"label": "_roles",
						"offset": 0,
						"slot": "5",
						"type": "t_mapping(t_bytes32,t_struct(RoleData)22_storage)"
					}
				],
				"types": {
					"t_address": {
						"encoding": "inplace",
						"label": "address",
						"numberOfBytes": "20"
					},
					"t_bool": {
						"encoding": "inplace",
						"label": "bool",
						"numberOfBytes": "1"
					},
					"t_bytes32": {
						"encoding": "inplace",
						"label": "bytes32",
						"numberOfBytes": "32"
					},
					"t_mapping(t_address,t_bool)": {
						"encoding": "mapping",
						"key": "t_address",
						"label": "mapping(address => bool)",
						"numberOfBytes": "32",
						"value": "t_bool"
					},
					"t_mapping(t_address,t_mapping(t_address,t_uint256))": {
						"encoding": "mapping",
						"key": "t_address",
						"label": "mapping(address => mapping(address => uint256))",
						"numberOfBytes": "32",
						"value": "t_mapping(t_address,t_uint256)"
					},
					"t_mapping(t_address,t_uint256)": {
						"encoding": "mapping",
						"key": "t_address",
						"label": "mapping(address => uint256)",
						"numberOfBytes": "32",
						"value": "t_uint256"
					},
					"t_mapping(t_bytes32,t_struct(RoleData)22_storage)": {
						"encoding": "mapping",
						"key": "t_bytes32",
						"label": "mapping(bytes32 => struct AccessControl.RoleData)",
						"numberOfBytes": "32",
						"value": "t_struct(RoleData)22_storage"
					},
					"t_string_storage": {
						"encoding": "bytes",
						"label": "string",
						"numberOfBytes": "32"
					},
					"t_struct(RoleData)22_storage": {
						"encoding": "inplace",
						"label": "struct AccessControl.RoleData",
						"members": [
							{
								"astId": 19,
								"contract": "src/EduRewardToken.sol:EduRewardToken",
								"label": "hasRole",
								"offset": 0,
								"slot": "0",
								"type": "t_mapping(t_address,t_bool)"
							},
							{
								"astId": 21,
								"contract": "src/EduRewardToken.sol:EduRewardToken",
								"label": "adminRole",
								"offset": 0,
								"slot": "1",
								"type": "t_bytes32"
							}
						],
						"numberOfBytes": "64"
					},
					"t_uint256": {
						"encoding": "inplace",
						"label": "uint256",
						"numberOfBytes": "32"
					}
				}
			},
			"userdoc": {
				"kind": "user",
				"methods": {
					"mint(address,uint256)": {
						"notice": "Mint new tokens to a recipient."
					}
				},
				"notice": "ERC20 token used for distributing rewards within the EduChain protocol.         Uses role-based access control for minting to support authorized reward distributors.",
				"version": 1
			}
		}
	}
}