{
	"data": {
		"bytecode": {
			"linkReferences": {},
			"object": "60c060405234801561000f575f5ffd5b5060405161437f38038061437f833981810160405281019061003191906106e3565b84888888816003908161004491906109d3565b50806004908161005491906109d3565b5050505f5f6100688361029860201b60201c565b915091508161007857601261007a565b805b60ff1660a08160ff16815250508273ffffffffffffffffffffffffffffffffffffffff1660808173ffffffffffffffffffffffffffffffffffffffff16815250505050505f73ffffffffffffffffffffffffffffffffffffffff168173ffffffffffffffffffffffffffffffffffffffff160361012e575f6040517f1e4fbdf70000000000000000000000000000000000000000000000000000000081526004016101259190610ab1565b60405180910390fd5b61013d8161036460201b60201c565b50600161015c61015161042760201b60201c565b61045060201b60201c565b5f01819055505f73ffffffffffffffffffffffffffffffffffffffff168873ffffffffffffffffffffffffffffffffffffffff16036101d0576040517f08c379a00000000000000000000000000000000000000000000000000000000081526004016101c790610b24565b60405180910390fd5b612710831115610215576040517f08c379a000000000000000000000000000000000000000000000000000000000815260040161020c90610b8c565b60405180910390fd5b83600881905550826009819055508160075f6101000a81548167ffffffffffffffff021916908367ffffffffffffffff16021790555080600a5f6101000a81548173ffffffffffffffffffffffffffffffffffffffff021916908373ffffffffffffffffffffffffffffffffffffffff1602179055505050505050505050610baa565b5f5f5f6102a961045960201b60201c565b90505f5f6103078660405160240160405160208183030381529060405263313ce56760e01b6020820180517bffffffffffffffffffffffffffffffffffffffffffffffffffffffff838183161783525050505061046260201b60201c565b509150915061031b8361048360201b60201c565b8180156103365750602061033361048a60201b60201c565b10155b8015610347575060ff8016815f1c11155b610352575f5f610358565b6001815f1c5b94509450505050915091565b5f60055f9054906101000a900473ffffffffffffffffffffffffffffffffffffffff1690508160055f6101000a81548173ffffffffffffffffffffffffffffffffffffffff021916908373ffffffffffffffffffffffffffffffffffffffff1602179055508173ffffffffffffffffffffffffffffffffffffffff168173ffffffffffffffffffffffffffffffffffffffff167f8be0079c531659141344cd1fd0a4f28419497f9722a3daafe3b4186f6b6457e060405160405180910390a35050565b5f7f9b779b17422d0df92223018b32b4d1fa46e071723d6817e2486d003becc55f005f1b905090565b5f819050919050565b5f604051905090565b5f5f5f60405f855160208701885afa92505f51915060205190509250925092565b8060405250565b5f3d905090565b5f604051905090565b5f5ffd5b5f5ffd5b5f73ffffffffffffffffffffffffffffffffffffffff82169050919050565b5f6104cb826104a2565b9050919050565b5f6104dc826104c1565b9050919050565b6104ec816104d2565b81146104f6575f5ffd5b50565b5f81519050610507816104e3565b92915050565b5f5ffd5b5f5ffd5b5f601f19601f8301169050919050565b7f4e487b71000000000000000000000000000000000000000000000000000000005f52604160045260245ffd5b61055b82610515565b810181811067ffffffffffffffff8211171561057a57610579610525565b5b80604052505050565b5f61058c610491565b90506105988282610552565b919050565b5f67ffffffffffffffff8211156105b7576105b6610525565b5b6105c082610515565b9050602081019050919050565b8281835e5f83830152505050565b5f6105ed6105e88461059d565b610583565b90508281526020810184848401111561060957610608610511565b5b6106148482856105cd565b509392505050565b5f82601f8301126106305761062f61050d565b5b81516106408482602086016105db565b91505092915050565b610652816104c1565b811461065c575f5ffd5b50565b5f8151905061066d81610649565b92915050565b5f819050919050565b61068581610673565b811461068f575f5ffd5b50565b5f815190506106a08161067c565b92915050565b5f67ffffffffffffffff82169050919050565b6106c2816106a6565b81146106cc575f5ffd5b50565b5f815190506106dd816106b9565b92915050565b5f5f5f5f5f5f5f5f610100898b031215610700576106ff61049a565b5b5f61070d8b828c016104f9565b985050602089015167ffffffffffffffff81111561072e5761072d61049e565b5b61073a8b828c0161061c565b975050604089015167ffffffffffffffff81111561075b5761075a61049e565b5b6107678b828c0161061c565b96505060606107788b828c0161065f565b95505060806107898b828c01610692565b94505060a061079a8b828c01610692565b93505060c06107ab8b828c016106cf565b92505060e06107bc8b828c0161065f565b9150509295985092959890939650565b5f81519050919050565b7f4e487b71000000000000000000000000000000000000000000000000000000005f52602260045260245ffd5b5f600282049050600182168061081a57607f821691505b60208210810361082d5761082c6107d6565b5b50919050565b5f819050815f5260205f209050919050565b5f6020601f8301049050919050565b5f82821b905092915050565b5f6008830261088f7fffffffffffffffffffffffffffffffffffffffffffffffffffffffffffffffff82610854565b6108998683610854565b95508019841693508086168417925050509392505050565b5f819050919050565b5f6108d46108cf6108ca84610673565b6108b1565b610673565b9050919050565b5f819050919050565b6108ed836108ba565b6109016108f9826108db565b848454610860565b825550505050565b5f5f905090565b610918610909565b6109238184846108e4565b505050565b5b818110156109465761093b5f82610910565b600181019050610929565b5050565b601f82111561098b5761095c81610833565b61096584610845565b81016020851015610974578190505b61098861098085610845565b830182610928565b50505b505050565b5f82821c905092915050565b5f6109ab5f1984600802610990565b1980831691505092915050565b5f6109c3838361099c565b9150826002028217905092915050565b6109dc826107cc565b67ffffffffffffffff8111156109f5576109f4610525565b5b6109ff8254610803565b610a0a82828561094a565b5f60209050601f831160018114610a3b575f8415610a29578287015190505b610a3385826109b8565b865550610a9a565b601f198416610a4986610833565b5f5b82811015610a7057848901518255600182019150602085019450602081019050610a4b565b86831015610a8d5784890151610a89601f89168261099c565b8355505b6001600288020188555050505b505050505050565b610aab816104c1565b82525050565b5f602082019050610ac45f830184610aa2565b92915050565b5f82825260208201905092915050565b7f61737365743d30000000000000000000000000000000000000000000000000005f82015250565b5f610b0e600783610aca565b9150610b1982610ada565b602082019050919050565b5f6020820190508181035f830152610b3b81610b02565b9050919050565b7f73706c69743e31303025000000000000000000000000000000000000000000005f82015250565b5f610b76600a83610aca565b9150610b8182610b42565b602082019050919050565b5f6020820190508181035f830152610ba381610b6a565b9050919050565b60805160a0516137b4610bcb5f395f610bca01525f610bfb01526137b45ff3fe608060405234801561000f575f5ffd5b5060043610610293575f3560e01c80638da5cb5b11610165578063ba087652116100cc578063d905777e11610085578063d905777e146108e7578063dd62ed3e14610917578063ef8b30f714610947578063f2fde38b14610977578063f7c618c114610993578063fb66fb4d146109b157610293565b8063ba087652146107da578063bc936d3f1461080a578063c138f0071461083b578063c63d75b614610857578063c6e6f59214610887578063ce96cb77146108b757610293565b8063987f23dd1161011e578063987f23dd146106f0578063a16cdbb11461070e578063a9059cbb1461072c578063b3d7f6b91461075c578063b460af941461078c578063b657b1cb146107bc57610293565b80638da5cb5b1461061a578063915231e91461063857806391a46d6c1461065457806394bf804d1461067257806395d89b41146106a257806398151e14146106c057610293565b80633f775726116102095780636e553f65116101c25780636e553f651461054857806370a0823114610578578063715018a6146105a857806375a6f0eb146105b2578063859e6d6a146105ce57806389cde9dd146105ea57610293565b80633f7757261461044e578063402d267d1461047e578063471003bd146104ae5780634cdad506146104ca5780635867dbe5146104fa5780635f4344541461051857610293565b806318160ddd1161025b57806318160ddd146103635780631bf9233e1461038157806321f3a87c146103b257806323b872dd146103e2578063313ce5671461041257806338d52e0f1461043057610293565b806301e1d1141461029757806306fdde03146102b557806307a2d13a146102d3578063095ea7b3146103035780630a28a47714610333575b5f5ffd5b61029f6109cd565b6040516102ac9190612c09565b60405180910390f35b6102bd610a52565b6040516102ca9190612c92565b60405180910390f35b6102ed60048036038101906102e89190612ce0565b610ae2565b6040516102fa9190612c09565b60405180910390f35b61031d60048036038101906103189190612d65565b610af4565b60405161032a9190612dbd565b60405180910390f35b61034d60048036038101906103489190612ce0565b610b16565b60405161035a9190612c09565b60405180910390f35b61036b610b29565b6040516103789190612c09565b60405180910390f35b61039b60048036038101906103969190612dd6565b610b32565b6040516103a9929190612e14565b60405180910390f35b6103cc60048036038101906103c79190612e3b565b610b7c565b6040516103d99190612c09565b60405180910390f35b6103fc60048036038101906103f79190612e66565b610b91565b6040516104099190612dbd565b60405180910390f35b61041a610bbf565b6040516104279190612ed1565b60405180910390f35b610438610bf8565b6040516104459190612ef9565b60405180910390f35b61046860048036038101906104639190612dd6565b610c1f565b6040516104759190612c09565b60405180910390f35b61049860048036038101906104939190612e3b565b610c78565b6040516104a59190612c09565b60405180910390f35b6104c860048036038101906104c39190612e3b565b610ca1565b005b6104e460048036038101906104df9190612ce0565b610d63565b6040516104f19190612c09565b60405180910390f35b610502610d75565b60405161050f9190612dbd565b60405180910390f35b610532600480360381019061052d9190612f4f565b610d88565b60405161053f9190612c09565b60405180910390f35b610562600480360381019061055d9190612f9f565b610db6565b60405161056f9190612c09565b60405180910390f35b610592600480360381019061058d9190612e3b565b610e36565b60405161059f9190612c09565b60405180910390f35b6105b0610e7b565b005b6105cc60048036038101906105c79190612fdd565b610e8e565b005b6105e860048036038101906105e39190612fdd565b610f38565b005b61060460048036038101906105ff9190612e3b565b61113c565b6040516106119190613017565b60405180910390f35b610622611160565b60405161062f9190612ef9565b60405180910390f35b610652600480360381019061064d9190612ce0565b611188565b005b61065c611211565b6040516106699190612ef9565b60405180910390f35b61068c60048036038101906106879190612f9f565b611236565b6040516106999190612c09565b60405180910390f35b6106aa6112b6565b6040516106b79190612c92565b60405180910390f35b6106da60048036038101906106d59190612f4f565b611346565b6040516106e79190612c09565b60405180910390f35b6106f8611374565b6040516107059190612c09565b60405180910390f35b61071661137a565b6040516107239190613017565b60405180910390f35b61074660048036038101906107419190612d65565b611393565b6040516107539190612dbd565b60405180910390f35b61077660048036038101906107719190612ce0565b6113b5565b6040516107839190612c09565b60405180910390f35b6107a660048036038101906107a19190613030565b6113c8565b6040516107b39190612c09565b60405180910390f35b6107c461148a565b6040516107d19190612c09565b60405180910390f35b6107f460048036038101906107ef9190613030565b611490565b6040516108019190612c09565b60405180910390f35b610824600480360381019061081f9190613080565b611552565b604051610832929190612e14565b60405180910390f35b61085560048036038101906108509190612ce0565b61183b565b005b610871600480360381019061086c9190612e3b565b611909565b60405161087e9190612c09565b60405180910390f35b6108a1600480360381019061089c9190612ce0565b611932565b6040516108ae9190612c09565b60405180910390f35b6108d160048036038101906108cc9190612e3b565b611944565b6040516108de9190612c09565b60405180910390f35b61090160048036038101906108fc9190612e3b565b61195d565b60405161090e9190612c09565b60405180910390f35b610931600480360381019061092c91906130d0565b61196e565b60405161093e9190612c09565b60405180910390f35b610961600480360381019061095c9190612ce0565b6119f0565b60405161096e9190612c09565b60405180910390f35b610991600480360381019061098c9190612e3b565b611a02565b005b61099b611a86565b6040516109a89190613169565b60405180910390f35b6109cb60048036038101906109c691906131ac565b611aab565b005b5f6109d6610bf8565b73ffffffffffffffffffffffffffffffffffffffff166370a08231306040518263ffffffff1660e01b8152600401610a0e9190612ef9565b602060405180830381865afa158015610a29573d5f5f3e3d5ffd5b505050506040513d601f19601f82011682018060405250810190610a4d91906131fe565b905090565b606060038054610a6190613256565b80601f0160208091040260200160405190810160405280929190818152602001828054610a8d90613256565b8015610ad85780601f10610aaf57610100808354040283529160200191610ad8565b820191905f5260205f20905b815481529060010190602001808311610abb57829003601f168201915b5050505050905090565b5f610aed825f611b5f565b9050919050565b5f5f610afe611bb7565b9050610b0b818585611bbe565b600191505092915050565b5f610b22826001611bd0565b9050919050565b5f600254905090565b5f5f5f610b3f8585610c1f565b90505f8103610b54575f5f9250925050610b75565b610b6381600954612710611c28565b92508281610b7191906132b3565b9150505b9250929050565b600c602052805f5260405f205f915090505481565b5f5f610b9b611bb7565b9050610ba8858285611d07565b610bb3858585611d9a565b60019150509392505050565b5f610bc8611e8a565b7f0000000000000000000000000000000000000000000000000000000000000000610bf391906132e6565b905090565b5f7f0000000000000000000000000000000000000000000000000000000000000000905090565b5f5f831480610c2d57505f82145b80610c3957505f600854145b15610c46575f9050610c72565b610c6f8383600854610c58919061331a565b6301e13380612710610c6a919061331a565b611c28565b90505b92915050565b5f7fffffffffffffffffffffffffffffffffffffffffffffffffffffffffffffffff9050919050565b610ca9611e91565b80600a5f6101000a81548173ffffffffffffffffffffffffffffffffffffffff021916908373ffffffffffffffffffffffffffffffffffffffff1602179055507fa5e02281dfce566711932f7737866edc0946b026ff48d61292f9e7de0ef25c9660085460095460075f9054906101000a900467ffffffffffffffff16600a5f9054906101000a900473ffffffffffffffffffffffffffffffffffffffff16604051610d58949392919061335b565b60405180910390a150565b5f610d6e825f611b5f565b9050919050565b600b60149054906101000a900460ff1681565b5f610d91611f18565b610d9b8484611236565b9050610da78383611f3a565b610daf6120ea565b9392505050565b5f5f610dc183610c78565b905080841115610e0c578284826040517f79012fb2000000000000000000000000000000000000000000000000000000008152600401610e039392919061339e565b60405180910390fd5b5f610e16856119f0565b9050610e2b610e23611bb7565b858784612104565b809250505092915050565b5f5f5f8373ffffffffffffffffffffffffffffffffffffffff1673ffffffffffffffffffffffffffffffffffffffff1681526020019081526020015f20549050919050565b610e83611e91565b610e8c5f61218e565b565b610e96611e91565b8060075f6101000a81548167ffffffffffffffff021916908367ffffffffffffffff1602179055507fa5e02281dfce566711932f7737866edc0946b026ff48d61292f9e7de0ef25c9660085460095460075f9054906101000a900467ffffffffffffffff16600a5f9054906101000a900473ffffffffffffffffffffffffffffffffffffffff16604051610f2d949392919061335b565b60405180910390a150565b5f8190505f60075f9054906101000a900467ffffffffffffffff1667ffffffffffffffff16118015610f92575060075f9054906101000a900467ffffffffffffffff1667ffffffffffffffff168267ffffffffffffffff16115b15610fb05760075f9054906101000a900467ffffffffffffffff1690505b5f4267ffffffffffffffff1660065f3373ffffffffffffffffffffffffffffffffffffffff1673ffffffffffffffffffffffffffffffffffffffff1681526020019081526020015f205f9054906101000a900467ffffffffffffffff1667ffffffffffffffff16116110225742611074565b60065f3373ffffffffffffffffffffffffffffffffffffffff1673ffffffffffffffffffffffffffffffffffffffff1681526020019081526020015f205f9054906101000a900467ffffffffffffffff165b90505f828261108391906133d3565b90508060065f3373ffffffffffffffffffffffffffffffffffffffff1673ffffffffffffffffffffffffffffffffffffffff1681526020019081526020015f205f6101000a81548167ffffffffffffffff021916908367ffffffffffffffff1602179055503373ffffffffffffffffffffffffffffffffffffffff167f85d5b26b5640f0be78b6beb0fc830c18a67f758ad151eb6ebdd4d2d66ee34cf58260405161112e9190613017565b60405180910390a250505050565b6006602052805f5260405f205f915054906101000a900467ffffffffffffffff1681565b5f60055f9054906101000a900473ffffffffffffffffffffffffffffffffffffffff16905090565b611190611e91565b806008819055507fa5e02281dfce566711932f7737866edc0946b026ff48d61292f9e7de0ef25c9660085460095460075f9054906101000a900467ffffffffffffffff16600a5f9054906101000a900473ffffffffffffffffffffffffffffffffffffffff16604051611206949392919061335b565b60405180910390a150565b600a5f9054906101000a900473ffffffffffffffffffffffffffffffffffffffff1681565b5f5f61124183611909565b90508084111561128c578284826040517f284ff6670000000000000000000000000000000000000000000000000000000081526004016112839392919061339e565b60405180910390fd5b5f611296856113b5565b90506112ab6112a3611bb7565b858388612104565b809250505092915050565b6060600480546112c590613256565b80601f01602080910402602001604051908101604052809291908181526020018280546112f190613256565b801561133c5780601f106113135761010080835404028352916020019161133c565b820191905f5260205f20905b81548152906001019060200180831161131f57829003601f168201915b5050505050905090565b5f61134f611f18565b6113598484610db6565b90506113658383611f3a565b61136d6120ea565b9392505050565b60085481565b60075f9054906101000a900467ffffffffffffffff1681565b5f5f61139d611bb7565b90506113aa818585611d9a565b600191505092915050565b5f6113c1826001611b5f565b9050919050565b5f6113d1611f18565b60065f8373ffffffffffffffffffffffffffffffffffffffff1673ffffffffffffffffffffffffffffffffffffffff1681526020019081526020015f205f9054906101000a900467ffffffffffffffff1667ffffffffffffffff1642101561146e576040517f08c379a000000000000000000000000000000000000000000000000000000000815260040161146590613458565b60405180910390fd5b611479848484612251565b90506114836120ea565b9392505050565b60095481565b5f611499611f18565b60065f8373ffffffffffffffffffffffffffffffffffffffff1673ffffffffffffffffffffffffffffffffffffffff1681526020019081526020015f205f9054906101000a900467ffffffffffffffff1667ffffffffffffffff16421015611536576040517f08c379a000000000000000000000000000000000000000000000000000000000815260040161152d90613458565b60405180910390fd5b6115418484846122d3565b905061154b6120ea565b9392505050565b5f5f61155c611f18565b6115668484610b32565b80925081935050505f8111156115ca5780600c5f8773ffffffffffffffffffffffffffffffffffffffff1673ffffffffffffffffffffffffffffffffffffffff1681526020019081526020015f205f8282546115c29190613476565b925050819055505b600b60149054906101000a900460ff16801561163357505f73ffffffffffffffffffffffffffffffffffffffff16600b5f9054906101000a900473ffffffffffffffffffffffffffffffffffffffff1673ffffffffffffffffffffffffffffffffffffffff1614155b156117d7575f8211801561169457505f73ffffffffffffffffffffffffffffffffffffffff16600a5f9054906101000a900473ffffffffffffffffffffffffffffffffffffffff1673ffffffffffffffffffffffffffffffffffffffff1614155b1561174457600b5f9054906101000a900473ffffffffffffffffffffffffffffffffffffffff1673ffffffffffffffffffffffffffffffffffffffff166340c10f19600a5f9054906101000a900473ffffffffffffffffffffffffffffffffffffffff16846040518363ffffffff1660e01b81526004016117169291906134a9565b5f604051808303815f87803b15801561172d575f5ffd5b505af115801561173f573d5f5f3e3d5ffd5b505050505b5f8111156117d657600b5f9054906101000a900473ffffffffffffffffffffffffffffffffffffffff1673ffffffffffffffffffffffffffffffffffffffff166340c10f1986836040518363ffffffff1660e01b81526004016117a89291906134a9565b5f604051808303815f87803b1580156117bf575f5ffd5b505af11580156117d1573d5f5f3e3d5ffd5b505050505b5b8473ffffffffffffffffffffffffffffffffffffffff167f3a7b3be7ad7bccf25c9f5d4ebab45ba909860d0e0bc44d7daa4e29bde483f8b08585858560405161182394939291906134d0565b60405180910390a26118336120ea565b935093915050565b611843611e91565b612710811115611888576040517f08c379a000000000000000000000000000000000000000000000000000000000815260040161187f9061355d565b60405180910390fd5b806009819055507fa5e02281dfce566711932f7737866edc0946b026ff48d61292f9e7de0ef25c9660085460095460075f9054906101000a900467ffffffffffffffff16600a5f9054906101000a900473ffffffffffffffffffffffffffffffffffffffff166040516118fe949392919061335b565b60405180910390a150565b5f7fffffffffffffffffffffffffffffffffffffffffffffffffffffffffffffffff9050919050565b5f61193d825f611bd0565b9050919050565b5f6119566119518361195d565b610d63565b9050919050565b5f61196782610e36565b9050919050565b5f60015f8473ffffffffffffffffffffffffffffffffffffffff1673ffffffffffffffffffffffffffffffffffffffff1681526020019081526020015f205f8373ffffffffffffffffffffffffffffffffffffffff1673ffffffffffffffffffffffffffffffffffffffff1681526020019081526020015f2054905092915050565b5f6119fb825f611bd0565b9050919050565b611a0a611e91565b5f73ffffffffffffffffffffffffffffffffffffffff168173ffffffffffffffffffffffffffffffffffffffff1603611a7a575f6040517f1e4fbdf7000000000000000000000000000000000000000000000000000000008152600401611a719190612ef9565b60405180910390fd5b611a838161218e565b50565b600b5f9054906101000a900473ffffffffffffffffffffffffffffffffffffffff1681565b611ab3611e91565b81600b5f6101000a81548173ffffffffffffffffffffffffffffffffffffffff021916908373ffffffffffffffffffffffffffffffffffffffff16021790555080600b60146101000a81548160ff0219169083151502179055508173ffffffffffffffffffffffffffffffffffffffff167fc3c9a236de60cbc8c1b10b6d54acff3f7503f6289221ec1795750a5f567a7d3f82604051611b539190612dbd565b60405180910390a25050565b5f611baf6001611b6d6109cd565b611b779190613476565b611b7f611e8a565b600a611b8b91906136aa565b611b93610b29565b611b9d9190613476565b8486612355909392919063ffffffff16565b905092915050565b5f33905090565b611bcb83838360016123a2565b505050565b5f611c20611bdc611e8a565b600a611be891906136aa565b611bf0610b29565b611bfa9190613476565b6001611c046109cd565b611c0e9190613476565b8486612355909392919063ffffffff16565b905092915050565b5f5f5f611c358686612571565b915091505f8203611c5a57838181611c5057611c4f6136f4565b5b0492505050611d00565b818411611c7957611c78611c735f86146012601161258e565b6125a7565b5b5f8486880990508181118303925080820391505f855f038616905080860495508083049250600181825f0304019050808402831792505f600287600302189050808702600203810290508087026002038102905080870260020381029050808702600203810290508087026002038102905080870260020381029050808402955050505050505b9392505050565b5f611d12848461196e565b90507fffffffffffffffffffffffffffffffffffffffffffffffffffffffffffffffff811015611d945781811015611d85578281836040517ffb8f41b2000000000000000000000000000000000000000000000000000000008152600401611d7c9392919061339e565b60405180910390fd5b611d9384848484035f6123a2565b5b50505050565b5f73ffffffffffffffffffffffffffffffffffffffff168373ffffffffffffffffffffffffffffffffffffffff1603611e0a575f6040517f96c6fd1e000000000000000000000000000000000000000000000000000000008152600401611e019190612ef9565b60405180910390fd5b5f73ffffffffffffffffffffffffffffffffffffffff168273ffffffffffffffffffffffffffffffffffffffff1603611e7a575f6040517fec442f05000000000000000000000000000000000000000000000000000000008152600401611e719190612ef9565b60405180910390fd5b611e858383836125b8565b505050565b5f5f905090565b611e99611bb7565b73ffffffffffffffffffffffffffffffffffffffff16611eb7611160565b73ffffffffffffffffffffffffffffffffffffffff1614611f1657611eda611bb7565b6040517f118cdaa7000000000000000000000000000000000000000000000000000000008152600401611f0d9190612ef9565b60405180910390fd5b565b611f206127d1565b6002611f32611f2d612812565b61283b565b5f0181905550565b5f8190505f60075f9054906101000a900467ffffffffffffffff1667ffffffffffffffff16118015611f94575060075f9054906101000a900467ffffffffffffffff1667ffffffffffffffff168267ffffffffffffffff16115b15611fb25760075f9054906101000a900467ffffffffffffffff1690505b5f8142611fbf91906133d3565b905060065f8573ffffffffffffffffffffffffffffffffffffffff1673ffffffffffffffffffffffffffffffffffffffff1681526020019081526020015f205f9054906101000a900467ffffffffffffffff1667ffffffffffffffff168167ffffffffffffffff1611156120e3578060065f8673ffffffffffffffffffffffffffffffffffffffff1673ffffffffffffffffffffffffffffffffffffffff1681526020019081526020015f205f6101000a81548167ffffffffffffffff021916908367ffffffffffffffff1602179055508373ffffffffffffffffffffffffffffffffffffffff167f6395bace6e0acbe4f22761b149d3cc2e88c7dde6bf4d8481825eef404cf989a1826040516120d69190613017565b60405180910390a26120e4565b5b50505050565b60016120fc6120f7612812565b61283b565b5f0181905550565b61211761210f610bf8565b853085612844565b6121218382612899565b8273ffffffffffffffffffffffffffffffffffffffff168473ffffffffffffffffffffffffffffffffffffffff167fdcbc1c05240f31ff3ad067ef1ee35ce4997762752e3a095284754544f4c709d78484604051612180929190612e14565b60405180910390a350505050565b5f60055f9054906101000a900473ffffffffffffffffffffffffffffffffffffffff1690508160055f6101000a81548173ffffffffffffffffffffffffffffffffffffffff021916908373ffffffffffffffffffffffffffffffffffffffff1602179055508173ffffffffffffffffffffffffffffffffffffffff168173ffffffffffffffffffffffffffffffffffffffff167f8be0079c531659141344cd1fd0a4f28419497f9722a3daafe3b4186f6b6457e060405160405180910390a35050565b5f5f61225c83611944565b9050808511156122a7578285826040517ffe9cceec00000000000000000000000000000000000000000000000000000000815260040161229e9392919061339e565b60405180910390fd5b5f6122b186610b16565b90506122c76122be611bb7565b86868985612918565b80925050509392505050565b5f5f6122de8361195d565b905080851115612329578285826040517fb94abeec0000000000000000000000000000000000000000000000000000000081526004016123209392919061339e565b60405180910390fd5b5f61233386610d63565b9050612349612340611bb7565b8686848a612918565b80925050509392505050565b5f612383612362836129f8565b801561237e57505f8480612379576123786136f4565b5b868809115b612a25565b61238e868686611c28565b6123989190613476565b9050949350505050565b5f73ffffffffffffffffffffffffffffffffffffffff168473ffffffffffffffffffffffffffffffffffffffff1603612412575f6040517fe602df050000000000000000000000000000000000000000000000000000000081526004016124099190612ef9565b60405180910390fd5b5f73ffffffffffffffffffffffffffffffffffffffff168373ffffffffffffffffffffffffffffffffffffffff1603612482575f6040517f94280d620000000000000000000000000000000000000000000000000000000081526004016124799190612ef9565b60405180910390fd5b8160015f8673ffffffffffffffffffffffffffffffffffffffff1673ffffffffffffffffffffffffffffffffffffffff1681526020019081526020015f205f8573ffffffffffffffffffffffffffffffffffffffff1673ffffffffffffffffffffffffffffffffffffffff1681526020019081526020015f2081905550801561256b578273ffffffffffffffffffffffffffffffffffffffff168473ffffffffffffffffffffffffffffffffffffffff167f8c5be1e5ebec7d5bd14f71427d1e84f3dd0314c0f7b2291e5b200ac8c7c3b925846040516125629190612c09565b60405180910390a35b50505050565b5f5f5f198385098385029150818110828203039250509250929050565b5f61259884612a25565b82841802821890509392505050565b634e487b715f52806020526024601cfd5b5f73ffffffffffffffffffffffffffffffffffffffff168373ffffffffffffffffffffffffffffffffffffffff1603612608578060025f8282546125fc9190613476565b925050819055506126d6565b5f5f5f8573ffffffffffffffffffffffffffffffffffffffff1673ffffffffffffffffffffffffffffffffffffffff1681526020019081526020015f2054905081811015612691578381836040517fe450d38c0000000000000000000000000000000000000000000000000000000081526004016126889392919061339e565b60405180910390fd5b8181035f5f8673ffffffffffffffffffffffffffffffffffffffff1673ffffffffffffffffffffffffffffffffffffffff1681526020019081526020015f2081905550505b5f73ffffffffffffffffffffffffffffffffffffffff168273ffffffffffffffffffffffffffffffffffffffff160361271d578060025f8282540392505081905550612767565b805f5f8473ffffffffffffffffffffffffffffffffffffffff1673ffffffffffffffffffffffffffffffffffffffff1681526020019081526020015f205f82825401925050819055505b8173ffffffffffffffffffffffffffffffffffffffff168373ffffffffffffffffffffffffffffffffffffffff167fddf252ad1be2c89b69c2b068fc378daa952ba7f163c4a11628f55a4df523b3ef836040516127c49190612c09565b60405180910390a3505050565b6127d9612a30565b15612810576040517f3ee5aeb500000000000000000000000000000000000000000000000000000000815260040160405180910390fd5b565b5f7f9b779b17422d0df92223018b32b4d1fa46e071723d6817e2486d003becc55f005f1b905090565b5f819050919050565b612852848484846001612a4c565b61289357836040517f5274afe700000000000000000000000000000000000000000000000000000000815260040161288a9190612ef9565b60405180910390fd5b50505050565b5f73ffffffffffffffffffffffffffffffffffffffff168273ffffffffffffffffffffffffffffffffffffffff1603612909575f6040517fec442f050000000000000000000000000000000000000000000000000000000081526004016129009190612ef9565b60405180910390fd5b6129145f83836125b8565b5050565b8273ffffffffffffffffffffffffffffffffffffffff168573ffffffffffffffffffffffffffffffffffffffff161461295757612956838683611d07565b5b6129618382612abd565b61297361296c610bf8565b8584612b3c565b8273ffffffffffffffffffffffffffffffffffffffff168473ffffffffffffffffffffffffffffffffffffffff168673ffffffffffffffffffffffffffffffffffffffff167ffbde797d201c681b91056529119e0b02407c7bb96a4a2c75c01fc9667232c8db85856040516129e9929190612e14565b60405180910390a45050505050565b5f60016002836003811115612a1057612a0f613721565b5b612a1a919061374e565b60ff16149050919050565b5f8115159050919050565b5f6002612a43612a3e612812565b61283b565b5f015414905090565b5f5f6323b872dd60e01b9050604051815f525f1960601c87166004525f1960601c86166024528460445260205f60645f5f8c5af1925060015f51148316612aaa578383151615612a9e573d5f823e3d81fd5b5f883b113d1516831692505b806040525f606052505095945050505050565b5f73ffffffffffffffffffffffffffffffffffffffff168273ffffffffffffffffffffffffffffffffffffffff1603612b2d575f6040517f96c6fd1e000000000000000000000000000000000000000000000000000000008152600401612b249190612ef9565b60405180910390fd5b612b38825f836125b8565b5050565b612b498383836001612b8f565b612b8a57826040517f5274afe7000000000000000000000000000000000000000000000000000000008152600401612b819190612ef9565b60405180910390fd5b505050565b5f5f63a9059cbb60e01b9050604051815f525f1960601c86166004528460245260205f60445f5f8b5af1925060015f51148316612be3578383151615612bd7573d5f823e3d81fd5b5f873b113d1516831692505b806040525050949350505050565b5f819050919050565b612c0381612bf1565b82525050565b5f602082019050612c1c5f830184612bfa565b92915050565b5f81519050919050565b5f82825260208201905092915050565b8281835e5f83830152505050565b5f601f19601f8301169050919050565b5f612c6482612c22565b612c6e8185612c2c565b9350612c7e818560208601612c3c565b612c8781612c4a565b840191505092915050565b5f6020820190508181035f830152612caa8184612c5a565b905092915050565b5f5ffd5b612cbf81612bf1565b8114612cc9575f5ffd5b50565b5f81359050612cda81612cb6565b92915050565b5f60208284031215612cf557612cf4612cb2565b5b5f612d0284828501612ccc565b91505092915050565b5f73ffffffffffffffffffffffffffffffffffffffff82169050919050565b5f612d3482612d0b565b9050919050565b612d4481612d2a565b8114612d4e575f5ffd5b50565b5f81359050612d5f81612d3b565b92915050565b5f5f60408385031215612d7b57612d7a612cb2565b5b5f612d8885828601612d51565b9250506020612d9985828601612ccc565b9150509250929050565b5f8115159050919050565b612db781612da3565b82525050565b5f602082019050612dd05f830184612dae565b92915050565b5f5f60408385031215612dec57612deb612cb2565b5b5f612df985828601612ccc565b9250506020612e0a85828601612ccc565b9150509250929050565b5f604082019050612e275f830185612bfa565b612e346020830184612bfa565b9392505050565b5f60208284031215612e5057612e4f612cb2565b5b5f612e5d84828501612d51565b91505092915050565b5f5f5f60608486031215612e7d57612e7c612cb2565b5b5f612e8a86828701612d51565b9350506020612e9b86828701612d51565b9250506040612eac86828701612ccc565b9150509250925092565b5f60ff82169050919050565b612ecb81612eb6565b82525050565b5f602082019050612ee45f830184612ec2565b92915050565b612ef381612d2a565b82525050565b5f602082019050612f0c5f830184612eea565b92915050565b5f67ffffffffffffffff82169050919050565b612f2e81612f12565b8114612f38575f5ffd5b50565b5f81359050612f4981612f25565b92915050565b5f5f5f60608486031215612f6657612f65612cb2565b5b5f612f7386828701612ccc565b9350506020612f8486828701612d51565b9250506040612f9586828701612f3b565b9150509250925092565b5f5f60408385031215612fb557612fb4612cb2565b5b5f612fc285828601612ccc565b9250506020612fd385828601612d51565b9150509250929050565b5f60208284031215612ff257612ff1612cb2565b5b5f612fff84828501612f3b565b91505092915050565b61301181612f12565b82525050565b5f60208201905061302a5f830184613008565b92915050565b5f5f5f6060848603121561304757613046612cb2565b5b5f61305486828701612ccc565b935050602061306586828701612d51565b925050604061307686828701612d51565b9150509250925092565b5f5f5f6060848603121561309757613096612cb2565b5b5f6130a486828701612d51565b93505060206130b586828701612ccc565b92505060406130c686828701612ccc565b9150509250925092565b5f5f604083850312156130e6576130e5612cb2565b5b5f6130f385828601612d51565b925050602061310485828601612d51565b9150509250929050565b5f819050919050565b5f61313161312c61312784612d0b565b61310e565b612d0b565b9050919050565b5f61314282613117565b9050919050565b5f61315382613138565b9050919050565b61316381613149565b82525050565b5f60208201905061317c5f83018461315a565b92915050565b61318b81612da3565b8114613195575f5ffd5b50565b5f813590506131a681613182565b92915050565b5f5f604083850312156131c2576131c1612cb2565b5b5f6131cf85828601612d51565b92505060206131e085828601613198565b9150509250929050565b5f815190506131f881612cb6565b92915050565b5f6020828403121561321357613212612cb2565b5b5f613220848285016131ea565b91505092915050565b7f4e487b71000000000000000000000000000000000000000000000000000000005f52602260045260245ffd5b5f600282049050600182168061326d57607f821691505b6020821081036132805761327f613229565b5b50919050565b7f4e487b71000000000000000000000000000000000000000000000000000000005f52601160045260245ffd5b5f6132bd82612bf1565b91506132c883612bf1565b92508282039050818111156132e0576132df613286565b5b92915050565b5f6132f082612eb6565b91506132fb83612eb6565b9250828201905060ff81111561331457613313613286565b5b92915050565b5f61332482612bf1565b915061332f83612bf1565b925082820261333d81612bf1565b9150828204841483151761335457613353613286565b5b5092915050565b5f60808201905061336e5f830187612bfa565b61337b6020830186612bfa565b6133886040830185613008565b6133956060830184612eea565b95945050505050565b5f6060820190506133b15f830186612eea565b6133be6020830185612bfa565b6133cb6040830184612bfa565b949350505050565b5f6133dd82612f12565b91506133e883612f12565b9250828201905067ffffffffffffffff81111561340857613407613286565b5b92915050565b7f5661756c743a20617373657473206c6f636b65640000000000000000000000005f82015250565b5f613442601483612c2c565b915061344d8261340e565b602082019050919050565b5f6020820190508181035f83015261346f81613436565b9050919050565b5f61348082612bf1565b915061348b83612bf1565b92508282019050808211156134a3576134a2613286565b5b92915050565b5f6040820190506134bc5f830185612eea565b6134c96020830184612bfa565b9392505050565b5f6080820190506134e35f830187612bfa565b6134f06020830186612bfa565b6134fd6040830185612bfa565b61350a6060830184612bfa565b95945050505050565b7f73706c69743e31303025000000000000000000000000000000000000000000005f82015250565b5f613547600a83612c2c565b915061355282613513565b602082019050919050565b5f6020820190508181035f8301526135748161353b565b9050919050565b5f8160011c9050919050565b5f5f8291508390505b60018511156135d0578086048111156135ac576135ab613286565b5b60018516156135bb5780820291505b80810290506135c98561357b565b9450613590565b94509492505050565b5f826135e857600190506136a3565b816135f5575f90506136a3565b816001811461360b576002811461361557613644565b60019150506136a3565b60ff84111561362757613626613286565b5b8360020a91508482111561363e5761363d613286565b5b506136a3565b5060208310610133831016604e8410600b84101617156136795782820a90508381111561367457613673613286565b5b6136a3565b6136868484846001613587565b9250905081840481111561369d5761369c613286565b5b81810290505b9392505050565b5f6136b482612bf1565b91506136bf83612eb6565b92506136ec7fffffffffffffffffffffffffffffffffffffffffffffffffffffffffffffffff84846135d9565b905092915050565b7f4e487b71000000000000000000000000000000000000000000000000000000005f52601260045260245ffd5b7f4e487b71000000000000000000000000000000000000000000000000000000005f52602160045260245ffd5b5f61375882612eb6565b915061376383612eb6565b925082613773576137726136f4565b5b82820690509291505056fea2646970667358221220f237f58ea68139f94287c1ff4c6340f043e76675c3561cde0e3caa70f47f5bc964736f6c634300081e0033",
			"opcodes": "PUSH1 0xC0 PUSH1 0x40 MSTORE CALLVALUE DUP1 ISZERO PUSH2 0xF JUMPI PUSH0 PUSH0 REVERT JUMPDEST POP PUSH1 0x40 MLOAD PUSH2 0x437F CODESIZE SUB DUP1 PUSH2 0x437F DUP4 CODECOPY DUP2 DUP2 ADD PUSH1 0x40 MSTORE DUP2 ADD SWAP1 PUSH2 0x31 SWAP2 SWAP1 PUSH2 0x6E3 JUMP JUMPDEST DUP5 DUP9 DUP9 DUP9 DUP2 PUSH1 0x3 SWAP1 DUP2 PUSH2 0x44 SWAP2 SWAP1 PUSH2 0x9D3 JUMP JUMPDEST POP DUP1 PUSH1 0x4 SWAP1 DUP2 PUSH2 0x54 SWAP2 SWAP1 PUSH2 0x9D3 JUMP JUMPDEST POP POP POP PUSH0 PUSH0 PUSH2 0x68 DUP4 PUSH2 0x298 PUSH1 0x20 SHL PUSH1 0x20 SHR JUMP JUMPDEST SWAP2 POP SWAP2 POP DUP2 PUSH2 0x78 JUMPI PUSH1 0x12 PUSH2 0x7A JUMP JUMPDEST DUP1 JUMPDEST PUSH1 0xFF AND PUSH1 0xA0 DUP2 PUSH1 0xFF AND DUP2 MSTORE POP POP DUP3 PUSH20 0xFFFFFFFFFFFFFFFFFFFFFFFFFFFFFFFFFFFFFFFF AND PUSH1 0x80 DUP2 PUSH20 0xFFFFFFFFFFFFFFFFFFFFFFFFFFFFFFFFFFFFFFFF AND DUP2 MSTORE POP POP POP POP POP PUSH0 PUSH20 0xFFFFFFFFFFFFFFFFFFFFFFFFFFFFFFFFFFFFFFFF AND DUP2 PUSH20 0xFFFFFFFFFFFFFFFFFFFFFFFFFFFFFFFFFFFFFFFF AND SUB PUSH2 0x12E JUMPI PUSH0 PUSH1 0x40 MLOAD PUSH32 0x1E4FBDF700000000000000000000000000000000000000000000000000000000 DUP2 MSTORE PUSH1 0x4 ADD PUSH2 0x125 SWAP2 SWAP1 PUSH2 0xAB1 JUMP JUMPDEST PUSH1 0x40 MLOAD DUP1 SWAP2 SUB SWAP1 REVERT JUMPDEST PUSH2 0x13D DUP2 PUSH2 0x364 PUSH1 0x20 SHL PUSH1 0x20 SHR JUMP JUMPDEST POP PUSH1 0x1 PUSH2 0x15C PUSH2 0x151 PUSH2 0x427 PUSH1 0x20 SHL PUSH1 0x20 SHR JUMP JUMPDEST PUSH2 0x450 PUSH1 0x20 SHL PUSH1 0x20 SHR JUMP JUMPDEST PUSH0 ADD DUP2 SWAP1 SSTORE POP PUSH0 PUSH20 0xFFFFFFFFFFFFFFFFFFFFFFFFFFFFFFFFFFFFFFFF AND DUP9 PUSH20 0xFFFFFFFFFFFFFFFFFFFFFFFFFFFFFFFFFFFFFFFF AND SUB PUSH2 0x1D0 JUMPI PUSH1 0x40 MLOAD PUSH32 0x8C379A000000000000000000000000000000000000000000000000000000000 DUP2 MSTORE PUSH1 0x4 ADD PUSH2 0x1C7 SWAP1 PUSH2 0xB24 JUMP JUMPDEST PUSH1 0x40 MLOAD DUP1 SWAP2 SUB SWAP1 REVERT JUMPDEST PUSH2 0x2710 DUP4 GT ISZERO PUSH2 0x215 JUMPI PUSH1 0x40 MLOAD PUSH32 0x8C379A000000000000000000000000000000000000000000000000000000000 DUP2 MSTORE PUSH1 0x4 ADD PUSH2 0x20C SWAP1 PUSH2 0xB8C JUMP JUMPDEST PUSH1 0x40 MLOAD DUP1 SWAP2 SUB SWAP1 REVERT JUMPDEST DUP4 PUSH1 0x8 DUP2 SWAP1 SSTORE POP DUP3 PUSH1 0x9 DUP2 SWAP1 SSTORE POP DUP2 PUSH1 0x7 PUSH0 PUSH2 0x100 EXP DUP2 SLOAD DUP2 PUSH8 0xFFFFFFFFFFFFFFFF MUL NOT AND SWAP1 DUP4 PUSH8 0xFFFFFFFFFFFFFFFF AND MUL OR SWAP1 SSTORE POP DUP1 PUSH1 0xA PUSH0 PUSH2 0x100 EXP DUP2 SLOAD DUP2 PUSH20 0xFFFFFFFFFFFFFFFFFFFFFFFFFFFFFFFFFFFFFFFF MUL NOT AND SWAP1 DUP4 PUSH20 0xFFFFFFFFFFFFFFFFFFFFFFFFFFFFFFFFFFFFFFFF AND MUL OR SWAP1 SSTORE POP POP POP POP POP POP POP POP POP PUSH2 0xBAA JUMP JUMPDEST PUSH0 PUSH0 PUSH0 PUSH2 0x2A9 PUSH2 0x459 PUSH1 0x20 SHL PUSH1 0x20 SHR JUMP JUMPDEST SWAP1 POP PUSH0 PUSH0 PUSH2 0x307 DUP7 PUSH1 0x40 MLOAD PUSH1 0x24 ADD PUSH1 0x40 MLOAD PUSH1 0x20 DUP2 DUP4 SUB SUB DUP2 MSTORE SWAP1 PUSH1 0x40 MSTORE PUSH4 0x313CE567 PUSH1 0xE0 SHL PUSH1 0x20 DUP3 ADD DUP1 MLOAD PUSH28 0xFFFFFFFFFFFFFFFFFFFFFFFFFFFFFFFFFFFFFFFFFFFFFFFFFFFFFFFF DUP4 DUP2 DUP4 AND OR DUP4 MSTORE POP POP POP POP PUSH2 0x462 PUSH1 0x20 SHL PUSH1 0x20 SHR JUMP JUMPDEST POP SWAP2 POP SWAP2 POP PUSH2 0x31B DUP4 PUSH2 0x483 PUSH1 0x20 SHL PUSH1 0x20 SHR JUMP JUMPDEST DUP2 DUP1 ISZERO PUSH2 0x336 JUMPI POP PUSH1 0x20 PUSH2 0x333 PUSH2 0x48A PUSH1 0x20 SHL PUSH1 0x20 SHR JUMP JUMPDEST LT ISZERO JUMPDEST DUP1 ISZERO PUSH2 0x347 JUMPI POP PUSH1 0xFF DUP1 AND DUP2 PUSH0 SHR GT ISZERO JUMPDEST PUSH2 0x352 JUMPI PUSH0 PUSH0 PUSH2 0x358 JUMP JUMPDEST PUSH1 0x1 DUP2 PUSH0 SHR JUMPDEST SWAP5 POP SWAP5 POP POP POP POP SWAP2 POP SWAP2 JUMP JUMPDEST PUSH0 PUSH1 0x5 PUSH0 SWAP1 SLOAD SWAP1 PUSH2 0x100 EXP SWAP1 DIV PUSH20 0xFFFFFFFFFFFFFFFFFFFFFFFFFFFFFFFFFFFFFFFF AND SWAP1 POP DUP2 PUSH1 0x5 PUSH0 PUSH2 0x100 EXP DUP2 SLOAD DUP2 PUSH20 0xFFFFFFFFFFFFFFFFFFFFFFFFFFFFFFFFFFFFFFFF MUL NOT AND SWAP1 DUP4 PUSH20 0xFFFFFFFFFFFFFFFFFFFFFFFFFFFFFFFFFFFFFFFF AND MUL OR SWAP1 SSTORE POP DUP2 PUSH20 0xFFFFFFFFFFFFFFFFFFFFFFFFFFFFFFFFFFFFFFFF AND DUP2 PUSH20 0xFFFFFFFFFFFFFFFFFFFFFFFFFFFFFFFFFFFFFFFF AND PUSH32 0x8BE0079C531659141344CD1FD0A4F28419497F9722A3DAAFE3B4186F6B6457E0 PUSH1 0x40 MLOAD PUSH1 0x40 MLOAD DUP1 SWAP2 SUB SWAP1 LOG3 POP POP JUMP JUMPDEST PUSH0 PUSH32 0x9B779B17422D0DF92223018B32B4D1FA46E071723D6817E2486D003BECC55F00 PUSH0 SHL SWAP1 POP SWAP1 JUMP JUMPDEST PUSH0 DUP2 SWAP1 POP SWAP2 SWAP1 POP JUMP JUMPDEST PUSH0 PUSH1 0x40 MLOAD SWAP1 POP SWAP1 JUMP JUMPDEST PUSH0 PUSH0 PUSH0 PUSH1 0x40 PUSH0 DUP6 MLOAD PUSH1 0x20 DUP8 ADD DUP9 GAS STATICCALL SWAP3 POP PUSH0 MLOAD SWAP2 POP PUSH1 0x20 MLOAD SWAP1 POP SWAP3 POP SWAP3 POP SWAP3 JUMP JUMPDEST DUP1 PUSH1 0x40 MSTORE POP JUMP JUMPDEST PUSH0 RETURNDATASIZE SWAP1 POP SWAP1 JUMP JUMPDEST PUSH0 PUSH1 0x40 MLOAD SWAP1 POP SWAP1 JUMP JUMPDEST PUSH0 PUSH0 REVERT JUMPDEST PUSH0 PUSH0 REVERT JUMPDEST PUSH0 PUSH20 0xFFFFFFFFFFFFFFFFFFFFFFFFFFFFFFFFFFFFFFFF DUP3 AND SWAP1 POP SWAP2 SWAP1 POP JUMP JUMPDEST PUSH0 PUSH2 0x4CB DUP3 PUSH2 0x4A2 JUMP JUMPDEST SWAP1 POP SWAP2 SWAP1 POP JUMP JUMPDEST PUSH0 PUSH2 0x4DC DUP3 PUSH2 0x4C1 JUMP JUMPDEST SWAP1 POP SWAP2 SWAP1 POP JUMP JUMPDEST PUSH2 0x4EC DUP2 PUSH2 0x4D2 JUMP JUMPDEST DUP2 EQ PUSH2 0x4F6 JUMPI PUSH0 PUSH0 REVERT JUMPDEST POP JUMP JUMPDEST PUSH0 DUP2 MLOAD SWAP1 POP PUSH2 0x507 DUP2 PUSH2 0x4E3 JUMP JUMPDEST SWAP3 SWAP2 POP POP JUMP JUMPDEST PUSH0 PUSH0 REVERT JUMPDEST PUSH0 PUSH0 REVERT JUMPDEST PUSH0 PUSH1 0x1F NOT PUSH1 0x1F DUP4 ADD AND SWAP1 POP SWAP2 SWAP1 POP JUMP JUMPDEST PUSH32 0x4E487B7100000000000000000000000000000000000000000000000000000000 PUSH0 MSTORE PUSH1 0x41 PUSH1 0x4 MSTORE PUSH1 0x24 PUSH0 REVERT JUMPDEST PUSH2 0x55B DUP3 PUSH2 0x515 JUMP JUMPDEST DUP2 ADD DUP2 DUP2 LT PUSH8 0xFFFFFFFFFFFFFFFF DUP3 GT OR ISZERO PUSH2 0x57A JUMPI PUSH2 0x579 PUSH2 0x525 JUMP JUMPDEST JUMPDEST DUP1 PUSH1 0x40 MSTORE POP POP POP JUMP JUMPDEST PUSH0 PUSH2 0x58C PUSH2 0x491 JUMP JUMPDEST SWAP1 POP PUSH2 0x598 DUP3 DUP3 PUSH2 0x552 JUMP JUMPDEST SWAP2 SWAP1 POP JUMP JUMPDEST PUSH0 PUSH8 0xFFFFFFFFFFFFFFFF DUP3 GT ISZERO PUSH2 0x5B7 JUMPI PUSH2 0x5B6 PUSH2 0x525 JUMP JUMPDEST JUMPDEST PUSH2 0x5C0 DUP3 PUSH2 0x515 JUMP JUMPDEST SWAP1 POP PUSH1 0x20 DUP2 ADD SWAP1 POP SWAP2 SWAP1 POP JUMP JUMPDEST DUP3 DUP2 DUP4 MCOPY PUSH0 DUP4 DUP4 ADD MSTORE POP POP POP JUMP JUMPDEST PUSH0 PUSH2 0x5ED PUSH2 0x5E8 DUP5 PUSH2 0x59D JUMP JUMPDEST PUSH2 0x583 JUMP JUMPDEST SWAP1 POP DUP3 DUP2 MSTORE PUSH1 0x20 DUP2 ADD DUP5 DUP5 DUP5 ADD GT ISZERO PUSH2 0x609 JUMPI PUSH2 0x608 PUSH2 0x511 JUMP JUMPDEST JUMPDEST PUSH2 0x614 DUP5 DUP3 DUP6 PUSH2 0x5CD JUMP JUMPDEST POP SWAP4 SWAP3 POP POP POP JUMP JUMPDEST PUSH0 DUP3 PUSH1 0x1F DUP4 ADD SLT PUSH2 0x630 JUMPI PUSH2 0x62F PUSH2 0x50D JUMP JUMPDEST JUMPDEST DUP2 MLOAD PUSH2 0x640 DUP5 DUP3 PUSH1 0x20 DUP7 ADD PUSH2 0x5DB JUMP JUMPDEST SWAP2 POP POP SWAP3 SWAP2 POP POP JUMP JUMPDEST PUSH2 0x652 DUP2 PUSH2 0x4C1 JUMP JUMPDEST DUP2 EQ PUSH2 0x65C JUMPI PUSH0 PUSH0 REVERT JUMPDEST POP JUMP JUMPDEST PUSH0 DUP2 MLOAD SWAP1 POP PUSH2 0x66D DUP2 PUSH2 0x649 JUMP JUMPDEST SWAP3 SWAP2 POP POP JUMP JUMPDEST PUSH0 DUP2 SWAP1 POP SWAP2 SWAP1 POP JUMP JUMPDEST PUSH2 0x685 DUP2 PUSH2 0x673 JUMP JUMPDEST DUP2 EQ PUSH2 0x68F JUMPI PUSH0 PUSH0 REVERT JUMPDEST POP JUMP JUMPDEST PUSH0 DUP2 MLOAD SWAP1 POP PUSH2 0x6A0 DUP2 PUSH2 0x67C JUMP JUMPDEST SWAP3 SWAP2 POP POP JUMP JUMPDEST PUSH0 PUSH8 0xFFFFFFFFFFFFFFFF DUP3 AND SWAP1 POP SWAP2 SWAP1 POP JUMP JUMPDEST PUSH2 0x6C2 DUP2 PUSH2 0x6A6 JUMP JUMPDEST DUP2 EQ PUSH2 0x6CC JUMPI PUSH0 PUSH0 REVERT JUMPDEST POP JUMP JUMPDEST PUSH0 DUP2 MLOAD SWAP1 POP PUSH2 0x6DD DUP2 PUSH2 0x6B9 JUMP JUMPDEST SWAP3 SWAP2 POP POP JUMP JUMPDEST PUSH0 PUSH0 PUSH0 PUSH0 PUSH0 PUSH0 PUSH0 PUSH0 PUSH2 0x100 DUP10 DUP12 SUB SLT ISZERO PUSH2 0x700 JUMPI PUSH2 0x6FF PUSH2 0x49A JUMP JUMPDEST JUMPDEST PUSH0 PUSH2 0x70D DUP12 DUP3 DUP13 ADD PUSH2 0x4F9 JUMP JUMPDEST SWAP9 POP POP PUSH1 0x20 DUP10 ADD MLOAD PUSH8 0xFFFFFFFFFFFFFFFF DUP2 GT ISZERO PUSH2 0x72E JUMPI PUSH2 0x72D PUSH2 0x49E JUMP JUMPDEST JUMPDEST PUSH2 0x73A DUP12 DUP3 DUP13 ADD PUSH2 0x61C JUMP JUMPDEST SWAP8 POP POP PUSH1 0x40 DUP10 ADD MLOAD PUSH8 0xFFFFFFFFFFFFFFFF DUP2 GT ISZERO PUSH2 0x75B JUMPI PUSH2 0x75A PUSH2 0x49E JUMP JUMPDEST JUMPDEST PUSH2 0x767 DUP12 DUP3 DUP13 ADD PUSH2 0x61C JUMP JUMPDEST SWAP7 POP POP PUSH1 0x60 PUSH2 0x778 DUP12 DUP3 DUP13 ADD PUSH2 0x65F JUMP JUMPDEST SWAP6 POP POP PUSH1 0x80 PUSH2 0x789 DUP12 DUP3 DUP13 ADD PUSH2 0x692 JUMP JUMPDEST SWAP5 POP POP PUSH1 0xA0 PUSH2 0x79A DUP12 DUP3 DUP13 ADD PUSH2 0x692 JUMP JUMPDEST SWAP4 POP POP PUSH1 0xC0 PUSH2 0x7AB DUP12 DUP3 DUP13 ADD PUSH2 0x6CF JUMP JUMPDEST SWAP3 POP POP PUSH1 0xE0 PUSH2 0x7BC DUP12 DUP3 DUP13 ADD PUSH2 0x65F JUMP JUMPDEST SWAP2 POP POP SWAP3 SWAP6 SWAP9 POP SWAP3 SWAP6 SWAP9 SWAP1 SWAP4 SWAP7 POP JUMP JUMPDEST PUSH0 DUP2 MLOAD SWAP1 POP SWAP2 SWAP1 POP JUMP JUMPDEST PUSH32 0x4E487B7100000000000000000000000000000000000000000000000000000000 PUSH0 MSTORE PUSH1 0x22 PUSH1 0x4 MSTORE PUSH1 0x24 PUSH0 REVERT JUMPDEST PUSH0 PUSH1 0x2 DUP3 DIV SWAP1 POP PUSH1 0x1 DUP3 AND DUP1 PUSH2 0x81A JUMPI PUSH1 0x7F DUP3 AND SWAP2 POP JUMPDEST PUSH1 0x20 DUP3 LT DUP2 SUB PUSH2 0x82D JUMPI PUSH2 0x82C PUSH2 0x7D6 JUMP JUMPDEST JUMPDEST POP SWAP2 SWAP1 POP JUMP JUMPDEST PUSH0 DUP2 SWAP1 POP DUP2 PUSH0 MSTORE PUSH1 0x20 PUSH0 KECCAK256 SWAP1 POP SWAP2 SWAP1 POP JUMP JUMPDEST PUSH0 PUSH1 0x20 PUSH1 0x1F DUP4 ADD DIV SWAP1 POP SWAP2 SWAP1 POP JUMP JUMPDEST PUSH0 DUP3 DUP3 SHL SWAP1 POP SWAP3 SWAP2 POP POP JUMP JUMPDEST PUSH0 PUSH1 0x8 DUP4 MUL PUSH2 0x88F PUSH32 0xFFFFFFFFFFFFFFFFFFFFFFFFFFFFFFFFFFFFFFFFFFFFFFFFFFFFFFFFFFFFFFFF DUP3 PUSH2 0x854 JUMP JUMPDEST PUSH2 0x899 DUP7 DUP4 PUSH2 0x854 JUMP JUMPDEST SWAP6 POP DUP1 NOT DUP5 AND SWAP4 POP DUP1 DUP7 AND DUP5 OR SWAP3 POP POP POP SWAP4 SWAP3 POP POP POP JUMP JUMPDEST PUSH0 DUP2 SWAP1 POP SWAP2 SWAP1 POP JUMP JUMPDEST PUSH0 PUSH2 0x8D4 PUSH2 0x8CF PUSH2 0x8CA DUP5 PUSH2 0x673 JUMP JUMPDEST PUSH2 0x8B1 JUMP JUMPDEST PUSH2 0x673 JUMP JUMPDEST SWAP1 POP SWAP2 SWAP1 POP JUMP JUMPDEST PUSH0 DUP2 SWAP1 POP SWAP2 SWAP1 POP JUMP JUMPDEST PUSH2 0x8ED DUP4 PUSH2 0x8BA JUMP JUMPDEST PUSH2 0x901 PUSH2 0x8F9 DUP3 PUSH2 0x8DB JUMP JUMPDEST DUP5 DUP5 SLOAD PUSH2 0x860 JUMP JUMPDEST DUP3 SSTORE POP POP POP POP JUMP JUMPDEST PUSH0 PUSH0 SWAP1 POP SWAP1 JUMP JUMPDEST PUSH2 0x918 PUSH2 0x909 JUMP JUMPDEST PUSH2 0x923 DUP2 DUP5 DUP5 PUSH2 0x8E4 JUMP JUMPDEST POP POP POP JUMP JUMPDEST JUMPDEST DUP2 DUP2 LT ISZERO PUSH2 0x946 JUMPI PUSH2 0x93B PUSH0 DUP3 PUSH2 0x910 JUMP JUMPDEST PUSH1 0x1 DUP2 ADD SWAP1 POP PUSH2 0x929 JUMP JUMPDEST POP POP JUMP JUMPDEST PUSH1 0x1F DUP3 GT ISZERO PUSH2 0x98B JUMPI PUSH2 0x95C DUP2 PUSH2 0x833 JUMP JUMPDEST PUSH2 0x965 DUP5 PUSH2 0x845 JUMP JUMPDEST DUP2 ADD PUSH1 0x20 DUP6 LT ISZERO PUSH2 0x974 JUMPI DUP2 SWAP1 POP JUMPDEST PUSH2 0x988 PUSH2 0x980 DUP6 PUSH2 0x845 JUMP JUMPDEST DUP4 ADD DUP3 PUSH2 0x928 JUMP JUMPDEST POP POP JUMPDEST POP POP POP JUMP JUMPDEST PUSH0 DUP3 DUP3 SHR SWAP1 POP SWAP3 SWAP2 POP POP JUMP JUMPDEST PUSH0 PUSH2 0x9AB PUSH0 NOT DUP5 PUSH1 0x8 MUL PUSH2 0x990 JUMP JUMPDEST NOT DUP1 DUP4 AND SWAP2 POP POP SWAP3 SWAP2 POP POP JUMP JUMPDEST PUSH0 PUSH2 0x9C3 DUP4 DUP4 PUSH2 0x99C JUMP JUMPDEST SWAP2 POP DUP3 PUSH1 0x2 MUL DUP3 OR SWAP1 POP SWAP3 SWAP2 POP POP JUMP JUMPDEST PUSH2 0x9DC DUP3 PUSH2 0x7CC JUMP JUMPDEST PUSH8 0xFFFFFFFFFFFFFFFF DUP2 GT ISZERO PUSH2 0x9F5 JUMPI PUSH2 0x9F4 PUSH2 0x525 JUMP JUMPDEST JUMPDEST PUSH2 0x9FF DUP3 SLOAD PUSH2 0x803 JUMP JUMPDEST PUSH2 0xA0A DUP3 DUP3 DUP6 PUSH2 0x94A JUMP JUMPDEST PUSH0 PUSH1 0x20 SWAP1 POP PUSH1 0x1F DUP4 GT PUSH1 0x1 DUP2 EQ PUSH2 0xA3B JUMPI PUSH0 DUP5 ISZERO PUSH2 0xA29 JUMPI DUP3 DUP8 ADD MLOAD SWAP1 POP JUMPDEST PUSH2 0xA33 DUP6 DUP3 PUSH2 0x9B8 JUMP JUMPDEST DUP7 SSTORE POP PUSH2 0xA9A JUMP JUMPDEST PUSH1 0x1F NOT DUP5 AND PUSH2 0xA49 DUP7 PUSH2 0x833 JUMP JUMPDEST PUSH0 JUMPDEST DUP3 DUP2 LT ISZERO PUSH2 0xA70 JUMPI DUP5 DUP10 ADD MLOAD DUP3 SSTORE PUSH1 0x1 DUP3 ADD SWAP2 POP PUSH1 0x20 DUP6 ADD SWAP5 POP PUSH1 0x20 DUP2 ADD SWAP1 POP PUSH2 0xA4B JUMP JUMPDEST DUP7 DUP4 LT ISZERO PUSH2 0xA8D JUMPI DUP5 DUP10 ADD MLOAD PUSH2 0xA89 PUSH1 0x1F DUP10 AND DUP3 PUSH2 0x99C JUMP JUMPDEST DUP4 SSTORE POP JUMPDEST PUSH1 0x1 PUSH1 0x2 DUP9 MUL ADD DUP9 SSTORE POP POP POP JUMPDEST POP POP POP POP POP POP JUMP JUMPDEST PUSH2 0xAAB DUP2 PUSH2 0x4C1 JUMP JUMPDEST DUP3 MSTORE POP POP JUMP JUMPDEST PUSH0 PUSH1 0x20 DUP3 ADD SWAP1 POP PUSH2 0xAC4 PUSH0 DUP4 ADD DUP5 PUSH2 0xAA2 JUMP JUMPDEST SWAP3 SWAP2 POP POP JUMP JUMPDEST PUSH0 DUP3 DUP3 MSTORE PUSH1 0x20 DUP3 ADD SWAP1 POP SWAP3 SWAP2 POP POP JUMP JUMPDEST PUSH32 0x61737365743D3000000000000000000000000000000000000000000000000000 PUSH0 DUP3 ADD MSTORE POP JUMP JUMPDEST PUSH0 PUSH2 0xB0E PUSH1 0x7 DUP4 PUSH2 0xACA JUMP JUMPDEST SWAP2 POP PUSH2 0xB19 DUP3 PUSH2 0xADA JUMP JUMPDEST PUSH1 0x20 DUP3 ADD SWAP1 POP SWAP2 SWAP1 POP JUMP JUMPDEST PUSH0 PUSH1 0x20 DUP3 ADD SWAP1 POP DUP2 DUP2 SUB PUSH0 DUP4 ADD MSTORE PUSH2 0xB3B DUP2 PUSH2 0xB02 JUMP JUMPDEST SWAP1 POP SWAP2 SWAP1 POP JUMP JUMPDEST PUSH32 0x73706C69743E3130302500000000000000000000000000000000000000000000 PUSH0 DUP3 ADD MSTORE POP JUMP JUMPDEST PUSH0 PUSH2 0xB76 PUSH1 0xA DUP4 PUSH2 0xACA JUMP JUMPDEST SWAP2 POP PUSH2 0xB81 DUP3 PUSH2 0xB42 JUMP JUMPDEST PUSH1 0x20 DUP3 ADD SWAP1 POP SWAP2 SWAP1 POP JUMP JUMPDEST PUSH0 PUSH1 0x20 DUP3 ADD SWAP1 POP DUP2 DUP2 SUB PUSH0 DUP4 ADD MSTORE PUSH2 0xBA3 DUP2 PUSH2 0xB6A JUMP JUMPDEST SWAP1 POP SWAP2 SWAP1 POP JUMP JUMPDEST PUSH1 0x80 MLOAD PUSH1 0xA0 MLOAD PUSH2 0x37B4 PUSH2 0xBCB PUSH0 CODECOPY PUSH0 PUSH2 0xBCA ADD MSTORE PUSH0 PUSH2 0xBFB ADD MSTORE PUSH2 0x37B4 PUSH0 RETURN INVALID PUSH1 0x80 PUSH1 0x40 MSTORE CALLVALUE DUP1 ISZERO PUSH2 0xF JUMPI PUSH0 PUSH0 REVERT JUMPDEST POP PUSH1 0x4 CALLDATASIZE LT PUSH2 0x293 JUMPI PUSH0 CALLDATALOAD PUSH1 0xE0 SHR DUP1 PUSH4 0x8DA5CB5B GT PUSH2 0x165 JUMPI DUP1 PUSH4 0xBA087652 GT PUSH2 0xCC JUMPI DUP1 PUSH4 0xD905777E GT PUSH2 0x85 JUMPI DUP1 PUSH4 0xD905777E EQ PUSH2 0x8E7 JUMPI DUP1 PUSH4 0xDD62ED3E EQ PUSH2 0x917 JUMPI DUP1 PUSH4 0xEF8B30F7 EQ PUSH2 0x947 JUMPI DUP1 PUSH4 0xF2FDE38B EQ PUSH2 0x977 JUMPI DUP1 PUSH4 0xF7C618C1 EQ PUSH2 0x993 JUMPI DUP1 PUSH4 0xFB66FB4D EQ PUSH2 0x9B1 JUMPI PUSH2 0x293 JUMP JUMPDEST DUP1 PUSH4 0xBA087652 EQ PUSH2 0x7DA JUMPI DUP1 PUSH4 0xBC936D3F EQ PUSH2 0x80A JUMPI DUP1 PUSH4 0xC138F007 EQ PUSH2 0x83B JUMPI DUP1 PUSH4 0xC63D75B6 EQ PUSH2 0x857 JUMPI DUP1 PUSH4 0xC6E6F592 EQ PUSH2 0x887 JUMPI DUP1 PUSH4 0xCE96CB77 EQ PUSH2 0x8B7 JUMPI PUSH2 0x293 JUMP JUMPDEST DUP1 PUSH4 0x987F23DD GT PUSH2 0x11E JUMPI DUP1 PUSH4 0x987F23DD EQ PUSH2 0x6F0 JUMPI DUP1 PUSH4 0xA16CDBB1 EQ PUSH2 0x70E JUMPI DUP1 PUSH4 0xA9059CBB EQ PUSH2 0x72C JUMPI DUP1 PUSH4 0xB3D7F6B9 EQ PUSH2 0x75C JUMPI DUP1 PUSH4 0xB460AF94 EQ PUSH2 0x78C JUMPI DUP1 PUSH4 0xB657B1CB EQ PUSH2 0x7BC JUMPI PUSH2 0x293 JUMP JUMPDEST DUP1 PUSH4 0x8DA5CB5B EQ PUSH2 0x61A JUMPI DUP1 PUSH4 0x915231E9 EQ PUSH2 0x638 JUMPI DUP1 PUSH4 0x91A46D6C EQ PUSH2 0x654 JUMPI DUP1 PUSH4 0x94BF804D EQ PUSH2 0x672 JUMPI DUP1 PUSH4 0x95D89B41 EQ PUSH2 0x6A2 JUMPI DUP1 PUSH4 0x98151E14 EQ PUSH2 0x6C0 JUMPI PUSH2 0x293 JUMP JUMPDEST DUP1 PUSH4 0x3F775726 GT PUSH2 0x209 JUMPI DUP1 PUSH4 0x6E553F65 GT PUSH2 0x1C2 JUMPI DUP1 PUSH4 0x6E553F65 EQ PUSH2 0x548 JUMPI DUP1 PUSH4 0x70A08231 EQ PUSH2 0x578 JUMPI DUP1 PUSH4 0x715018A6 EQ PUSH2 0x5A8 JUMPI DUP1 PUSH4 0x75A6F0EB EQ PUSH2 0x5B2 JUMPI DUP1 PUSH4 0x859E6D6A EQ PUSH2 0x5CE JUMPI DUP1 PUSH4 0x89CDE9DD EQ PUSH2 0x5EA JUMPI PUSH2 0x293 JUMP JUMPDEST DUP1 PUSH4 0x3F775726 EQ PUSH2 0x44E JUMPI DUP1 PUSH4 0x402D267D EQ PUSH2 0x47E JUMPI DUP1 PUSH4 0x471003BD EQ PUSH2 0x4AE JUMPI DUP1 PUSH4 0x4CDAD506 EQ PUSH2 0x4CA JUMPI DUP1 PUSH4 0x5867DBE5 EQ PUSH2 0x4FA JUMPI DUP1 PUSH4 0x5F434454 EQ PUSH2 0x518 JUMPI PUSH2 0x293 JUMP JUMPDEST DUP1 PUSH4 0x18160DDD GT PUSH2 0x25B JUMPI DUP1 PUSH4 0x18160DDD EQ PUSH2 0x363 JUMPI DUP1 PUSH4 0x1BF9233E EQ PUSH2 0x381 JUMPI DUP1 PUSH4 0x21F3A87C EQ PUSH2 0x3B2 JUMPI DUP1 PUSH4 0x23B872DD EQ PUSH2 0x3E2 JUMPI DUP1 PUSH4 0x313CE567 EQ PUSH2 0x412 JUMPI DUP1 PUSH4 0x38D52E0F EQ PUSH2 0x430 JUMPI PUSH2 0x293 JUMP JUMPDEST DUP1 PUSH4 0x1E1D114 EQ PUSH2 0x297 JUMPI DUP1 PUSH4 0x6FDDE03 EQ PUSH2 0x2B5 JUMPI DUP1 PUSH4 0x7A2D13A EQ PUSH2 0x2D3 JUMPI DUP1 PUSH4 0x95EA7B3 EQ PUSH2 0x303 JUMPI DUP1 PUSH4 0xA28A477 EQ PUSH2 0x333 JUMPI JUMPDEST PUSH0 PUSH0 REVERT JUMPDEST PUSH2 0x29F PUSH2 0x9CD JUMP JUMPDEST PUSH1 0x40 MLOAD PUSH2 0x2AC SWAP2 SWAP1 PUSH2 0x2C09 JUMP JUMPDEST PUSH1 0x40 MLOAD DUP1 SWAP2 SUB SWAP1 RETURN JUMPDEST PUSH2 0x2BD PUSH2 0xA52 JUMP JUMPDEST PUSH1 0x40 MLOAD PUSH2 0x2CA SWAP2 SWAP1 PUSH2 0x2C92 JUMP JUMPDEST PUSH1 0x40 MLOAD DUP1 SWAP2 SUB SWAP1 RETURN JUMPDEST PUSH2 0x2ED PUSH1 0x4 DUP1 CALLDATASIZE SUB DUP2 ADD SWAP1 PUSH2 0x2E8 SWAP2 SWAP1 PUSH2 0x2CE0 JUMP JUMPDEST PUSH2 0xAE2 JUMP JUMPDEST PUSH1 0x40 MLOAD PUSH2 0x2FA SWAP2 SWAP1 PUSH2 0x2C09 JUMP JUMPDEST PUSH1 0x40 MLOAD DUP1 SWAP2 SUB SWAP1 RETURN JUMPDEST PUSH2 0x31D PUSH1 0x4 DUP1 CALLDATASIZE SUB DUP2 ADD SWAP1 PUSH2 0x318 SWAP2 SWAP1 PUSH2 0x2D65 JUMP JUMPDEST PUSH2 0xAF4 JUMP JUMPDEST PUSH1 0x40 MLOAD PUSH2 0x32A SWAP2 SWAP1 PUSH2 0x2DBD JUMP JUMPDEST PUSH1 0x40 MLOAD DUP1 SWAP2 SUB SWAP1 RETURN JUMPDEST PUSH2 0x34D PUSH1 0x4 DUP1 CALLDATASIZE SUB DUP2 ADD SWAP1 PUSH2 0x348 SWAP2 SWAP1 PUSH2 0x2CE0 JUMP JUMPDEST PUSH2 0xB16 JUMP JUMPDEST PUSH1 0x40 MLOAD PUSH2 0x35A SWAP2 SWAP1 PUSH2 0x2C09 JUMP JUMPDEST PUSH1 0x40 MLOAD DUP1 SWAP2 SUB SWAP1 RETURN JUMPDEST PUSH2 0x36B PUSH2 0xB29 JUMP JUMPDEST PUSH1 0x40 MLOAD PUSH2 0x378 SWAP2 SWAP1 PUSH2 0x2C09 JUMP JUMPDEST PUSH1 0x40 MLOAD DUP1 SWAP2 SUB SWAP1 RETURN JUMPDEST PUSH2 0x39B PUSH1 0x4 DUP1 CALLDATASIZE SUB DUP2 ADD SWAP1 PUSH2 0x396 SWAP2 SWAP1 PUSH2 0x2DD6 JUMP JUMPDEST PUSH2 0xB32 JUMP JUMPDEST PUSH1 0x40 MLOAD PUSH2 0x3A9 SWAP3 SWAP2 SWAP1 PUSH2 0x2E14 JUMP JUMPDEST PUSH1 0x40 MLOAD DUP1 SWAP2 SUB SWAP1 RETURN JUMPDEST PUSH2 0x3CC PUSH1 0x4 DUP1 CALLDATASIZE SUB DUP2 ADD SWAP1 PUSH2 0x3C7 SWAP2 SWAP1 PUSH2 0x2E3B JUMP JUMPDEST PUSH2 0xB7C JUMP JUMPDEST PUSH1 0x40 MLOAD PUSH2 0x3D9 SWAP2 SWAP1 PUSH2 0x2C09 JUMP JUMPDEST PUSH1 0x40 MLOAD DUP1 SWAP2 SUB SWAP1 RETURN JUMPDEST PUSH2 0x3FC PUSH1 0x4 DUP1 CALLDATASIZE SUB DUP2 ADD SWAP1 PUSH2 0x3F7 SWAP2 SWAP1 PUSH2 0x2E66 JUMP JUMPDEST PUSH2 0xB91 JUMP JUMPDEST PUSH1 0x40 MLOAD PUSH2 0x409 SWAP2 SWAP1 PUSH2 0x2DBD JUMP JUMPDEST PUSH1 0x40 MLOAD DUP1 SWAP2 SUB SWAP1 RETURN JUMPDEST PUSH2 0x41A PUSH2 0xBBF JUMP JUMPDEST PUSH1 0x40 MLOAD PUSH2 0x427 SWAP2 SWAP1 PUSH2 0x2ED1 JUMP JUMPDEST PUSH1 0x40 MLOAD DUP1 SWAP2 SUB SWAP1 RETURN JUMPDEST PUSH2 0x438 PUSH2 0xBF8 JUMP JUMPDEST PUSH1 0x40 MLOAD PUSH2 0x445 SWAP2 SWAP1 PUSH2 0x2EF9 JUMP JUMPDEST PUSH1 0x40 MLOAD DUP1 SWAP2 SUB SWAP1 RETURN JUMPDEST PUSH2 0x468 PUSH1 0x4 DUP1 CALLDATASIZE SUB DUP2 ADD SWAP1 PUSH2 0x463 SWAP2 SWAP1 PUSH2 0x2DD6 JUMP JUMPDEST PUSH2 0xC1F JUMP JUMPDEST PUSH1 0x40 MLOAD PUSH2 0x475 SWAP2 SWAP1 PUSH2 0x2C09 JUMP JUMPDEST PUSH1 0x40 MLOAD DUP1 SWAP2 SUB SWAP1 RETURN JUMPDEST PUSH2 0x498 PUSH1 0x4 DUP1 CALLDATASIZE SUB DUP2 ADD SWAP1 PUSH2 0x493 SWAP2 SWAP1 PUSH2 0x2E3B JUMP JUMPDEST PUSH2 0xC78 JUMP JUMPDEST PUSH1 0x40 MLOAD PUSH2 0x4A5 SWAP2 SWAP1 PUSH2 0x2C09 JUMP JUMPDEST PUSH1 0x40 MLOAD DUP1 SWAP2 SUB SWAP1 RETURN JUMPDEST PUSH2 0x4C8 PUSH1 0x4 DUP1 CALLDATASIZE SUB DUP2 ADD SWAP1 PUSH2 0x4C3 SWAP2 SWAP1 PUSH2 0x2E3B JUMP JUMPDEST PUSH2 0xCA1 JUMP JUMPDEST STOP JUMPDEST PUSH2 0x4E4 PUSH1 0x4 DUP1 CALLDATASIZE SUB DUP2 ADD SWAP1 PUSH2 0x4DF SWAP2 SWAP1 PUSH2 0x2CE0 JUMP JUMPDEST PUSH2 0xD63 JUMP JUMPDEST PUSH1 0x40 MLOAD PUSH2 0x4F1 SWAP2 SWAP1 PUSH2 0x2C09 JUMP JUMPDEST PUSH1 0x40 MLOAD DUP1 SWAP2 SUB SWAP1 RETURN JUMPDEST PUSH2 0x502 PUSH2 0xD75 JUMP JUMPDEST PUSH1 0x40 MLOAD PUSH2 0x50F SWAP2 SWAP1 PUSH2 0x2DBD JUMP JUMPDEST PUSH1 0x40 MLOAD DUP1 SWAP2 SUB SWAP1 RETURN JUMPDEST PUSH2 0x532 PUSH1 0x4 DUP1 CALLDATASIZE SUB DUP2 ADD SWAP1 PUSH2 0x52D SWAP2 SWAP1 PUSH2 0x2F4F JUMP JUMPDEST PUSH2 0xD88 JUMP JUMPDEST PUSH1 0x40 MLOAD PUSH2 0x53F SWAP2 SWAP1 PUSH2 0x2C09 JUMP JUMPDEST PUSH1 0x40 MLOAD DUP1 SWAP2 SUB SWAP1 RETURN JUMPDEST PUSH2 0x562 PUSH1 0x4 DUP1 CALLDATASIZE SUB DUP2 ADD SWAP1 PUSH2 0x55D SWAP2 SWAP1 PUSH2 0x2F9F JUMP JUMPDEST PUSH2 0xDB6 JUMP JUMPDEST PUSH1 0x40 MLOAD PUSH2 0x56F SWAP2 SWAP1 PUSH2 0x2C09 JUMP JUMPDEST PUSH1 0x40 MLOAD DUP1 SWAP2 SUB SWAP1 RETURN JUMPDEST PUSH2 0x592 PUSH1 0x4 DUP1 CALLDATASIZE SUB DUP2 ADD SWAP1 PUSH2 0x58D SWAP2 SWAP1 PUSH2 0x2E3B JUMP JUMPDEST PUSH2 0xE36 JUMP JUMPDEST PUSH1 0x40 MLOAD PUSH2 0x59F SWAP2 SWAP1 PUSH2 0x2C09 JUMP JUMPDEST PUSH1 0x40 MLOAD DUP1 SWAP2 SUB SWAP1 RETURN JUMPDEST PUSH2 0x5B0 PUSH2 0xE7B JUMP JUMPDEST STOP JUMPDEST PUSH2 0x5CC PUSH1 0x4 DUP1 CALLDATASIZE SUB DUP2 ADD SWAP1 PUSH2 0x5C7 SWAP2 SWAP1 PUSH2 0x2FDD JUMP JUMPDEST PUSH2 0xE8E JUMP JUMPDEST STOP JUMPDEST PUSH2 0x5E8 PUSH1 0x4 DUP1 CALLDATASIZE SUB DUP2 ADD SWAP1 PUSH2 0x5E3 SWAP2 SWAP1 PUSH2 0x2FDD JUMP JUMPDEST PUSH2 0xF38 JUMP JUMPDEST STOP JUMPDEST PUSH2 0x604 PUSH1 0x4 DUP1 CALLDATASIZE SUB DUP2 ADD SWAP1 PUSH2 0x5FF SWAP2 SWAP1 PUSH2 0x2E3B JUMP JUMPDEST PUSH2 0x113C JUMP JUMPDEST PUSH1 0x40 MLOAD PUSH2 0x611 SWAP2 SWAP1 PUSH2 0x3017 JUMP JUMPDEST PUSH1 0x40 MLOAD DUP1 SWAP2 SUB SWAP1 RETURN JUMPDEST PUSH2 0x622 PUSH2 0x1160 JUMP JUMPDEST PUSH1 0x40 MLOAD PUSH2 0x62F SWAP2 SWAP1 PUSH2 0x2EF9 JUMP JUMPDEST PUSH1 0x40 MLOAD DUP1 SWAP2 SUB SWAP1 RETURN JUMPDEST PUSH2 0x652 PUSH1 0x4 DUP1 CALLDATASIZE SUB DUP2 ADD SWAP1 PUSH2 0x64D SWAP2 SWAP1 PUSH2 0x2CE0 JUMP JUMPDEST PUSH2 0x1188 JUMP JUMPDEST STOP JUMPDEST PUSH2 0x65C PUSH2 0x1211 JUMP JUMPDEST PUSH1 0x40 MLOAD PUSH2 0x669 SWAP2 SWAP1 PUSH2 0x2EF9 JUMP JUMPDEST PUSH1 0x40 MLOAD DUP1 SWAP2 SUB SWAP1 RETURN JUMPDEST PUSH2 0x68C PUSH1 0x4 DUP1 CALLDATASIZE SUB DUP2 ADD SWAP1 PUSH2 0x687 SWAP2 SWAP1 PUSH2 0x2F9F JUMP JUMPDEST PUSH2 0x1236 JUMP JUMPDEST PUSH1 0x40 MLOAD PUSH2 0x699 SWAP2 SWAP1 PUSH2 0x2C09 JUMP JUMPDEST PUSH1 0x40 MLOAD DUP1 SWAP2 SUB SWAP1 RETURN JUMPDEST PUSH2 0x6AA PUSH2 0x12B6 JUMP JUMPDEST PUSH1 0x40 MLOAD PUSH2 0x6B7 SWAP2 SWAP1 PUSH2 0x2C92 JUMP JUMPDEST PUSH1 0x40 MLOAD DUP1 SWAP2 SUB SWAP1 RETURN JUMPDEST PUSH2 0x6DA PUSH1 0x4 DUP1 CALLDATASIZE SUB DUP2 ADD SWAP1 PUSH2 0x6D5 SWAP2 SWAP1 PUSH2 0x2F4F JUMP JUMPDEST PUSH2 0x1346 JUMP JUMPDEST PUSH1 0x40 MLOAD PUSH2 0x6E7 SWAP2 SWAP1 PUSH2 0x2C09 JUMP JUMPDEST PUSH1 0x40 MLOAD DUP1 SWAP2 SUB SWAP1 RETURN JUMPDEST PUSH2 0x6F8 PUSH2 0x1374 JUMP JUMPDEST PUSH1 0x40 MLOAD PUSH2 0x705 SWAP2 SWAP1 PUSH2 0x2C09 JUMP JUMPDEST PUSH1 0x40 MLOAD DUP1 SWAP2 SUB SWAP1 RETURN JUMPDEST PUSH2 0x716 PUSH2 0x137A JUMP JUMPDEST PUSH1 0x40 MLOAD PUSH2 0x723 SWAP2 SWAP1 PUSH2 0x3017 JUMP JUMPDEST PUSH1 0x40 MLOAD DUP1 SWAP2 SUB SWAP1 RETURN JUMPDEST PUSH2 0x746 PUSH1 0x4 DUP1 CALLDATASIZE SUB DUP2 ADD SWAP1 PUSH2 0x741 SWAP2 SWAP1 PUSH2 0x2D65 JUMP JUMPDEST PUSH2 0x1393 JUMP JUMPDEST PUSH1 0x40 MLOAD PUSH2 0x753 SWAP2 SWAP1 PUSH2 0x2DBD JUMP JUMPDEST PUSH1 0x40 MLOAD DUP1 SWAP2 SUB SWAP1 RETURN JUMPDEST PUSH2 0x776 PUSH1 0x4 DUP1 CALLDATASIZE SUB DUP2 ADD SWAP1 PUSH2 0x771 SWAP2 SWAP1 PUSH2 0x2CE0 JUMP JUMPDEST PUSH2 0x13B5 JUMP JUMPDEST PUSH1 0x40 MLOAD PUSH2 0x783 SWAP2 SWAP1 PUSH2 0x2C09 JUMP JUMPDEST PUSH1 0x40 MLOAD DUP1 SWAP2 SUB SWAP1 RETURN JUMPDEST PUSH2 0x7A6 PUSH1 0x4 DUP1 CALLDATASIZE SUB DUP2 ADD SWAP1 PUSH2 0x7A1 SWAP2 SWAP1 PUSH2 0x3030 JUMP JUMPDEST PUSH2 0x13C8 JUMP JUMPDEST PUSH1 0x40 MLOAD PUSH2 0x7B3 SWAP2 SWAP1 PUSH2 0x2C09 JUMP JUMPDEST PUSH1 0x40 MLOAD DUP1 SWAP2 SUB SWAP1 RETURN JUMPDEST PUSH2 0x7C4 PUSH2 0x148A JUMP JUMPDEST PUSH1 0x40 MLOAD PUSH2 0x7D1 SWAP2 SWAP1 PUSH2 0x2C09 JUMP JUMPDEST PUSH1 0x40 MLOAD DUP1 SWAP2 SUB SWAP1 RETURN JUMPDEST PUSH2 0x7F4 PUSH1 0x4 DUP1 CALLDATASIZE SUB DUP2 ADD SWAP1 PUSH2 0x7EF SWAP2 SWAP1 PUSH2 0x3030 JUMP JUMPDEST PUSH2 0x1490 JUMP JUMPDEST PUSH1 0x40 MLOAD PUSH2 0x801 SWAP2 SWAP1 PUSH2 0x2C09 JUMP JUMPDEST PUSH1 0x40 MLOAD DUP1 SWAP2 SUB SWAP1 RETURN JUMPDEST PUSH2 0x824 PUSH1 0x4 DUP1 CALLDATASIZE SUB DUP2 ADD SWAP1 PUSH2 0x81F SWAP2 SWAP1 PUSH2 0x3080 JUMP JUMPDEST PUSH2 0x1552 JUMP JUMPDEST PUSH1 0x40 MLOAD PUSH2 0x832 SWAP3 SWAP2 SWAP1 PUSH2 0x2E14 JUMP JUMPDEST PUSH1 0x40 MLOAD DUP1 SWAP2 SUB SWAP1 RETURN JUMPDEST PUSH2 0x855 PUSH1 0x4 DUP1 CALLDATASIZE SUB DUP2 ADD SWAP1 PUSH2 0x850 SWAP2 SWAP1 PUSH2 0x2CE0 JUMP JUMPDEST PUSH2 0x183B JUMP JUMPDEST STOP JUMPDEST PUSH2 0x871 PUSH1 0x4 DUP1 CALLDATASIZE SUB DUP2 ADD SWAP1 PUSH2 0x86C SWAP2 SWAP1 PUSH2 0x2E3B JUMP JUMPDEST PUSH2 0x1909 JUMP JUMPDEST PUSH1 0x40 MLOAD PUSH2 0x87E SWAP2 SWAP1 PUSH2 0x2C09 JUMP JUMPDEST PUSH1 0x40 MLOAD DUP1 SWAP2 SUB SWAP1 RETURN JUMPDEST PUSH2 0x8A1 PUSH1 0x4 DUP1 CALLDATASIZE SUB DUP2 ADD SWAP1 PUSH2 0x89C SWAP2 SWAP1 PUSH2 0x2CE0 JUMP JUMPDEST PUSH2 0x1932 JUMP JUMPDEST PUSH1 0x40 MLOAD PUSH2 0x8AE SWAP2 SWAP1 PUSH2 0x2C09 JUMP JUMPDEST PUSH1 0x40 MLOAD DUP1 SWAP2 SUB SWAP1 RETURN JUMPDEST PUSH2 0x8D1 PUSH1 0x4 DUP1 CALLDATASIZE SUB DUP2 ADD SWAP1 PUSH2 0x8CC SWAP2 SWAP1 PUSH2 0x2E3B JUMP JUMPDEST PUSH2 0x1944 JUMP JUMPDEST PUSH1 0x40 MLOAD PUSH2 0x8DE SWAP2 SWAP1 PUSH2 0x2C09 JUMP JUMPDEST PUSH1 0x40 MLOAD DUP1 SWAP2 SUB SWAP1 RETURN JUMPDEST PUSH2 0x901 PUSH1 0x4 DUP1 CALLDATASIZE SUB DUP2 ADD SWAP1 PUSH2 0x8FC SWAP2 SWAP1 PUSH2 0x2E3B JUMP JUMPDEST PUSH2 0x195D JUMP JUMPDEST PUSH1 0x40 MLOAD PUSH2 0x90E SWAP2 SWAP1 PUSH2 0x2C09 JUMP JUMPDEST PUSH1 0x40 MLOAD DUP1 SWAP2 SUB SWAP1 RETURN JUMPDEST PUSH2 0x931 PUSH1 0x4 DUP1 CALLDATASIZE SUB DUP2 ADD SWAP1 PUSH2 0x92C SWAP2 SWAP1 PUSH2 0x30D0 JUMP JUMPDEST PUSH2 0x196E JUMP JUMPDEST PUSH1 0x40 MLOAD PUSH2 0x93E SWAP2 SWAP1 PUSH2 0x2C09 JUMP JUMPDEST PUSH1 0x40 MLOAD DUP1 SWAP2 SUB SWAP1 RETURN JUMPDEST PUSH2 0x961 PUSH1 0x4 DUP1 CALLDATASIZE SUB DUP2 ADD SWAP1 PUSH2 0x95C SWAP2 SWAP1 PUSH2 0x2CE0 JUMP JUMPDEST PUSH2 0x19F0 JUMP JUMPDEST PUSH1 0x40 MLOAD PUSH2 0x96E SWAP2 SWAP1 PUSH2 0x2C09 JUMP JUMPDEST PUSH1 0x40 MLOAD DUP1 SWAP2 SUB SWAP1 RETURN JUMPDEST PUSH2 0x991 PUSH1 0x4 DUP1 CALLDATASIZE SUB DUP2 ADD SWAP1 PUSH2 0x98C SWAP2 SWAP1 PUSH2 0x2E3B JUMP JUMPDEST PUSH2 0x1A02 JUMP JUMPDEST STOP JUMPDEST PUSH2 0x99B PUSH2 0x1A86 JUMP JUMPDEST PUSH1 0x40 MLOAD PUSH2 0x9A8 SWAP2 SWAP1 PUSH2 0x3169 JUMP JUMPDEST PUSH1 0x40 MLOAD DUP1 SWAP2 SUB SWAP1 RETURN JUMPDEST PUSH2 0x9CB PUSH1 0x4 DUP1 CALLDATASIZE SUB DUP2 ADD SWAP1 PUSH2 0x9C6 SWAP2 SWAP1 PUSH2 0x31AC JUMP JUMPDEST PUSH2 0x1AAB JUMP JUMPDEST STOP JUMPDEST PUSH0 PUSH2 0x9D6 PUSH2 0xBF8 JUMP JUMPDEST PUSH20 0xFFFFFFFFFFFFFFFFFFFFFFFFFFFFFFFFFFFFFFFF AND PUSH4 0x70A08231 ADDRESS PUSH1 0x40 MLOAD DUP3 PUSH4 0xFFFFFFFF AND PUSH1 0xE0 SHL DUP2 MSTORE PUSH1 0x4 ADD PUSH2 0xA0E SWAP2 SWAP1 PUSH2 0x2EF9 JUMP JUMPDEST PUSH1 0x20 PUSH1 0x40 MLOAD DUP1 DUP4 SUB DUP2 DUP7 GAS STATICCALL ISZERO DUP1 ISZERO PUSH2 0xA29 JUMPI RETURNDATASIZE PUSH0 PUSH0 RETURNDATACOPY RETURNDATASIZE PUSH0 REVERT JUMPDEST POP POP POP POP PUSH1 0x40 MLOAD RETURNDATASIZE PUSH1 0x1F NOT PUSH1 0x1F DUP3 ADD AND DUP3 ADD DUP1 PUSH1 0x40 MSTORE POP DUP2 ADD SWAP1 PUSH2 0xA4D SWAP2 SWAP1 PUSH2 0x31FE JUMP JUMPDEST SWAP1 POP SWAP1 JUMP JUMPDEST PUSH1 0x60 PUSH1 0x3 DUP1 SLOAD PUSH2 0xA61 SWAP1 PUSH2 0x3256 JUMP JUMPDEST DUP1 PUSH1 0x1F ADD PUSH1 0x20 DUP1 SWAP2 DIV MUL PUSH1 0x20 ADD PUSH1 0x40 MLOAD SWAP1 DUP2 ADD PUSH1 0x40 MSTORE DUP1 SWAP3 SWAP2 SWAP1 DUP2 DUP2 MSTORE PUSH1 0x20 ADD DUP3 DUP1 SLOAD PUSH2 0xA8D SWAP1 PUSH2 0x3256 JUMP JUMPDEST DUP1 ISZERO PUSH2 0xAD8 JUMPI DUP1 PUSH1 0x1F LT PUSH2 0xAAF JUMPI PUSH2 0x100 DUP1 DUP4 SLOAD DIV MUL DUP4 MSTORE SWAP2 PUSH1 0x20 ADD SWAP2 PUSH2 0xAD8 JUMP JUMPDEST DUP3 ADD SWAP2 SWAP1 PUSH0 MSTORE PUSH1 0x20 PUSH0 KECCAK256 SWAP1 JUMPDEST DUP2 SLOAD DUP2 MSTORE SWAP1 PUSH1 0x1 ADD SWAP1 PUSH1 0x20 ADD DUP1 DUP4 GT PUSH2 0xABB JUMPI DUP3 SWAP1 SUB PUSH1 0x1F AND DUP3 ADD SWAP2 JUMPDEST POP POP POP POP POP SWAP1 POP SWAP1 JUMP JUMPDEST PUSH0 PUSH2 0xAED DUP3 PUSH0 PUSH2 0x1B5F JUMP JUMPDEST SWAP1 POP SWAP2 SWAP1 POP JUMP JUMPDEST PUSH0 PUSH0 PUSH2 0xAFE PUSH2 0x1BB7 JUMP JUMPDEST SWAP1 POP PUSH2 0xB0B DUP2 DUP6 DUP6 PUSH2 0x1BBE JUMP JUMPDEST PUSH1 0x1 SWAP2 POP POP SWAP3 SWAP2 POP POP JUMP JUMPDEST PUSH0 PUSH2 0xB22 DUP3 PUSH1 0x1 PUSH2 0x1BD0 JUMP JUMPDEST SWAP1 POP SWAP2 SWAP1 POP JUMP JUMPDEST PUSH0 PUSH1 0x2 SLOAD SWAP1 POP SWAP1 JUMP JUMPDEST PUSH0 PUSH0 PUSH0 PUSH2 0xB3F DUP6 DUP6 PUSH2 0xC1F JUMP JUMPDEST SWAP1 POP PUSH0 DUP2 SUB PUSH2 0xB54 JUMPI PUSH0 PUSH0 SWAP3 POP SWAP3 POP POP PUSH2 0xB75 JUMP JUMPDEST PUSH2 0xB63 DUP2 PUSH1 0x9 SLOAD PUSH2 0x2710 PUSH2 0x1C28 JUMP JUMPDEST SWAP3 POP DUP3 DUP2 PUSH2 0xB71 SWAP2 SWAP1 PUSH2 0x32B3 JUMP JUMPDEST SWAP2 POP POP JUMPDEST SWAP3 POP SWAP3 SWAP1 POP JUMP JUMPDEST PUSH1 0xC PUSH1 0x20 MSTORE DUP1 PUSH0 MSTORE PUSH1 0x40 PUSH0 KECCAK256 PUSH0 SWAP2 POP SWAP1 POP SLOAD DUP2 JUMP JUMPDEST PUSH0 PUSH0 PUSH2 0xB9B PUSH2 0x1BB7 JUMP JUMPDEST SWAP1 POP PUSH2 0xBA8 DUP6 DUP3 DUP6 PUSH2 0x1D07 JUMP JUMPDEST PUSH2 0xBB3 DUP6 DUP6 DUP6 PUSH2 0x1D9A JUMP JUMPDEST PUSH1 0x1 SWAP2 POP POP SWAP4 SWAP3 POP POP POP JUMP JUMPDEST PUSH0 PUSH2 0xBC8 PUSH2 0x1E8A JUMP JUMPDEST PUSH32 0x0 PUSH2 0xBF3 SWAP2 SWAP1 PUSH2 0x32E6 JUMP JUMPDEST SWAP1 POP SWAP1 JUMP JUMPDEST PUSH0 PUSH32 0x0 SWAP1 POP SWAP1 JUMP JUMPDEST PUSH0 PUSH0 DUP4 EQ DUP1 PUSH2 0xC2D JUMPI POP PUSH0 DUP3 EQ JUMPDEST DUP1 PUSH2 0xC39 JUMPI POP PUSH0 PUSH1 0x8 SLOAD EQ JUMPDEST ISZERO PUSH2 0xC46 JUMPI PUSH0 SWAP1 POP PUSH2 0xC72 JUMP JUMPDEST PUSH2 0xC6F DUP4 DUP4 PUSH1 0x8 SLOAD PUSH2 0xC58 SWAP2 SWAP1 PUSH2 0x331A JUMP JUMPDEST PUSH4 0x1E13380 PUSH2 0x2710 PUSH2 0xC6A SWAP2 SWAP1 PUSH2 0x331A JUMP JUMPDEST PUSH2 0x1C28 JUMP JUMPDEST SWAP1 POP JUMPDEST SWAP3 SWAP2 POP POP JUMP JUMPDEST PUSH0 PUSH32 0xFFFFFFFFFFFFFFFFFFFFFFFFFFFFFFFFFFFFFFFFFFFFFFFFFFFFFFFFFFFFFFFF SWAP1 POP SWAP2 SWAP1 POP JUMP JUMPDEST PUSH2 0xCA9 PUSH2 0x1E91 JUMP JUMPDEST DUP1 PUSH1 0xA PUSH0 PUSH2 0x100 EXP DUP2 SLOAD DUP2 PUSH20 0xFFFFFFFFFFFFFFFFFFFFFFFFFFFFFFFFFFFFFFFF MUL NOT AND SWAP1 DUP4 PUSH20 0xFFFFFFFFFFFFFFFFFFFFFFFFFFFFFFFFFFFFFFFF AND MUL OR SWAP1 SSTORE POP PUSH32 0xA5E02281DFCE566711932F7737866EDC0946B026FF48D61292F9E7DE0EF25C96 PUSH1 0x8 SLOAD PUSH1 0x9 SLOAD PUSH1 0x7 PUSH0 SWAP1 SLOAD SWAP1 PUSH2 0x100 EXP SWAP1 DIV PUSH8 0xFFFFFFFFFFFFFFFF AND PUSH1 0xA PUSH0 SWAP1 SLOAD SWAP1 PUSH2 0x100 EXP SWAP1 DIV PUSH20 0xFFFFFFFFFFFFFFFFFFFFFFFFFFFFFFFFFFFFFFFF AND PUSH1 0x40 MLOAD PUSH2 0xD58 SWAP5 SWAP4 SWAP3 SWAP2 SWAP1 PUSH2 0x335B JUMP JUMPDEST PUSH1 0x40 MLOAD DUP1 SWAP2 SUB SWAP1 LOG1 POP JUMP JUMPDEST PUSH0 PUSH2 0xD6E DUP3 PUSH0 PUSH2 0x1B5F JUMP JUMPDEST SWAP1 POP SWAP2 SWAP1 POP JUMP JUMPDEST PUSH1 0xB PUSH1 0x14 SWAP1 SLOAD SWAP1 PUSH2 0x100 EXP SWAP1 DIV PUSH1 0xFF AND DUP2 JUMP JUMPDEST PUSH0 PUSH2 0xD91 PUSH2 0x1F18 JUMP JUMPDEST PUSH2 0xD9B DUP5 DUP5 PUSH2 0x1236 JUMP JUMPDEST SWAP1 POP PUSH2 0xDA7 DUP4 DUP4 PUSH2 0x1F3A JUMP JUMPDEST PUSH2 0xDAF PUSH2 0x20EA JUMP JUMPDEST SWAP4 SWAP3 POP POP POP JUMP JUMPDEST PUSH0 PUSH0 PUSH2 0xDC1 DUP4 PUSH2 0xC78 JUMP JUMPDEST SWAP1 POP DUP1 DUP5 GT ISZERO PUSH2 0xE0C JUMPI DUP3 DUP5 DUP3 PUSH1 0x40 MLOAD PUSH32 0x79012FB200000000000000000000000000000000000000000000000000000000 DUP2 MSTORE PUSH1 0x4 ADD PUSH2 0xE03 SWAP4 SWAP3 SWAP2 SWAP1 PUSH2 0x339E JUMP JUMPDEST PUSH1 0x40 MLOAD DUP1 SWAP2 SUB SWAP1 REVERT JUMPDEST PUSH0 PUSH2 0xE16 DUP6 PUSH2 0x19F0 JUMP JUMPDEST SWAP1 POP PUSH2 0xE2B PUSH2 0xE23 PUSH2 0x1BB7 JUMP JUMPDEST DUP6 DUP8 DUP5 PUSH2 0x2104 JUMP JUMPDEST DUP1 SWAP3 POP POP POP SWAP3 SWAP2 POP POP JUMP JUMPDEST PUSH0 PUSH0 PUSH0 DUP4 PUSH20 0xFFFFFFFFFFFFFFFFFFFFFFFFFFFFFFFFFFFFFFFF AND PUSH20 0xFFFFFFFFFFFFFFFFFFFFFFFFFFFFFFFFFFFFFFFF AND DUP2 MSTORE PUSH1 0x20 ADD SWAP1 DUP2 MSTORE PUSH1 0x20 ADD PUSH0 KECCAK256 SLOAD SWAP1 POP SWAP2 SWAP1 POP JUMP JUMPDEST PUSH2 0xE83 PUSH2 0x1E91 JUMP JUMPDEST PUSH2 0xE8C PUSH0 PUSH2 0x218E JUMP JUMPDEST JUMP JUMPDEST PUSH2 0xE96 PUSH2 0x1E91 JUMP JUMPDEST DUP1 PUSH1 0x7 PUSH0 PUSH2 0x100 EXP DUP2 SLOAD DUP2 PUSH8 0xFFFFFFFFFFFFFFFF MUL NOT AND SWAP1 DUP4 PUSH8 0xFFFFFFFFFFFFFFFF AND MUL OR SWAP1 SSTORE POP PUSH32 0xA5E02281DFCE566711932F7737866EDC0946B026FF48D61292F9E7DE0EF25C96 PUSH1 0x8 SLOAD PUSH1 0x9 SLOAD PUSH1 0x7 PUSH0 SWAP1 SLOAD SWAP1 PUSH2 0x100 EXP SWAP1 DIV PUSH8 0xFFFFFFFFFFFFFFFF AND PUSH1 0xA PUSH0 SWAP1 SLOAD SWAP1 PUSH2 0x100 EXP SWAP1 DIV PUSH20 0xFFFFFFFFFFFFFFFFFFFFFFFFFFFFFFFFFFFFFFFF AND PUSH1 0x40 MLOAD PUSH2 0xF2D SWAP5 SWAP4 SWAP3 SWAP2 SWAP1 PUSH2 0x335B JUMP JUMPDEST PUSH1 0x40 MLOAD DUP1 SWAP2 SUB SWAP1 LOG1 POP JUMP JUMPDEST PUSH0 DUP2 SWAP1 POP PUSH0 PUSH1 0x7 PUSH0 SWAP1 SLOAD SWAP1 PUSH2 0x100 EXP SWAP1 DIV PUSH8 0xFFFFFFFFFFFFFFFF AND PUSH8 0xFFFFFFFFFFFFFFFF AND GT DUP1 ISZERO PUSH2 0xF92 JUMPI POP PUSH1 0x7 PUSH0 SWAP1 SLOAD SWAP1 PUSH2 0x100 EXP SWAP1 DIV PUSH8 0xFFFFFFFFFFFFFFFF AND PUSH8 0xFFFFFFFFFFFFFFFF AND DUP3 PUSH8 0xFFFFFFFFFFFFFFFF AND GT JUMPDEST ISZERO PUSH2 0xFB0 JUMPI PUSH1 0x7 PUSH0 SWAP1 SLOAD SWAP1 PUSH2 0x100 EXP SWAP1 DIV PUSH8 0xFFFFFFFFFFFFFFFF AND SWAP1 POP JUMPDEST PUSH0 TIMESTAMP PUSH8 0xFFFFFFFFFFFFFFFF AND PUSH1 0x6 PUSH0 CALLER PUSH20 0xFFFFFFFFFFFFFFFFFFFFFFFFFFFFFFFFFFFFFFFF AND PUSH20 0xFFFFFFFFFFFFFFFFFFFFFFFFFFFFFFFFFFFFFFFF AND DUP2 MSTORE PUSH1 0x20 ADD SWAP1 DUP2 MSTORE PUSH1 0x20 ADD PUSH0 KECCAK256 PUSH0 SWAP1 SLOAD SWAP1 PUSH2 0x100 EXP SWAP1 DIV PUSH8 0xFFFFFFFFFFFFFFFF AND PUSH8 0xFFFFFFFFFFFFFFFF AND GT PUSH2 0x1022 JUMPI TIMESTAMP PUSH2 0x1074 JUMP JUMPDEST PUSH1 0x6 PUSH0 CALLER PUSH20 0xFFFFFFFFFFFFFFFFFFFFFFFFFFFFFFFFFFFFFFFF AND PUSH20 0xFFFFFFFFFFFFFFFFFFFFFFFFFFFFFFFFFFFFFFFF AND DUP2 MSTORE PUSH1 0x20 ADD SWAP1 DUP2 MSTORE PUSH1 0x20 ADD PUSH0 KECCAK256 PUSH0 SWAP1 SLOAD SWAP1 PUSH2 0x100 EXP SWAP1 DIV PUSH8 0xFFFFFFFFFFFFFFFF AND JUMPDEST SWAP1 POP PUSH0 DUP3 DUP3 PUSH2 0x1083 SWAP2 SWAP1 PUSH2 0x33D3 JUMP JUMPDEST SWAP1 POP DUP1 PUSH1 0x6 PUSH0 CALLER PUSH20 0xFFFFFFFFFFFFFFFFFFFFFFFFFFFFFFFFFFFFFFFF AND PUSH20 0xFFFFFFFFFFFFFFFFFFFFFFFFFFFFFFFFFFFFFFFF AND DUP2 MSTORE PUSH1 0x20 ADD SWAP1 DUP2 MSTORE PUSH1 0x20 ADD PUSH0 KECCAK256 PUSH0 PUSH2 0x100 EXP DUP2 SLOAD DUP2 PUSH8 0xFFFFFFFFFFFFFFFF MUL NOT AND SWAP1 DUP4 PUSH8 0xFFFFFFFFFFFFFFFF AND MUL OR SWAP1 SSTORE POP CALLER PUSH20 0xFFFFFFFFFFFFFFFFFFFFFFFFFFFFFFFFFFFFFFFF AND PUSH32 0x85D5B26B5640F0BE78B6BEB0FC830C18A67F758AD151EB6EBDD4D2D66EE34CF5 DUP3 PUSH1 0x40 MLOAD PUSH2 0x112E SWAP2 SWAP1 PUSH2 0x3017 JUMP JUMPDEST PUSH1 0x40 MLOAD DUP1 SWAP2 SUB SWAP1 LOG2 POP POP POP POP JUMP JUMPDEST PUSH1 0x6 PUSH1 0x20 MSTORE DUP1 PUSH0 MSTORE PUSH1 0x40 PUSH0 KECCAK256 PUSH0 SWAP2 POP SLOAD SWAP1 PUSH2 0x100 EXP SWAP1 DIV PUSH8 0xFFFFFFFFFFFFFFFF AND DUP2 JUMP JUMPDEST PUSH0 PUSH1 0x5 PUSH0 SWAP1 SLOAD SWAP1 PUSH2 0x100 EXP SWAP1 DIV PUSH20 0xFFFFFFFFFFFFFFFFFFFFFFFFFFFFFFFFFFFFFFFF AND SWAP1 POP SWAP1 JUMP JUMPDEST PUSH2 0x1190 PUSH2 0x1E91 JUMP JUMPDEST DUP1 PUSH1 0x8 DUP2 SWAP1 SSTORE POP PUSH32 0xA5E02281DFCE566711932F7737866EDC0946B026FF48D61292F9E7DE0EF25C96 PUSH1 0x8 SLOAD PUSH1 0x9 SLOAD PUSH1 0x7 PUSH0 SWAP1 SLOAD SWAP1 PUSH2 0x100 EXP SWAP1 DIV PUSH8 0xFFFFFFFFFFFFFFFF AND PUSH1 0xA PUSH0 SWAP1 SLOAD SWAP1 PUSH2 0x100 EXP SWAP1 DIV PUSH20 0xFFFFFFFFFFFFFFFFFFFFFFFFFFFFFFFFFFFFFFFF AND PUSH1 0x40 MLOAD PUSH2 0x1206 SWAP5 SWAP4 SWAP3 SWAP2 SWAP1 PUSH2 0x335B JUMP JUMPDEST PUSH1 0x40 MLOAD DUP1 SWAP2 SUB SWAP1 LOG1 POP JUMP JUMPDEST PUSH1 0xA PUSH0 SWAP1 SLOAD SWAP1 PUSH2 0x100 EXP SWAP1 DIV PUSH20 0xFFFFFFFFFFFFFFFFFFFFFFFFFFFFFFFFFFFFFFFF AND DUP2 JUMP JUMPDEST PUSH0 PUSH0 PUSH2 0x1241 DUP4 PUSH2 0x1909 JUMP JUMPDEST SWAP1 POP DUP1 DUP5 GT ISZERO PUSH2 0x128C JUMPI DUP3 DUP5 DUP3 PUSH1 0x40 MLOAD PUSH32 0x284FF66700000000000000000000000000000000000000000000000000000000 DUP2 MSTORE PUSH1 0x4 ADD PUSH2 0x1283 SWAP4 SWAP3 SWAP2 SWAP1 PUSH2 0x339E JUMP JUMPDEST PUSH1 0x40 MLOAD DUP1 SWAP2 SUB SWAP1 REVERT JUMPDEST PUSH0 PUSH2 0x1296 DUP6 PUSH2 0x13B5 JUMP JUMPDEST SWAP1 POP PUSH2 0x12AB PUSH2 0x12A3 PUSH2 0x1BB7 JUMP JUMPDEST DUP6 DUP4 DUP9 PUSH2 0x2104 JUMP JUMPDEST DUP1 SWAP3 POP POP POP SWAP3 SWAP2 POP POP JUMP JUMPDEST PUSH1 0x60 PUSH1 0x4 DUP1 SLOAD PUSH2 0x12C5 SWAP1 PUSH2 0x3256 JUMP JUMPDEST DUP1 PUSH1 0x1F ADD PUSH1 0x20 DUP1 SWAP2 DIV MUL PUSH1 0x20 ADD PUSH1 0x40 MLOAD SWAP1 DUP2 ADD PUSH1 0x40 MSTORE DUP1 SWAP3 SWAP2 SWAP1 DUP2 DUP2 MSTORE PUSH1 0x20 ADD DUP3 DUP1 SLOAD PUSH2 0x12F1 SWAP1 PUSH2 0x3256 JUMP JUMPDEST DUP1 ISZERO PUSH2 0x133C JUMPI DUP1 PUSH1 0x1F LT PUSH2 0x1313 JUMPI PUSH2 0x100 DUP1 DUP4 SLOAD DIV MUL DUP4 MSTORE SWAP2 PUSH1 0x20 ADD SWAP2 PUSH2 0x133C JUMP JUMPDEST DUP3 ADD SWAP2 SWAP1 PUSH0 MSTORE PUSH1 0x20 PUSH0 KECCAK256 SWAP1 JUMPDEST DUP2 SLOAD DUP2 MSTORE SWAP1 PUSH1 0x1 ADD SWAP1 PUSH1 0x20 ADD DUP1 DUP4 GT PUSH2 0x131F JUMPI DUP3 SWAP1 SUB PUSH1 0x1F AND DUP3 ADD SWAP2 JUMPDEST POP POP POP POP POP SWAP1 POP SWAP1 JUMP JUMPDEST PUSH0 PUSH2 0x134F PUSH2 0x1F18 JUMP JUMPDEST PUSH2 0x1359 DUP5 DUP5 PUSH2 0xDB6 JUMP JUMPDEST SWAP1 POP PUSH2 0x1365 DUP4 DUP4 PUSH2 0x1F3A JUMP JUMPDEST PUSH2 0x136D PUSH2 0x20EA JUMP JUMPDEST SWAP4 SWAP3 POP POP POP JUMP JUMPDEST PUSH1 0x8 SLOAD DUP2 JUMP JUMPDEST PUSH1 0x7 PUSH0 SWAP1 SLOAD SWAP1 PUSH2 0x100 EXP SWAP1 DIV PUSH8 0xFFFFFFFFFFFFFFFF AND DUP2 JUMP JUMPDEST PUSH0 PUSH0 PUSH2 0x139D PUSH2 0x1BB7 JUMP JUMPDEST SWAP1 POP PUSH2 0x13AA DUP2 DUP6 DUP6 PUSH2 0x1D9A JUMP JUMPDEST PUSH1 0x1 SWAP2 POP POP SWAP3 SWAP2 POP POP JUMP JUMPDEST PUSH0 PUSH2 0x13C1 DUP3 PUSH1 0x1 PUSH2 0x1B5F JUMP JUMPDEST SWAP1 POP SWAP2 SWAP1 POP JUMP JUMPDEST PUSH0 PUSH2 0x13D1 PUSH2 0x1F18 JUMP JUMPDEST PUSH1 0x6 PUSH0 DUP4 PUSH20 0xFFFFFFFFFFFFFFFFFFFFFFFFFFFFFFFFFFFFFFFF AND PUSH20 0xFFFFFFFFFFFFFFFFFFFFFFFFFFFFFFFFFFFFFFFF AND DUP2 MSTORE PUSH1 0x20 ADD SWAP1 DUP2 MSTORE PUSH1 0x20 ADD PUSH0 KECCAK256 PUSH0 SWAP1 SLOAD SWAP1 PUSH2 0x100 EXP SWAP1 DIV PUSH8 0xFFFFFFFFFFFFFFFF AND PUSH8 0xFFFFFFFFFFFFFFFF AND TIMESTAMP LT ISZERO PUSH2 0x146E JUMPI PUSH1 0x40 MLOAD PUSH32 0x8C379A000000000000000000000000000000000000000000000000000000000 DUP2 MSTORE PUSH1 0x4 ADD PUSH2 0x1465 SWAP1 PUSH2 0x3458 JUMP JUMPDEST PUSH1 0x40 MLOAD DUP1 SWAP2 SUB SWAP1 REVERT JUMPDEST PUSH2 0x1479 DUP5 DUP5 DUP5 PUSH2 0x2251 JUMP JUMPDEST SWAP1 POP PUSH2 0x1483 PUSH2 0x20EA JUMP JUMPDEST SWAP4 SWAP3 POP POP POP JUMP JUMPDEST PUSH1 0x9 SLOAD DUP2 JUMP JUMPDEST PUSH0 PUSH2 0x1499 PUSH2 0x1F18 JUMP JUMPDEST PUSH1 0x6 PUSH0 DUP4 PUSH20 0xFFFFFFFFFFFFFFFFFFFFFFFFFFFFFFFFFFFFFFFF AND PUSH20 0xFFFFFFFFFFFFFFFFFFFFFFFFFFFFFFFFFFFFFFFF AND DUP2 MSTORE PUSH1 0x20 ADD SWAP1 DUP2 MSTORE PUSH1 0x20 ADD PUSH0 KECCAK256 PUSH0 SWAP1 SLOAD SWAP1 PUSH2 0x100 EXP SWAP1 DIV PUSH8 0xFFFFFFFFFFFFFFFF AND PUSH8 0xFFFFFFFFFFFFFFFF AND TIMESTAMP LT ISZERO PUSH2 0x1536 JUMPI PUSH1 0x40 MLOAD PUSH32 0x8C379A000000000000000000000000000000000000000000000000000000000 DUP2 MSTORE PUSH1 0x4 ADD PUSH2 0x152D SWAP1 PUSH2 0x3458 JUMP JUMPDEST PUSH1 0x40 MLOAD DUP1 SWAP2 SUB SWAP1 REVERT JUMPDEST PUSH2 0x1541 DUP5 DUP5 DUP5 PUSH2 0x22D3 JUMP JUMPDEST SWAP1 POP PUSH2 0x154B PUSH2 0x20EA JUMP JUMPDEST SWAP4 SWAP3 POP POP POP JUMP JUMPDEST PUSH0 PUSH0 PUSH2 0x155C PUSH2 0x1F18 JUMP JUMPDEST PUSH2 0x1566 DUP5 DUP5 PUSH2 0xB32 JUMP JUMPDEST DUP1 SWAP3 POP DUP2 SWAP4 POP POP POP PUSH0 DUP2 GT ISZERO PUSH2 0x15CA JUMPI DUP1 PUSH1 0xC PUSH0 DUP8 PUSH20 0xFFFFFFFFFFFFFFFFFFFFFFFFFFFFFFFFFFFFFFFF AND PUSH20 0xFFFFFFFFFFFFFFFFFFFFFFFFFFFFFFFFFFFFFFFF AND DUP2 MSTORE PUSH1 0x20 ADD SWAP1 DUP2 MSTORE PUSH1 0x20 ADD PUSH0 KECCAK256 PUSH0 DUP3 DUP3 SLOAD PUSH2 0x15C2 SWAP2 SWAP1 PUSH2 0x3476 JUMP JUMPDEST SWAP3 POP POP DUP2 SWAP1 SSTORE POP JUMPDEST PUSH1 0xB PUSH1 0x14 SWAP1 SLOAD SWAP1 PUSH2 0x100 EXP SWAP1 DIV PUSH1 0xFF AND DUP1 ISZERO PUSH2 0x1633 JUMPI POP PUSH0 PUSH20 0xFFFFFFFFFFFFFFFFFFFFFFFFFFFFFFFFFFFFFFFF AND PUSH1 0xB PUSH0 SWAP1 SLOAD SWAP1 PUSH2 0x100 EXP SWAP1 DIV PUSH20 0xFFFFFFFFFFFFFFFFFFFFFFFFFFFFFFFFFFFFFFFF AND PUSH20 0xFFFFFFFFFFFFFFFFFFFFFFFFFFFFFFFFFFFFFFFF AND EQ ISZERO JUMPDEST ISZERO PUSH2 0x17D7 JUMPI PUSH0 DUP3 GT DUP1 ISZERO PUSH2 0x1694 JUMPI POP PUSH0 PUSH20 0xFFFFFFFFFFFFFFFFFFFFFFFFFFFFFFFFFFFFFFFF AND PUSH1 0xA PUSH0 SWAP1 SLOAD SWAP1 PUSH2 0x100 EXP SWAP1 DIV PUSH20 0xFFFFFFFFFFFFFFFFFFFFFFFFFFFFFFFFFFFFFFFF AND PUSH20 0xFFFFFFFFFFFFFFFFFFFFFFFFFFFFFFFFFFFFFFFF AND EQ ISZERO JUMPDEST ISZERO PUSH2 0x1744 JUMPI PUSH1 0xB PUSH0 SWAP1 SLOAD SWAP1 PUSH2 0x100 EXP SWAP1 DIV PUSH20 0xFFFFFFFFFFFFFFFFFFFFFFFFFFFFFFFFFFFFFFFF AND PUSH20 0xFFFFFFFFFFFFFFFFFFFFFFFFFFFFFFFFFFFFFFFF AND PUSH4 0x40C10F19 PUSH1 0xA PUSH0 SWAP1 SLOAD SWAP1 PUSH2 0x100 EXP SWAP1 DIV PUSH20 0xFFFFFFFFFFFFFFFFFFFFFFFFFFFFFFFFFFFFFFFF AND DUP5 PUSH1 0x40 MLOAD DUP4 PUSH4 0xFFFFFFFF AND PUSH1 0xE0 SHL DUP2 MSTORE PUSH1 0x4 ADD PUSH2 0x1716 SWAP3 SWAP2 SWAP1 PUSH2 0x34A9 JUMP JUMPDEST PUSH0 PUSH1 0x40 MLOAD DUP1 DUP4 SUB DUP2 PUSH0 DUP8 DUP1 EXTCODESIZE ISZERO DUP1 ISZERO PUSH2 0x172D JUMPI PUSH0 PUSH0 REVERT JUMPDEST POP GAS CALL ISZERO DUP1 ISZERO PUSH2 0x173F JUMPI RETURNDATASIZE PUSH0 PUSH0 RETURNDATACOPY RETURNDATASIZE PUSH0 REVERT JUMPDEST POP POP POP POP JUMPDEST PUSH0 DUP2 GT ISZERO PUSH2 0x17D6 JUMPI PUSH1 0xB PUSH0 SWAP1 SLOAD SWAP1 PUSH2 0x100 EXP SWAP1 DIV PUSH20 0xFFFFFFFFFFFFFFFFFFFFFFFFFFFFFFFFFFFFFFFF AND PUSH20 0xFFFFFFFFFFFFFFFFFFFFFFFFFFFFFFFFFFFFFFFF AND PUSH4 0x40C10F19 DUP7 DUP4 PUSH1 0x40 MLOAD DUP4 PUSH4 0xFFFFFFFF AND PUSH1 0xE0 SHL DUP2 MSTORE PUSH1 0x4 ADD PUSH2 0x17A8 SWAP3 SWAP2 SWAP1 PUSH2 0x34A9 JUMP JUMPDEST PUSH0 PUSH1 0x40 MLOAD DUP1 DUP4 SUB DUP2 PUSH0 DUP8 DUP1 EXTCODESIZE ISZERO DUP1 ISZERO PUSH2 0x17BF JUMPI PUSH0 PUSH0 REVERT JUMPDEST POP GAS CALL ISZERO DUP1 ISZERO PUSH2 0x17D1 JUMPI RETURNDATASIZE PUSH0 PUSH0 RETURNDATACOPY RETURNDATASIZE PUSH0 REVERT JUMPDEST POP POP POP POP JUMPDEST JUMPDEST DUP5 PUSH20 0xFFFFFFFFFFFFFFFFFFFFFFFFFFFFFFFFFFFFFFFF AND PUSH32 0x3A7B3BE7AD7BCCF25C9F5D4EBAB45BA909860D0E0BC44D7DAA4E29BDE483F8B0 DUP6 DUP6 DUP6 DUP6 PUSH1 0x40 MLOAD PUSH2 0x1823 SWAP5 SWAP4 SWAP3 SWAP2 SWAP1 PUSH2 0x34D0 JUMP JUMPDEST PUSH1 0x40 MLOAD DUP1 SWAP2 SUB SWAP1 LOG2 PUSH2 0x1833 PUSH2 0x20EA JUMP JUMPDEST SWAP4 POP SWAP4 SWAP2 POP POP JUMP JUMPDEST PUSH2 0x1843 PUSH2 0x1E91 JUMP JUMPDEST PUSH2 0x2710 DUP2 GT ISZERO PUSH2 0x1888 JUMPI PUSH1 0x40 MLOAD PUSH32 0x8C379A000000000000000000000000000000000000000000000000000000000 DUP2 MSTORE PUSH1 0x4 ADD PUSH2 0x187F SWAP1 PUSH2 0x355D JUMP JUMPDEST PUSH1 0x40 MLOAD DUP1 SWAP2 SUB SWAP1 REVERT JUMPDEST DUP1 PUSH1 0x9 DUP2 SWAP1 SSTORE POP PUSH32 0xA5E02281DFCE566711932F7737866EDC0946B026FF48D61292F9E7DE0EF25C96 PUSH1 0x8 SLOAD PUSH1 0x9 SLOAD PUSH1 0x7 PUSH0 SWAP1 SLOAD SWAP1 PUSH2 0x100 EXP SWAP1 DIV PUSH8 0xFFFFFFFFFFFFFFFF AND PUSH1 0xA PUSH0 SWAP1 SLOAD SWAP1 PUSH2 0x100 EXP SWAP1 DIV PUSH20 0xFFFFFFFFFFFFFFFFFFFFFFFFFFFFFFFFFFFFFFFF AND PUSH1 0x40 MLOAD PUSH2 0x18FE SWAP5 SWAP4 SWAP3 SWAP2 SWAP1 PUSH2 0x335B JUMP JUMPDEST PUSH1 0x40 MLOAD DUP1 SWAP2 SUB SWAP1 LOG1 POP JUMP JUMPDEST PUSH0 PUSH32 0xFFFFFFFFFFFFFFFFFFFFFFFFFFFFFFFFFFFFFFFFFFFFFFFFFFFFFFFFFFFFFFFF SWAP1 POP SWAP2 SWAP1 POP JUMP JUMPDEST PUSH0 PUSH2 0x193D DUP3 PUSH0 PUSH2 0x1BD0 JUMP JUMPDEST SWAP1 POP SWAP2 SWAP1 POP JUMP JUMPDEST PUSH0 PUSH2 0x1956 PUSH2 0x1951 DUP4 PUSH2 0x195D JUMP JUMPDEST PUSH2 0xD63 JUMP JUMPDEST SWAP1 POP SWAP2 SWAP1 POP JUMP JUMPDEST PUSH0 PUSH2 0x1967 DUP3 PUSH2 0xE36 JUMP JUMPDEST SWAP1 POP SWAP2 SWAP1 POP JUMP JUMPDEST PUSH0 PUSH1 0x1 PUSH0 DUP5 PUSH20 0xFFFFFFFFFFFFFFFFFFFFFFFFFFFFFFFFFFFFFFFF AND PUSH20 0xFFFFFFFFFFFFFFFFFFFFFFFFFFFFFFFFFFFFFFFF AND DUP2 MSTORE PUSH1 0x20 ADD SWAP1 DUP2 MSTORE PUSH1 0x20 ADD PUSH0 KECCAK256 PUSH0 DUP4 PUSH20 0xFFFFFFFFFFFFFFFFFFFFFFFFFFFFFFFFFFFFFFFF AND PUSH20 0xFFFFFFFFFFFFFFFFFFFFFFFFFFFFFFFFFFFFFFFF AND DUP2 MSTORE PUSH1 0x20 ADD SWAP1 DUP2 MSTORE PUSH1 0x20 ADD PUSH0 KECCAK256 SLOAD SWAP1 POP SWAP3 SWAP2 POP POP JUMP JUMPDEST PUSH0 PUSH2 0x19FB DUP3 PUSH0 PUSH2 0x1BD0 JUMP JUMPDEST SWAP1 POP SWAP2 SWAP1 POP JUMP JUMPDEST PUSH2 0x1A0A PUSH2 0x1E91 JUMP JUMPDEST PUSH0 PUSH20 0xFFFFFFFFFFFFFFFFFFFFFFFFFFFFFFFFFFFFFFFF AND DUP2 PUSH20 0xFFFFFFFFFFFFFFFFFFFFFFFFFFFFFFFFFFFFFFFF AND SUB PUSH2 0x1A7A JUMPI PUSH0 PUSH1 0x40 MLOAD PUSH32 0x1E4FBDF700000000000000000000000000000000000000000000000000000000 DUP2 MSTORE PUSH1 0x4 ADD PUSH2 0x1A71 SWAP2 SWAP1 PUSH2 0x2EF9 JUMP JUMPDEST PUSH1 0x40 MLOAD DUP1 SWAP2 SUB SWAP1 REVERT JUMPDEST PUSH2 0x1A83 DUP2 PUSH2 0x218E JUMP JUMPDEST POP JUMP JUMPDEST PUSH1 0xB PUSH0 SWAP1 SLOAD SWAP1 PUSH2 0x100 EXP SWAP1 DIV PUSH20 0xFFFFFFFFFFFFFFFFFFFFFFFFFFFFFFFFFFFFFFFF AND DUP2 JUMP JUMPDEST PUSH2 0x1AB3 PUSH2 0x1E91 JUMP JUMPDEST DUP2 PUSH1 0xB PUSH0 PUSH2 0x100 EXP DUP2 SLOAD DUP2 PUSH20 0xFFFFFFFFFFFFFFFFFFFFFFFFFFFFFFFFFFFFFFFF MUL NOT AND SWAP1 DUP4 PUSH20 0xFFFFFFFFFFFFFFFFFFFFFFFFFFFFFFFFFFFFFFFF AND MUL OR SWAP1 SSTORE POP DUP1 PUSH1 0xB PUSH1 0x14 PUSH2 0x100 EXP DUP2 SLOAD DUP2 PUSH1 0xFF MUL NOT AND SWAP1 DUP4 ISZERO ISZERO MUL OR SWAP1 SSTORE POP DUP2 PUSH20 0xFFFFFFFFFFFFFFFFFFFFFFFFFFFFFFFFFFFFFFFF AND PUSH32 0xC3C9A236DE60CBC8C1B10B6D54ACFF3F7503F6289221EC1795750A5F567A7D3F DUP3 PUSH1 0x40 MLOAD PUSH2 0x1B53 SWAP2 SWAP1 PUSH2 0x2DBD JUMP JUMPDEST PUSH1 0x40 MLOAD DUP1 SWAP2 SUB SWAP1 LOG2 POP POP JUMP JUMPDEST PUSH0 PUSH2 0x1BAF PUSH1 0x1 PUSH2 0x1B6D PUSH2 0x9CD JUMP JUMPDEST PUSH2 0x1B77 SWAP2 SWAP1 PUSH2 0x3476 JUMP JUMPDEST PUSH2 0x1B7F PUSH2 0x1E8A JUMP JUMPDEST PUSH1 0xA PUSH2 0x1B8B SWAP2 SWAP1 PUSH2 0x36AA JUMP JUMPDEST PUSH2 0x1B93 PUSH2 0xB29 JUMP JUMPDEST PUSH2 0x1B9D SWAP2 SWAP1 PUSH2 0x3476 JUMP JUMPDEST DUP5 DUP7 PUSH2 0x2355 SWAP1 SWAP4 SWAP3 SWAP2 SWAP1 PUSH4 0xFFFFFFFF AND JUMP JUMPDEST SWAP1 POP SWAP3 SWAP2 POP POP JUMP JUMPDEST PUSH0 CALLER SWAP1 POP SWAP1 JUMP JUMPDEST PUSH2 0x1BCB DUP4 DUP4 DUP4 PUSH1 0x1 PUSH2 0x23A2 JUMP JUMPDEST POP POP POP JUMP JUMPDEST PUSH0 PUSH2 0x1C20 PUSH2 0x1BDC PUSH2 0x1E8A JUMP JUMPDEST PUSH1 0xA PUSH2 0x1BE8 SWAP2 SWAP1 PUSH2 0x36AA JUMP JUMPDEST PUSH2 0x1BF0 PUSH2 0xB29 JUMP JUMPDEST PUSH2 0x1BFA SWAP2 SWAP1 PUSH2 0x3476 JUMP JUMPDEST PUSH1 0x1 PUSH2 0x1C04 PUSH2 0x9CD JUMP JUMPDEST PUSH2 0x1C0E SWAP2 SWAP1 PUSH2 0x3476 JUMP JUMPDEST DUP5 DUP7 PUSH2 0x2355 SWAP1 SWAP4 SWAP3 SWAP2 SWAP1 PUSH4 0xFFFFFFFF AND JUMP JUMPDEST SWAP1 POP SWAP3 SWAP2 POP POP JUMP JUMPDEST PUSH0 PUSH0 PUSH0 PUSH2 0x1C35 DUP7 DUP7 PUSH2 0x2571 JUMP JUMPDEST SWAP2 POP SWAP2 POP PUSH0 DUP3 SUB PUSH2 0x1C5A JUMPI DUP4 DUP2 DUP2 PUSH2 0x1C50 JUMPI PUSH2 0x1C4F PUSH2 0x36F4 JUMP JUMPDEST JUMPDEST DIV SWAP3 POP POP POP PUSH2 0x1D00 JUMP JUMPDEST DUP2 DUP5 GT PUSH2 0x1C79 JUMPI PUSH2 0x1C78 PUSH2 0x1C73 PUSH0 DUP7 EQ PUSH1 0x12 PUSH1 0x11 PUSH2 0x258E JUMP JUMPDEST PUSH2 0x25A7 JUMP JUMPDEST JUMPDEST PUSH0 DUP5 DUP7 DUP9 MULMOD SWAP1 POP DUP2 DUP2 GT DUP4 SUB SWAP3 POP DUP1 DUP3 SUB SWAP2 POP PUSH0 DUP6 PUSH0 SUB DUP7 AND SWAP1 POP DUP1 DUP7 DIV SWAP6 POP DUP1 DUP4 DIV SWAP3 POP PUSH1 0x1 DUP2 DUP3 PUSH0 SUB DIV ADD SWAP1 POP DUP1 DUP5 MUL DUP4 OR SWAP3 POP PUSH0 PUSH1 0x2 DUP8 PUSH1 0x3 MUL XOR SWAP1 POP DUP1 DUP8 MUL PUSH1 0x2 SUB DUP2 MUL SWAP1 POP DUP1 DUP8 MUL PUSH1 0x2 SUB DUP2 MUL SWAP1 POP DUP1 DUP8 MUL PUSH1 0x2 SUB DUP2 MUL SWAP1 POP DUP1 DUP8 MUL PUSH1 0x2 SUB DUP2 MUL SWAP1 POP DUP1 DUP8 MUL PUSH1 0x2 SUB DUP2 MUL SWAP1 POP DUP1 DUP8 MUL PUSH1 0x2 SUB DUP2 MUL SWAP1 POP DUP1 DUP5 MUL SWAP6 POP POP POP POP POP POP JUMPDEST SWAP4 SWAP3 POP POP POP JUMP JUMPDEST PUSH0 PUSH2 0x1D12 DUP5 DUP5 PUSH2 0x196E JUMP JUMPDEST SWAP1 POP PUSH32 0xFFFFFFFFFFFFFFFFFFFFFFFFFFFFFFFFFFFFFFFFFFFFFFFFFFFFFFFFFFFFFFFF DUP2 LT ISZERO PUSH2 0x1D94 JUMPI DUP2 DUP2 LT ISZERO PUSH2 0x1D85 JUMPI DUP3 DUP2 DUP4 PUSH1 0x40 MLOAD PUSH32 0xFB8F41B200000000000000000000000000000000000000000000000000000000 DUP2 MSTORE PUSH1 0x4 ADD PUSH2 0x1D7C SWAP4 SWAP3 SWAP2 SWAP1 PUSH2 0x339E JUMP JUMPDEST PUSH1 0x40 MLOAD DUP1 SWAP2 SUB SWAP1 REVERT JUMPDEST PUSH2 0x1D93 DUP5 DUP5 DUP5 DUP5 SUB PUSH0 PUSH2 0x23A2 JUMP JUMPDEST JUMPDEST POP POP POP POP JUMP JUMPDEST PUSH0 PUSH20 0xFFFFFFFFFFFFFFFFFFFFFFFFFFFFFFFFFFFFFFFF AND DUP4 PUSH20 0xFFFFFFFFFFFFFFFFFFFFFFFFFFFFFFFFFFFFFFFF AND SUB PUSH2 0x1E0A JUMPI PUSH0 PUSH1 0x40 MLOAD PUSH32 0x96C6FD1E00000000000000000000000000000000000000000000000000000000 DUP2 MSTORE PUSH1 0x4 ADD PUSH2 0x1E01 SWAP2 SWAP1 PUSH2 0x2EF9 JUMP JUMPDEST PUSH1 0x40 MLOAD DUP1 SWAP2 SUB SWAP1 REVERT JUMPDEST PUSH0 PUSH20 0xFFFFFFFFFFFFFFFFFFFFFFFFFFFFFFFFFFFFFFFF AND DUP3 PUSH20 0xFFFFFFFFFFFFFFFFFFFFFFFFFFFFFFFFFFFFFFFF AND SUB PUSH2 0x1E7A JUMPI PUSH0 PUSH1 0x40 MLOAD PUSH32 0xEC442F0500000000000000000000000000000000000000000000000000000000 DUP2 MSTORE PUSH1 0x4 ADD PUSH2 0x1E71 SWAP2 SWAP1 PUSH2 0x2EF9 JUMP JUMPDEST PUSH1 0x40 MLOAD DUP1 SWAP2 SUB SWAP1 REVERT JUMPDEST PUSH2 0x1E85 DUP4 DUP4 DUP4 PUSH2 0x25B8 JUMP JUMPDEST POP POP POP JUMP JUMPDEST PUSH0 PUSH0 SWAP1 POP SWAP1 JUMP JUMPDEST PUSH2 0x1E99 PUSH2 0x1BB7 JUMP JUMPDEST PUSH20 0xFFFFFFFFFFFFFFFFFFFFFFFFFFFFFFFFFFFFFFFF AND PUSH2 0x1EB7 PUSH2 0x1160 JUMP JUMPDEST PUSH20 0xFFFFFFFFFFFFFFFFFFFFFFFFFFFFFFFFFFFFFFFF AND EQ PUSH2 0x1F16 JUMPI PUSH2 0x1EDA PUSH2 0x1BB7 JUMP JUMPDEST PUSH1 0x40 MLOAD PUSH32 0x118CDAA700000000000000000000000000000000000000000000000000000000 DUP2 MSTORE PUSH1 0x4 ADD PUSH2 0x1F0D SWAP2 SWAP1 PUSH2 0x2EF9 JUMP JUMPDEST PUSH1 0x40 MLOAD DUP1 SWAP2 SUB SWAP1 REVERT JUMPDEST JUMP JUMPDEST PUSH2 0x1F20 PUSH2 0x27D1 JUMP JUMPDEST PUSH1 0x2 PUSH2 0x1F32 PUSH2 0x1F2D PUSH2 0x2812 JUMP JUMPDEST PUSH2 0x283B JUMP JUMPDEST PUSH0 ADD DUP2 SWAP1 SSTORE POP JUMP JUMPDEST PUSH0 DUP2 SWAP1 POP PUSH0 PUSH1 0x7 PUSH0 SWAP1 SLOAD SWAP1 PUSH2 0x100 EXP SWAP1 DIV PUSH8 0xFFFFFFFFFFFFFFFF AND PUSH8 0xFFFFFFFFFFFFFFFF AND GT DUP1 ISZERO PUSH2 0x1F94 JUMPI POP PUSH1 0x7 PUSH0 SWAP1 SLOAD SWAP1 PUSH2 0x100 EXP SWAP1 DIV PUSH8 0xFFFFFFFFFFFFFFFF AND PUSH8 0xFFFFFFFFFFFFFFFF AND DUP3 PUSH8 0xFFFFFFFFFFFFFFFF AND GT JUMPDEST ISZERO PUSH2 0x1FB2 JUMPI PUSH1 0x7 PUSH0 SWAP1 SLOAD SWAP1 PUSH2 0x100 EXP SWAP1 DIV PUSH8 0xFFFFFFFFFFFFFFFF AND SWAP1 POP JUMPDEST PUSH0 DUP2 TIMESTAMP PUSH2 0x1FBF SWAP2 SWAP1 PUSH2 0x33D3 JUMP JUMPDEST SWAP1 POP PUSH1 0x6 PUSH0 DUP6 PUSH20 0xFFFFFFFFFFFFFFFFFFFFFFFFFFFFFFFFFFFFFFFF AND PUSH20 0xFFFFFFFFFFFFFFFFFFFFFFFFFFFFFFFFFFFFFFFF AND DUP2 MSTORE PUSH1 0x20 ADD SWAP1 DUP2 MSTORE PUSH1 0x20 ADD PUSH0 KECCAK256 PUSH0 SWAP1 SLOAD SWAP1 PUSH2 0x100 EXP SWAP1 DIV PUSH8 0xFFFFFFFFFFFFFFFF AND PUSH8 0xFFFFFFFFFFFFFFFF AND DUP2 PUSH8 0xFFFFFFFFFFFFFFFF AND GT ISZERO PUSH2 0x20E3 JUMPI DUP1 PUSH1 0x6 PUSH0 DUP7 PUSH20 0xFFFFFFFFFFFFFFFFFFFFFFFFFFFFFFFFFFFFFFFF AND PUSH20 0xFFFFFFFFFFFFFFFFFFFFFFFFFFFFFFFFFFFFFFFF AND DUP2 MSTORE PUSH1 0x20 ADD SWAP1 DUP2 MSTORE PUSH1 0x20 ADD PUSH0 KECCAK256 PUSH0 PUSH2 0x100 EXP DUP2 SLOAD DUP2 PUSH8 0xFFFFFFFFFFFFFFFF MUL NOT AND SWAP1 DUP4 PUSH8 0xFFFFFFFFFFFFFFFF AND MUL OR SWAP1 SSTORE POP DUP4 PUSH20 0xFFFFFFFFFFFFFFFFFFFFFFFFFFFFFFFFFFFFFFFF AND PUSH32 0x6395BACE6E0ACBE4F22761B149D3CC2E88C7DDE6BF4D8481825EEF404CF989A1 DUP3 PUSH1 0x40 MLOAD PUSH2 0x20D6 SWAP2 SWAP1 PUSH2 0x3017 JUMP JUMPDEST PUSH1 0x40 MLOAD DUP1 SWAP2 SUB SWAP1 LOG2 PUSH2 0x20E4 JUMP JUMPDEST JUMPDEST POP POP POP POP JUMP JUMPDEST PUSH1 0x1 PUSH2 0x20FC PUSH2 0x20F7 PUSH2 0x2812 JUMP JUMPDEST PUSH2 0x283B JUMP JUMPDEST PUSH0 ADD DUP2 SWAP1 SSTORE POP JUMP JUMPDEST PUSH2 0x2117 PUSH2 0x210F PUSH2 0xBF8 JUMP JUMPDEST DUP6 ADDRESS DUP6 PUSH2 0x2844 JUMP JUMPDEST PUSH2 0x2121 DUP4 DUP3 PUSH2 0x2899 JUMP JUMPDEST DUP3 PUSH20 0xFFFFFFFFFFFFFFFFFFFFFFFFFFFFFFFFFFFFFFFF AND DUP5 PUSH20 0xFFFFFFFFFFFFFFFFFFFFFFFFFFFFFFFFFFFFFFFF AND PUSH32 0xDCBC1C05240F31FF3AD067EF1EE35CE4997762752E3A095284754544F4C709D7 DUP5 DUP5 PUSH1 0x40 MLOAD PUSH2 0x2180 SWAP3 SWAP2 SWAP1 PUSH2 0x2E14 JUMP JUMPDEST PUSH1 0x40 MLOAD DUP1 SWAP2 SUB SWAP1 LOG3 POP POP POP POP JUMP JUMPDEST PUSH0 PUSH1 0x5 PUSH0 SWAP1 SLOAD SWAP1 PUSH2 0x100 EXP SWAP1 DIV PUSH20 0xFFFFFFFFFFFFFFFFFFFFFFFFFFFFFFFFFFFFFFFF AND SWAP1 POP DUP2 PUSH1 0x5 PUSH0 PUSH2 0x100 EXP DUP2 SLOAD DUP2 PUSH20 0xFFFFFFFFFFFFFFFFFFFFFFFFFFFFFFFFFFFFFFFF MUL NOT AND SWAP1 DUP4 PUSH20 0xFFFFFFFFFFFFFFFFFFFFFFFFFFFFFFFFFFFFFFFF AND MUL OR SWAP1 SSTORE POP DUP2 PUSH20 0xFFFFFFFFFFFFFFFFFFFFFFFFFFFFFFFFFFFFFFFF AND DUP2 PUSH20 0xFFFFFFFFFFFFFFFFFFFFFFFFFFFFFFFFFFFFFFFF AND PUSH32 0x8BE0079C531659141344CD1FD0A4F28419497F9722A3DAAFE3B4186F6B6457E0 PUSH1 0x40 MLOAD PUSH1 0x40 MLOAD DUP1 SWAP2 SUB SWAP1 LOG3 POP POP JUMP JUMPDEST PUSH0 PUSH0 PUSH2 0x225C DUP4 PUSH2 0x1944 JUMP JUMPDEST SWAP1 POP DUP1 DUP6 GT ISZERO PUSH2 0x22A7 JUMPI DUP3 DUP6 DUP3 PUSH1 0x40 MLOAD PUSH32 0xFE9CCEEC00000000000000000000000000000000000000000000000000000000 DUP2 MSTORE PUSH1 0x4 ADD PUSH2 0x229E SWAP4 SWAP3 SWAP2 SWAP1 PUSH2 0x339E JUMP JUMPDEST PUSH1 0x40 MLOAD DUP1 SWAP2 SUB SWAP1 REVERT JUMPDEST PUSH0 PUSH2 0x22B1 DUP7 PUSH2 0xB16 JUMP JUMPDEST SWAP1 POP PUSH2 0x22C7 PUSH2 0x22BE PUSH2 0x1BB7 JUMP JUMPDEST DUP7 DUP7 DUP10 DUP6 PUSH2 0x2918 JUMP JUMPDEST DUP1 SWAP3 POP POP POP SWAP4 SWAP3 POP POP POP JUMP JUMPDEST PUSH0 PUSH0 PUSH2 0x22DE DUP4 PUSH2 0x195D JUMP JUMPDEST SWAP1 POP DUP1 DUP6 GT ISZERO PUSH2 0x2329 JUMPI DUP3 DUP6 DUP3 PUSH1 0x40 MLOAD PUSH32 0xB94ABEEC00000000000000000000000000000000000000000000000000000000 DUP2 MSTORE PUSH1 0x4 ADD PUSH2 0x2320 SWAP4 SWAP3 SWAP2 SWAP1 PUSH2 0x339E JUMP JUMPDEST PUSH1 0x40 MLOAD DUP1 SWAP2 SUB SWAP1 REVERT JUMPDEST PUSH0 PUSH2 0x2333 DUP7 PUSH2 0xD63 JUMP JUMPDEST SWAP1 POP PUSH2 0x2349 PUSH2 0x2340 PUSH2 0x1BB7 JUMP JUMPDEST DUP7 DUP7 DUP5 DUP11 PUSH2 0x2918 JUMP JUMPDEST DUP1 SWAP3 POP POP POP SWAP4 SWAP3 POP POP POP JUMP JUMPDEST PUSH0 PUSH2 0x2383 PUSH2 0x2362 DUP4 PUSH2 0x29F8 JUMP JUMPDEST DUP1 ISZERO PUSH2 0x237E JUMPI POP PUSH0 DUP5 DUP1 PUSH2 0x2379 JUMPI PUSH2 0x2378 PUSH2 0x36F4 JUMP JUMPDEST JUMPDEST DUP7 DUP9 MULMOD GT JUMPDEST PUSH2 0x2A25 JUMP JUMPDEST PUSH2 0x238E DUP7 DUP7 DUP7 PUSH2 0x1C28 JUMP JUMPDEST PUSH2 0x2398 SWAP2 SWAP1 PUSH2 0x3476 JUMP JUMPDEST SWAP1 POP SWAP5 SWAP4 POP POP POP POP JUMP JUMPDEST PUSH0 PUSH20 0xFFFFFFFFFFFFFFFFFFFFFFFFFFFFFFFFFFFFFFFF AND DUP5 PUSH20 0xFFFFFFFFFFFFFFFFFFFFFFFFFFFFFFFFFFFFFFFF AND SUB PUSH2 0x2412 JUMPI PUSH0 PUSH1 0x40 MLOAD PUSH32 0xE602DF0500000000000000000000000000000000000000000000000000000000 DUP2 MSTORE PUSH1 0x4 ADD PUSH2 0x2409 SWAP2 SWAP1 PUSH2 0x2EF9 JUMP JUMPDEST PUSH1 0x40 MLOAD DUP1 SWAP2 SUB SWAP1 REVERT JUMPDEST PUSH0 PUSH20 0xFFFFFFFFFFFFFFFFFFFFFFFFFFFFFFFFFFFFFFFF AND DUP4 PUSH20 0xFFFFFFFFFFFFFFFFFFFFFFFFFFFFFFFFFFFFFFFF AND SUB PUSH2 0x2482 JUMPI PUSH0 PUSH1 0x40 MLOAD PUSH32 0x94280D6200000000000000000000000000000000000000000000000000000000 DUP2 MSTORE PUSH1 0x4 ADD PUSH2 0x2479 SWAP2 SWAP1 PUSH2 0x2EF9 JUMP JUMPDEST PUSH1 0x40 MLOAD DUP1 SWAP2 SUB SWAP1 REVERT JUMPDEST DUP2 PUSH1 0x1 PUSH0 DUP7 PUSH20 0xFFFFFFFFFFFFFFFFFFFFFFFFFFFFFFFFFFFFFFFF AND PUSH20 0xFFFFFFFFFFFFFFFFFFFFFFFFFFFFFFFFFFFFFFFF AND DUP2 MSTORE PUSH1 0x20 ADD SWAP1 DUP2 MSTORE PUSH1 0x20 ADD PUSH0 KECCAK256 PUSH0 DUP6 PUSH20 0xFFFFFFFFFFFFFFFFFFFFFFFFFFFFFFFFFFFFFFFF AND PUSH20 0xFFFFFFFFFFFFFFFFFFFFFFFFFFFFFFFFFFFFFFFF AND DUP2 MSTORE PUSH1 0x20 ADD SWAP1 DUP2 MSTORE PUSH1 0x20 ADD PUSH0 KECCAK256 DUP2 SWAP1 SSTORE POP DUP1 ISZERO PUSH2 0x256B JUMPI DUP3 PUSH20 0xFFFFFFFFFFFFFFFFFFFFFFFFFFFFFFFFFFFFFFFF AND DUP5 PUSH20 0xFFFFFFFFFFFFFFFFFFFFFFFFFFFFFFFFFFFFFFFF AND PUSH32 0x8C5BE1E5EBEC7D5BD14F71427D1E84F3DD0314C0F7B2291E5B200AC8C7C3B925 DUP5 PUSH1 0x40 MLOAD PUSH2 0x2562 SWAP2 SWAP1 PUSH2 0x2C09 JUMP JUMPDEST PUSH1 0x40 MLOAD DUP1 SWAP2 SUB SWAP1 LOG3 JUMPDEST POP POP POP POP JUMP JUMPDEST PUSH0 PUSH0 PUSH0 NOT DUP4 DUP6 MULMOD DUP4 DUP6 MUL SWAP2 POP DUP2 DUP2 LT DUP3 DUP3 SUB SUB SWAP3 POP POP SWAP3 POP SWAP3 SWAP1 POP JUMP JUMPDEST PUSH0 PUSH2 0x2598 DUP5 PUSH2 0x2A25 JUMP JUMPDEST DUP3 DUP5 XOR MUL DUP3 XOR SWAP1 POP SWAP4 SWAP3 POP POP POP JUMP JUMPDEST PUSH4 0x4E487B71 PUSH0 MSTORE DUP1 PUSH1 0x20 MSTORE PUSH1 0x24 PUSH1 0x1C REVERT JUMPDEST PUSH0 PUSH20 0xFFFFFFFFFFFFFFFFFFFFFFFFFFFFFFFFFFFFFFFF AND DUP4 PUSH20 0xFFFFFFFFFFFFFFFFFFFFFFFFFFFFFFFFFFFFFFFF AND SUB PUSH2 0x2608 JUMPI DUP1 PUSH1 0x2 PUSH0 DUP3 DUP3 SLOAD PUSH2 0x25FC SWAP2 SWAP1 PUSH2 0x3476 JUMP JUMPDEST SWAP3 POP POP DUP2 SWAP1 SSTORE POP PUSH2 0x26D6 JUMP JUMPDEST PUSH0 PUSH0 PUSH0 DUP6 PUSH20 0xFFFFFFFFFFFFFFFFFFFFFFFFFFFFFFFFFFFFFFFF AND PUSH20 0xFFFFFFFFFFFFFFFFFFFFFFFFFFFFFFFFFFFFFFFF AND DUP2 MSTORE PUSH1 0x20 ADD SWAP1 DUP2 MSTORE PUSH1 0x20 ADD PUSH0 KECCAK256 SLOAD SWAP1 POP DUP2 DUP2 LT ISZERO PUSH2 0x2691 JUMPI DUP4 DUP2 DUP4 PUSH1 0x40 MLOAD PUSH32 0xE450D38C00000000000000000000000000000000000000000000000000000000 DUP2 MSTORE PUSH1 0x4 ADD PUSH2 0x2688 SWAP4 SWAP3 SWAP2 SWAP1 PUSH2 0x339E JUMP JUMPDEST PUSH1 0x40 MLOAD DUP1 SWAP2 SUB SWAP1 REVERT JUMPDEST DUP2 DUP2 SUB PUSH0 PUSH0 DUP7 PUSH20 0xFFFFFFFFFFFFFFFFFFFFFFFFFFFFFFFFFFFFFFFF AND PUSH20 0xFFFFFFFFFFFFFFFFFFFFFFFFFFFFFFFFFFFFFFFF AND DUP2 MSTORE PUSH1 0x20 ADD SWAP1 DUP2 MSTORE PUSH1 0x20 ADD PUSH0 KECCAK256 DUP2 SWAP1 SSTORE POP POP JUMPDEST PUSH0 PUSH20 0xFFFFFFFFFFFFFFFFFFFFFFFFFFFFFFFFFFFFFFFF AND DUP3 PUSH20 0xFFFFFFFFFFFFFFFFFFFFFFFFFFFFFFFFFFFFFFFF AND SUB PUSH2 0x271D JUMPI DUP1 PUSH1 0x2 PUSH0 DUP3 DUP3 SLOAD SUB SWAP3 POP POP DUP2 SWAP1 SSTORE POP PUSH2 0x2767 JUMP JUMPDEST DUP1 PUSH0 PUSH0 DUP5 PUSH20 0xFFFFFFFFFFFFFFFFFFFFFFFFFFFFFFFFFFFFFFFF AND PUSH20 0xFFFFFFFFFFFFFFFFFFFFFFFFFFFFFFFFFFFFFFFF AND DUP2 MSTORE PUSH1 0x20 ADD SWAP1 DUP2 MSTORE PUSH1 0x20 ADD PUSH0 KECCAK256 PUSH0 DUP3 DUP3 SLOAD ADD SWAP3 POP POP DUP2 SWAP1 SSTORE POP JUMPDEST DUP2 PUSH20 0xFFFFFFFFFFFFFFFFFFFFFFFFFFFFFFFFFFFFFFFF AND DUP4 PUSH20 0xFFFFFFFFFFFFFFFFFFFFFFFFFFFFFFFFFFFFFFFF AND PUSH32 0xDDF252AD1BE2C89B69C2B068FC378DAA952BA7F163C4A11628F55A4DF523B3EF DUP4 PUSH1 0x40 MLOAD PUSH2 0x27C4 SWAP2 SWAP1 PUSH2 0x2C09 JUMP JUMPDEST PUSH1 0x40 MLOAD DUP1 SWAP2 SUB SWAP1 LOG3 POP POP POP JUMP JUMPDEST PUSH2 0x27D9 PUSH2 0x2A30 JUMP JUMPDEST ISZERO PUSH2 0x2810 JUMPI PUSH1 0x40 MLOAD PUSH32 0x3EE5AEB500000000000000000000000000000000000000000000000000000000 DUP2 MSTORE PUSH1 0x4 ADD PUSH1 0x40 MLOAD DUP1 SWAP2 SUB SWAP1 REVERT JUMPDEST JUMP JUMPDEST PUSH0 PUSH32 0x9B779B17422D0DF92223018B32B4D1FA46E071723D6817E2486D003BECC55F00 PUSH0 SHL SWAP1 POP SWAP1 JUMP JUMPDEST PUSH0 DUP2 SWAP1 POP SWAP2 SWAP1 POP JUMP JUMPDEST PUSH2 0x2852 DUP5 DUP5 DUP5 DUP5 PUSH1 0x1 PUSH2 0x2A4C JUMP JUMPDEST PUSH2 0x2893 JUMPI DUP4 PUSH1 0x40 MLOAD PUSH32 0x5274AFE700000000000000000000000000000000000000000000000000000000 DUP2 MSTORE PUSH1 0x4 ADD PUSH2 0x288A SWAP2 SWAP1 PUSH2 0x2EF9 JUMP JUMPDEST PUSH1 0x40 MLOAD DUP1 SWAP2 SUB SWAP1 REVERT JUMPDEST POP POP POP POP JUMP JUMPDEST PUSH0 PUSH20 0xFFFFFFFFFFFFFFFFFFFFFFFFFFFFFFFFFFFFFFFF AND DUP3 PUSH20 0xFFFFFFFFFFFFFFFFFFFFFFFFFFFFFFFFFFFFFFFF AND SUB PUSH2 0x2909 JUMPI PUSH0 PUSH1 0x40 MLOAD PUSH32 0xEC442F0500000000000000000000000000000000000000000000000000000000 DUP2 MSTORE PUSH1 0x4 ADD PUSH2 0x2900 SWAP2 SWAP1 PUSH2 0x2EF9 JUMP JUMPDEST PUSH1 0x40 MLOAD DUP1 SWAP2 SUB SWAP1 REVERT JUMPDEST PUSH2 0x2914 PUSH0 DUP4 DUP4 PUSH2 0x25B8 JUMP JUMPDEST POP POP JUMP JUMPDEST DUP3 PUSH20 0xFFFFFFFFFFFFFFFFFFFFFFFFFFFFFFFFFFFFFFFF AND DUP6 PUSH20 0xFFFFFFFFFFFFFFFFFFFFFFFFFFFFFFFFFFFFFFFF AND EQ PUSH2 0x2957 JUMPI PUSH2 0x2956 DUP4 DUP7 DUP4 PUSH2 0x1D07 JUMP JUMPDEST JUMPDEST PUSH2 0x2961 DUP4 DUP3 PUSH2 0x2ABD JUMP JUMPDEST PUSH2 0x2973 PUSH2 0x296C PUSH2 0xBF8 JUMP JUMPDEST DUP6 DUP5 PUSH2 0x2B3C JUMP JUMPDEST DUP3 PUSH20 0xFFFFFFFFFFFFFFFFFFFFFFFFFFFFFFFFFFFFFFFF AND DUP5 PUSH20 0xFFFFFFFFFFFFFFFFFFFFFFFFFFFFFFFFFFFFFFFF AND DUP7 PUSH20 0xFFFFFFFFFFFFFFFFFFFFFFFFFFFFFFFFFFFFFFFF AND PUSH32 0xFBDE797D201C681B91056529119E0B02407C7BB96A4A2C75C01FC9667232C8DB DUP6 DUP6 PUSH1 0x40 MLOAD PUSH2 0x29E9 SWAP3 SWAP2 SWAP1 PUSH2 0x2E14 JUMP JUMPDEST PUSH1 0x40 MLOAD DUP1 SWAP2 SUB SWAP1 LOG4 POP POP POP POP POP JUMP JUMPDEST PUSH0 PUSH1 0x1 PUSH1 0x2 DUP4 PUSH1 0x3 DUP2 GT ISZERO PUSH2 0x2A10 JUMPI PUSH2 0x2A0F PUSH2 0x3721 JUMP JUMPDEST JUMPDEST PUSH2 0x2A1A SWAP2 SWAP1 PUSH2 0x374E JUMP JUMPDEST PUSH1 0xFF AND EQ SWAP1 POP SWAP2 SWAP1 POP JUMP JUMPDEST PUSH0 DUP2 ISZERO ISZERO SWAP1 POP SWAP2 SWAP1 POP JUMP JUMPDEST PUSH0 PUSH1 0x2 PUSH2 0x2A43 PUSH2 0x2A3E PUSH2 0x2812 JUMP JUMPDEST PUSH2 0x283B JUMP JUMPDEST PUSH0 ADD SLOAD EQ SWAP1 POP SWAP1 JUMP JUMPDEST PUSH0 PUSH0 PUSH4 0x23B872DD PUSH1 0xE0 SHL SWAP1 POP PUSH1 0x40 MLOAD DUP2 PUSH0 MSTORE PUSH0 NOT PUSH1 0x60 SHR DUP8 AND PUSH1 0x4 MSTORE PUSH0 NOT PUSH1 0x60 SHR DUP7 AND PUSH1 0x24 MSTORE DUP5 PUSH1 0x44 MSTORE PUSH1 0x20 PUSH0 PUSH1 0x64 PUSH0 PUSH0 DUP13 GAS CALL SWAP3 POP PUSH1 0x1 PUSH0 MLOAD EQ DUP4 AND PUSH2 0x2AAA JUMPI DUP4 DUP4 ISZERO AND ISZERO PUSH2 0x2A9E JUMPI RETURNDATASIZE PUSH0 DUP3 RETURNDATACOPY RETURNDATASIZE DUP2 REVERT JUMPDEST PUSH0 DUP9 EXTCODESIZE GT RETURNDATASIZE ISZERO AND DUP4 AND SWAP3 POP JUMPDEST DUP1 PUSH1 0x40 MSTORE PUSH0 PUSH1 0x60 MSTORE POP POP SWAP6 SWAP5 POP POP POP POP POP JUMP JUMPDEST PUSH0 PUSH20 0xFFFFFFFFFFFFFFFFFFFFFFFFFFFFFFFFFFFFFFFF AND DUP3 PUSH20 0xFFFFFFFFFFFFFFFFFFFFFFFFFFFFFFFFFFFFFFFF AND SUB PUSH2 0x2B2D JUMPI PUSH0 PUSH1 0x40 MLOAD PUSH32 0x96C6FD1E00000000000000000000000000000000000000000000000000000000 DUP2 MSTORE PUSH1 0x4 ADD PUSH2 0x2B24 SWAP2 SWAP1 PUSH2 0x2EF9 JUMP JUMPDEST PUSH1 0x40 MLOAD DUP1 SWAP2 SUB SWAP1 REVERT JUMPDEST PUSH2 0x2B38 DUP3 PUSH0 DUP4 PUSH2 0x25B8 JUMP JUMPDEST POP POP JUMP JUMPDEST PUSH2 0x2B49 DUP4 DUP4 DUP4 PUSH1 0x1 PUSH2 0x2B8F JUMP JUMPDEST PUSH2 0x2B8A JUMPI DUP3 PUSH1 0x40 MLOAD PUSH32 0x5274AFE700000000000000000000000000000000000000000000000000000000 DUP2 MSTORE PUSH1 0x4 ADD PUSH2 0x2B81 SWAP2 SWAP1 PUSH2 0x2EF9 JUMP JUMPDEST PUSH1 0x40 MLOAD DUP1 SWAP2 SUB SWAP1 REVERT JUMPDEST POP POP POP JUMP JUMPDEST PUSH0 PUSH0 PUSH4 0xA9059CBB PUSH1 0xE0 SHL SWAP1 POP PUSH1 0x40 MLOAD DUP2 PUSH0 MSTORE PUSH0 NOT PUSH1 0x60 SHR DUP7 AND PUSH1 0x4 MSTORE DUP5 PUSH1 0x24 MSTORE PUSH1 0x20 PUSH0 PUSH1 0x44 PUSH0 PUSH0 DUP12 GAS CALL SWAP3 POP PUSH1 0x1 PUSH0 MLOAD EQ DUP4 AND PUSH2 0x2BE3 JUMPI DUP4 DUP4 ISZERO AND ISZERO PUSH2 0x2BD7 JUMPI RETURNDATASIZE PUSH0 DUP3 RETURNDATACOPY RETURNDATASIZE DUP2 REVERT JUMPDEST PUSH0 DUP8 EXTCODESIZE GT RETURNDATASIZE ISZERO AND DUP4 AND SWAP3 POP JUMPDEST DUP1 PUSH1 0x40 MSTORE POP POP SWAP5 SWAP4 POP POP POP POP JUMP JUMPDEST PUSH0 DUP2 SWAP1 POP SWAP2 SWAP1 POP JUMP JUMPDEST PUSH2 0x2C03 DUP2 PUSH2 0x2BF1 JUMP JUMPDEST DUP3 MSTORE POP POP JUMP JUMPDEST PUSH0 PUSH1 0x20 DUP3 ADD SWAP1 POP PUSH2 0x2C1C PUSH0 DUP4 ADD DUP5 PUSH2 0x2BFA JUMP JUMPDEST SWAP3 SWAP2 POP POP JUMP JUMPDEST PUSH0 DUP2 MLOAD SWAP1 POP SWAP2 SWAP1 POP JUMP JUMPDEST PUSH0 DUP3 DUP3 MSTORE PUSH1 0x20 DUP3 ADD SWAP1 POP SWAP3 SWAP2 POP POP JUMP JUMPDEST DUP3 DUP2 DUP4 MCOPY PUSH0 DUP4 DUP4 ADD MSTORE POP POP POP JUMP JUMPDEST PUSH0 PUSH1 0x1F NOT PUSH1 0x1F DUP4 ADD AND SWAP1 POP SWAP2 SWAP1 POP JUMP JUMPDEST PUSH0 PUSH2 0x2C64 DUP3 PUSH2 0x2C22 JUMP JUMPDEST PUSH2 0x2C6E DUP2 DUP6 PUSH2 0x2C2C JUMP JUMPDEST SWAP4 POP PUSH2 0x2C7E DUP2 DUP6 PUSH1 0x20 DUP7 ADD PUSH2 0x2C3C JUMP JUMPDEST PUSH2 0x2C87 DUP2 PUSH2 0x2C4A JUMP JUMPDEST DUP5 ADD SWAP2 POP POP SWAP3 SWAP2 POP POP JUMP JUMPDEST PUSH0 PUSH1 0x20 DUP3 ADD SWAP1 POP DUP2 DUP2 SUB PUSH0 DUP4 ADD MSTORE PUSH2 0x2CAA DUP2 DUP5 PUSH2 0x2C5A JUMP JUMPDEST SWAP1 POP SWAP3 SWAP2 POP POP JUMP JUMPDEST PUSH0 PUSH0 REVERT JUMPDEST PUSH2 0x2CBF DUP2 PUSH2 0x2BF1 JUMP JUMPDEST DUP2 EQ PUSH2 0x2CC9 JUMPI PUSH0 PUSH0 REVERT JUMPDEST POP JUMP JUMPDEST PUSH0 DUP2 CALLDATALOAD SWAP1 POP PUSH2 0x2CDA DUP2 PUSH2 0x2CB6 JUMP JUMPDEST SWAP3 SWAP2 POP POP JUMP JUMPDEST PUSH0 PUSH1 0x20 DUP3 DUP5 SUB SLT ISZERO PUSH2 0x2CF5 JUMPI PUSH2 0x2CF4 PUSH2 0x2CB2 JUMP JUMPDEST JUMPDEST PUSH0 PUSH2 0x2D02 DUP5 DUP3 DUP6 ADD PUSH2 0x2CCC JUMP JUMPDEST SWAP2 POP POP SWAP3 SWAP2 POP POP JUMP JUMPDEST PUSH0 PUSH20 0xFFFFFFFFFFFFFFFFFFFFFFFFFFFFFFFFFFFFFFFF DUP3 AND SWAP1 POP SWAP2 SWAP1 POP JUMP JUMPDEST PUSH0 PUSH2 0x2D34 DUP3 PUSH2 0x2D0B JUMP JUMPDEST SWAP1 POP SWAP2 SWAP1 POP JUMP JUMPDEST PUSH2 0x2D44 DUP2 PUSH2 0x2D2A JUMP JUMPDEST DUP2 EQ PUSH2 0x2D4E JUMPI PUSH0 PUSH0 REVERT JUMPDEST POP JUMP JUMPDEST PUSH0 DUP2 CALLDATALOAD SWAP1 POP PUSH2 0x2D5F DUP2 PUSH2 0x2D3B JUMP JUMPDEST SWAP3 SWAP2 POP POP JUMP JUMPDEST PUSH0 PUSH0 PUSH1 0x40 DUP4 DUP6 SUB SLT ISZERO PUSH2 0x2D7B JUMPI PUSH2 0x2D7A PUSH2 0x2CB2 JUMP JUMPDEST JUMPDEST PUSH0 PUSH2 0x2D88 DUP6 DUP3 DUP7 ADD PUSH2 0x2D51 JUMP JUMPDEST SWAP3 POP POP PUSH1 0x20 PUSH2 0x2D99 DUP6 DUP3 DUP7 ADD PUSH2 0x2CCC JUMP JUMPDEST SWAP2 POP POP SWAP3 POP SWAP3 SWAP1 POP JUMP JUMPDEST PUSH0 DUP2 ISZERO ISZERO SWAP1 POP SWAP2 SWAP1 POP JUMP JUMPDEST PUSH2 0x2DB7 DUP2 PUSH2 0x2DA3 JUMP JUMPDEST DUP3 MSTORE POP POP JUMP JUMPDEST PUSH0 PUSH1 0x20 DUP3 ADD SWAP1 POP PUSH2 0x2DD0 PUSH0 DUP4 ADD DUP5 PUSH2 0x2DAE JUMP JUMPDEST SWAP3 SWAP2 POP POP JUMP JUMPDEST PUSH0 PUSH0 PUSH1 0x40 DUP4 DUP6 SUB SLT ISZERO PUSH2 0x2DEC JUMPI PUSH2 0x2DEB PUSH2 0x2CB2 JUMP JUMPDEST JUMPDEST PUSH0 PUSH2 0x2DF9 DUP6 DUP3 DUP7 ADD PUSH2 0x2CCC JUMP JUMPDEST SWAP3 POP POP PUSH1 0x20 PUSH2 0x2E0A DUP6 DUP3 DUP7 ADD PUSH2 0x2CCC JUMP JUMPDEST SWAP2 POP POP SWAP3 POP SWAP3 SWAP1 POP JUMP JUMPDEST PUSH0 PUSH1 0x40 DUP3 ADD SWAP1 POP PUSH2 0x2E27 PUSH0 DUP4 ADD DUP6 PUSH2 0x2BFA JUMP JUMPDEST PUSH2 0x2E34 PUSH1 0x20 DUP4 ADD DUP5 PUSH2 0x2BFA JUMP JUMPDEST SWAP4 SWAP3 POP POP POP JUMP JUMPDEST PUSH0 PUSH1 0x20 DUP3 DUP5 SUB SLT ISZERO PUSH2 0x2E50 JUMPI PUSH2 0x2E4F PUSH2 0x2CB2 JUMP JUMPDEST JUMPDEST PUSH0 PUSH2 0x2E5D DUP5 DUP3 DUP6 ADD PUSH2 0x2D51 JUMP JUMPDEST SWAP2 POP POP SWAP3 SWAP2 POP POP JUMP JUMPDEST PUSH0 PUSH0 PUSH0 PUSH1 0x60 DUP5 DUP7 SUB SLT ISZERO PUSH2 0x2E7D JUMPI PUSH2 0x2E7C PUSH2 0x2CB2 JUMP JUMPDEST JUMPDEST PUSH0 PUSH2 0x2E8A DUP7 DUP3 DUP8 ADD PUSH2 0x2D51 JUMP JUMPDEST SWAP4 POP POP PUSH1 0x20 PUSH2 0x2E9B DUP7 DUP3 DUP8 ADD PUSH2 0x2D51 JUMP JUMPDEST SWAP3 POP POP PUSH1 0x40 PUSH2 0x2EAC DUP7 DUP3 DUP8 ADD PUSH2 0x2CCC JUMP JUMPDEST SWAP2 POP POP SWAP3 POP SWAP3 POP SWAP3 JUMP JUMPDEST PUSH0 PUSH1 0xFF DUP3 AND SWAP1 POP SWAP2 SWAP1 POP JUMP JUMPDEST PUSH2 0x2ECB DUP2 PUSH2 0x2EB6 JUMP JUMPDEST DUP3 MSTORE POP POP JUMP JUMPDEST PUSH0 PUSH1 0x20 DUP3 ADD SWAP1 POP PUSH2 0x2EE4 PUSH0 DUP4 ADD DUP5 PUSH2 0x2EC2 JUMP JUMPDEST SWAP3 SWAP2 POP POP JUMP JUMPDEST PUSH2 0x2EF3 DUP2 PUSH2 0x2D2A JUMP JUMPDEST DUP3 MSTORE POP POP JUMP JUMPDEST PUSH0 PUSH1 0x20 DUP3 ADD SWAP1 POP PUSH2 0x2F0C PUSH0 DUP4 ADD DUP5 PUSH2 0x2EEA JUMP JUMPDEST SWAP3 SWAP2 POP POP JUMP JUMPDEST PUSH0 PUSH8 0xFFFFFFFFFFFFFFFF DUP3 AND SWAP1 POP SWAP2 SWAP1 POP JUMP JUMPDEST PUSH2 0x2F2E DUP2 PUSH2 0x2F12 JUMP JUMPDEST DUP2 EQ PUSH2 0x2F38 JUMPI PUSH0 PUSH0 REVERT JUMPDEST POP JUMP JUMPDEST PUSH0 DUP2 CALLDATALOAD SWAP1 POP PUSH2 0x2F49 DUP2 PUSH2 0x2F25 JUMP JUMPDEST SWAP3 SWAP2 POP POP JUMP JUMPDEST PUSH0 PUSH0 PUSH0 PUSH1 0x60 DUP5 DUP7 SUB SLT ISZERO PUSH2 0x2F66 JUMPI PUSH2 0x2F65 PUSH2 0x2CB2 JUMP JUMPDEST JUMPDEST PUSH0 PUSH2 0x2F73 DUP7 DUP3 DUP8 ADD PUSH2 0x2CCC JUMP JUMPDEST SWAP4 POP POP PUSH1 0x20 PUSH2 0x2F84 DUP7 DUP3 DUP8 ADD PUSH2 0x2D51 JUMP JUMPDEST SWAP3 POP POP PUSH1 0x40 PUSH2 0x2F95 DUP7 DUP3 DUP8 ADD PUSH2 0x2F3B JUMP JUMPDEST SWAP2 POP POP SWAP3 POP SWAP3 POP SWAP3 JUMP JUMPDEST PUSH0 PUSH0 PUSH1 0x40 DUP4 DUP6 SUB SLT ISZERO PUSH2 0x2FB5 JUMPI PUSH2 0x2FB4 PUSH2 0x2CB2 JUMP JUMPDEST JUMPDEST PUSH0 PUSH2 0x2FC2 DUP6 DUP3 DUP7 ADD PUSH2 0x2CCC JUMP JUMPDEST SWAP3 POP POP PUSH1 0x20 PUSH2 0x2FD3 DUP6 DUP3 DUP7 ADD PUSH2 0x2D51 JUMP JUMPDEST SWAP2 POP POP SWAP3 POP SWAP3 SWAP1 POP JUMP JUMPDEST PUSH0 PUSH1 0x20 DUP3 DUP5 SUB SLT ISZERO PUSH2 0x2FF2 JUMPI PUSH2 0x2FF1 PUSH2 0x2CB2 JUMP JUMPDEST JUMPDEST PUSH0 PUSH2 0x2FFF DUP5 DUP3 DUP6 ADD PUSH2 0x2F3B JUMP JUMPDEST SWAP2 POP POP SWAP3 SWAP2 POP POP JUMP JUMPDEST PUSH2 0x3011 DUP2 PUSH2 0x2F12 JUMP JUMPDEST DUP3 MSTORE POP POP JUMP JUMPDEST PUSH0 PUSH1 0x20 DUP3 ADD SWAP1 POP PUSH2 0x302A PUSH0 DUP4 ADD DUP5 PUSH2 0x3008 JUMP JUMPDEST SWAP3 SWAP2 POP POP JUMP JUMPDEST PUSH0 PUSH0 PUSH0 PUSH1 0x60 DUP5 DUP7 SUB SLT ISZERO PUSH2 0x3047 JUMPI PUSH2 0x3046 PUSH2 0x2CB2 JUMP JUMPDEST JUMPDEST PUSH0 PUSH2 0x3054 DUP7 DUP3 DUP8 ADD PUSH2 0x2CCC JUMP JUMPDEST SWAP4 POP POP PUSH1 0x20 PUSH2 0x3065 DUP7 DUP3 DUP8 ADD PUSH2 0x2D51 JUMP JUMPDEST SWAP3 POP POP PUSH1 0x40 PUSH2 0x3076 DUP7 DUP3 DUP8 ADD PUSH2 0x2D51 JUMP JUMPDEST SWAP2 POP POP SWAP3 POP SWAP3 POP SWAP3 JUMP JUMPDEST PUSH0 PUSH0 PUSH0 PUSH1 0x60 DUP5 DUP7 SUB SLT ISZERO PUSH2 0x3097 JUMPI PUSH2 0x3096 PUSH2 0x2CB2 JUMP JUMPDEST JUMPDEST PUSH0 PUSH2 0x30A4 DUP7 DUP3 DUP8 ADD PUSH2 0x2D51 JUMP JUMPDEST SWAP4 POP POP PUSH1 0x20 PUSH2 0x30B5 DUP7 DUP3 DUP8 ADD PUSH2 0x2CCC JUMP JUMPDEST SWAP3 POP POP PUSH1 0x40 PUSH2 0x30C6 DUP7 DUP3 DUP8 ADD PUSH2 0x2CCC JUMP JUMPDEST SWAP2 POP POP SWAP3 POP SWAP3 POP SWAP3 JUMP JUMPDEST PUSH0 PUSH0 PUSH1 0x40 DUP4 DUP6 SUB SLT ISZERO PUSH2 0x30E6 JUMPI PUSH2 0x30E5 PUSH2 0x2CB2 JUMP JUMPDEST JUMPDEST PUSH0 PUSH2 0x30F3 DUP6 DUP3 DUP7 ADD PUSH2 0x2D51 JUMP JUMPDEST SWAP3 POP POP PUSH1 0x20 PUSH2 0x3104 DUP6 DUP3 DUP7 ADD PUSH2 0x2D51 JUMP JUMPDEST SWAP2 POP POP SWAP3 POP SWAP3 SWAP1 POP JUMP JUMPDEST PUSH0 DUP2 SWAP1 POP SWAP2 SWAP1 POP JUMP JUMPDEST PUSH0 PUSH2 0x3131 PUSH2 0x312C PUSH2 0x3127 DUP5 PUSH2 0x2D0B JUMP JUMPDEST PUSH2 0x310E JUMP JUMPDEST PUSH2 0x2D0B JUMP JUMPDEST SWAP1 POP SWAP2 SWAP1 POP JUMP JUMPDEST PUSH0 PUSH2 0x3142 DUP3 PUSH2 0x3117 JUMP JUMPDEST SWAP1 POP SWAP2 SWAP1 POP JUMP JUMPDEST PUSH0 PUSH2 0x3153 DUP3 PUSH2 0x3138 JUMP JUMPDEST SWAP1 POP SWAP2 SWAP1 POP JUMP JUMPDEST PUSH2 0x3163 DUP2 PUSH2 0x3149 JUMP JUMPDEST DUP3 MSTORE POP POP JUMP JUMPDEST PUSH0 PUSH1 0x20 DUP3 ADD SWAP1 POP PUSH2 0x317C PUSH0 DUP4 ADD DUP5 PUSH2 0x315A JUMP JUMPDEST SWAP3 SWAP2 POP POP JUMP JUMPDEST PUSH2 0x318B DUP2 PUSH2 0x2DA3 JUMP JUMPDEST DUP2 EQ PUSH2 0x3195 JUMPI PUSH0 PUSH0 REVERT JUMPDEST POP JUMP JUMPDEST PUSH0 DUP2 CALLDATALOAD SWAP1 POP PUSH2 0x31A6 DUP2 PUSH2 0x3182 JUMP JUMPDEST SWAP3 SWAP2 POP POP JUMP JUMPDEST PUSH0 PUSH0 PUSH1 0x40 DUP4 DUP6 SUB SLT ISZERO PUSH2 0x31C2 JUMPI PUSH2 0x31C1 PUSH2 0x2CB2 JUMP JUMPDEST JUMPDEST PUSH0 PUSH2 0x31CF DUP6 DUP3 DUP7 ADD PUSH2 0x2D51 JUMP JUMPDEST SWAP3 POP POP PUSH1 0x20 PUSH2 0x31E0 DUP6 DUP3 DUP7 ADD PUSH2 0x3198 JUMP JUMPDEST SWAP2 POP POP SWAP3 POP SWAP3 SWAP1 POP JUMP JUMPDEST PUSH0 DUP2 MLOAD SWAP1 POP PUSH2 0x31F8 DUP2 PUSH2 0x2CB6 JUMP JUMPDEST SWAP3 SWAP2 POP POP JUMP JUMPDEST PUSH0 PUSH1 0x20 DUP3 DUP5 SUB SLT ISZERO PUSH2 0x3213 JUMPI PUSH2 0x3212 PUSH2 0x2CB2 JUMP JUMPDEST JUMPDEST PUSH0 PUSH2 0x3220 DUP5 DUP3 DUP6 ADD PUSH2 0x31EA JUMP JUMPDEST SWAP2 POP POP SWAP3 SWAP2 POP POP JUMP JUMPDEST PUSH32 0x4E487B7100000000000000000000000000000000000000000000000000000000 PUSH0 MSTORE PUSH1 0x22 PUSH1 0x4 MSTORE PUSH1 0x24 PUSH0 REVERT JUMPDEST PUSH0 PUSH1 0x2 DUP3 DIV SWAP1 POP PUSH1 0x1 DUP3 AND DUP1 PUSH2 0x326D JUMPI PUSH1 0x7F DUP3 AND SWAP2 POP JUMPDEST PUSH1 0x20 DUP3 LT DUP2 SUB PUSH2 0x3280 JUMPI PUSH2 0x327F PUSH2 0x3229 JUMP JUMPDEST JUMPDEST POP SWAP2 SWAP1 POP JUMP JUMPDEST PUSH32 0x4E487B7100000000000000000000000000000000000000000000000000000000 PUSH0 MSTORE PUSH1 0x11 PUSH1 0x4 MSTORE PUSH1 0x24 PUSH0 REVERT JUMPDEST PUSH0 PUSH2 0x32BD DUP3 PUSH2 0x2BF1 JUMP JUMPDEST SWAP2 POP PUSH2 0x32C8 DUP4 PUSH2 0x2BF1 JUMP JUMPDEST SWAP3 POP DUP3 DUP3 SUB SWAP1 POP DUP2 DUP2 GT ISZERO PUSH2 0x32E0 JUMPI PUSH2 0x32DF PUSH2 0x3286 JUMP JUMPDEST JUMPDEST SWAP3 SWAP2 POP POP JUMP JUMPDEST PUSH0 PUSH2 0x32F0 DUP3 PUSH2 0x2EB6 JUMP JUMPDEST SWAP2 POP PUSH2 0x32FB DUP4 PUSH2 0x2EB6 JUMP JUMPDEST SWAP3 POP DUP3 DUP3 ADD SWAP1 POP PUSH1 0xFF DUP2 GT ISZERO PUSH2 0x3314 JUMPI PUSH2 0x3313 PUSH2 0x3286 JUMP JUMPDEST JUMPDEST SWAP3 SWAP2 POP POP JUMP JUMPDEST PUSH0 PUSH2 0x3324 DUP3 PUSH2 0x2BF1 JUMP JUMPDEST SWAP2 POP PUSH2 0x332F DUP4 PUSH2 0x2BF1 JUMP JUMPDEST SWAP3 POP DUP3 DUP3 MUL PUSH2 0x333D DUP2 PUSH2 0x2BF1 JUMP JUMPDEST SWAP2 POP DUP3 DUP3 DIV DUP5 EQ DUP4 ISZERO OR PUSH2 0x3354 JUMPI PUSH2 0x3353 PUSH2 0x3286 JUMP JUMPDEST JUMPDEST POP SWAP3 SWAP2 POP POP JUMP JUMPDEST PUSH0 PUSH1 0x80 DUP3 ADD SWAP1 POP PUSH2 0x336E PUSH0 DUP4 ADD DUP8 PUSH2 0x2BFA JUMP JUMPDEST PUSH2 0x337B PUSH1 0x20 DUP4 ADD DUP7 PUSH2 0x2BFA JUMP JUMPDEST PUSH2 0x3388 PUSH1 0x40 DUP4 ADD DUP6 PUSH2 0x3008 JUMP JUMPDEST PUSH2 0x3395 PUSH1 0x60 DUP4 ADD DUP5 PUSH2 0x2EEA JUMP JUMPDEST SWAP6 SWAP5 POP POP POP POP POP JUMP JUMPDEST PUSH0 PUSH1 0x60 DUP3 ADD SWAP1 POP PUSH2 0x33B1 PUSH0 DUP4 ADD DUP7 PUSH2 0x2EEA JUMP JUMPDEST PUSH2 0x33BE PUSH1 0x20 DUP4 ADD DUP6 PUSH2 0x2BFA JUMP JUMPDEST PUSH2 0x33CB PUSH1 0x40 DUP4 ADD DUP5 PUSH2 0x2BFA JUMP JUMPDEST SWAP5 SWAP4 POP POP POP POP JUMP JUMPDEST PUSH0 PUSH2 0x33DD DUP3 PUSH2 0x2F12 JUMP JUMPDEST SWAP2 POP PUSH2 0x33E8 DUP4 PUSH2 0x2F12 JUMP JUMPDEST SWAP3 POP DUP3 DUP3 ADD SWAP1 POP PUSH8 0xFFFFFFFFFFFFFFFF DUP2 GT ISZERO PUSH2 0x3408 JUMPI PUSH2 0x3407 PUSH2 0x3286 JUMP JUMPDEST JUMPDEST SWAP3 SWAP2 POP POP JUMP JUMPDEST PUSH32 0x5661756C743A20617373657473206C6F636B6564000000000000000000000000 PUSH0 DUP3 ADD MSTORE POP JUMP JUMPDEST PUSH0 PUSH2 0x3442 PUSH1 0x14 DUP4 PUSH2 0x2C2C JUMP JUMPDEST SWAP2 POP PUSH2 0x344D DUP3 PUSH2 0x340E JUMP JUMPDEST PUSH1 0x20 DUP3 ADD SWAP1 POP SWAP2 SWAP1 POP JUMP JUMPDEST PUSH0 PUSH1 0x20 DUP3 ADD SWAP1 POP DUP2 DUP2 SUB PUSH0 DUP4 ADD MSTORE PUSH2 0x346F DUP2 PUSH2 0x3436 JUMP JUMPDEST SWAP1 POP SWAP2 SWAP1 POP JUMP JUMPDEST PUSH0 PUSH2 0x3480 DUP3 PUSH2 0x2BF1 JUMP JUMPDEST SWAP2 POP PUSH2 0x348B DUP4 PUSH2 0x2BF1 JUMP JUMPDEST SWAP3 POP DUP3 DUP3 ADD SWAP1 POP DUP1 DUP3 GT ISZERO PUSH2 0x34A3 JUMPI PUSH2 0x34A2 PUSH2 0x3286 JUMP JUMPDEST JUMPDEST SWAP3 SWAP2 POP POP JUMP JUMPDEST PUSH0 PUSH1 0x40 DUP3 ADD SWAP1 POP PUSH2 0x34BC PUSH0 DUP4 ADD DUP6 PUSH2 0x2EEA JUMP JUMPDEST PUSH2 0x34C9 PUSH1 0x20 DUP4 ADD DUP5 PUSH2 0x2BFA JUMP JUMPDEST SWAP4 SWAP3 POP POP POP JUMP JUMPDEST PUSH0 PUSH1 0x80 DUP3 ADD SWAP1 POP PUSH2 0x34E3 PUSH0 DUP4 ADD DUP8 PUSH2 0x2BFA JUMP JUMPDEST PUSH2 0x34F0 PUSH1 0x20 DUP4 ADD DUP7 PUSH2 0x2BFA JUMP JUMPDEST PUSH2 0x34FD PUSH1 0x40 DUP4 ADD DUP6 PUSH2 0x2BFA JUMP JUMPDEST PUSH2 0x350A PUSH1 0x60 DUP4 ADD DUP5 PUSH2 0x2BFA JUMP JUMPDEST SWAP6 SWAP5 POP POP POP POP POP JUMP JUMPDEST PUSH32 0x73706C69743E3130302500000000000000000000000000000000000000000000 PUSH0 DUP3 ADD MSTORE POP JUMP JUMPDEST PUSH0 PUSH2 0x3547 PUSH1 0xA DUP4 PUSH2 0x2C2C JUMP JUMPDEST SWAP2 POP PUSH2 0x3552 DUP3 PUSH2 0x3513 JUMP JUMPDEST PUSH1 0x20 DUP3 ADD SWAP1 POP SWAP2 SWAP1 POP JUMP JUMPDEST PUSH0 PUSH1 0x20 DUP3 ADD SWAP1 POP DUP2 DUP2 SUB PUSH0 DUP4 ADD MSTORE PUSH2 0x3574 DUP2 PUSH2 0x353B JUMP JUMPDEST SWAP1 POP SWAP2 SWAP1 POP JUMP JUMPDEST PUSH0 DUP2 PUSH1 0x1 SHR SWAP1 POP SWAP2 SWAP1 POP JUMP JUMPDEST PUSH0 PUSH0 DUP3 SWAP2 POP DUP4 SWAP1 POP JUMPDEST PUSH1 0x1 DUP6 GT ISZERO PUSH2 0x35D0 JUMPI DUP1 DUP7 DIV DUP2 GT ISZERO PUSH2 0x35AC JUMPI PUSH2 0x35AB PUSH2 0x3286 JUMP JUMPDEST JUMPDEST PUSH1 0x1 DUP6 AND ISZERO PUSH2 0x35BB JUMPI DUP1 DUP3 MUL SWAP2 POP JUMPDEST DUP1 DUP2 MUL SWAP1 POP PUSH2 0x35C9 DUP6 PUSH2 0x357B JUMP JUMPDEST SWAP5 POP PUSH2 0x3590 JUMP JUMPDEST SWAP5 POP SWAP5 SWAP3 POP POP POP JUMP JUMPDEST PUSH0 DUP3 PUSH2 0x35E8 JUMPI PUSH1 0x1 SWAP1 POP PUSH2 0x36A3 JUMP JUMPDEST DUP2 PUSH2 0x35F5 JUMPI PUSH0 SWAP1 POP PUSH2 0x36A3 JUMP JUMPDEST DUP2 PUSH1 0x1 DUP2 EQ PUSH2 0x360B JUMPI PUSH1 0x2 DUP2 EQ PUSH2 0x3615 JUMPI PUSH2 0x3644 JUMP JUMPDEST PUSH1 0x1 SWAP2 POP POP PUSH2 0x36A3 JUMP JUMPDEST PUSH1 0xFF DUP5 GT ISZERO PUSH2 0x3627 JUMPI PUSH2 0x3626 PUSH2 0x3286 JUMP JUMPDEST JUMPDEST DUP4 PUSH1 0x2 EXP SWAP2 POP DUP5 DUP3 GT ISZERO PUSH2 0x363E JUMPI PUSH2 0x363D PUSH2 0x3286 JUMP JUMPDEST JUMPDEST POP PUSH2 0x36A3 JUMP JUMPDEST POP PUSH1 0x20 DUP4 LT PUSH2 0x133 DUP4 LT AND PUSH1 0x4E DUP5 LT PUSH1 0xB DUP5 LT AND OR ISZERO PUSH2 0x3679 JUMPI DUP3 DUP3 EXP SWAP1 POP DUP4 DUP2 GT ISZERO PUSH2 0x3674 JUMPI PUSH2 0x3673 PUSH2 0x3286 JUMP JUMPDEST JUMPDEST PUSH2 0x36A3 JUMP JUMPDEST PUSH2 0x3686 DUP5 DUP5 DUP5 PUSH1 0x1 PUSH2 0x3587 JUMP JUMPDEST SWAP3 POP SWAP1 POP DUP2 DUP5 DIV DUP2 GT ISZERO PUSH2 0x369D JUMPI PUSH2 0x369C PUSH2 0x3286 JUMP JUMPDEST JUMPDEST DUP2 DUP2 MUL SWAP1 POP JUMPDEST SWAP4 SWAP3 POP POP POP JUMP JUMPDEST PUSH0 PUSH2 0x36B4 DUP3 PUSH2 0x2BF1 JUMP JUMPDEST SWAP2 POP PUSH2 0x36BF DUP4 PUSH2 0x2EB6 JUMP JUMPDEST SWAP3 POP PUSH2 0x36EC PUSH32 0xFFFFFFFFFFFFFFFFFFFFFFFFFFFFFFFFFFFFFFFFFFFFFFFFFFFFFFFFFFFFFFFF DUP5 DUP5 PUSH2 0x35D9 JUMP JUMPDEST SWAP1 POP SWAP3 SWAP2 POP POP JUMP JUMPDEST PUSH32 0x4E487B7100000000000000000000000000000000000000000000000000000000 PUSH0 MSTORE PUSH1 0x12 PUSH1 0x4 MSTORE PUSH1 0x24 PUSH0 REVERT JUMPDEST PUSH32 0x4E487B7100000000000000000000000000000000000000000000000000000000 PUSH0 MSTORE PUSH1 0x21 PUSH1 0x4 MSTORE PUSH1 0x24 PUSH0 REVERT JUMPDEST PUSH0 PUSH2 0x3758 DUP3 PUSH2 0x2EB6 JUMP JUMPDEST SWAP2 POP PUSH2 0x3763 DUP4 PUSH2 0x2EB6 JUMP JUMPDEST SWAP3 POP DUP3 PUSH2 0x3773 JUMPI PUSH2 0x3772 PUSH2 0x36F4 JUMP JUMPDEST JUMPDEST DUP3 DUP3 MOD SWAP1 POP SWAP3 SWAP2 POP POP JUMP INVALID LOG2 PUSH5 0x6970667358 0x22 SLT KECCAK256 CALLCODE CALLDATACOPY CREATE2 DUP15 0xA6 DUP2 CODECOPY EXTDELEGATECALL TIMESTAMP DUP8 0xC1 SELFDESTRUCT 0x4C PUSH4 0x40F043E7 PUSH7 0x75C3561CDE0E3C 0xAA PUSH17 0xF47F5BC964736F6C634300081E00330000 "
		},
		"gasEstimates": {
			"creation": {
				"codeDepositCost": "2852000",
				"executionCost": "infinite",
				"totalCost": "infinite"
			},
			"external": {
				"allowance(address,address)": "infinite",
				"annualRateBps()": "2470",
				"approve(address,uint256)": "infinite",
				"asset()": "infinite",
				"balanceOf(address)": "2895",
				"convertToAssets(uint256)": "infinite",
				"convertToShares(uint256)": "infinite",
				"decimals()": "infinite",
				"deposit(uint256,address)": "infinite",
				"depositLocked(uint256,address,uint64)": "infinite",
				"donationSink()": "2598",
				"donationSplitBps()": "2580",
				"estimateDonationSplit(uint256,uint256)": "infinite",
				"estimateYield(uint256,uint256)": "infinite",
				"extendLock(uint64)": "infinite",
				"lockExpiry(address)": "2988",
				"maxDeposit(address)": "709",
				"maxLockDuration()": "2533",
				"maxMint(address)": "752",
				"maxRedeem(address)": "2914",
				"maxWithdraw(address)": "infinite",
				"mint(uint256,address)": "infinite",
				"mintLocked(uint256,address,uint64)": "infinite",
				"name()": "infinite",
				"owner()": "2561",
				"previewDeposit(uint256)": "infinite",
				"previewMint(uint256)": "infinite",
				"previewRedeem(uint256)": "infinite",
				"previewWithdraw(uint256)": "infinite",
				"redeem(uint256,address,address)": "infinite",
				"renounceOwnership()": "infinite",
				"rewardToken()": "infinite",
				"setAnnualRateBps(uint256)": "infinite",
				"setDonationSink(address)": "infinite",
				"setDonationSplitBps(uint256)": "infinite",
				"setMaxLockDuration(uint64)": "infinite",
				"setRewardToken(address,bool)": "infinite",
				"showcaseBalances(address)": "2892",
				"showcaseModeEnabled()": "2651",
				"simulateAndCreditShowcase(address,uint256,uint256)": "infinite",
				"symbol()": "infinite",
				"totalAssets()": "infinite",
				"totalSupply()": "2478",
				"transfer(address,uint256)": "infinite",
				"transferFrom(address,address,uint256)": "infinite",
				"transferOwnership(address)": "infinite",
				"withdraw(uint256,address,address)": "infinite"
			},
			"internal": {
				"_applyOrExtendLock(address,uint64)": "infinite"
			}
		},
		"methodIdentifiers": {
			"allowance(address,address)": "dd62ed3e",
			"annualRateBps()": "987f23dd",
			"approve(address,uint256)": "095ea7b3",
			"asset()": "38d52e0f",
			"balanceOf(address)": "70a08231",
			"convertToAssets(uint256)": "07a2d13a",
			"convertToShares(uint256)": "c6e6f592",
			"decimals()": "313ce567",
			"deposit(uint256,address)": "6e553f65",
			"depositLocked(uint256,address,uint64)": "98151e14",
			"donationSink()": "91a46d6c",
			"donationSplitBps()": "b657b1cb",
			"estimateDonationSplit(uint256,uint256)": "1bf9233e",
			"estimateYield(uint256,uint256)": "3f775726",
			"extendLock(uint64)": "859e6d6a",
			"lockExpiry(address)": "89cde9dd",
			"maxDeposit(address)": "402d267d",
			"maxLockDuration()": "a16cdbb1",
			"maxMint(address)": "c63d75b6",
			"maxRedeem(address)": "d905777e",
			"maxWithdraw(address)": "ce96cb77",
			"mint(uint256,address)": "94bf804d",
			"mintLocked(uint256,address,uint64)": "5f434454",
			"name()": "06fdde03",
			"owner()": "8da5cb5b",
			"previewDeposit(uint256)": "ef8b30f7",
			"previewMint(uint256)": "b3d7f6b9",
			"previewRedeem(uint256)": "4cdad506",
			"previewWithdraw(uint256)": "0a28a477",
			"redeem(uint256,address,address)": "ba087652",
			"renounceOwnership()": "715018a6",
			"rewardToken()": "f7c618c1",
			"setAnnualRateBps(uint256)": "915231e9",
			"setDonationSink(address)": "471003bd",
			"setDonationSplitBps(uint256)": "c138f007",
			"setMaxLockDuration(uint64)": "75a6f0eb",
			"setRewardToken(address,bool)": "fb66fb4d",
			"showcaseBalances(address)": "21f3a87c",
			"showcaseModeEnabled()": "5867dbe5",
			"simulateAndCreditShowcase(address,uint256,uint256)": "bc936d3f",
			"symbol()": "95d89b41",
			"totalAssets()": "01e1d114",
			"totalSupply()": "18160ddd",
			"transfer(address,uint256)": "a9059cbb",
			"transferFrom(address,address,uint256)": "23b872dd",
			"transferOwnership(address)": "f2fde38b",
			"withdraw(uint256,address,address)": "b460af94"
		}
	},
	"abi": [
		{
			"inputs": [
				{
					"internalType": "contract IERC20",
					"name": "asset_",
					"type": "address"
				},
				{
					"internalType": "string",
					"name": "name_",
					"type": "string"
				},
				{
					"internalType": "string",
					"name": "symbol_",
					"type": "string"
				},
				{
					"internalType": "address",
					"name": "initialOwner",
					"type": "address"
				},
				{
					"internalType": "uint256",
					"name": "initialAnnualRateBps",
					"type": "uint256"
				},
				{
					"internalType": "uint256",
					"name": "initialDonationSplitBps",
					"type": "uint256"
				},
				{
					"internalType": "uint64",
					"name": "initialMaxLockDuration",
					"type": "uint64"
				},
				{
					"internalType": "address",
					"name": "donationSink_",
					"type": "address"
				}
			],
			"stateMutability": "nonpayable",
			"type": "constructor"
		},
		{
			"inputs": [
				{
					"internalType": "address",
					"name": "spender",
					"type": "address"
				},
				{
					"internalType": "uint256",
					"name": "allowance",
					"type": "uint256"
				},
				{
					"internalType": "uint256",
					"name": "needed",
					"type": "uint256"
				}
			],
			"name": "ERC20InsufficientAllowance",
			"type": "error"
		},
		{
			"inputs": [
				{
					"internalType": "address",
					"name": "sender",
					"type": "address"
				},
				{
					"internalType": "uint256",
					"name": "balance",
					"type": "uint256"
				},
				{
					"internalType": "uint256",
					"name": "needed",
					"type": "uint256"
				}
			],
			"name": "ERC20InsufficientBalance",
			"type": "error"
		},
		{
			"inputs": [
				{
					"internalType": "address",
					"name": "approver",
					"type": "address"
				}
			],
			"name": "ERC20InvalidApprover",
			"type": "error"
		},
		{
			"inputs": [
				{
					"internalType": "address",
					"name": "receiver",
					"type": "address"
				}
			],
			"name": "ERC20InvalidReceiver",
			"type": "error"
		},
		{
			"inputs": [
				{
					"internalType": "address",
					"name": "sender",
					"type": "address"
				}
			],
			"name": "ERC20InvalidSender",
			"type": "error"
		},
		{
			"inputs": [
				{
					"internalType": "address",
					"name": "spender",
					"type": "address"
				}
			],
			"name": "ERC20InvalidSpender",
			"type": "error"
		},
		{
			"inputs": [
				{
					"internalType": "address",
					"name": "receiver",
					"type": "address"
				},
				{
					"internalType": "uint256",
					"name": "assets",
					"type": "uint256"
				},
				{
					"internalType": "uint256",
					"name": "max",
					"type": "uint256"
				}
			],
			"name": "ERC4626ExceededMaxDeposit",
			"type": "error"
		},
		{
			"inputs": [
				{
					"internalType": "address",
					"name": "receiver",
					"type": "address"
				},
				{
					"internalType": "uint256",
					"name": "shares",
					"type": "uint256"
				},
				{
					"internalType": "uint256",
					"name": "max",
					"type": "uint256"
				}
			],
			"name": "ERC4626ExceededMaxMint",
			"type": "error"
		},
		{
			"inputs": [
				{
					"internalType": "address",
					"name": "owner",
					"type": "address"
				},
				{
					"internalType": "uint256",
					"name": "shares",
					"type": "uint256"
				},
				{
					"internalType": "uint256",
					"name": "max",
					"type": "uint256"
				}
			],
			"name": "ERC4626ExceededMaxRedeem",
			"type": "error"
		},
		{
			"inputs": [
				{
					"internalType": "address",
					"name": "owner",
					"type": "address"
				},
				{
					"internalType": "uint256",
					"name": "assets",
					"type": "uint256"
				},
				{
					"internalType": "uint256",
					"name": "max",
					"type": "uint256"
				}
			],
			"name": "ERC4626ExceededMaxWithdraw",
			"type": "error"
		},
		{
			"inputs": [
				{
					"internalType": "address",
					"name": "owner",
					"type": "address"
				}
			],
			"name": "OwnableInvalidOwner",
			"type": "error"
		},
		{
			"inputs": [
				{
					"internalType": "address",
					"name": "account",
					"type": "address"
				}
			],
			"name": "OwnableUnauthorizedAccount",
			"type": "error"
		},
		{
			"inputs": [],
			"name": "ReentrancyGuardReentrantCall",
			"type": "error"
		},
		{
			"inputs": [
				{
					"internalType": "address",
					"name": "token",
					"type": "address"
				}
			],
			"name": "SafeERC20FailedOperation",
			"type": "error"
		},
		{
			"anonymous": false,
			"inputs": [
				{
					"indexed": true,
					"internalType": "address",
					"name": "owner",
					"type": "address"
				},
				{
					"indexed": true,
					"internalType": "address",
					"name": "spender",
					"type": "address"
				},
				{
					"indexed": false,
					"internalType": "uint256",
					"name": "value",
					"type": "uint256"
				}
			],
			"name": "Approval",
			"type": "event"
		},
		{
			"anonymous": false,
			"inputs": [
				{
					"indexed": false,
					"internalType": "uint256",
					"name": "annualRateBps",
					"type": "uint256"
				},
				{
					"indexed": false,
					"internalType": "uint256",
					"name": "donationSplitBps",
					"type": "uint256"
				},
				{
					"indexed": false,
					"internalType": "uint64",
					"name": "maxLockDuration",
					"type": "uint64"
				},
				{
					"indexed": false,
					"internalType": "address",
					"name": "donationSink",
					"type": "address"
				}
			],
			"name": "ConfigUpdated",
			"type": "event"
		},
		{
			"anonymous": false,
			"inputs": [
				{
					"indexed": true,
					"internalType": "address",
					"name": "sender",
					"type": "address"
				},
				{
					"indexed": true,
					"internalType": "address",
					"name": "owner",
					"type": "address"
				},
				{
					"indexed": false,
					"internalType": "uint256",
					"name": "assets",
					"type": "uint256"
				},
				{
					"indexed": false,
					"internalType": "uint256",
					"name": "shares",
					"type": "uint256"
				}
			],
			"name": "Deposit",
			"type": "event"
		},
		{
			"anonymous": false,
			"inputs": [
				{
					"indexed": true,
					"internalType": "address",
					"name": "user",
					"type": "address"
				},
				{
					"indexed": false,
					"internalType": "uint64",
					"name": "newUnlockTimestamp",
					"type": "uint64"
				}
			],
			"name": "LockExtended",
			"type": "event"
		},
		{
			"anonymous": false,
			"inputs": [
				{
					"indexed": true,
					"internalType": "address",
					"name": "user",
					"type": "address"
				},
				{
					"indexed": false,
					"internalType": "uint64",
					"name": "unlockTimestamp",
					"type": "uint64"
				}
			],
			"name": "Locked",
			"type": "event"
		},
		{
			"anonymous": false,
			"inputs": [
				{
					"indexed": true,
					"internalType": "address",
					"name": "previousOwner",
					"type": "address"
				},
				{
					"indexed": true,
					"internalType": "address",
					"name": "newOwner",
					"type": "address"
				}
			],
			"name": "OwnershipTransferred",
			"type": "event"
		},
		{
			"anonymous": false,
			"inputs": [
				{
					"indexed": true,
					"internalType": "address",
					"name": "rewardToken",
					"type": "address"
				},
				{
					"indexed": false,
					"internalType": "bool",
					"name": "showcaseModeEnabled",
					"type": "bool"
				}
			],
			"name": "RewardTokenSet",
			"type": "event"
		},
		{
			"anonymous": false,
			"inputs": [
				{
					"indexed": true,
					"internalType": "address",
					"name": "user",
					"type": "address"
				},
				{
					"indexed": false,
					"internalType": "uint256",
					"name": "assets",
					"type": "uint256"
				},
				{
					"indexed": false,
					"internalType": "uint256",
					"name": "durationSeconds",
					"type": "uint256"
				},
				{
					"indexed": false,
					"internalType": "uint256",
					"name": "donationAmount",
					"type": "uint256"
				},
				{
					"indexed": false,
					"internalType": "uint256",
					"name": "userCredited",
					"type": "uint256"
				}
			],
			"name": "ShowcaseSimulated",
			"type": "event"
		},
		{
			"anonymous": false,
			"inputs": [
				{
					"indexed": true,
					"internalType": "address",
					"name": "from",
					"type": "address"
				},
				{
					"indexed": true,
					"internalType": "address",
					"name": "to",
					"type": "address"
				},
				{
					"indexed": false,
					"internalType": "uint256",
					"name": "value",
					"type": "uint256"
				}
			],
			"name": "Transfer",
			"type": "event"
		},
		{
			"anonymous": false,
			"inputs": [
				{
					"indexed": true,
					"internalType": "address",
					"name": "sender",
					"type": "address"
				},
				{
					"indexed": true,
					"internalType": "address",
					"name": "receiver",
					"type": "address"
				},
				{
					"indexed": true,
					"internalType": "address",
					"name": "owner",
					"type": "address"
				},
				{
					"indexed": false,
					"internalType": "uint256",
					"name": "assets",
					"type": "uint256"
				},
				{
					"indexed": false,
					"internalType": "uint256",
					"name": "shares",
					"type": "uint256"
				}
			],
			"name": "Withdraw",
			"type": "event"
		},
		{
			"inputs": [
				{
					"internalType": "address",
					"name": "owner",
					"type": "address"
				},
				{
					"internalType": "address",
					"name": "spender",
					"type": "address"
				}
			],
			"name": "allowance",
			"outputs": [
				{
					"internalType": "uint256",
					"name": "",
					"type": "uint256"
				}
			],
			"stateMutability": "view",
			"type": "function"
		},
		{
			"inputs": [],
			"name": "annualRateBps",
			"outputs": [
				{
					"internalType": "uint256",
					"name": "",
					"type": "uint256"
				}
			],
			"stateMutability": "view",
			"type": "function"
		},
		{
			"inputs": [
				{
					"internalType": "address",
					"name": "spender",
					"type": "address"
				},
				{
					"internalType": "uint256",
					"name": "value",
					"type": "uint256"
				}
			],
			"name": "approve",
			"outputs": [
				{
					"internalType": "bool",
					"name": "",
					"type": "bool"
				}
			],
			"stateMutability": "nonpayable",
			"type": "function"
		},
		{
			"inputs": [],
			"name": "asset",
			"outputs": [
				{
					"internalType": "address",
					"name": "",
					"type": "address"
				}
			],
			"stateMutability": "view",
			"type": "function"
		},
		{
			"inputs": [
				{
					"internalType": "address",
					"name": "account",
					"type": "address"
				}
			],
			"name": "balanceOf",
			"outputs": [
				{
					"internalType": "uint256",
					"name": "",
					"type": "uint256"
				}
			],
			"stateMutability": "view",
			"type": "function"
		},
		{
			"inputs": [
				{
					"internalType": "uint256",
					"name": "shares",
					"type": "uint256"
				}
			],
			"name": "convertToAssets",
			"outputs": [
				{
					"internalType": "uint256",
					"name": "",
					"type": "uint256"
				}
			],
			"stateMutability": "view",
			"type": "function"
		},
		{
			"inputs": [
				{
					"internalType": "uint256",
					"name": "assets",
					"type": "uint256"
				}
			],
			"name": "convertToShares",
			"outputs": [
				{
					"internalType": "uint256",
					"name": "",
					"type": "uint256"
				}
			],
			"stateMutability": "view",
			"type": "function"
		},
		{
			"inputs": [],
			"name": "decimals",
			"outputs": [
				{
					"internalType": "uint8",
					"name": "",
					"type": "uint8"
				}
			],
			"stateMutability": "view",
			"type": "function"
		},
		{
			"inputs": [
				{
					"internalType": "uint256",
					"name": "assets",
					"type": "uint256"
				},
				{
					"internalType": "address",
					"name": "receiver",
					"type": "address"
				}
			],
			"name": "deposit",
			"outputs": [
				{
					"internalType": "uint256",
					"name": "",
					"type": "uint256"
				}
			],
			"stateMutability": "nonpayable",
			"type": "function"
		},
		{
			"inputs": [
				{
					"internalType": "uint256",
					"name": "assets",
					"type": "uint256"
				},
				{
					"internalType": "address",
					"name": "receiver",
					"type": "address"
				},
				{
					"internalType": "uint64",
					"name": "lockDuration",
					"type": "uint64"
				}
			],
			"name": "depositLocked",
			"outputs": [
				{
					"internalType": "uint256",
					"name": "shares",
					"type": "uint256"
				}
			],
			"stateMutability": "nonpayable",
			"type": "function"
		},
		{
			"inputs": [],
			"name": "donationSink",
			"outputs": [
				{
					"internalType": "address",
					"name": "",
					"type": "address"
				}
			],
			"stateMutability": "view",
			"type": "function"
		},
		{
			"inputs": [],
			"name": "donationSplitBps",
			"outputs": [
				{
					"internalType": "uint256",
					"name": "",
					"type": "uint256"
				}
			],
			"stateMutability": "view",
			"type": "function"
		},
		{
			"inputs": [
				{
					"internalType": "uint256",
					"name": "assets",
					"type": "uint256"
				},
				{
					"internalType": "uint256",
					"name": "durationSeconds",
					"type": "uint256"
				}
			],
			"name": "estimateDonationSplit",
			"outputs": [
				{
					"internalType": "uint256",
					"name": "donationAmount",
					"type": "uint256"
				},
				{
					"internalType": "uint256",
					"name": "userAmount",
					"type": "uint256"
				}
			],
			"stateMutability": "view",
			"type": "function"
		},
		{
			"inputs": [
				{
					"internalType": "uint256",
					"name": "assets",
					"type": "uint256"
				},
				{
					"internalType": "uint256",
					"name": "durationSeconds",
					"type": "uint256"
				}
			],
			"name": "estimateYield",
			"outputs": [
				{
					"internalType": "uint256",
					"name": "totalYield",
					"type": "uint256"
				}
			],
			"stateMutability": "view",
			"type": "function"
		},
		{
			"inputs": [
				{
					"internalType": "uint64",
					"name": "additionalSeconds",
					"type": "uint64"
				}
			],
			"name": "extendLock",
			"outputs": [],
			"stateMutability": "nonpayable",
			"type": "function"
		},
		{
			"inputs": [
				{
					"internalType": "address",
					"name": "",
					"type": "address"
				}
			],
			"name": "lockExpiry",
			"outputs": [
				{
					"internalType": "uint64",
					"name": "",
					"type": "uint64"
				}
			],
			"stateMutability": "view",
			"type": "function"
		},
		{
			"inputs": [
				{
					"internalType": "address",
					"name": "",
					"type": "address"
				}
			],
			"name": "maxDeposit",
			"outputs": [
				{
					"internalType": "uint256",
					"name": "",
					"type": "uint256"
				}
			],
			"stateMutability": "view",
			"type": "function"
		},
		{
			"inputs": [],
			"name": "maxLockDuration",
			"outputs": [
				{
					"internalType": "uint64",
					"name": "",
					"type": "uint64"
				}
			],
			"stateMutability": "view",
			"type": "function"
		},
		{
			"inputs": [
				{
					"internalType": "address",
					"name": "",
					"type": "address"
				}
			],
			"name": "maxMint",
			"outputs": [
				{
					"internalType": "uint256",
					"name": "",
					"type": "uint256"
				}
			],
			"stateMutability": "view",
			"type": "function"
		},
		{
			"inputs": [
				{
					"internalType": "address",
					"name": "owner",
					"type": "address"
				}
			],
			"name": "maxRedeem",
			"outputs": [
				{
					"internalType": "uint256",
					"name": "",
					"type": "uint256"
				}
			],
			"stateMutability": "view",
			"type": "function"
		},
		{
			"inputs": [
				{
					"internalType": "address",
					"name": "owner",
					"type": "address"
				}
			],
			"name": "maxWithdraw",
			"outputs": [
				{
					"internalType": "uint256",
					"name": "",
					"type": "uint256"
				}
			],
			"stateMutability": "view",
			"type": "function"
		},
		{
			"inputs": [
				{
					"internalType": "uint256",
					"name": "shares",
					"type": "uint256"
				},
				{
					"internalType": "address",
					"name": "receiver",
					"type": "address"
				}
			],
			"name": "mint",
			"outputs": [
				{
					"internalType": "uint256",
					"name": "",
					"type": "uint256"
				}
			],
			"stateMutability": "nonpayable",
			"type": "function"
		},
		{
			"inputs": [
				{
					"internalType": "uint256",
					"name": "shares",
					"type": "uint256"
				},
				{
					"internalType": "address",
					"name": "receiver",
					"type": "address"
				},
				{
					"internalType": "uint64",
					"name": "lockDuration",
					"type": "uint64"
				}
			],
			"name": "mintLocked",
			"outputs": [
				{
					"internalType": "uint256",
					"name": "assets",
					"type": "uint256"
				}
			],
			"stateMutability": "nonpayable",
			"type": "function"
		},
		{
			"inputs": [],
			"name": "name",
			"outputs": [
				{
					"internalType": "string",
					"name": "",
					"type": "string"
				}
			],
			"stateMutability": "view",
			"type": "function"
		},
		{
			"inputs": [],
			"name": "owner",
			"outputs": [
				{
					"internalType": "address",
					"name": "",
					"type": "address"
				}
			],
			"stateMutability": "view",
			"type": "function"
		},
		{
			"inputs": [
				{
					"internalType": "uint256",
					"name": "assets",
					"type": "uint256"
				}
			],
			"name": "previewDeposit",
			"outputs": [
				{
					"internalType": "uint256",
					"name": "",
					"type": "uint256"
				}
			],
			"stateMutability": "view",
			"type": "function"
		},
		{
			"inputs": [
				{
					"internalType": "uint256",
					"name": "shares",
					"type": "uint256"
				}
			],
			"name": "previewMint",
			"outputs": [
				{
					"internalType": "uint256",
					"name": "",
					"type": "uint256"
				}
			],
			"stateMutability": "view",
			"type": "function"
		},
		{
			"inputs": [
				{
					"internalType": "uint256",
					"name": "shares",
					"type": "uint256"
				}
			],
			"name": "previewRedeem",
			"outputs": [
				{
					"internalType": "uint256",
					"name": "",
					"type": "uint256"
				}
			],
			"stateMutability": "view",
			"type": "function"
		},
		{
			"inputs": [
				{
					"internalType": "uint256",
					"name": "assets",
					"type": "uint256"
				}
			],
			"name": "previewWithdraw",
			"outputs": [
				{
					"internalType": "uint256",
					"name": "",
					"type": "uint256"
				}
			],
			"stateMutability": "view",
			"type": "function"
		},
		{
			"inputs": [
				{
					"internalType": "uint256",
					"name": "shares",
					"type": "uint256"
				},
				{
					"internalType": "address",
					"name": "receiver",
					"type": "address"
				},
				{
					"internalType": "address",
					"name": "owner",
					"type": "address"
				}
			],
			"name": "redeem",
			"outputs": [
				{
					"internalType": "uint256",
					"name": "assets",
					"type": "uint256"
				}
			],
			"stateMutability": "nonpayable",
			"type": "function"
		},
		{
			"inputs": [],
			"name": "renounceOwnership",
			"outputs": [],
			"stateMutability": "nonpayable",
			"type": "function"
		},
		{
			"inputs": [],
			"name": "rewardToken",
			"outputs": [
				{
					"internalType": "contract EduRewardToken",
					"name": "",
					"type": "address"
				}
			],
			"stateMutability": "view",
			"type": "function"
		},
		{
			"inputs": [
				{
					"internalType": "uint256",
					"name": "newAnnualRateBps",
					"type": "uint256"
				}
			],
			"name": "setAnnualRateBps",
			"outputs": [],
			"stateMutability": "nonpayable",
			"type": "function"
		},
		{
			"inputs": [
				{
					"internalType": "address",
					"name": "newSink",
					"type": "address"
				}
			],
			"name": "setDonationSink",
			"outputs": [],
			"stateMutability": "nonpayable",
			"type": "function"
		},
		{
			"inputs": [
				{
					"internalType": "uint256",
					"name": "newSplitBps",
					"type": "uint256"
				}
			],
			"name": "setDonationSplitBps",
			"outputs": [],
			"stateMutability": "nonpayable",
			"type": "function"
		},
		{
			"inputs": [
				{
					"internalType": "uint64",
					"name": "newMax",
					"type": "uint64"
				}
			],
			"name": "setMaxLockDuration",
			"outputs": [],
			"stateMutability": "nonpayable",
			"type": "function"
		},
		{
			"inputs": [
				{
					"internalType": "address",
					"name": "token",
					"type": "address"
				},
				{
					"internalType": "bool",
					"name": "enabled",
					"type": "bool"
				}
			],
			"name": "setRewardToken",
			"outputs": [],
			"stateMutability": "nonpayable",
			"type": "function"
		},
		{
			"inputs": [
				{
					"internalType": "address",
					"name": "",
					"type": "address"
				}
			],
			"name": "showcaseBalances",
			"outputs": [
				{
					"internalType": "uint256",
					"name": "",
					"type": "uint256"
				}
			],
			"stateMutability": "view",
			"type": "function"
		},
		{
			"inputs": [],
			"name": "showcaseModeEnabled",
			"outputs": [
				{
					"internalType": "bool",
					"name": "",
					"type": "bool"
				}
			],
			"stateMutability": "view",
			"type": "function"
		},
		{
			"inputs": [
				{
					"internalType": "address",
					"name": "to",
					"type": "address"
				},
				{
					"internalType": "uint256",
					"name": "assets",
					"type": "uint256"
				},
				{
					"internalType": "uint256",
					"name": "durationSeconds",
					"type": "uint256"
				}
			],
			"name": "simulateAndCreditShowcase",
			"outputs": [
				{
					"internalType": "uint256",
					"name": "donationAmount",
					"type": "uint256"
				},
				{
					"internalType": "uint256",
					"name": "userCredited",
					"type": "uint256"
				}
			],
			"stateMutability": "nonpayable",
			"type": "function"
		},
		{
			"inputs": [],
			"name": "symbol",
			"outputs": [
				{
					"internalType": "string",
					"name": "",
					"type": "string"
				}
			],
			"stateMutability": "view",
			"type": "function"
		},
		{
			"inputs": [],
			"name": "totalAssets",
			"outputs": [
				{
					"internalType": "uint256",
					"name": "",
					"type": "uint256"
				}
			],
			"stateMutability": "view",
			"type": "function"
		},
		{
			"inputs": [],
			"name": "totalSupply",
			"outputs": [
				{
					"internalType": "uint256",
					"name": "",
					"type": "uint256"
				}
			],
			"stateMutability": "view",
			"type": "function"
		},
		{
			"inputs": [
				{
					"internalType": "address",
					"name": "to",
					"type": "address"
				},
				{
					"internalType": "uint256",
					"name": "value",
					"type": "uint256"
				}
			],
			"name": "transfer",
			"outputs": [
				{
					"internalType": "bool",
					"name": "",
					"type": "bool"
				}
			],
			"stateMutability": "nonpayable",
			"type": "function"
		},
		{
			"inputs": [
				{
					"internalType": "address",
					"name": "from",
					"type": "address"
				},
				{
					"internalType": "address",
					"name": "to",
					"type": "address"
				},
				{
					"internalType": "uint256",
					"name": "value",
					"type": "uint256"
				}
			],
			"name": "transferFrom",
			"outputs": [
				{
					"internalType": "bool",
					"name": "",
					"type": "bool"
				}
			],
			"stateMutability": "nonpayable",
			"type": "function"
		},
		{
			"inputs": [
				{
					"internalType": "address",
					"name": "newOwner",
					"type": "address"
				}
			],
			"name": "transferOwnership",
			"outputs": [],
			"stateMutability": "nonpayable",
			"type": "function"
		},
		{
			"inputs": [
				{
					"internalType": "uint256",
					"name": "assets",
					"type": "uint256"
				},
				{
					"internalType": "address",
					"name": "receiver",
					"type": "address"
				},
				{
					"internalType": "address",
					"name": "owner",
					"type": "address"
				}
			],
			"name": "withdraw",
			"outputs": [
				{
					"internalType": "uint256",
					"name": "shares",
					"type": "uint256"
				}
			],
			"stateMutability": "nonpayable",
			"type": "function"
		}
	]
}